:020000040800F2
:10000000E80C0020A5020008D59C0008398D0008E6
:10001000299C000899070008B9B7000800000000F3
:10002000000000000000000000000000E59D000846
:10003000ED08000800000000459D00087D9F0008B5
:10004000BF020008BF020008BF020008BF0200088C
:10005000BF020008BF020008BF020008BF0200087C
:10006000BF020008BF020008BF020008AD07000879
:10007000BD070008BF020008BF020008BF02000859
:10008000BF02000800000000A9050008BF02000828
:10009000BF0200081D090008BF020008BF020008D7
:1000A00011A0000831A00008BF02000821A000082C
:1000B000BF020008BF02000841A00008BF020008FC
:1000C000BF020008BF020008BF020008BF0200080C
:1000D000BF020008BF020008BF020008A9B700085D
:1000E000F1080008BF020008BF020008BF020008B4
:1000F000BF020008BF020008BF02000800000000A5
:1001000000000000BF02000800000000BF0200085D
:10011000BF02000800000000BF020008BF02000884
:10012000BF020008BF020008BF020008BF020008AB
:10013000BF0200080000000000000000BF0200082D
:100140009D070008BF02000800000000000000003A
:10015000000000000000000000000000000000009F
:10016000000000000000000000000000BF020008C6
:10017000BF020008000000000000000000000000B6
:1001800000000000BF0200080000000000000000A6
:10019000000000000000000000000000000000005F
:1001A0000000000000000000BF020008BF020008BD
:1001B000BF020008BF020008BF02000800000000E4
:1001C00000000000BF020008000000000000000066
:1001D000BF020008BF02000800F002F800F052F869
:1001E00014A696E8000CB244B344DA4501D100F0FD
:1001F00049F8BAE80F000FA696E83000A5EB040511
:1002000004EB0607AAEB0704A7F101074FEA15154F
:100210004FEA3414A4F10104AC4201D300F032F8E7
:1002200013F0010F18BFFB1A43F0010300F001F8AF
:10023000DBE71847E4C2000004C30000103A24BF03
:1002400078C878C1FAD8520724BF30C830C144BF3B
:1002500004680C6070470000704700000023002411
:1002600000250026103A28BF78C1FBD8520728BFC6
:1002700030C148BF0B6070471FB50CF003F91FBDBC
:1002800010B510BD00F05AF91146FFF7F5FF0BF05D
:10029000F5FA00F078F903B4FFF7F2FF03BC00F0C1
:1002A0007BF900000948804709480047FEE7FEE760
:1002B000FEE7FEE7FEE7FEE7FEE7FEE7FEE7FEE716
:1002C00004480549054A064B70470000FD9F000899
:1002D000D9010008E8060020E80C0020E80800200A
:1002E000E808002053EA020C00F069802DE9F04B89
:1002F0004FF00006002B1FBFB3FA83F503FA05F495
:1003000024FA05F65E4012BF1643B2FA82F502FAED
:1003100005F4C5F120051EBF22FA05FC44EA0C04D1
:10032000203556EA044C4FEA144418BF641C4FF0C1
:1003300000084FF00009904271EB030C39D30029FB
:1003400019BFB1FA81F701FA07F6B0FA80F700FA9F
:1003500007F6C7F120071EBF20FA07FC46EA0C0685
:100360002037B6FBF4FCA7EB0507103F07F01F0B87
:10037000CBF120062CFA06F60CFA0BFB44BFB34671
:100380000026202FA4BF5E464FF0000B5BEA060C50
:1003900008BF4FF0010B19EB0B0948EB0608ABFB4C
:1003A000027C06FB02CC0BFB03CCC01B71EB0C01E7
:1003B000C1E70B46024641464846BDE8F08B13B5FF
:1003C000084318BF4FF0FF300146AFF30080BDE88F
:1003D0001C407047032A40F2308010F0030C00F0FC
:1003E000158011F8013BBCF1020F624498BF11F86F
:1003F00001CB00F8013B38BF11F8013BA2F1040228
:1004000098BF00F801CB38BF00F8013B11F003039F
:1004100000F05A80083AC0F0088051F8043B083ACE
:1004200051F804CBA0E80810F5E7121D5CBF51F8A5
:10043000043B40F8043BAFF30080D20724BF11F81F
:10044000013B11F801CB48BF11F8012B24BF00F884
:10045000013B00F801CB48BF00F8012B70474FF07B
:10046000000200B5134694469646203922BFA0E804
:100470000C50A0E80C50B1F12001BFF4F7AF090710
:1004800028BFA0E80C5048BF0CC05DF804EB890001
:1004900028BF40F8042B08BF704748BF20F8022B44
:1004A00011F0804F18BF00F8012B7047704770475C
:1004B000704710B500F03AF8006810BD10B504465A
:1004C00000F034F8046010BD10B5203AC0F00B8085
:1004D000B1E81850A0E81850B1E81850A0E818503A
:1004E000203ABFF4F5AF5FEA027C24BFB1E81850B0
:1004F000A0E8185044BF18C918C0BDE810405FEA12
:10050000827C24BF51F8043B40F8043B08BF70478D
:10051000D20728BF31F8023B48BF11F8012B28BF92
:1005200020F8023B48BF00F8012B70470048704795
:100530003800002000487047380000207546FFF75B
:10054000F9FFAE4605006946534620F00700854690
:1005500018B020B5FFF7B4FEBDE820404FF000060C
:100560004FF000074FF000084FF0000BAC46ACE82E
:10057000C009ACE8C009ACE8C009ACE8C00921F08A
:1005800007018D46704710B50446AFF30080204642
:10059000BDE81040FFF77FBE01491820ABBEFEE763
:1005A000260002007047000080B540F25020C2F2E1
:1005B000000002F03BFC40F2BC20C2F2000002F05E
:1005C00035FC80BD80B584B002900298006808F0C8
:1005D00077FC00900298006808F07AFC00284BD065
:1005E000FFE70098002847D1FFE70298006880687D
:1005F00000F00D00012809D1FFE70298006808F01B
:100600009DFB02980168032008600DE00299C86D07
:1006100040F01000C8650299086E40F001000866BD
:1006200001208DF80F002BE004F08AFE0190FFE717
:10063000029800688068C007E8B1FFE704F080FE18
:100640000199401A032815D3FFE7029800688068D3
:10065000C00770B1FFE70299C86D40F01000C8658F
:100660000299086E40F00100086601208DF80F0025
:1006700006E0FFE7DCE7FFE700208DF80F00FFE76B
:100680009DF80F0004B080BD80B584B002900020BA
:1006900000900298006808F01BFC002874D1FFE766
:1006A0000298006880683F21C8F2000108420ED01D
:1006B000FFE70299C86D40F01000C8650299086E06
:1006C00040F00100086601208DF80F0060E00298FC
:1006D000006808F04DFB40F20030C5F2000008F061
:1006E00065FB000200281CD5FFE740F20000C2F2C3
:1006F00000000068800942F66351C0F23E51A0FB41
:100700000110800900EB40010C2000EB81000090FB
:10071000FFE7009820B1FFE7009801380090F8E764
:10072000FFE704F00DFE0190FFE702980068006803
:10073000C00740BBFFE70298006808F0C9FB28B972
:10074000FFE70298006808F013FBFFE704F0F8FDEC
:100750000199401A032815D3FFE702980068006842
:10076000C00770B9FFE70299C86D40F01000C86576
:100770000299086E40F00100086601208DF80F0014
:1007800006E0FFE7D1E7FFE700208DF80F00FFE765
:100790009DF80F0004B080BDFFE7FEE780B540F292
:1007A0002830C2F2000003F0E7F880BD80B540F2C7
:1007B000D430C2F2000003F047FD80BD80B540F2A6
:1007C0007430C2F2000003F03FFD80BD84B003909E
:1007D0000398006840F20741C4F20201884206D83B
:1007E000FFE740F60000C4F20200009005E040F68A
:1007F0002000C4F202000090FFE7009802900398E6
:10080000007808384CF6CD41CCF6CC41A0FB011065
:1008100000090190029803994A6C22F003021044E7
:100820008864039940F68000C4F20200C86401980D
:1008300000F01F01012088400399086504B070474B
:1008400082B00190019800790090009940F6FC0078
:10085000C4F2020000EB810001994865019940F65D
:100860004010C4F2020088650098013800F01F01B2
:10087000012088400199C86502B0704784B0039098
:100880000291019200930398C16C006D4860039837
:10089000406D28B1FFE70398816DC06D4860FFE7A8
:1008A0000398016C406C00F01F02012090404860EA
:1008B000009803990968486003988068102809D156
:1008C000FFE701980399096888600298039909680D
:1008D000C86008E002980399096888600198039944
:1008E0000968C860FFE704B0704700007047000067
:1008F00080B54FF4806004F025FB4FF4006004F0F5
:1009000021FB4FF4005004F01DFB80BD81B0EFF3DC
:10091000108072B60090FFE7FEE7000080B582B05D
:1009200040F23440C2F20000019003F0ABFF0198A6
:1009300040F21822C2F2000240F21023C2F2000379
:10094000402103F083FE02B080BD000083B002901E
:100950004AF20040C4F20000009000980299086436
:1009600002980068D0F8800020F4F810029A11680C
:10097000526B40EA0240C1F8800000987030029942
:10098000486402980068D0F8800020F07060029AF5
:100990001168926B40EA0260C1F880000098B030A4
:1009A00002998864009800F5C4700299C8640098A0
:1009B00000F5187002990865009800F51E700299FC
:1009C000486500980190FFE70198009901F554717E
:1009D000884208D2FFE7019900200860FFE70198EC
:1009E00004300190F0E703B07047000080B58EB08E
:1009F00040F29860C2F20000407A002840F0A381E3
:100A0000FFE740F27860C2F20000C07F18B1FFE754
:100A1000002004900CE040F29860C2F200004068B0
:100A200040F27861C2F200018969401A0490FFE740
:100A300040F29860C2F20000406840F27861C2F271
:100A40000001039188610020C87740F2A860C2F2DB
:100A50000000029090ED040B51EC100B0BF07CFCAD
:100A600002990246039800EE102A91ED071A30EE23
:100A7000410A8DED0B0A807F38B1FFE740F27860C4
:100A8000C2F2000080680D9016E09DED040AB8EEF9
:100A9000400A9FEDE11A20EE010A40F27860C2F2AE
:100AA000000090ED021A90ED052A20EE020A30EEC9
:100AB000010A8DED0D0AFFE740F20400C2F20000CA
:100AC00090ED010A9DED0B2A9DED0D1A20EE020A14
:100AD00030EE010A8DED060A9DED060AB1EE041A0C
:100AE000B4EE410AF1EE10FA11DDFFE79DED060AC2
:100AF000B9EE041A30EE010A8DED0A0A40F29C01AB
:100B0000C2F200010020C4F2A000086030E09DEDB8
:100B1000060AB9EE041AB4EE410AF1EE10FA03DB4C
:100B2000FFE700200A9008E09DED060AB1EE041AE6
:100B300030EE010A8DED0A0AFFE79DED060AB9EED7
:100B4000041AB4EE410AF1EE10FA09DAFFE740F2B6
:100B50009C01C2F200010020CCF2A000086006E077
:100B6000069840F29C01C2F200010860FFE7FFE72F
:100B700040F20400C2F2000090ED001A9DED0B0A55
:100B800020EE010A8DED0B0A40F2A860C2F20000CF
:100B900090ED060A40F27860C2F2000090ED031A70
:100BA00030EE410A8DED0C0A9DED0C0AB9EE041AE7
:100BB000B4EE410AF1EE10FA09DAFFE79DED0C0AF6
:100BC0009FED961A30EE010A8DED0C0A13E09DEDB3
:100BD0000C0AB1EE041AB4EE410AF1EE10FA09DD86
:100BE000FFE79DED0C0A9FED8E1A30EE010A8DEDA8
:100BF0000C0AFFE7FFE79DED0C0A9FED8A1A20EE35
:100C0000010AB6EE001A20EE010A9FED871A20EEC7
:100C1000010A40F24820C2F2000080ED000A40F2D2
:100C20007861C2F20001002088770D9888609DED00
:100C30000A0AB5EE400AF1EE10FA05DAFFE70020E5
:100C4000CBF6807007901FE09DED0A0AB5EE400AD2
:100C5000F1EE10FA04DDFFE74FF07E50079012E04E
:100C60009DED0A0AB5EE400AF1EE10FA03D1FFE756
:100C70000020079006E040F2A460C2F20000006885
:100C80000790FFE7FFE7FFE79DED0B0AB5EE400A8F
:100C9000F1EE10FA05DAFFE70020CBF680700D9038
:100CA0001FE09DED0B0AB5EE400AF1EE10FA04DDEF
:100CB000FFE74FF07E500D9012E09DED0B0AB5EE70
:100CC000400AF1EE10FA03D1FFE700200D9006E094
:100CD00040F2A460C2F2000000680D90FFE7FFE759
:100CE000FFE79DED0A0AB5EE400AF1EE10FA16D0C4
:100CF000FFE79DED070ABDEEC00A10EE100A9DED5C
:100D00000D0ABDEEC00A10EE101A884207D1FFE7A7
:100D100040F27861C2F200010020486106E00B98C1
:100D200040F27861C2F200014861FFE740F2A8603A
:100D3000C2F20000806940F27861C2F20001C8602E
:100D400008690860FFE740F2A860C2F20000019065
:100D500090ED060A0BF09AF801988DED0C0A90EDD3
:100D6000000A90ED011A90ED022A31EE021A9FED71
:100D70002F2A21EE021A9FED2E2A20EE020A30EED3
:100D8000010A8DED0A0A90ED010A90ED021A30EE8B
:100D9000410A9FED281A20EE010A8DED0B0A90ED15
:100DA000060A0BF053F98DED070A9DED0A0A9DED39
:100DB0000C2A9DED0B1A9DED073A21EE031A20EE49
:100DC000020A30EE011A9FED1C0A30EE410A8DED49
:100DD0000D0A9DED0D0A40F27860C2F20000B0F9F4
:100DE0001C0001EE100AB8EEC11A9FED142A21EE84
:100DF000021A9FED132A20EE020A30EE010A8DED51
:100E0000060A9DED060A9FED0F1AB4EE410AF1EEB7
:100E100010FA21DD1AE000BF6F12833ADB0FC940E0
:100E2000DB0FC9C000007A44EBC91841ABAAAABEC7
:100E3000ABAA2A3F3ACD133F0000000017B7D138C4
:100E4000B81E853E42884741428847C148F6420065
:100E5000C4F24710099013E09DED060A1FED061A33
:100E6000B4EE410AF1EE10FA06DAFFE748F6420066
:100E7000CCF24710099002E006980990FFE7FFE7DF
:100E800040F27860C2F2000090ED000A9DED0B2A5E
:100E90009DED0C3A9DED0A1A9DED074A21EE041ACC
:100EA00022EE032A31EE421A30EE010A8DED0B0AD2
:100EB0009DED0B0A90ED011A1FED1F2A20EE020A8C
:100EC00030EE010A8DED0A0A9DED0A0A1FED231A84
:100ED000B4EE410AF1EE10FA06DDFFE748F64200F3
:100EE000C4F24710089013E09DED0A0A1FED2A1A7C
:100EF000B4EE410AF1EE10FA06DAFFE748F64200D6
:100F0000CCF24710089002E00A980890FFE7FFE74C
:100F10009DED091A9DED0C4A9DED082A9DED073ABD
:100F200022EE035A21EE040A30EE450A22EE042A8C
:100F300021EE031A71EE020A40F2A860C2F200002C
:100F400090ED031A40F2C860C2F2000008F04CFFB6
:100F500000200C909DED0A0A9FEDBC1AB4EE410AE8
:100F6000F1EE10FA09DDFFE79DED0A0A9FEDB81AD0
:100F700030EE010A8DED0A0A16E09DED0A0A9FED9A
:100F8000B41AB4EE410AF1EE10FA03DBFFE70020D9
:100F90000A9008E09DED0A0A9FEDAC1A30EE010AB6
:100FA0008DED0A0AFFE7FFE79DED0B0A9FEDA91AF9
:100FB00020EE010A8DED0B0A002007909DED060A38
:100FC0009FEDA21AB4EE410AF1EE10FA09DDFFE737
:100FD0009DED060A9FED9E1A30EE010A8DED060A80
:100FE00016E09DED060A9FED9A1AB4EE410AF1EE65
:100FF00010FA03DBFFE70020069008E09DED060AEB
:101000009FED921A30EE010A8DED060AFFE7FFE729
:101010009DED0D0A9FED8F1A20EE010A0AF0DEFF0A
:10102000BDEEC00A10EE100AADF816009DED060ADE
:10103000B5EE400AF1EE10FA05DAFFE70020CBF634
:1010400080700D901FE09DED060AB5EE400AF1EEAE
:1010500010FA04DDFFE74FF07E500D9012E09DED99
:10106000060AB5EE400AF1EE10FA03D1FFE70020C0
:101070000D9006E040F2A460C2F2000000680D90FE
:10108000FFE7FFE7FFE7BDF91600B0F1FF3F05DC22
:10109000FFE74FF6FF70ADF8140008E0BDF9161039
:1010A00000200029C8BF0120ADF81400FFE79DED26
:1010B000070A9DED061AB4EE410AF1EE10FA0FD0C0
:1010C000FFE79DED0D0ABDEEC00A10EE100ABDF956
:1010D0001410884204D1FFE70020ADF81600FFE7A6
:1010E000BDF8162040F27861C2F20001888B1044EE
:1010F00088839DED0A0AB5EE400AF1EE10FA05DA92
:10110000FFE70020CBF6807007901FE09DED0A0AF4
:10111000B5EE400AF1EE10FA04DDFFE74FF07E5025
:10112000079012E09DED0A0AB5EE400AF1EE10FAC2
:1011300003D1FFE70020079006E040F2A460C2F26E
:10114000000000680790FFE7FFE7FFE79DED0B0A4F
:10115000B5EE400AF1EE10FA05DAFFE70020CBF613
:1011600080700D901FE09DED0B0AB5EE400AF1EE88
:1011700010FA04DDFFE74FF07E500D9012E09DED78
:101180000B0AB5EE400AF1EE10FA03D1FFE700209A
:101190000D9006E040F2A460C2F2000000680D90DD
:1011A000FFE7FFE7FFE79DED0C0A9DED0A1AB4EE9D
:1011B000410AF1EE10FA12D0FFE79DED070ABDEEED
:1011C000C00A10EE100A9DED0D0ABDEEC00A10EE29
:1011D000101A884203D1FFE700200B90FFE79DED36
:1011E0000B0A40F27860C2F2000090ED011A9FED08
:1011F000162A20EE020A30EE010A80ED010A40F2C2
:101200009860C2F20000407A58B9FFE740F29C00B3
:10121000C2F20000006840F27861C2F20001086189
:10122000FFE740F29860C2F20000407A40B9FFE761
:1012300040F29861C2F20001486801304860FFE75F
:101240000AF046FC0EB080BD17B7D138428847413E
:10125000428847C100000C4280B584B003900398D7
:10126000029040F29850C2F20000002107F016F8F8
:1012700000EE100AB8EE400A029880ED080A0299C2
:101280000878087740F20040C4F6000000904FF460
:10129000807104F027F801460098029A11708021AD
:1012A00004F020F803460098029A117841EA4301BD
:1012B0001170402104F016F802460299087840EABD
:1012C00082000870029800780138014601910528D3
:1012D00000F2CC800199DFE801F0A866872403457D
:1012E0000298007F01280AD1FFE7029948F22220E4
:1012F000C4F27300886002990120087410E002981B
:10130000007F04280AD1FFE7029944F2B630C4F204
:101310009B0088600299FF20087400E0FFE7FFE768
:10132000A5E00298007F05280AD1FFE7029944F260
:10133000B630C4F29B00886002990120087410E066
:101340000298007F06280AD1FFE702994CF25A6002
:10135000C4F2BC0088600299FF20087400E0FFE737
:10136000FFE784E00298007F04280AD1FFE7029992
:101370004CF25A60C4F2BC008860029901200874E3
:1013800010E00298007F02280AD1FFE7029944F694
:10139000FE00C4F2DE0088600299FF20087400E0BD
:1013A000FFE7FFE763E00298007F06280AD1FFE726
:1013B000029944F6FE00C4F2DE0088600299012022
:1013C000087410E00298007F03280AD1FFE7029911
:1013D0004CF6A330C4F2FF0088600299FF20087425
:1013E00000E0FFE7FFE742E00298007F02280AD111
:1013F000FFE702994CF6A330C4F2FF00886002991F
:101400000120087410E00298007F01280AD1FFE74C
:1014100002994AF22470C4F2101088600299FF20E9
:10142000087400E0FFE7FFE721E00298007F03284F
:101430000AD1FFE702994AF22470C4F210108860C2
:1014400002990120087410E00298007F05280AD153
:10145000FFE7029948F22220C4F2730088600299E3
:10146000FF20087400E0FFE7FFE700E0FFE70298D5
:1014700090ED020AB5EE400AF1EE10FA0ADAFFE743
:10148000029890ED020A9FED331A30EE010A80EDCA
:10149000020A15E0029890ED020A9FED2E1AB4EEB2
:1014A000410AF1EE10FA0ADDFFE7029890ED020A18
:1014B0009FED291A30EE010A80ED020AFFE7FFE7EF
:1014C000029890ED080A9FED253A80EE030A9FED01
:1014D000241A20EE012A9FED230A80EE022A80EDD5
:1014E000012A029890ED082A82EE032A80EE020A71
:1014F000B3EE0E2A20EE020A9FED162A80EE020AB3
:1015000080ED050A029890ED050A90F9101002EEA0
:10151000101AB8EEC22A20EE020A80ED050A0298DF
:1015200090ED010A90F9101002EE101AB8EEC22ADE
:1015300020EE020A80ED010A029890ED020A90ED79
:10154000032A30EE420A80EE010A80ED060A04B05A
:1015500080BD00BFDB0FC940DB0FC9C00050434A4C
:1015600000401C46920A863F80B584B040F2A0003D
:10157000C2F2000000F5A470039040F20040C4F6EF
:10158000000001904FF4807103F0ACFE0146019819
:10159000039A1170802103F0A5FE03460198039A77
:1015A000117841EA43011170402103F09BFE02468D
:1015B0000399087840EA820008700398007801389F
:1015C0000146029105282FD80299DFE801F026187C
:1015D0001F0A0311039948F26320C4F28A00C8600D
:1015E00023E0039940F20850C4F2AC00C8601CE04C
:1015F000039948F2AC70C4F2CD00C86015E00399BD
:1016000040F65020C4F2EF00C8600EE0039944F2A7
:101610007B60C4F20810C86007E0039940F2CD7007
:10162000C4F21910C86000E0FFE704B080BD0000FC
:1016300080B586B00490039100200190FFE70498E4
:1016400090F85800012804D1FFE702208DF8170018
:101650005AE00499012081F85800FFE7FFE7049859
:10166000FEF7B0FF8DF80B009DF80B00D8BBFFE72D
:101670000498C06D40F0020020F488500499C865B9
:1016800004980068039907F0E9FDFFE704980068F3
:1016900007F006FCF0B1FFE70198013001900198D6
:1016A0004DF60261C0F20401884212D3FFE70498AC
:1016B000C06D40F0100020F002000499C865FFE7FB
:1016C0000499002081F85800FFE701208DF81700E9
:1016D0001AE0DBE70498C06D40F0010020F0020042
:1016E0000499C86505E00499C86D40F01000C8650C
:1016F000FFE7FFE70499002081F85800FFE79DF815
:101700000B008DF81700FFE79DF8170006B080BDAD
:1017100081B0009001B0704780B5C2B02290219195
:1017200000208DF883001B901A902298406908B120
:10173000FFE7FFE72198C0680021C4F27F018842DB
:1017400001D0FFE700E0FFE7FFE7229890F858009C
:10175000012805D1FFE702208DF88F0000F0B7BC0B
:101760002299012081F85800FFE7FFE7229840699D
:1017700028B1FFE72198006A01282FD1FFE72198BF
:101780004068092829D1FFE72198806A68B1FFE7FE
:1017900021990A68886AC96A02F0F84200F07C0060
:1017A00040EA524008431A9006E02198006800F091
:1017B000F840400C1A90FFE722980068C06C44F291
:1017C0000001C0F2104108401A99084322990968A3
:1017D000C8641A9822994866FFE747E02298806E0D
:1017E000E0B9FFE72198006A2299886622990020D3
:1017F00048662198806A58B1FFE72199086A8A6A89
:10180000C96A013802F07C02104308431A9004E0D0
:101810002198006A01381A90FFE7FFE721990868CC
:101820004968C0F3846001F01F0100FA01F11A98C1
:1018300008431A902299886E013888661A9A22996C
:10184000486E104348662298806E70B9FFE7229870
:101850000068C06C44F20001C0F210410840229AB6
:101860001168526E1043C864FFE7FFE722980068D2
:1018700007F0F4FA30BBFFE7219890F8250090B903
:10188000FFE722980068C06820F44010219991F881
:10189000242091F82610490541EA02510843229973
:1018A0000968C8600DE022980068C06820F4401004
:1018B000219991F8261040EA415022990968C860A0
:1018C000FFE7FFE72298006807F022FB1D902298AF
:1018D000006807F0C3FA1C901D98002840F00982A8
:1018E000FFE71C98002840F00482FFE72198806AF7
:1018F00020B1FFE72198C06AA8B9FFE7219890F8C6
:101900002500012807D1FFE722980168C86840F048
:101910000070C86006E022980168C86820F0007076
:10192000C860FFE716E0219890F82500012809D14A
:10193000FFE72299C86D40F02000C86501208DF8AE
:10194000830006E022980168C86820F00070C86033
:10195000FFE7FFE7219890F83000012810D1FFE75A
:1019600022980068006920F4FF71219A506B926BF5
:101970001043084340F0020022990968086106E01C
:1019800022980168086920F002000861FFE72198A9
:101990008068B0F1004F0ED1FFE7229800682199CE
:1019A0000968002207F010FB229800684FF0004100
:1019B00007F046FC0CE022980068219A11689268B2
:1019C00007F002FB22980068002107F039FCFFE7CE
:1019D0002198406922990968C96801F018018908AD
:1019E00088401F902198006904281CD0FFE72298A6
:1019F000006821990A6809691F9B07F07DFB2298FE
:101A00000068219A1169926907F0D0FB229800685A
:101A1000219A1169127F013AB2FA82F252095206F2
:101A200007F09CFB64E122980068002107F0F6F9BA
:101A3000400348B9FFE722980068002107F0EEF95B
:101A4000C0F38460199018E022980068002107F024
:101A5000E5F990FAA0F04090409820B9FFE72020E7
:101A60008DF8070105E04098B0FA80F08DF8070185
:101A7000FFE79DF807011990FFE719981890219842
:101A80000068400330B9FFE721980068C0F3846024
:101A9000179015E02198006890FAA0F03E903E98CB
:101AA00020B9FFE720208DF8FF0005E03E98B0FA4E
:101AB00080F08DF8FF00FFE79DF8FF001790FFE72B
:101AC00018981799884207D1FFE7229800680022EA
:101AD000114607F093FBFFE722980068012107F009
:101AE0009DF9400348B9FFE722980068012107F0FB
:101AF00095F9C0F38460169018E0229800680121DF
:101B000007F08CF990FAA0F03C903C9820B9FFE7E0
:101B100020208DF8F70005E03C98B0FA80F08DF8B1
:101B2000F700FFE79DF8F7001690FFE7169815906D
:101B300021980068400330B9FFE721980068C0F39E
:101B40008460149015E02198006890FAA0F03A9013
:101B50003A9820B9FFE720208DF8EF0005E03A9889
:101B6000B0FA80F08DF8EF00FFE79DF8EF001490D9
:101B7000FFE715981499884207D1FFE7229800687B
:101B80000121002207F03AFBFFE7229800680221BA
:101B900007F044F9400348B9FFE7229800680221A2
:101BA00007F03CF9C0F38460139018E022980068B5
:101BB000022107F033F990FAA0F03890389820B954
:101BC000FFE720208DF8E70005E03898B0FA80F0B4
:101BD0008DF8E700FFE79DF8E7001390FFE7139803
:101BE000129021980068400330B9FFE721980068FF
:101BF000C0F38460119015E02198006890FAA0F07D
:101C00003690369820B9FFE720208DF8DF0005E0F8
:101C10003698B0FA80F08DF8DF00FFE79DF8DF001E
:101C20001190FFE712981199884207D1FFE7229897
:101C300000680221002207F0E1FAFFE7229800681D
:101C4000032107F0EBF8400348B9FFE7229800684A
:101C5000032107F0E3F8C0F38460109018E02298A5
:101C60000068032107F0DAF890FAA0F03490349875
:101C700020B9FFE720208DF8D70005E03498B0FAAE
:101C800080F08DF8D700FFE79DF8D7001090FFE7B0
:101C900010980F9021980068400330B9FFE7219811
:101CA0000068C0F384600E9015E02198006890FAF7
:101CB000A0F03290329820B9FFE720208DF8CF00B5
:101CC00005E03298B0FA80F08DF8CF00FFE79DF87C
:101CD000CF000E90FFE70F980E99884207D1FFE7DB
:101CE000229800680321002207F088FAFFE7FFE747
:101CF000FFE72298006807F0F3F8002840F04481DD
:101D0000FFE722980068219A1168D26807F092F9DB
:101D10002198C0680021C4F27F01884240F03381DD
:101D2000FFE7229800680D9021980068400330B9C1
:101D3000FFE721980068C0F384600C9015E02198BB
:101D4000006890FAA0F03090309820B9FFE720208A
:101D50008DF8C70005E03098B0FA80F08DF8C70024
:101D6000FFE79DF8C7000C90FFE70C98013000F0EA
:101D70001F0009287DD8FFE721980068400330B98B
:101D8000FFE721980068C0F384600B9015E021986C
:101D9000006890FAA0F02E902E9820B9FFE720203E
:101DA0008DF8BF0005E02E98B0FA80F08DF8BF00E6
:101DB000FFE79DF8BF000B90FFE70B98013000F0A4
:101DC0001F0080060A9021980068400330B9FFE7A1
:101DD00021980068C0F38460099015E0219800689C
:101DE00090FAA0F02C902C9820B9FFE720208DF8D5
:101DF000B70005E02C98B0FA80F08DF8B700FFE747
:101E00009DF8B7000990FFE70A980999013101F0A0
:101E10001F02012191400843089021980068400367
:101E200030B9FFE721980068C0F38460079015E09F
:101E30002198006890FAA0F02A902A9820B9FFE72C
:101E400020208DF8AF0005E02A98B0FA80F08DF8D8
:101E5000AF00FFE79DF8AF000790FFE708980799EC
:101E6000013101F01F0101EB410140EA01500690F0
:101E700082E021980068400330B9FFE721980068AC
:101E8000C0F38460059015E02198006890FAA0F0F6
:101E90002890289820B9FFE720208DF8A70005E0BA
:101EA0002898B0FA80F08DF8A700FFE79DF8A7000A
:101EB0000590FFE70598013000F01F0080060490B0
:101EC00021980068400330B9FFE721980068C0F30B
:101ED0008460039015E02198006890FAA0F02690A5
:101EE000269820B9FFE720208DF89F0005E026986E
:101EF000B0FA80F08DF89F00FFE79DF89F000390F7
:101F0000FFE704980399013101F01F02012191407C
:101F10000843029021980068400330B9FFE72198F8
:101F20000068C0F38460019015E02198006890FA81
:101F3000A0F02490249820B9FFE720208DF8970086
:101F400005E02498B0FA80F08DF89700FFE79DF83F
:101F500097000190FFE702990198013000F01F00FF
:101F600000EB40020020CFF6206000EB0250084357
:101F700040F000700690FFE70D980699219A92684C
:101F800007F022F8FFE7FFE72198408848F20801B0
:101F9000084200F09180FFE740F20030C5F20000F7
:101FA00006F00CFF1E90219800680021CCF2213130
:101FB000884208D0FFE7219800681021C9F2C001CB
:101FC000884232D1FFE79DF87A00000600282CD421
:101FD000FFE722980068B0F1A04F25D1FFE71E98D7
:101FE00040F4000140F20030C5F2000007F058F85C
:101FF00040F20000C2F200000068800942F663511E
:10200000C0F23E51A0FB0110800900EB40011820F6
:1020100000EB81001B90FFE71B9820B1FFE71B98A6
:1020200001381B90F8E7FFE745E0219800680021A0
:10203000CCF25271884219D1FFE79DF87B00C007AE
:10204000A0B9FFE72298006840F20011C5F2000134
:1020500088420AD0FFE71E9840F0807140F20030BD
:10206000C5F2000007F01CF8FFE723E021980068A4
:102070000021CCF6843188421AD1FFE79DF87A001E
:102080004006002814D4FFE72298006840F20011AF
:10209000C5F2000188420AD0FFE71E9840F4800193
:1020A00040F20030C5F2000006F0FAFFFFE700E062
:1020B000FFE7FFE7FFE7FFE7FFE72299002081F84E
:1020C0005800FFE79DF883008DF88F00FFE79DF82B
:1020D0008F0042B080BD000080B582B001900198B1
:1020E00040F25021C2F20001884203D1FFE709F01B
:1020F00003FDFFE702B080BD81B0009001B07047E2
:1021000080B588B0069040F20030C5F2000006F0BD
:102110006DFE03900698006806F0A0FE20B1FFE770
:1021200002208DF81F00B7E006980068C06800F034
:102130000040049006980068C06C10F4C07F0CD179
:10214000FFE7049848B9FFE70699C86D40F0200002
:10215000C86501208DF81F009EE0FFE7069890F803
:102160005800012804D1FFE702208DF81F0093E0FA
:102170000699012081F85800FFE7FFE70698FEF76F
:1021800083FA8DF817009DF81700002878D1FFE733
:102190000698C06DC005002806D5FFE70699086EB1
:1021A00020F00800086603E0069900200866FFE7B3
:1021B0000698C06D40F4805042F2010188430699B0
:1021C000C8650698006840F20011C5F20001884217
:1021D00004D1FFE74FF0A040029003E006980068AA
:1021E0000290FFE7029806990968884203D0FFE74A
:1021F000039830B9FFE70699C86D20F48010C865D0
:10220000FFE70698016860200860FFE70699002054
:1022100081F85800FFE70698006840F20011C5F207
:102220000001884204D1FFE74FF0A040019003E095
:10223000069800680190FFE70198069909688842AE
:102240000BD0FFE7039840B1FFE70398062804D0BE
:10225000FFE7039807280CD1FFE70698006806F00F
:10226000EDFD28B9FFE70698006806F00BFEFFE7D2
:1022700005E00699C86D40F48010C865FFE706E0E8
:10228000FFE70699002081F85800FFE7FFE79DF877
:1022900017008DF81F00FFE79DF81F0008B080BDF4
:1022A00080B588B0069040F20030C5F2000006F01C
:1022B0009DFD03900698006806F0D0FD20B1FFE771
:1022C00002208DF81F00E5E006980068C06800F065
:1022D0000040049006980068C06C10F4C07F0CD1D8
:1022E000FFE7049848B9FFE70699C86D40F0200061
:1022F000C86501208DF81F00CCE0FFE7069890F834
:102300005800012804D1FFE702208DF81F00C1E02A
:102310000699012081F85800FFE7FFE70698FEF7CD
:10232000B3F98DF817009DF81700002840F0A6803B
:10233000FFE70698C06DC005002806D5FFE706999F
:10234000086E20F00800086603E006990020086681
:10235000FFE70698C06D40F4805042F201018843C7
:102360000699C8650698006840F20011C5F20001A0
:10237000884204D1FFE74FF0A040029003E00698A6
:1023800000680290FFE7029806990968884203D026
:10239000FFE7039830B9FFE70699C86D20F4801075
:1023A000C865FFE70698016860200860FFE70699A6
:1023B000002081F85800FFE706980068C068800296
:1023C000002807D5FFE706980168486840F4806058
:1023D0004860FFE70698806908280DD1FFE7069856
:1023E0000168486820F02000486006980168486845
:1023F00040F0400048600CE006980168486820F012
:102400004000486006980168486840F02000486035
:10241000FFE70698006840F20011C5F2000188420B
:1024200004D1FFE74FF0A040019003E00698006858
:102430000190FFE701980699096888420BD0FFE7F1
:10244000039840B1FFE70398062804D0FFE70398FC
:1024500007280CD1FFE70698006806F0EFFC28B9C2
:10246000FFE70698006806F00DFDFFE705E0069916
:10247000C86D40F48010C865FFE706E0FFE70699E5
:10248000002081F85800FFE7FFE79DF817008DF85E
:102490001F00FFE79DF81F0008B080BD81B00090CD
:1024A00001B0704781B0009001B0704780B5A4B012
:1024B0002290219100208DF883002198006808B1B6
:1024C000FFE7FFE7FFE7229890F85800012804D1C2
:1024D000FFE702208DF88F009FE02299012081F80C
:1024E0005800FFE7FFE700201B901C90229800682F
:1024F000B0F1A04F06D1FFE740F20010C5F2000096
:10250000049002E000200490FFE7049878B9FFE708
:102510002299C86D40F02000C865FFE7229900208D
:1025200081F85800FFE701208DF88F0075E00498CE
:1025300006F0EEFC03902298006806F0E9FC002803
:1025400057D1FFE70398002853D1FFE740F200304E
:10255000C5F200001F902198006860B3FFE71F9844
:10256000806820F4604021994968229A92F83820C6
:1025700041EA423108431F9988604FF0A04006F0BD
:10258000AFFC029040F20010C5F2000006F0A8FC7B
:1025900001460298084368B9FFE71F98806840F633
:1025A0001F718843219A11689268114308431F994B
:1025B0008860FFE71CE01F99886820F4604088600D
:1025C0004FF0A04006F08CFC019040F20010C5F2E4
:1025D000000006F085FC01460198084338B9FFE782
:1025E0001F99886840F61F7290438860FFE7FFE7F5
:1025F00008E02299C86D40F02000C86501208DF8E0
:102600008300FFE7FFE72299002081F85800FFE7E9
:102610009DF883008DF88F00FFE79DF88F0024B0B0
:1026200080BD000080B5C0B020901F9100208DF8C3
:102630007B001B901F98C0680021C4F27F01884274
:1026400001D0FFE700E0FFE7FFE7209890F858008F
:10265000012804D1FFE702208DF88700D2E32099FA
:10266000012081F85800FFE7FFE72098006806F096
:1026700047FC002840F0B283FFE7209800681F99CC
:102680000A68496806F058FC2098006806F038FC93
:102690001A902098006806F0D9FB19901A98002823
:1026A00040F0B881FFE71998002840F0B381FFE7B8
:1026B0001F988068B0F1004F0ED1FFE720980068A6
:1026C0001F990968002206F063FC209800684FF00B
:1026D000004106F0A7FD0CE0209800681F9A1168E1
:1026E000926806F055FC20980068002106F09AFDDB
:1026F000FFE71F98406920990968C96801F018012F
:10270000890888401D901F98006904281CD0FFE7A5
:10271000209800681F990A6809691D9B06F0CEFC85
:10272000209800681F9A1169926906F02BFD209885
:1027300000681F9A1169127F013AB2FA82F25209B7
:10274000520606F0F7FC64E120980068002106F0CC
:1027500055FB400348B9FFE720980068002106F0C8
:102760004DFBC0F38460189018E0209800680021A9
:1027700006F044FB90FAA0F03E903E9820B9FFE7A7
:1027800020208DF8FF0005E03E98B0FA80F08DF82B
:10279000FF00FFE79DF8FF001890FFE718981790DB
:1027A0001F980068400330B9FFE71F980068C0F326
:1027B0008460169015E01F98006890FAA0F03C9095
:1027C0003C9820B9FFE720208DF8F70005E03C9801
:1027D000B0FA80F08DF8F700FFE79DF8F70016904B
:1027E000FFE717981699884207D1FFE720980068FD
:1027F0000022114606F0EEFCFFE720980068012158
:1028000006F0FCFA400348B9FFE720980068012170
:1028100006F0F4FAC0F38460159018E02098006880
:10282000012106F0EBFA90FAA0F03A903A9820B91C
:10283000FFE720208DF8EF0005E03A98B0FA80F02D
:102840008DF8EF00FFE79DF8EF001590FFE7159872
:1028500014901F980068400330B9FFE71F98006884
:10286000C0F38460139015E01F98006890FAA0F000
:102870003890389820B9FFE720208DF8E70005E070
:102880003898B0FA80F08DF8E700FFE79DF8E70090
:102890001390FFE714981399884207D1FFE7209817
:1028A00000680121002206F095FCFFE720980068EF
:1028B000022106F0A3FA400348B9FFE72098006818
:1028C000022106F09BFAC0F38460129018E0209871
:1028D0000068022106F092FA90FAA0F0369036983D
:1028E00020B9FFE720208DF8DF0005E03698B0FA28
:1028F00080F08DF8DF00FFE79DF8DF001290FFE722
:10290000129811901F980068400330B9FFE71F9894
:102910000068C0F38460109015E01F98006890FA7A
:10292000A0F03490349820B9FFE720208DF8D7002C
:1029300005E03498B0FA80F08DF8D700FFE79DF8F5
:10294000D7001090FFE711981099884207D1FFE750
:10295000209800680221002206F03CFCFFE7209846
:102960000068032106F04AFA400348B9FFE72098BF
:102970000068032106F042FAC0F384600F9018E06B
:1029800020980068032106F039FA90FAA0F03290FE
:10299000329820B9FFE720208DF8CF0005E032986B
:1029A000B0FA80F08DF8CF00FFE79DF8CF000F90D0
:1029B000FFE70F980E901F980068400330B9FFE7BB
:1029C0001F980068C0F384600D9015E01F980068A0
:1029D00090FAA0F03090309820B9FFE720208DF8D1
:1029E000C70005E03098B0FA80F08DF8C700FFE727
:1029F0009DF8C7000D90FFE70E980D99884207D10A
:102A0000FFE7209800680321002206F0E3FBFFE7C0
:102A1000FFE7FFE72098006806F05AFA002840F028
:102A20004481FFE7209800681F9A1168D26806F079
:102A3000E7FA1F98C0680021C4F27F01884240F085
:102A40003381FFE7209800680C901F9800684003CE
:102A500030B9FFE71F980068C0F384600B9015E061
:102A60001F98006890FAA0F02E902E9820B9FFE7EA
:102A700020208DF8BF0005E02E98B0FA80F08DF888
:102A8000BF00FFE79DF8BF000B90FFE70B980130F8
:102A900000F01F0009287DD8FFE71F980068400359
:102AA00030B9FFE71F980068C0F384600A9015E012
:102AB0001F98006890FAA0F02C902C9820B9FFE79E
:102AC00020208DF8B70005E02C98B0FA80F08DF842
:102AD000B700FFE79DF8B7000A90FFE70A980130BA
:102AE00000F01F00800609901F980068400330B96D
:102AF000FFE71F980068C0F38460089015E01F98F6
:102B0000006890FAA0F02A902A9820B9FFE72020C8
:102B10008DF8AF0005E02A98B0FA80F08DF8AF008C
:102B2000FFE79DF8AF000890FFE709980899013189
:102B300001F01F0201219140084307901F9800688F
:102B4000400330B9FFE71F980068C0F38460069027
:102B500015E01F98006890FAA0F02890289820B9F6
:102B6000FFE720208DF8A70005E02898B0FA80F054
:102B70008DF8A700FFE79DF8A7000690FFE70798EC
:102B80000699013101F01F0101EB410140EA0150BA
:102B9000059082E01F980068400330B9FFE71F9856
:102BA0000068C0F38460049015E01F98006890FAF4
:102BB000A0F02690269820B9FFE720208DF89F00EE
:102BC00005E02698B0FA80F08DF89F00FFE79DF8A9
:102BD0009F000490FFE70498013000F01F0080067A
:102BE00003901F980068400330B9FFE71F98006802
:102BF000C0F38460029015E01F98006890FAA0F07E
:102C00002490249820B9FFE720208DF8970005E054
:102C10002498B0FA80F08DF89700FFE79DF89700B0
:102C20000290FFE703980299013101F01F02012190
:102C30009140084301901F980068400330B9FFE7B6
:102C40001F980068C0F38460009015E01F9800682A
:102C500090FAA0F02290229820B9FFE720208DF86A
:102C60008F0005E02298B0FA80F08DF88F00FFE722
:102C70009DF88F000090FFE701990098013000F067
:102C80001F0000EB40020020CFF6206000EB025056
:102C9000084340F000700590FFE70C9805991F9AD3
:102CA000926806F075F9FFE7FFE71F98408848F241
:102CB0000801084200F09180FFE740F20030C5F2C1
:102CC000000006F073F81C901F9800680021CCF2F9
:102CD0002131884208D0FFE71F9800681021C9F20F
:102CE000C001884232D1FFE79DF87200000600283B
:102CF0002CD4FFE720980068B0F1A04F25D1FFE762
:102D00001C9840F4000140F20030C5F2000006F0CB
:102D1000B9F940F20000C2F200000068800942F6F2
:102D20006351C0F23E51A0FB0110800900EB40014D
:102D30000C2000EB81001B90FFE71B9820B1FFE700
:102D40001B9801381B90F8E7FFE745E01F980068E3
:102D50000021CCF25271884219D1FFE79DF873002F
:102D6000C007A0B9FFE72098006840F20011C5F243
:102D7000000188420AD0FFE71C9840F0807140F2C1
:102D80000030C5F2000006F07DF9FFE723E01F9850
:102D900000680021CCF6843188421AD1FFE79DF803
:102DA00072004006002814D4FFE72098006840F223
:102DB0000011C5F2000188420AD0FFE71C9840F4D8
:102DC000800140F20030C5F2000006F05BF9FFE739
:102DD00000E0FFE7FFE7FFE7FFE708E02099C86DA5
:102DE00040F02000C86501208DF87B00FFE7FFE779
:102DF0002099002081F85800FFE79DF87B008DF8AE
:102E00008700FFE79DF8870040B080BD81B000904B
:102E100001B0704781B0009001B0704781B0009060
:102E200000980068006C01B07047000080B58EB05B
:102E30000D9000200C900D98006800680B900D9884
:102E4000006840680A9040F20030C5F2000005F0CA
:102E5000C5FF05909DF82C00800700281AD5FFE7D4
:102E60009DF828008007002814D5FFE70D98C06D55
:102E7000C006002806D4FFE70D99C86D40F4006035
:102E8000C865FFE70D98FEF743FC0D980168022026
:102E90000860FFE79DF82C004007002806D5FFE7F3
:102EA0000A9800F0040004280ED0FFE79DF82C00DB
:102EB0000007002840F19B80FFE79DF828000007ED
:102EC000002840F19480FFE70D98C06DC0060028EF
:102ED00006D4FFE70D99C86D40F40070C865FFE7A0
:102EE0000D98006806F01CF8002878D0FFE70D98D0
:102EF000006840F20011C5F20001884204D1FFE7EA
:102F00004FF0A040049003E00D9800680490FFE7A4
:102F100004980D99096888420BD0FFE7059840B1E5
:102F2000FFE70598052804D0FFE70598092805D193
:102F3000FFE70D980068C068079016E00D980068DC
:102F400040F20011C5F20001884204D1FFE74FF0C2
:102F5000A040039003E00D9800680390FFE70398FA
:102F600006900698C0680790FFE7079800F40050A5
:102F7000B0F5005F32D0FFE70D98006800680007E9
:102F800000282AD5FFE70D98006805F0B9FFC0B901
:102F9000FFE70D980168486820F00C0048600D9923
:102FA000C86D20F48070C8650D98C06DC0040028FD
:102FB00006D4FFE70D99C86D40F00100C865FFE732
:102FC0000AE00D99C86D40F01000C8650D99086EB3
:102FD00040F001000866FFE7FFE7FFE7FFE70D9815
:102FE000FFF714FF0D9801680C200860FFE79DF8BB
:102FF0002C008006002806D5FFE70A9800F0200084
:1030000020280ED0FFE79DF82C004006002840F154
:10301000B280FFE79DF828004006002840F1AB8011
:10302000FFE70D98C06DC006002806D4FFE70D9994
:10303000C86D40F40050C865FFE70D98006805F0C2
:1030400015FF09900D98006805F06AFF08900D982B
:10305000006840F20011C5F20001884204D1FFE788
:103060004FF0A040029003E00D9800680290FFE747
:1030700002980D99096888420BD0FFE7059840B186
:10308000FFE70598062804D0FFE70598072805D133
:10309000FFE70D980068C068079016E00D9800687B
:1030A00040F20011C5F20001884204D1FFE74FF061
:1030B000A040019003E00D9800680190FFE701989F
:1030C00006900698C0680790FFE7099800284AD044
:1030D000FFE79DF81F00800700280AD5FFE7089842
:1030E00000283FD0FFE79DF81D008006002839D456
:1030F000FFE70D98006800684006002831D5FFE71B
:103100009DF81E00800600282AD4FFE70D9800686D
:1031100005F09CFEC0B9FFE70D980168486820F0F3
:10312000600048600D99C86D20F48050C8650D9806
:10313000C06DC005002806D4FFE70D99C86D40F0AA
:103140000100C865FFE70AE00D99C86D40F0100066
:10315000C8650D99086E40F001000866FFE7FFE7BB
:10316000FFE7FFE7FFE70D98FEF7B6FF0D98016850
:1031700060200860FFE79DF82C000006002813D5AA
:10318000FFE79DF82800000600280DD5FFE70D9900
:10319000C86D40F48030C8650D9800F029FA0D988C
:1031A000016880200860FFE79DF82D00C00798B1F6
:1031B000FFE79DF82900C00770B1FFE70D99C86DC2
:1031C00040F40030C8650D98FFF768F90D98016864
:1031D0004FF480700860FFE79DF82D0080070028FD
:1031E00014D5FFE79DF82900800700280ED5FFE7DA
:1031F0000D99C86D40F48020C8650D98FFF752F90D
:103200000D9801684FF400700860FFE79DF82C00EE
:10321000C00600283ED5FFE79DF82800C00600281C
:1032200038D5FFE70D98C06B18B9FFE701200C9067
:1032300019E0059860B1FFE740F20030C5F20000E8
:1032400005F0C4FD18B1FFE701200C90FFE709E08D
:103250000D980068C068C00718B1FFE701200C9006
:10326000FFE7FFE7FFE70C9801280ED1FFE70D9974
:10327000C86D40F48060C8650D99086E40F002008A
:1032800008660D98FFF7C6FDFFE70D98016810204E
:103290000860FFE79DF82D004007002819D5FFE7DB
:1032A0009DF829004007002813D5FFE70D99C86D48
:1032B00040F48040C8650D99086E40F0080008662B
:1032C0000D9801684FF4806008600D98FEF714FFB8
:1032D000FFE70EB080BD000080B588B006900020EA
:1032E0008DF817000190069820B9FFE701208DF8AE
:1032F0001F0079E10698406940B1FFE7069890F811
:103300002400012801D1FFE7FFE7FFE70698C06D21
:1033100050B9FFE7069800F06FF90699002008669B
:10332000069981F85800FFE70698006805F0C0FD8F
:1033300028B1FFE70698006805F00EFDFFE7069844
:10334000006805F0D5FDF0B9FFE70698006805F0C4
:103350001DFD40F20000C2F200000068800942F644
:103360006351C0F23E51A0FB01108109022000EB25
:1033700041000190FFE7019820B1FFE70198013873
:103380000190F8E7FFE70698006805F0B1FD70B915
:10339000FFE70699C86D40F01000C8650699086EF1
:1033A00040F00100086601208DF81700FFE706983D
:1033B000006805F0A5FD03900698C06DC0060028C2
:1033C00000F10481FFE70398002840F0FF80FFE749
:1033D0000698C06D40F0020020F480700699C86520
:1033E0000698006805F074FDD0B9FFE74FF0A040E3
:1033F00005F06EFD009040F20010C5F2000005F0EF
:1034000067FD01460098084348B9FFE70698416800
:1034100040F20030C5F2000005F026FEFFE7FFE7AE
:1034200006994A7FC86B40EA42308A68CB681843E5
:10343000104391F8241040EA01400490069890F857
:10344000240001280BD1FFE70698816A0020CFF6FF
:10345000FE7000EB4141049808430490FFE7069892
:10346000C06A50B1FFE70699C86A096B00F478702A
:103470000143049808430490FFE706980068C06879
:1034800044F20701CFF6F071084004990843069909
:103490000968C86006980068006920F04060069AD4
:1034A0001168526B104308610698006805F0CEFC65
:1034B00002900398002868D1FFE70298002864D1A1
:1034C000FFE70699087F91F83810800340EA410031
:1034D000049006980068C06844F202018843049989
:1034E000084306990968C86006980069A0B1FFE71B
:1034F00006980168086940F4803008610698006801
:10350000D0F8C00043F6FF718843069A116812692B
:103510001043C1F8C00011E006980168086920F462
:103520008030086106980068D0F8C00043F6FF714B
:10353000884306990968C1F8C000FFE7069890F82B
:103540004000012819D1FFE706980068006940F2A1
:10355000FD7120EA0102069B1968586CD3F848E017
:10356000D3F84CC040EA0E0040EA0C001B6D184333
:10357000104340F00100086106E006980168086900
:1035800020F001000861FFE7FFE706984069012885
:103590000CD1FFE706980068006B20F00F00069A38
:1035A0001168126A013A1043086306E00698016840
:1035B000086B20F00F000863FFE70698C06D40F02D
:1035C000010020F002000699C86508E00699C86D60
:1035D00040F01000C86501208DF81700FFE79DF846
:1035E00017008DF81F00FFE79DF81F0008B080BD91
:1035F00081B0009001B0704780B5A2B0219000204A
:1036000020901F901E901D901C900BA84421FCF749
:1036100026FF21980068B0F1A04F6DD1FFE74FF46D
:1036200000400B904FF000501A900BA802F0D4F914
:1036300018B1FFE7FDF76AF9FFE740F29800C2F220
:1036400000000168013101600068012810D1FFE726
:10365000FFE741F24C00C4F20200016841F400515E
:103660000160006800F400500A900A98FFE7FFE745
:10367000FFE741F24C00C4F20200016841F0010191
:103680000160006800F0010009900998FFE7FFE77A
:1036900041F24C00C4F20200016841F002010160F5
:1036A000006800F0020008900898FFE704201C90D2
:1036B000032002901D90002004901E904FF0904037
:1036C0001CA9039101F05AFC029A0399049841F253
:1036D00002031C931D921E9040F20040C4F60000AD
:1036E00001F04CFC049A12200590114601F0C6FE30
:1036F000059801F0B9FE57E02198006840F20011EA
:10370000C5F2000188424ED1FFE74FF400400B9014
:103710004FF000501A900BA802F05EF918B1FFE7C5
:10372000FDF7F4F8FFE740F29800C2F200000168EC
:10373000013101600068012810D1FFE7FFE741F285
:103740004C00C4F20200016841F4005101600068BD
:1037500000F4005007900798FFE7FFE7FFE741F20A
:103760004C00C4F20200016841F0010101600068F0
:1037700000F0010006900698FFE741201C9003200E
:103780001D90002000901E904FF090401CA901F069
:10379000F5FB009A12200190114601F06FFE01988E
:1037A00001F062FEFFE7FFE722B080BD80B588B080
:1037B000069040F20030C5F2000005F00FFB0390C8
:1037C0000698006805F09CFB002840F0C880FFE7E1
:1037D000FFE7069890F85800012804D1FFE702207F
:1037E0008DF81F00C4E00699012081F85800FFE71A
:1037F000FFE70698FCF748FF8DF817009DF81700C3
:10380000002840F0A480FFE70698C06D40F4807067
:1038100040F6016188430699C8650698006840F241
:103820000011C5F20001884204D1FFE74FF0A0402B
:10383000029003E0069800680290FFE7029806995C
:103840000968884203D0FFE7039830B9FFE706997B
:10385000C86D20F48010C865FFE70698C06DC004ED
:10386000002806D5FFE70699086E20F006000866D6
:1038700003E0069900200866FFE7069801681C200F
:103880000860FFE70699002081F85800FFE70698D6
:10389000006840F20011C5F20001884204D1FFE740
:1038A0004FF0A040019003E0069800680190FFE708
:1038B00001980699096888420BD0FFE7039840B148
:1038C000FFE70398052804D0FFE70398092815D1DE
:1038D000FFE706980068C0688001002809D5FFE767
:1038E0000698C06D40F4805020F400500699C865D9
:1038F000FFE70698006805F03DFB27E00699C86DD4
:1039000040F48010C8650698006840F20011C5F2C6
:103910000001884204D1FFE74FF0A040009003E08F
:10392000069800680090FFE7009804900498C0682B
:103930008001002809D5FFE70698C06D40F480504B
:1039400020F400500699C865FFE7FFE706E0FFE7AF
:103950000699002081F85800FFE7FFE703E0022006
:103960008DF81700FFE79DF817008DF81F00FFE79F
:103970009DF81F0008B080BD80B586B00590059801
:10398000006840F20021C4F20101884204D1FFE73F
:103990004FF4001002901DE00598006840F20421E9
:1039A000C4F20101884204D1FFE74FF48000019086
:1039B0000DE00598016840F20822C4F201024FF0C0
:1039C0008040914208BF4FF000500190FFE70198FE
:1039D0000290FFE70298049000200390049805F0FD
:1039E000BBFC18B1FFE701200390FFE7039838B153
:1039F000FFE7049805F046FC059800F02DF9FFE775
:103A000006B080BD80B588B00790002003908DF887
:103A10000B00079820B9FFE701208DF80B00DAE0D2
:103A2000079800680068C00F20B1FFE701208DF8FB
:103A30000B00CFE00798407F48B9FFE707990020C7
:103A4000087707990862079800F0CAF8FFE7079817
:103A50000068006800F400000490079BD3F804C0DD
:103A60009868DA68196940EA0C005B6918431043EA
:103A70000843069007980068006847F60F61CFF684
:103A8000007108400699084307990968086007987B
:103A900000680068000200281FD5FFE70498E0B91D
:103AA000FFE740F20000C2F200000068800942F621
:103AB0006351C0F23E51A0FB0110800900EB800170
:103AC000142000EB81000390FFE7039820B1FFE78B
:103AD000039801380390F8E7FFE70798006840F281
:103AE0000021C4F20101884204D1FFE74FF4001025
:103AF00001901DE00798006840F20421C4F2010122
:103B0000884204D1FFE74FF4800000900DE0079851
:103B1000016840F20822C4F201024FF08040914255
:103B200008BF4FF000500090FFE700980190FFE7BA
:103B3000019805900798007E8007D8B3FFE70798A3
:103B4000007EC006002804D5FFE7059805F0F8FBC5
:103B500003E0059805F0C4FBFFE70798007E8006A8
:103B6000002804D5FFE7059805F0D2FB03E005988F
:103B700005F09EFBFFE7059805F084FB0798007EA3
:103B80008007002804D5FFE7059805F0B5FB03E0A2
:103B9000059805F081FBFFE70798007EC00720B17C
:103BA000FFE7059805F0C0FB03E0059805F08CFBE6
:103BB000FFE706E0059805F06FFB059805F084FB2C
:103BC000FFE70798407F20B9FFE707990120487772
:103BD000FFE7FFE7FFE79DF80B0008B080BD00009E
:103BE00080B58AB009900020089007900690059053
:103BF00004900998006840F20021C4F20101884253
:103C000027D1FFE7FFE741F24C00C4F20200016850
:103C100041F002010160006800F002000390039887
:103C2000FFE70220049003200590002001900690F9
:103C300040F20040C4F6000004A901F09FF9019A87
:103C400040200290114601F019FC029801F00CFC92
:103C5000FFE70AB080BD000081B0009001B070475E
:103C600080B58AB008900791069200208DF8170061
:103C7000089818B1FFE7079820B9FFE701208DF8F1
:103C80002700AEE10798C069012801D1FFE7FFE7EF
:103C900007988068042801D1FFE7FFE7FFE708984D
:103CA0004079012804D1FFE702208DF8270098E130
:103CB000089901204871FFE7FFE708990220087181
:103CC00007988068042878D1FFE701F039FB02905B
:103CD000069848BBFFE7FFE708980068406B0004C0
:103CE00000281BD5FFE701F02BFB0299401A0228A0
:103CF00013D3FFE708980068406B000400280BD539
:103D0000FFE70899086940F0080008610899032056
:103D100008718DF8270064E1FFE7DDE70798406A46
:103D200008990968086426E0FFE708980068406B76
:103D3000C00FD0B1FFE701F003FB0299401A02283F
:103D400012D3FFE708980068406BC00F58B1FFE737
:103D50000899086940F00800086108990320087173
:103D60008DF827003DE1FFE7DFE70798406A0899F3
:103D700009684864FFE708980068806C069901F0BC
:103D8000100240F2FF31914088430799896A9140BF
:103D9000084308990968886408980068C06C069907
:103DA00001F01002FF21914088430799C96A9140B0
:103DB000084308990968C864FFE70798C0690128A3
:103DC0001ED1FFE708980068806B0490069800F009
:103DD00010011F2000FA01F104988843049007980D
:103DE000006A03900398069901F0100100FA01F1AE
:103DF0000498084304900498089909688863FFE7C9
:103E000008980068C06B0490069800F01001072025
:103E100000FA01F10498884304900798806901280A
:103E200003D1FFE70020009013E007988069022883
:103E300003D1FFE7012000900AE00798406918B914
:103E4000FFE70120009002E000200090FFE7FFE77D
:103E5000FFE7079988684969084300990843039078
:103E6000069800F010014FF4807000FA01F10498F8
:103E70008843049007980279039840F48071012ADE
:103E800008BF08460390069800F010014FF4007038
:103E900000FA01F104988843049007984279039846
:103EA00040F40071012A08BF08460390049820F4EA
:103EB0004040049007980068022820D1FFE702F0F4
:103EC0004DF90190019846F60101C0F6891188422A
:103ED00005D3FFE7049840F4004004900EE00198F9
:103EE0004BF20141C0F2C441884205D3FFE7049878
:103EF00040F48040049000E0FFE7FFE705E007980A
:103F00000168049808430490FFE70398069901F0BC
:103F1000100100FA01F104980843049004980899EC
:103F20000968C863069800F010014FF4804000FA59
:103F300001F20898016808689043086008980068D2
:103F400000680490069800F0100140F6FE7000FA38
:103F500001F10498884304900798C068039003987F
:103F6000069901F0100100FA01F104980843049049
:103F70000498089909680860069800F01001C020AC
:103F800000FA01F2089801680868904308600798F1
:103F9000C068C0F3830003900798006900F03C01FB
:103FA000039840EA8110039008980068006E069913
:103FB00001F0100240F60F7191408843039991403F
:103FC0000843089909680866089901200871FFE705
:103FD000089900204871FFE79DF817008DF8270029
:103FE000FFE79DF827000AB080BD000080B582B0D1
:103FF0000090009820B9FFE701208DF8070016E037
:104000000098007938B9FFE70099002048710098BE
:1040100000F012F8FFE700990220087100990020D3
:104020000861009A012111718DF80700FFE79DF8E2
:10403000070002B080BD000080B58AB00990002062
:10404000089007900690059004900998006840F643
:104050000001C5F2000188422AD1FFE7FFE741F2E3
:104060004C00C4F20200016841F480310160006834
:1040700000F4803003900398FFE7FFE741F24C0023
:10408000C4F20200016841F001010160006800F023
:10409000010002900298FFE7102004900320059091
:1040A000002006904FF0904004A900F067FF19E04F
:1040B0000998006841F20001C5F20001884210D160
:1040C000FFE7FFE741F24C00C4F20200016841F44F
:1040D00080210160006800F4802001900198FFE7D2
:1040E000FFE7FFE70AB080BD82B0019000208DF8A5
:1040F0000300019890F82500022807D0FFE70199F6
:104100000420C86301208DF803002DE001980168A8
:10411000086820F00E0008600198816C086820F49F
:104120008070086001980168086820F0010008604C
:104130000198016C406C00F01F0201209040486023
:104140000198C16C006D48600198406D58B1FFE75F
:104150000198416D086820F4807008600198816DB5
:10416000C06D4860FFE7FFE70199012081F8250055
:10417000FFE70199002081F82400FFE79DF8030084
:1041800002B0704780B582B0019000208DF8030026
:10419000019890F82500022811D0FFE7019904202A
:1041A000C8630199012081F82500FFE701990020EB
:1041B00081F82400FFE701208DF803003FE001981B
:1041C0000168086820F00E0008600198016808681E
:1041D00020F0010008600198816C086820F480706C
:1041E00008600198016C406C00F01F0201209040B3
:1041F00048600198C16C006D48600198406D58B1ED
:10420000FFE70198416D086820F48070086001980C
:10421000816DC06D4860FFE70199012081F825009C
:10422000FFE70199002081F82400FFE70198806BE7
:1042300020B1FFE70198816B8847FFE7FFE79DF812
:10424000030002B080BD000080B584B003900398E5
:10425000006C006802900398006800680190029862
:104260000399496C01F01F01C8404007002825D57B
:10427000FFE79DF80400400700281FD5FFE70398DB
:10428000006800688006002807D4FFE703980168EB
:10429000086820F004000860FFE70398016C406C98
:1042A00000F01F020420904048600398006B20B18A
:1042B000FFE70398016B8847FFE76EE002980399D8
:1042C000496C01F01F01C840800700282FD5FFE787
:1042D0009DF804008007002829D5FFE703980068AF
:1042E0000068800600280BD4FFE70398016808687F
:1042F00020F00A0008600399012081F82500FFE7FB
:104300000398016C406C00F01F020220904048604E
:10431000FFE70399002081F82400FFE70398C06AB3
:1043200020B1FFE70398C16A8847FFE734E00298AD
:104330000399496C01F01F01C8400007002829D5E6
:10434000FFE79DF804000007002823D5FFE7039846
:104350000168086820F00E0008600398026C406C49
:1043600000F01F01012000FA01F151600399C863B8
:10437000039981F82500FFE70399002081F82400C4
:10438000FFE70398406B20B1FFE70398416B884734
:10439000FFE700E0FFE7FFE7FFE704B080BD0000B4
:1043A00080B584B00290029820B9FFE701208DF813
:1043B0000F009CE00298006840F20741C4F202013D
:1043C000884218D8FFE7029908684FF6F872CBF6D2
:1043D000FD7210444CF6CD42CCF6CC42A0FB02025A
:1043E0006FF0030000EA9200486402990020C4F2D2
:1043F0000200086418E0029908684FF6F832CBF61C
:10440000FD7210444CF6CD42CCF6CC42A0FB020229
:104410006FF0030000EA92004864029940F2004005
:10442000C4F202000864FFE70299022081F8250027
:104430000298006800680190019847F6F07188437F
:10444000019002998868D1F80CC00B694A6940EA6A
:104450000C00184310438A691043CA691043096A63
:104460000143019808430190019802990968086086
:104470000298FCF7ABF902988068B0F5804F04D140
:10448000FFE7029900204860FFE702990879896CEC
:1044900008600298C16C006D48600298406888B15D
:1044A000FFE70298406804280CD8FFE70298FCF761
:1044B000C7F90298416D002008600298816DC06DB7
:1044C000486007E0029900204865029988650299D2
:1044D000C865FFE702990020C863029A012182F8AB
:1044E0002510029981F824008DF80F00FFE79DF850
:1044F0000F0004B080BD000080B586B00490039129
:104500000292019300208DF80300FFE7049890F8D1
:104510002400012804D1FFE702208DF8170065E090
:104520000499012081F82400FFE7FFE7049890F840
:10453000250001284BD1FFE70499022081F82500CE
:1045400004990020C86304980168086820F00100FD
:10455000086004980399029A019BFCF78FF904986C
:10456000006B38B1FFE704980168086840F00E005E
:1045700008600CE004980168086820F004000860F6
:1045800004980168086840F00A000860FFE7049892
:10459000806C0068C003002807D5FFE70498816C91
:1045A000086840F480700860FFE70498406D38B1F7
:1045B000FFE70498416D086840F480700860FFE7E9
:1045C00004980168086840F00100086009E0FFE70E
:1045D0000499002081F82400FFE702208DF80300F1
:1045E000FFE79DF803008DF81700FFE79DF817001F
:1045F00006B080BD80B584B0039000F0A1FE0290AB
:10460000039801900198013048B1FFE740F22C0077
:10461000C2F200000168019808440190FFE7FFE73B
:1046200000F08EFE0299401A0199884201D2FFE7FC
:10463000F6E704B080BD000081B0009001B0704783
:1046400082B00190009102B0704700008AB00890DB
:1046500007910692059300200190089890F85C005D
:104660008DF803009DF80300022840F0FA80FFE770
:10467000079840283ED1FFE708980068D0F89000DE
:10468000000748B9FFE70899086E40F48070086693
:1046900001208DF82700EDE008980068D0F8900020
:1046A00000F080710120B0EB116F0FD1FFE7089887
:1046B0000068D0F8800000F400710120B0EB512FA9
:1046C00003D1FFE701200190FFE7FFE708980068AA
:1046D000D0F8900000F44071019800EB1120019097
:1046E0000898806C019901EBC10100EBC1000490B6
:1046F000FFE73DE008980068D0F89800000748B947
:10470000FFE70899086E40F48070086601208DF874
:104710002700AFE008980068D0F8980000F080719A
:104720000120B0EB116F0FD1FFE708980068D0F8B7
:10473000800000F480710120B0EB112F03D1FFE75E
:1047400001200190FFE7FFE708980068D0F8980083
:1047500000F44071019800EB112001900898C06CA2
:10476000019901EBC10100EBC1000490FFE7FFE7F5
:104770000498006800F080400699486006984068F8
:1047800038B9FFE704980068C0F38A4006990860CA
:1047900006E00498006820F0604006990860FFE792
:1047A0000498006800F0005006998860049800683A
:1047B00000F00040069908610498043004900498C1
:1047C00000880699C86104980068C0F30340069900
:1047D000C8600498006800F4801006994861049845
:1047E000006800F400100699886104980068C0F31E
:1047F00006600699086204980068C00F069948622E
:104800000498043004900498039000200290FFE77D
:1048100002980699CA684CF2E041C0F60001895C32
:1048200088420AD2FFE70398029A805C059988546F
:10483000FFE7029801300290EAE70798402806D186
:10484000FFE7019808990968C1F8940005E001980C
:1048500008990968C1F89C00FFE700208DF827003F
:1048600008E00899086E40F00800086601208DF8FD
:104870002700FFE79DF827000AB0704781B000903D
:1048800001B0704780B58AB0099009980068006D42
:1048900000F4E050089009980068416D08980840BD
:1048A000089009980068006D00F0070007900998CB
:1048B0000068416D07980840079009980068006DEE
:1048C00000F03800069009980068416D069808408D
:1048D000069009980068006D00F471000590099831
:1048E0000068416D05980840059009980068006DC2
:1048F00000F46020049009980068416D0498084015
:10490000049009980068406D019009980068006D56
:1049100000909DF8000000F040010020B0EB911FD6
:1049200012D0FFE79DF8040000F040010020B0EB3A
:10493000911F08D0FFE70998016840200865099891
:10494000FFF79CFFFFE7FFE79DF80100C007E0B11C
:10495000FFE79DF80500C007B0B1FFE709980068C0
:10496000D0F8D800029009980068D0F8E0100298BA
:1049700008400290099801684FF480700865099812
:10498000029900F0B5FAFFE7FFE7089848B1FFE7A2
:1049900008980999096808650998089900F0B4FA17
:1049A000FFE7079848B1FFE7079809990968086584
:1049B0000998079900F088FAFFE7069848B1FFE7E1
:1049C00006980999096808650998069900F082FA1D
:1049D000FFE79DF8010000F002010020B0EB510F4D
:1049E00013D0FFE79DF8050000F002010020B0EBB6
:1049F000510F09D0FFE7099801684FF4007008656E
:104A0000099800F087FAFFE7FFE79DF80010002003
:104A1000B0EBD11F1DD0FFE79DF804100020B0EBD4
:104A2000D11F15D0FFE709980068D0F8D400039093
:104A300009980068D0F8DC100398084003900998A2
:104A40000168802008650998039900F057FAFFE78C
:104A5000FFE79DF8010000F020010020B0EB511F9E
:104A600013D0FFE79DF8050000F020010020B0EB17
:104A7000511F09D0FFE7099801684FF400500865FD
:104A8000099800F031FAFFE7FFE79DF801100020D8
:104A9000B0EBD11F11D0FFE79DF805100020B0EB5F
:104AA000D11F09D0FFE7099801684FF4004008655D
:104AB000099800F015FAFFE7FFE79DF8010000F004
:104AC00040010020B0EB911F15D0FFE79DF80500D5
:104AD00000F040010020B0EB911F0BD0FFE70998D8
:104AE00001684FF4804008650999086E40F0800025
:104AF0000866FFE7FFE7049848B1FFE704980999C3
:104B00000968086509980499FFF79AFDFFE7059879
:104B100050B1FFE70598099909680865059A099950
:104B2000086E10430866FFE70998006E20B1FFE7A2
:104B30000998FFF781FDFFE70AB080BD80B584B01A
:104B40000290029820B9FFE701208DF80F0057E18D
:104B50000298006846F20041C4F20001884201D187
:104B6000FFE7FFE702988068B0F5407F01D1FFE7DB
:104B7000FFE7029890F85C0040B9FFE70299002037
:104B800081F85D00029800F03FF9FFE702980168A4
:104B9000886920F01000886100F0D2FB0190FFE7E7
:104BA0000298006880690007002815D5FFE700F02B
:104BB000C7FB0199401A0B280DD3FFE70299086E35
:104BC00040F0010008660299032081F85C00012092
:104BD0008DF80F0014E1E3E702980168886940F05E
:104BE0000100886100F0ACFB0190FFE702980068CB
:104BF0008069C007A8B9FFE700F0A2FB0199401A3D
:104C00000B280DD3FFE70299086E40F001000866FB
:104C10000299032081F85C0001208DF80F00EFE07D
:104C2000E4E702980168886940F002008861029810
:104C3000006846F20041C4F20001884208D1FFE753
:104C40000298406846F20051C4F200010860FFE794
:104C50000298007C012807D1FFE702980168886963
:104C600020F04000886106E002980168886940F001
:104C700040008861FFE70298407C012807D1FFE7E8
:104C800002980168886940F48040886106E00298D3
:104C90000168886920F480408861FFE70298807C81
:104CA000012807D1FFE702980168886920F4805045
:104CB000886106E002980168886940F48050886144
:104CC000FFE702980068806920F44070029A11683A
:104CD00092681043886102980168886920F0A400F6
:104CE000886102980168086920F010000861029844
:104CF000C068012807D1FFE702980168886940F081
:104D0000040088612BE00298C06830B3FFE7029886
:104D1000C068022819D0FFE702980168886940F04E
:104D20008000886102980168086940F010000861FD
:104D30000298C068032807D1FFE7029801688869D4
:104D400040F020008861FFE706E00298016888696A
:104D500040F020008861FFE700E0FFE7FFE7029AEC
:104D6000116853699069D2F81CE0A0F1010C6FF052
:104D7000FF0000EB0E2040EA4C60126A013A10433B
:104D80000022CFF6FF7202EB03421043C861029883
:104D90008068B0F5407F1CD1FFE7029A1168536A22
:104DA000906AD2F82CE001386FF0FF0C0CEB0E2C5F
:104DB00040EA0C00D2F830C06FF00F0202EB0C1288
:104DC00010430022CFF6FF7202EB03421043C8608B
:104DD000FFE702980168C26BD1F8C0001043C1F828
:104DE000C0000298FBF7B2FD029900208865029985
:104DF0000866029A012182F85C108DF80F00FFE727
:104E00009DF80F0004B080BD80B59CB01B900020C1
:104E10001A90199018901790169005A84421FBF746
:104E20001EFB1B98006846F20041C4F20001884254
:104E300047D1FFE74FF4805005904FF0007011907C
:104E400005A800F0C9FD18B1FFE7FBF75FFDFFE71C
:104E5000FFE741F25800C4F20200016841F000711E
:104E60000160006800F0007004900498FFE7FFE71D
:104E700041F24C00C4F20200016841F001010160FE
:104E8000006800F0010003900398FFE74FF4C05062
:104E90001690022000901790002001901890199011
:104EA00009201A904FF0904016A900F067F8009979
:104EB000019A1520029000F0E1FA029800F0D4FA6D
:104EC000FFE71CB080BD000082B00190009102B0ED
:104ED0007047000082B00190009102B0704700005E
:104EE00081B0009001B0704781B0009001B0704770
:104EF00082B00190009102B07047000082B0019032
:104F0000009102B07047000082B00190009102B0A1
:104F10007047000081B0009001B0704781B0ADF8DB
:104F20000200BDF80200B0F5005F09D1FFE740F2D2
:104F3000A001C2F200010A78012090430870FFE747
:104F400001B0704780B582B0ADF8060040F2144061
:104F5000C4F201000068BDF8061008420CD0FFE75B
:104F6000BDF8060040F21441C4F201010860BDF82A
:104F70000600FFF7D3FFFFE702B080BD8BB00A90B9
:104F8000099100200890FFE7099800680899C84037
:104F9000002800F0A581FFE709980068089A012120
:104FA0009140084007900798002800F09581FFE79E
:104FB0000998406800F00300012807D0FFE709982E
:104FC000406800F0030002282FD1FFE70A988068AC
:104FD000069008984100032000FA01F106988843E2
:104FE00006900998C0680899490000FA01F10698EE
:104FF0000843069006980A9988600A9840680690C7
:105000000899012000FA01F1069888430690099852
:105010004068C0F30010089900FA01F106980843AF
:10502000069006980A994860FFE70998406800F0E2
:105030000300032818D0FFE70A98C0680690089874
:105040004100032000FA01F1069888430690099870
:1050500080680899490000FA01F106980843069013
:1050600006980A99C860FFE70998406800F00300B5
:10507000022826D1FFE70A9808996FF0030202EA96
:1050800051010844006A0690089800F0070081006A
:105090000F2000FA01F106988843069009980069EC
:1050A000089901F00701890000FA01F10698084308
:1050B000069006980A99089B02EA53021144086276
:1050C000FFE70A980068069008984100032000FA5C
:1050D00001F10698884306900998406800F00300A3
:1050E0000899490000FA01F10698084306900698CD
:1050F0000A990860099880798007002800F0EB8001
:10510000FFE7FFE741F26000C4F20200016841F0EE
:1051100001010160006800F0010005900598FFE7BB
:10512000089820F003000821C4F2010140580690BD
:10513000089800F0030081000F2000FA01F10698A2
:10514000884306900A98B0F1904F03D1FFE7002002
:10515000049042E00A9840F20041C4F600018842FF
:1051600003D1FFE70120039034E00A9840F60001E4
:10517000C4F60001884203D1FFE70220029026E036
:105180000A9840F60041C4F60001884203D1FFE7C7
:105190000320019018E00A9841F20001C4F60001D2
:1051A000884203D1FFE7042000900AE00A9941F207
:1051B0000042C4F600020620914208BF052000907C
:1051C000FFE700980190FFE701980290FFE702983F
:1051D0000390FFE703980490FFE70498089901F013
:1051E0000301890000FA01F1069808430690069829
:1051F000089921F003010822C4F20102885040F20C
:105200000840C4F201000068069007990698884398
:10521000069009988079C006002805D5FFE7079910
:10522000069808430690FFE7069840F20841C4F24A
:105230000101086040F20C40C4F2010000680690D1
:105240000799069888430690099880798006002877
:1052500005D5FFE70799069808430690FFE70698EB
:1052600040F20C41C4F20101086040F20440C4F273
:1052700001000068069007990698884306900998EF
:1052800080798007002805D5FFE70799069808432D
:105290000690FFE7069840F20441C4F2010108605D
:1052A00040F20040C4F20100006806900799069899
:1052B0008843069009988079C00728B1FFE70799CD
:1052C000069808430690FFE7069840F20041C4F2B2
:1052D00001010860FFE7FFE708980130089053E6F6
:1052E0000BB0704782B00190ADF8021001980069D0
:1052F000BDF80210084204D0FFE701208DF801003C
:1053000003E000208DF80100FFE79DF8010002B0E6
:105310007047000082B00190ADF802108DF80120B6
:105320009DF8010028B1FFE7BDF8020001998861EE
:1053300004E0BDF8020001998862FFE702B07047FF
:1053400040F2E060C2F200000068704740F22C00BA
:10535000C2F20000026840F2E061C2F20001086897
:10536000104408607047000080B582B000208DF8BE
:105370000700032000F09AF80F2000F00DF820B18C
:10538000FFE701208DF8070002E000F049F8FFE791
:105390009DF8070002B080BD80B582B0019000206A
:1053A0008DF8030040F22C00C2F20000006878B3D0
:1053B000FFE740F20000C2F20000006840F22C015A
:1053C000C2F200010A684FF47A71B1FBF2F1B0FB4E
:1053D000F1F001F04BFBB0B9FFE701980F280DD8B1
:1053E000FFE701994FF0FF30002200F047F80198E5
:1053F00040F23001C2F20001086003E001208DF8A4
:105400000300FFE703E001208DF80300FFE703E05E
:1054100001208DF80300FFE79DF8030002B080BD76
:1054200080B582B0FFE741F26000C4F2020001687B
:1054300041F001010160006800F001000190019855
:10544000FFE7FFE741F25800C4F20200016841F0B3
:1054500080510160006800F0805000900098FFE7E4
:1054600000F0B0FA02B080BD80B582B08DF80700C0
:105470009DF9070006F0A2F902B080BD80B586B0A4
:105480008DF817000491039206F0B0F902909DF98F
:105490001700019002980499039A04F01DFC01463C
:1054A000019806F0ABF906B080BD000080B582B06F
:1054B0000190019806F0C4F902B080BD80B586B0B5
:1054C000049000208DF80F00049820B9FFE7012018
:1054D0008DF81700E9E0049890F83A00052804D107
:1054E000FFE701208DF81700DFE0049890F83A00FC
:1054F000022804D1FFE701208DF81700D5E00498B9
:10550000806808B9FFE7FFE70498806908B1FFE702
:10551000FFE704988068402801D1FFE7FFE704987F
:10552000C06A102801D1FFE7FFE7FFE741F2600002
:10553000C4F20200016841F001010160006800F05E
:10554000010002900298FFE7049890F83A0028B909
:10555000FFE70499002081F83900FFE7049800F084
:10556000A9F804988068402805D0FFE7049880686F
:10557000602838D1FFE704980068006820F0100028
:10558000049A1168D26A10430860049800680068A1
:1055900043F61161CEF200010840049B01931968A3
:1055A0005A68D3F808E0D3F810C042EA0E0242EA83
:1055B0000C0293F814E042F4807CBEF1010F08BFA6
:1055C0006246D3F824C042EA0C02D3F828C042EA6B
:1055D0000C02D3F830C042EACC425B6B42EA036271
:1055E000104308603BE004980068006820F0100059
:1055F000049A1168D26A1043086004980068006831
:1056000043F61161CEF200010840049B0093196833
:105610005A68D3F808E0D3F80CC042EA0E0242EA16
:105620000C02D3F810C042EA0C0293F814E042F4E2
:10563000807CBEF1010F08BF6246D3F824C042EA65
:105640000C02D3F828C042EA0C02D3F830C042EA78
:10565000CC425B6B42EA036210430860FFE70498A8
:1056600000688069C00F88B9FFE704980068806906
:1056700020F03F00049B19689A69D3F81CC01B6A8C
:1056800042EA0C021A4310438861FFE7049890F83D
:105690003A0028B9FFE70499012081F83A00FFE7B2
:1056A0009DF80F008DF81700FFE79DF8170006B072
:1056B00080BD000080B58AB0099000200890079056
:1056C0000690059004900998006840F20031C4F2F9
:1056D000010188421BD1FFE7FFE741F24C00C4F211
:1056E0000200016841F001010160006800F0010062
:1056F00003900398FFE70E200490032005900020FC
:1057000006904FF0904004A9FFF738FC4BE0099851
:10571000006840F20431C4F2010188421BD1FFE766
:10572000FFE741F24C00C4F20200016841F00101C0
:105730000160006800F0010002900298FFE7E0209D
:10574000049003200590002006904FF0904004A99B
:10575000FFF714FC26E00998006840F20831C4F213
:10576000010188421DD1FFE7FFE741F24C00C4F27E
:105770000200016841F002010160006800F00200CF
:1057800001900198FFE70720049003200590002076
:10579000069040F20040C4F6000004A9FFF7EEFBBB
:1057A000FFE7FFE7FFE70AB080BD000082B001908D
:1057B00000208DF80300019820B9FFE701208DF843
:1057C000030020E0019890F83A00052804D1FFE793
:1057D00001208DF8030015E0019890F83A000128A7
:1057E0000BD1FFE701980168086840F001000860EC
:1057F0000199042081F83A0003E001208DF80300AC
:10580000FFE7FFE7FFE79DF8030002B070470000E5
:1058100085B00390039800285ED1FFE747F20000AF
:10582000C4F20000006800F4C060B0F5806F49D198
:10583000FFE747F28001C4F20001086820F480709D
:10584000086047F20002C4F200021168012060F310
:105850004A21116040F20001C2F2000109683222BF
:1058600051434DF68362C4F21B32A1FB022100EBCF
:1058700091400290FFE747F21400C4F20000016873
:10588000002049050029019006D5FFE7029800286D
:1058900018BF01200190FFE70198C00720B1FFE782
:1058A000029801380290E6E747F21400C4F20000C3
:1058B00000684005002804D5FFE703208DF8130099
:1058C0007CE008E047F28001C4F20001086820F49F
:1058D00080700860FFE76DE00398B0F5007F5ED14F
:1058E000FFE747F20000C4F20000006800F4C06067
:1058F000B0F5806F49D1FFE747F28001C4F20001A3
:10590000086840F48070086047F20002C4F20002A8
:105910001168012060F34A21116040F20001C2F2D7
:1059200000010968322251434DF68362C4F21B32F2
:10593000A1FB022100EB91400290FFE747F2140027
:10594000C4F200000168002049050029009006D536
:10595000FFE70298002818BF01200090FFE7009899
:10596000C00720B1FFE7029801380290E6E747F24E
:105970001400C4F2000000684005002804D5FFE7C9
:1059800003208DF8130019E008E047F28001C4F20B
:105990000001086840F480700860FFE709E047F202
:1059A0000001C4F200010868022262F34A20086084
:1059B000FFE7FFE700208DF81300FFE79DF81300D5
:1059C00005B0704747F20801C4F20001086840F4CE
:1059D000804008607047000080B586B005900020C8
:1059E0008DF80B008DF80A000598807800070028D4
:1059F00040F1B580FFE700208DF8090041F2580022
:105A0000C4F202000068C000002813D4FFE7FFE7DB
:105A100041F25800C4F20200016841F08051016077
:105A2000006800F0805001900198FFE701208DF898
:105A30000900FFE747F20001C4F20001086840F4E2
:105A400080700860FFF77CFC0390FFE747F20000DE
:105A5000C4F200000068C00500280CD4FFE7FFF77F
:105A60006FFC0399401A032804D3FFE703208DF845
:105A70000B0000E0EAE79DF80B0000285BD1FFE790
:105A800041F29000C4F20200006800F440700490FB
:105A90000498C8B1FFE704980599096C884213D0AF
:105AA000FFE741F29001C4F20201086820F440705F
:105AB0000490086840F480300860086820F4803062
:105AC000086004980860FFE79DF81000C007E0B187
:105AD000FFE7FFF735FC0390FFE741F29000C4F2C7
