:020000040800F2
:10000000A80A0020790200089B4300083D3E000832
:10001000994300080D070008114F00080000000078
:100020000000000000000000000000009F430008E6
:10003000BF070008000000009D430008514400086D
:10004000930200089302000893020008930200083C
:10005000930200089302000893020008930200082C
:100060009302000893020008930200081107000899
:10007000930200089302000893020008930200080C
:1000800093020008000000000D060008930200081B
:1000900093020008930200089302000893020008EC
:1000A000E94400080145000893020008F5440008EF
:1000B00093020008930200089302000893020008CC
:1000C00093020008930200089302000893020008BC
:1000D000930200089302000893020008054F0008ED
:1000E000C107000893020008930200089302000869
:1000F0009302000893020008930200080000000029
:1001000000000000930200080000000093020008B5
:100110009302000800000000930200089302000808
:10012000930200089302000893020008930200085B
:100130009302000800000000000000009302000885
:100140009302000893020008000000000000000075
:10015000000000000000000000000000000000009F
:1001600000000000000000000000000093020008F2
:1001700093020008000000000000000000000000E2
:1001800000000000930200080000000000000000D2
:10019000000000000000000000000000000000005F
:1001A0000000000000000000930200089302000815
:1001B0009302000893020008930200080000000068
:1001C0000000000093020008000000000000000092
:1001D000930200089302000800F002F800F03CF8D7
:1001E0000AA090E8000C82448344AAF10107DA4592
:1001F00001D100F031F8AFF2090EBAE80F0013F0A8
:10020000010F18BFFB1A43F001031847B458000050
:10021000D4580000103A24BF78C878C1FAD85207E1
:1002200024BF30C830C144BF04680C607047000070
:100230000023002400250026103A28BF78C1FBD8EF
:10024000520728BF30C148BF0B6070471FB505F08B
:1002500010F81FBD10B510BD00F001F91146FFF7F1
:10026000F5FF04F0FFFE00F01FF903B4FFF7F2FF03
:1002700003BC00F027F900000948804709480047FF
:10028000FEE7FEE7FEE7FEE7FEE7FEE7FEE7FEE746
:10029000FEE7FEE704480549054A064B70470000A3
:1002A000D9440008D9010008A8040020A80A0020A9
:1002B000A8060020A806002053EA020C00F069807E
:1002C0002DE9F04B4FF00006002B1FBFB3FA83F56A
:1002D00003FA05F424FA05F65E4012BF1643B2FA9B
:1002E00082F502FA05F4C5F120051EBF22FA05FCCD
:1002F00044EA0C04203556EA044C4FEA144418BF73
:10030000641C4FF000084FF00009904271EB030CA1
:1003100039D3002919BFB1FA81F701FA07F6B0FA0B
:1003200080F700FA07F6C7F120071EBF20FA07FC86
:1003300046EA0C062037B6FBF4FCA7EB0507103F96
:1003400007F01F0BCBF120060CFA0BFB2CFA06F67C
:1003500044BFB3460026202FA4BF5E464FF0000BDB
:100360005BEA060C08BF4FF0010B19EB0B09ABFB66
:10037000027C48EB0608C01B06FB02CC0BFB03CC3F
:1003800071EB0C01C1E70B46024641464846BDE809
:10039000F08B13B54FF000004FF00001AFF3008079
:1003A000BDE81C40704710B5203AC0F00B80B1E8A2
:1003B0001850203AA0E81850B1E81850A0E818509A
:1003C000BFF4F5AF5FEA027C24BFB1E81850A0E8A3
:1003D000185044BF18C918C0BDE810405FEA827CBD
:1003E00024BF51F8043B40F8043B08BF7047D207D4
:1003F00028BF31F8023B48BF11F8012B28BF20F875
:10040000023B48BF00F8012B70474FF0000200B5D7
:10041000134694469646203922BFA0E80C50A0E827
:100420000C50B1F12001BFF4F7AF090728BFA0E8D5
:100430000C5048BF0CC05DF804EB890028BF40F8A1
:10044000042B08BF704748BF20F8022B11F0804FE3
:1004500018BF00F8012B704770477047704775460A
:1004600000F02CF8AE4605006946534620F0070020
:10047000854618B020B5FFF70DFFBDE820404FF0CE
:1004800000064FF000074FF000084FF0000B21F07E
:100490000701AC46ACE8C009ACE8C009ACE8C0094B
:1004A000ACE8C0098D46704710B50446AFF3008034
:1004B0002046BDE81040FFF7D8BE00000048704756
:1004C0004804002001491820ABBEFEE726000200C8
:1004D000704700009FED241AB5EE002A45F2BC23B8
:1004E0000021B7EE004AC0F6000320EE010A30EE0C
:1004F000020ABDEEC01AB5EEC00A11EE100AF1EE06
:1005000010FA9FED1A1AB8BF013802EE100AB8EEC1
:10051000C22A30EE420A9FED162A20EE010ABDEEF5
:10052000C01A11EE100A30EE021A0246B1EB502F3B
:1005300018BF002202EE102A03EB8203B1EB502F0A
:1005400018BFB0EE410AB8EE421A93ED002A93EDBF
:10055000013A30EE410A34EE401A20EE030A21EE51
:10056000021A31EE000A704783F9223E000000446F
:10057000000000C49FED221A45F2BC230021B7EE13
:10058000004AC0F6000320EE010ABDEEC01AB5EE27
:10059000C00A11EE100AF1EE10FA9FED1A1AB8BF58
:1005A000013802EE100AB8EEC22A30EE420A9FED80
:1005B000162A20EE010ABDEEC01A11EE100A30EE26
:1005C000021A0246B1EB502F18BF002202EE102A89
:1005D00003EB8203B1EB502F18BFB0EE410AB8EE27
:1005E000421A93ED002A93ED013A30EE410A34EEBF
:1005F000401A20EE030A21EE021A31EE000A70477B
:1006000083F9223E00000044000000C410B50448F5
:1006100000F0FAFFBDE81040024800F0F5BF00000E
:1006200064010020D001002070B504460068816894
:100630008268C1F3400112F0010F28D039BB8168F4
:1006400001F00D01012914D18168124A1140891C61
:10065000816021680320086001F0B4FD054612E0C6
:1006600001F0B0FD401B02280DD920688068C0074A
:1006700009D0E06D40F01000E065206E40F0010010
:100680002066012070BD20688068C007E8D1002086
:1006900070BD0000C0FFFF7F70B504460068816830
:1006A00011F0010F2DD18168174A11421AD18168CA
:1006B000D5432940491C816001F084FD06461BE0BA
:1006C000816811F0010F03D181682940491C8160C4
:1006D00001F078FD801B02280ED920680068C04315
:1006E000C00709D0E06D40F01000E065206E40F0DA
:1006F00001002066012070BD20680168C943C90758
:10070000DED1002070BD00003F000080FEE7000049
:10071000014801F008BB0000CC0300200D4902682D
:100720008A4201D20C4901E00B492031D2B2142394
:10073000083AB2FBF3F2436C02F01F0223F003030A
:100740001944816404498031C164012191400165EB
:100750007047000008040240000802400179074A7F
:1007600002EB81024265054A4432491E826501F06E
:100770001F0201219140C16570470000FC08024042
:1007800030B5D0E913456560446D14B1D0E9164524
:10079000656090F8444004F01F050124AC40056CEE
:1007A0006C60046863608368102B036803D09960F1
:1007B0000068C26030BD9A600068C16030BD70479B
:1007C00010B54FF4806001F007FC4FF4006001F0B9
:1007D00003FCBDE810404FF4005001F0FDBB72B6C1
:1007E000FEE70000F8B500260446009690F8580091
:1007F0000D4601280BD0012084F858002046FFF751
:1008000013FF0100E06D04D040F010002AE0022048
:10081000F8BD20F4885040F00200E065206882684E
:10082000134B1A4005F080431A4342F000428260A5
:10083000104A20680EE0009B5B1C0093934209D392
:10084000E06D20F0020040F01000E06584F8586090
:100850000120F8BD8368DB0FEDD1E06D20F00200D0
:1008600040F00100E06584F858600846F8BD0000DB
:10087000C0FFFF3F02DE0400704700002DE9F84F83
:100880004FF000080446CDF800800D4694F858203B
:10089000DFF8EC93616947464046012A0AD00126F9
:1008A000F84A84F8586041B1296A012905D0A36E3D
:1008B000EBB129E00220BDE8F88F6868092838D13B
:1008C000A96A4FF4785041B12B6801F07C0100EA2D
:1008D00053400843E96A084302E0296800EA5140AE
:1008E0002168CB6C13400343CB64606621E0C4E90C
:1008F0001971A96A286A31B101F07C01401E0843D0
:10090000E96A084300E0401E29682B79C1F384613D
:1009100003F01F0399400143A06E401EA066636E62
:1009200043EA0103636604D12068C16C1140194396
:10093000C164206803F093FA58B995F8250098B17E
:100940002068C16895F8262021F4401141EA4251FF
:10095000C160206803F08BFA8246206803F07FFABA
:100960005AEA00000DD0FBE095F8260095F8241017
:10097000400540EA01512068C26822F44012114348
:10098000E6E7A86A30B1E86A20B195F825000128A9
:100990005ED003E095F82500012804D02068C168E6
:1009A00021F0007103E02068C16841F00071C1606E
:1009B00095F83000012852D02068016921F0020129
:1009C0000161AA6829682068B2F1004F38D003F0AD
:1009D00069FA2068416921F0004141612068696934
:1009E000C268C2F3C102520091402A69042A44D06D
:1009F00000EB82002B68026EDFF88CC203F0F84334
:100A000002EA0C020B431A4342F0004101662068DF
:100A10002A69A96900EB8200026E22F080720A4303
:100A20000266297F22682869012923D05FF000012E
:100A300002EB8000026E22F000720A4302668FE031
:100A4000002203F02FFA2068416941F00041C4E719
:100A5000E06D40F02000E0654FF00108A8E7D5E91F
:100A60000D1001432068026922F4FF7242F0020275
:100A70001143A5E74FF00071DAE7002103F0E5F933
:100A8000400320684FF0000172D003F0DEF990FAC5
:100A9000A0F0B0FA80F1286842036ED090FAA0F07E
:100AA000B0FA80F0814204D100221146206803F0A0
:100AB00010FA0121206803F0C8F9400320684FF0C4
:100AC00001015DD003F0C1F990FAA0F0B0FA80F115
:100AD0002868420359D090FAA0F0B0FA80F0814221
:100AE00004D100220121206803F0F3F902212068DB
:100AF00003F0ABF9400320684FF0020148D003F047
:100B0000A4F990FAA0F0B0FA80F12868420344D02A
:100B100090FAA0F0B0FA80F0814204D100220221C4
:100B2000206803F0D6F90321206803F08EF9400312
:100B300020684FF0030133D003F087F990FAA0F05A
:100B4000B0FA80F1286842032FD090FAA0F0B0FAF2
:100B500080F0814204D100220321206803F0B9F91A
:100B60002068816811F0010F22D0B6E000E004E0B7
:100B700003F06BF9C0F384618DE7C0F3846091E703
:100B800003F063F9C0F38461A2E7C0F38460A6E7D1
:100B900003F05BF9C0F38461B7E7C0F38460BBE79F
:100BA00003F053F9C0F38461CCE7C0F38460D0E76D
:100BB0002A7B296850F8B03FC1F3120C23EA0C03DA
:100BC00002F0180C314A22FA0CF20A401343036077
:100BD000E96849457ED1286841031CD090FAA0F10C
:100BE000B1FA81F1491C01F01F0109294FEA403196
:100BF00032D8002912D000BF90FAA0F1B1FA81F1E9
:100C000001F1010101F01F0106FA01F609D100BF4F
:100C1000C0F3846109E0C0F38461E3E7C0F3846159
:100C2000EEE790FAA0F1B1FA81F101F1010101F0D2
:100C30001F0146EA816102D1C0F3846003E090FAAB
:100C4000A0F0B0FA80F000F1010000F01F0000EB0E
:100C5000400041EA00513AE000290ED090FAA0F19C
:100C6000B1FA81F101F1010101F01F0106FA01F66B
:100C70000ED100BFC0F384610EE0C0F38461F1E7E0
:100C800000007F400040100400F0FF03FFFF07005A
:100C900090FAA0F1B1FA81F101F1010101F01F0117
:100CA00046EA816102D1C0F3846003E090FAA0F0CB
:100CB000B0FA80F000F1010000F01F002B4A00EBB9
:100CC000400002EB005041EA000141F00071AA68C7
:100CD000206800E001E003F0E5F825482A680242B8
:100CE00040D024488168244B01F0E0719A4202D040
:100CF000224B9A421BD10B0219D42268B2F1A04FA9
:100D000030D1826841F4000122F0E0720A4382602F
:100D10001B481C490068B0FBF1F0801C00EB400050
:100D2000800000E0401E00900028FBD11AE0164D24
:100D3000164BAA4207D1CD0105D422689A4211D0A0
:100D400041F0807109E0124DAA420BD14A0209D448
:100D500022689A4206D041F48001826822F0E07253
:100D60000A43826084F858704046A4E5000020FEE3
:100D70000000088000030050000021C31000C09054
:100D800048000020400D0300000052C70001005041
:100D9000000084CB2DE9F0414B4988427ED14C487C
:100DA0004A4C056820466678C389028A418A4648CB
:100DB0000068EEB350F8806FB6B2E680406880B24B
:100DC0006081D5F88050F31A00EE103AADB225815B
:100DD000F8EEC00A9FED3F0AAA1A401A60EE800A98
:100DE000C4ED050A00EE902AF8EEE00A60EE800AF3
:100DF000C4ED060A00EE900AF8EEE00A20EE800A42
:100E000084ED070A04F085F83348344A90ED001A5F
:100E1000BCEEC10A10EE101A116090ED010A121D0D
:100E2000FCEEC00A10EE901A1160D0ED020A00E04C
:100E300022E0FCEEE01A111D11EE900A086028482D
:100E4000D4ED051A0146C0ED001AD4ED061A14229D
:100E5000C0ED011A80ED021A80ED030AC0ED040A0C
:100E600004F12000FFF79FFA04F12001BDE8F041F2
:100E700018221C4802F094BFE678761CF7B2E7709F
:100E800050F8806FE680D5F8805025814068334463
:100E900060819BB22A44E38192B200E011E00844F1
:100EA000228281B261820A2F0BD3012060700A2056
:100EB000B3FBF0F3B2FBF0F2B1FBF0F0E38122827E
:100EC0006082BDE8F0810000640100200000002085
:100ED000D00100206EFAB33C3C040020342C0140C9
:100EE000500100203C030020704700002DE9F04134
:100EF00004463548806800F01F05206802F0AFFF07
:100F000008BB2168C868C96C00F0004011F4C07FBC
:100F100000D190B194F85800012814D0012084F831
:100F200058002046FFF7B8FB02004FF000030CD03A
:100F300084F858301046BDE8F081E06D40F02000A4
:100F4000E0650120F7E70220F5E7E06DC00504D574
:100F5000206E20F00800206600E02366E06D42F27B
:100F60000101884340F48050E065184F21684FF03C
:100F7000A046B94201D1304600E00846884200D080
:100F80001DB9E06D20F48010E0656020086084F8F1
:100F900058302068B84200D00646864209D045B194
:100FA000062D06D0072D04D0E06D40F48010E065DA
:100FB000C0E7C16811F0007FBCD18168044B1940C3
:100FC00041F008018160B5E70003005000010050C6
:100FD000C0FFFF7F2DE9F04104464548806800F0DE
:100FE0001F05206802F03BFF08BB2168C868C96C78
:100FF00000F0004011F4C07F00D190B194F8580087
:10100000012814D0012084F858002046FFF744FB43
:1010100001004FF000020CD084F858200846BDE8CB
:10102000F081E06D40F02000E0650120F7E702204C
:10103000F5E7E06DC00504D5206E20F008002066BD
:1010400000E02266E06D42F20103984340F48050D4
:10105000E065284B20684FF0A046984201D1374602
:1010600000E00746874200D01DB9E76D27F48017DE
:10107000E7656027076084F858202068C2689202FC
:1010800003D5426842F480624260A0690828206863
:10109000426807D022F0400242602068426842F075
:1010A000200206E022F0200242602068426842F0FE
:1010B000400242602068984201D1324600E0024678
:1010C000824209D045B1062D06D0072D04D0E06D2F
:1010D00040F48010E065A1E7C26812F0007F9DD166
:1010E0008268054B1A4042F00802826096E70000D1
:1010F0000003005000010050C0FFFF7F70477047A1
:101100002DE9F047044690F858009CB00E464FF089
:101110000009012815D0012084F8580000251795F2
:10112000189520684FF0A04840450ED1284F0097F1
:10113000384602F09CFE8246206802F098FE60B1BC
:101140000EE002201CB0BDE8F087E06D40F020000A
:10115000E06584F858500120F4E7BAF1000F09D097
:10116000E06D40F02000E0654FF0010984F8585030
:101170004846E7E71748326840F61F71002A826840
:1011800022F4604216D094F8383042EA4332736851
:101190001A438260D8F80820BB6802F0010203F00D
:1011A00001031A43E2D1B36832681A4383688B4360
:1011B0001A430BE08260D8F80820BB6802F00102F5
:1011C00003F001031A43D1D182688A438260CDE7DC
:1011D00000010050000300502DE9F84F002704469D
:1011E000009790F85800DFF8E0930D46B8460128C4
:1011F00011D0012684F85860206802F034FE60B1F6
:10120000E06D40F02000E0655FF0010784F8588051
:101210003846BDE8F88F0220FBE7D5E900210C2312
:10122000206803EA91131844036B01F01F014FF08B
:101230001F0C0CFA01FCC2F3846223EA0C038A40FF
:1012400013430363206802F00EFE8246206802F01A
:1012500002FE5AEA00003CD1AA6829682068B2F16F
:10126000004F37D002F00FFE2068416921F00041A5
:10127000416120686969C268C2F3C10252009140AD
:101280002A69042A31D000EB82002B68026EDFF855
:101290003CC303F0F84302EA0C020B431A4342F04A
:1012A0000041016620682A69A96900EB8200026E8C
:1012B00022F080720A430266297F22682869012988
:1012C00010D0002102EB8000026E22F000720A436F
:1012D00002667DE0002202F0D6FD2068416941F0FF
:1012E0000041C5E74FF00071ECE7002102F0A7FDD7
:1012F000400320684FF0000172D002F0A0FD90FA88
:10130000A0F0B0FA80F1286842036ED090FAA0F005
:10131000B0FA80F0814204D100221146206802F028
:10132000D0FD0121206802F08AFD400320684FF0C3
:1013300001015DD002F083FD90FAA0F0B0FA80F1D7
:101340002868420359D090FAA0F0B0FA80F08142A8
:1013500004D100220121206802F0B3FD022120689F
:1013600002F06DFD400320684FF0020148D002F00A
:1013700066FD90FAA0F0B0FA80F12868420344D0EC
:1013800090FAA0F0B0FA80F0814204D1002202214C
:10139000206802F096FD0321206802F050FD400312
:1013A00020684FF0030133D002F049FD90FAA0F01D
:1013B000B0FA80F1286842032FD090FAA0F0B0FA7A
:1013C00080F0814204D100220321206802F079FDDF
:1013D0002068816811F0010F22D0ACE000E004E049
:1013E00002F02DFDC0F384618DE7C0F3846091E7C6
:1013F00002F025FDC0F38461A2E7C0F38460A6E794
:1014000002F01DFDC0F38461B7E7C0F38460BBE761
:1014100002F015FDC0F38461CCE7C0F38460D0E72F
:101420002A7B296850F8B03FC1F3120C23EA0C0361
:1014300002F0180C664A22FA0CF20A4013430360C9
:10144000E968494577D1286841031CD090FAA0F19A
:10145000B1FA81F1491C01F01F0109294FEA40311D
:1014600032D8002912D000BF90FAA0F1B1FA81F170
:1014700001F1010101F01F0106FA01F609D100BFD7
:10148000C0F3846109E0C0F38461E3E7C0F38461E1
:10149000EEE790FAA0F1B1FA81F101F1010101F05A
:1014A0001F0146EA816102D1C0F3846003E090FA33
:1014B000A0F0B0FA80F000F1010000F01F0000EB96
:1014C000400041EA005132E000290ED090FAA0F12C
:1014D000B1FA81F101F1010101F01F0106FA01F6F3
:1014E00006D100BFC0F3846106E0C0F38461F1E778
:1014F00090FAA0F1B1FA81F101F1010101F01F01AF
:1015000046EA816102D1C0F3846003E090FAA0F062
:10151000B0FA80F000F1010000F01F002D4A00EB4E
:10152000400002EB005041EA000141F00071AA685E
:10153000206802F0A8FC28482A6802423FF466AE00
:1015400026488168264B01F0E0719A4202D0254B73
:101550009A421CD10B021AD42268B2F1A04F7FF438
:1015600055AE826841F4000122F0E0720A438260C5
:101570001D481E490068B0FBF1F0401C00EB400024
:10158000800000E0401E00900028FBD13EE6184D90
:10159000184BAA4207D1CD0105D422689A42F5D052
:1015A00041F0807109E0144DAA42EFD14A02EDD416
:1015B00022689A42EAD041F48001826822F0E07207
:1015C0000A43826022E6000000007F4000F0FF0333
:1015D000FFFF0700000020FE00000880000300500D
:1015E000000021C31000C09048000020400D0300FF
:1015F000000052C700010050000084CB70477047C4
:101600000068006C704700002DE9F05F0446006838
:1016100006684568DFF854B2DBF8080000F01F07E1
:10162000B0070ED5A8070CD5E06DC00603D4E06D59
:1016300040F40060E0652046FFF71EF921680220B3
:101640000860DFF82CA270074FF0A04801D56807AA
:1016500003D4300737D5280735D5E06DC00603D44D
:10166000E06D40F40070E065206802F004FC20B3F7
:101670002068504501D1424600E00246824208D02F
:101680003FB1052F05D0092F03D0504503D1414666
:1016900002E0C16801E00146C96889040DD401680F
:1016A00009070AD502F0DFFB58B3E06D40F01000E7
:1016B000E065206E40F0010020662046FFF79EFFA7
:1016C00021680C200860B00601D5A80603D4700676
:1016D00058D5680656D5E06DC00603D4E06D40F4D9
:1016E0000050E0652068C16C11F4C07F1AD0002161
:1016F000894602F0C0FB02462068504514D143469B
:1017000013E02068416821F00C014160E06D20F495
:101710008070E065E06DC004CFD4E06D40F0010062
:10172000E065CAE70121E3E70346834208D03FB101
:10173000062F05D0072F03D0504503D1414602E0C4
:10174000C16801E00146C968B9F1000F14D08B01EE
:1017500002D58AB18A040FD4026852060CD58902D8
:101760000AD402F078FBE8B3E06D40F01000E065C9
:10177000206E40F0010020662046FFF70BFB216839
:101780006020086030060BD5280609D5E06D40F4CE
:101790008030E065204600F06BF921688020086009
:1017A000F0050CD5E8050AD5E06D40F40030E065A1
:1017B0002046FFF7A3FC21684FF480700860B00555
:1017C0000CD5A8050AD5E06D40F48020E0652046E0
:1017D000FFF795FC21684FF400700860F0062ED5E5
:1017E000E80600E008E02AD5E06BD0B1AFB1DBF845
:1017F000080000F4604013E02068416821F06001B7
:101800004160E06D20F48050E065E06DC005B3D428
:10181000E06D40F00100E065AEE72068C068C007F9
:1018200050B1E06D40F48060E065206E40F0020051
:1018300020662046FFF7E3FE21681020086070054F
:1018400012D5680510D5E06D40F48040E065206E4B
:1018500040F00800206621684FF480600860204650
:10186000BDE8F05FFFF740BBBDE8F09F000300500C
:1018700000010050F8B54FF0000504002E46009519
:1018800002D0E06D10B107E00120F8BD204600F065
:10189000F1F8266684F8586020688168C1F34071C9
:1018A00019B181686A4A1140816020688168C1F37A
:1018B000007189B98168674A114041F080518160A7
:1018C000654866490068B0FBF1F04000801C00E00C
:1018D000401E00900028FBD120688168C1F3007190
:1018E00041B9E16D41F01001E165216E41F0010166
:1018F0002166012502F0B7FAE16DC90600D430B1C6
:10190000E06D40F01000E06501252846F8BDE06D6F
:1019100020F4807040F00200E0652068806810F0DC
:10192000010F11D14FF0A04080684D4900F0010037
:10193000896801F00101084306D14A48616882685C
:1019400022F47C120A438260E168E06B627F084304
:10195000A16841EA4231084394F8241040EA01406A
:10196000012904D1218D404A02EB41410843E16A3B
:1019700029B101F47871226B014342EA0100216828
:10198000CA683A4B1A400243CA6020680169626B18
:1019900021F0406111430161206802F064FA0646BB
:1019A000206802F058FA30432ED1207F94F8381086
:1019B000800340EA41022068C16844F2020399436F
:1019C0001143C16020690028206801690AD041F4F0
:1019D00080310161206850F8C01F22696FF30D014A
:1019E000114307E021F480310161206850F8C01FE5
:1019F0006FF30D01016094F8400001280CD02068BD
:101A0000016921F001010161606901282068016B11
:101A100021F00F0111D013E0D4E911010843D4E9FA
:101A200013121143084321680A6940F2FC739A4378
:101A3000104340F001000861E6E7226A521E11439C
:101A40000163E06D20F0020040F00100E0655CE71A
:101A5000C0FFFF5FC0FFFF7F48000020400D030074
:101A600000010050000300500000FEFF0740F0FF9F
:101A700070470000F0B587B0044614216846FEF7B1
:101A8000C4FC2F4B266800241A6803252D49521CDC
:101A90004FF09040B6F1A04F06D02B4FBE424CD134
:101AA0001A60012A2AD031E01A60012A07D1CA6CD3
:101AB00042F40052CA64CA6C02F400520592CA6C25
:101AC00042F00102CA64CA6C02F001020592CA6CBB
:101AD00042F00202CA64C96C029401F0020105914D
:101AE0000421CDE90015694600F082FA41F20200B6
:101AF000CDE9000569460294144814E0CA6C42F42A
:101B00000052CA64CA6C02F400520592CA6C42F0D8
:101B10000102CA64C96C029401F0010105914121DE
:101B2000CDE90015694600F063FA00221146122043
:101B300000F0AEFB122000F09DFB07B0F0BD0000EE
:101B4000380000200010024000010050000400484E
:101B50002DE9F04104463848806800F01F052068F0
:101B600002F081F918B102210846BDE8F08194F82D
:101B7000580001280CD0012084F858002046FEF7B8
:101B80008BFD01004FF0000304D084F85830EBE7E0
:101B90000220EAE7E06D40F60162904340F4807075
:101BA000E065264A20684FF0A046904201D13746B2
:101BB00000E00746874200D01DB9E76D27F4801783
:101BC000E765E76DFF0404D5276E27F00607276653
:101BD00000E023661C27076084F858302068904294
:101BE00001D1334600E00346834215D0A5B1052D4F
:101BF00012D0092D10D0E36D43F48013E3659042B9
:101C000000D13046C0688001AED5E06D20F40050B0
:101C100040F48050E065A7E7C268920105D5E26D07
:101C200022F4005242F48052E2658268044B1A406A
:101C3000121D826098E70000000300500001005070
:101C4000C0FFFF7F10B590F8253000210122022B44
:101C500003D00421C163012122E003681C6824F041
:101C60000E041C60836C1C6824F480741C60036880
:101C70001C6824F001041C6090F84430046C03F0EC
:101C80001F0302FA03F36360D0E913345C60436D11
:101C900033B11C6824F480741C60D0E916345C6095
:101CA00080F82520002280F82420084610BD70B559
:101CB00090F82520002401212346022A07D004227F
:101CC000C26380F8251080F82430012429E00268DE
:101CD000156825F00E0515600268156825F00105E8
:101CE0001560826C156825F48075156090F84420A5
:101CF000056C02F01F0201FA02F26A60D0E91325B6
:101D00005560426D32B1156825F480751560D0E9D3
:101D10001625556080F8251080F82430816B01B1BC
:101D20008847204670BDF0B4016C0C6801680D68EE
:101D300090F8442002F01F06042202FA06F3234220
:101D400011D06B070FD50B689B0603D40B6823F0EB
:101D500004030B6090F8441001F01F018A40016CED
:101D60004A60016B1DE0022303FA06F727424FF099
:101D7000000C4FF0010218D0AF0716D50C68A4066E
:101D800005D40C6824F00A040C6080F8252090F833
:101D9000441001F01F018B40016C4B6080F824C09F
:101DA000C16A00291AD0F0BC08470823B340234277
:101DB00014D02B0712D50B6823F00E030B6090F89C
:101DC0004410036C01F01F0102FA01F15960C26373
:101DD00080F8252080F824C0416BE2E7F0BC704712
:101DE00070B504000CD02B4A21681420914209D20E
:101DF000294A0A44B2FBF0F08000606427480AE0F8
:101E0000012070BD234A52420A44B2FBF0F0800028
:101E10006064204808382064022084F825000A689D
:101E200047F6F0708243D4E902031843D4E904353D
:101E30002B431843A3691843E3691843236A1843E3
:101E4000104308602046FEF769FCA0680025B0F545
:101E5000804F00D16560A16C20790860D4E913013E
:101E600041606068401E032808D82046FEF776FCD3
:101E7000606D0560D4E91601416002E06565A56505
:101E8000E565E563012084F8250084F824500020EE
:101E900070BD000008040240F8FFFDBF00000240D2
:101EA00070B5044690F82400002501280CD00120CC
:101EB00084F8240094F825600020012E06D084F8D0
:101EC00024000225284670BD022070BD022684F839
:101ED0002560E0632068066826F00106066020465B
:101EE000FEF74EFC206B00282068016802D041F00C
:101EF0000E0106E021F0040101602068016841F054
:101F00000A010160A06C0168C90303D5016841F4AE
:101F100080710160606D18B1016841F480710160E9
:101F20002068016841F001010160CBE770B504460B
:101F300000F048F90546601C02D00448406804449B
:101F400000F040F9401BA042FAD370BD3C000020D5
:101F500010B5B0F5005F39D11D498878C04310F045
:101F6000FF0088701B484FF0000117D001F006FCFD
:101F70000421184801F002FC0821164801F0FEFB7C
:101F80000021144801F04AF80421124801F046F8F3
:101F9000BDE8104008210F4801F040B801F06CFC8A
:101FA00004210C4801F068FC08210A4801F064FC97
:101FB0000021084801F08EF80421064801F08AF853
:101FC000BDE810400821034801F084B810BD0000AE
:101FD00000000020F0020020044910B50A68024207
:101FE00002D00860FFF7B4FF10BD000014040140E8
:101FF0002DE9FC4FDFF8A0A1002301250AF1040B15
:1020000003244FF00F0C0BF1040EBDE005FA03F6AC
:1020100032406FD04F68012F05D0022F03D0112F0F
:1020200001D0122F17D1D0F808905F0004FA07F8FA
:1020300029EA08090097D1F80C8008FA07F848EA5D
:102040000908C0F808804768B7430E79C6F3001640
:102050009E403E434660C6684FEA430804FA08F7CC
:10206000BE4301978F6807FA08F73743C7604E6889
:10207000022E01D0122E13D1DE0800EB8606009648
:10208000366A5F07FF0E0CFA07F926EA0906D1F84F
:10209000109009FA07F949EA0609009EC6F820904F
:1020A0000668019FBE430F7907F0030707FA08F798
:1020B000374307604E68F60065D5384E376E47F0F7
:1020C00001073766366E23F0030706F00106009617
:1020D000334E3E44B146B6689F074FEA17780CFA74
:1020E00008F7BE43B0F1904F05D02E4FB84204D14F
:1020F000012717E047E0002714E02B4FB84201D139
:1021000002270FE0294FB84201D103270AE0284FE8
:10211000B84201D1042705E0264FB84201D1052776
:1021200000E0062707FA08F73743C9F80870DAF81D
:1021300000605746D1F8048096435FEAC83800D55E
:1021400016433E60DBF800605F46D1F8048096439A
:102150005FEA883800D516433E60DEF800607746B7
:10216000D1F8048096435FEAC82800D516433E6044
:10217000094F0C373E68D1F8048096435FEA8828FF
:1021800000D516433E605B1C0A6832FA03F67FF402
:102190003DAFBDE8FC8F000000040140001002408C
:1021A000000001400004004800080048000C0048FE
:1021B00000100048001400480AB181617047816234
:1021C0007047000001488068704700003C00002014
:1021D0000248816842681144816070473C000020D9
:1021E00010B50024032000F073F80F2000F008F869
:1021F00008B1012401E000F025F8204610BD0000E0
:1022000070B50E4E05460024706898B14FF47A718F
:10221000B1FBF0F00A490968B1FBF0F000F03EFEB6
:1022200040B9102D06D200222946501E00F030F889
:10223000356000E00124204670BD00003C00002015
:10224000480000200A4882B0016E41F00101016699
:10225000016E01F001010091816D41F080518165B5
:10226000806D00F08050009002B000F07BB900005B
:1022700000100240002809DB00F01F0201219140FC
:102280004009800000F1E020C0F800117047000014
:10229000F0B40E4B1B680C46C3F30223C3F10705D1
:1022A000042D00D90425191D072901D2002300E0BF
:1022B000DB1E012606FA05F1491E214099409E4089
:1022C000761E16403143F0BC02F074BE0CED00E007
:1022D000064900F0070208684FF6FF03184040EA7D
:1022E0000220034A10430860704700000CED00E034
:1022F0000000FA05F8B504004FF0000514D094F87A
:102300003A00052810D094F83A0002280CD034483E
:10231000016E41F001010166006E00F001000090C5
:1023200094F83A0010B104E00120F8BD002084F8D0
:102330003900204600F058F8A0682A4A4FF480710E
:10234000402836D0602834D020680368E66A23F03D
:10235000100333430360D4E901031843D4E903367F
:1023600033431843237D012B00D000210843616AC9
:102370000843A16A0843218E40EAC14094F8341012
:1023800040EA016120680368134019430160206836
:102390008169002909DBD4E906121143226A8369A5
:1023A00023F03F031A431143816194F83A0090B13E
:1023B00014E020680368E66A23F0100333430360E7
:1023C000D4E901031843267D2369012E00D00021A2
:1023D0000B431843CBE7012084F83A002846F8BDA8
:1023E00000100240113E00E030B587B004461421D1
:1023F0006846FEF70AF824681D4D00221D49032394
:102400004FF09040AC4209D1CC6C44F00104CC6454
:10241000C96C01F0010105910E210CE0144D2D1D38
:10242000AC4211D1CC6C44F00104CC64C96C01F015
:1024300001010591E021CDE9001302924FEA0D015F
:10244000FFF7D6FD07B030BD094808308442F9D106
:10245000C86C40F00200C864C86C694600F0020015
:1024600005900720CDE9000302920348E8E7000049
:10247000000301400010024000040048002138B170
:1024800090F83A20052A03D090F83A20012A02D089
:102490000121084670470268136843F00103136086
:1024A000042280F83A20F4E72B492C4B0A683221A9
:1024B0004A432B4940B1B0F5007F086829D020F489
:1024C000C06040F480602CE00868C0F3412002281E
:1024D00004D051F8800F20F4807022E0D1F8800001
:1024E00020F48070C1F88000086820F4C06040F4D7
:1024F00000700860B2FBF3F0401C00E0401E4A6927
:10250000520501D50028F9D1486940050AD50320B4
:102510007047C0F34120022806D051F8800F40F4E4
:102520008070086000207047D1F8800040F480700F
:10253000C1F88000086820F4C06040F400700860B2
:10254000B2FBF3F0401C00E0401E4A695205DBD5A7
:102550000028F9D1D8E700004800002040420F00D1
:10256000007000400248816841F4804181607047FA
:10257000007000402DE9F8430446006800269D4D98
:1025800000035ED5A86D0027C00008D4A86D40F0F8
:102590008050A865A86D012700F080500090DFF8FA
:1025A0005892D9F8001041F48071C9F80010FFF773
:1025B00009FE804606E000BFFFF704FEA0EB08001E
:1025C00002282BD8D9F80000C005F5D5D5F8900021
:1025D00010F4407014D0216C814211D0D5F89000D5
:1025E000D5F8901020F4407041F48031C5F8901077
:1025F000D5F8901021F48031C5F89010C5F89000FE
:10260000C00711D0FFF7DEFD804641F2883907E0B0
:10261000FFF7D8FDA0EB0801494501D903260BE0DF
:10262000D5F890008007F3D5D5F89000216C20F400
:1026300040700843C5F890001FB1A86D20F080508D
:10264000A8652078C00707D0D5F88800616820F019
:1026500003000843C5F888002078800707D5D5F81F
:102660008800A16820F00C000843C5F88800207895
:10267000400707D5D5F88800E16820F0300008430E
:10268000C5F888002078000707D5D5F888002169AB
:1026900020F0C0000843C5F888002078800607D5E0
:1026A000D5F88800616920F440600843C5F88800C7
:1026B0002078400607D5D5F88800A16920F440505D
:1026C0000843C5F888002078000607D5D5F88800AB
:1026D000E16920F440400843C5F888002088C0051F
:1026E00007D5D5F88800216A20F440300843C5F8A2
:1026F00088002088800507D5D5F88800616A20F415
:1027000040200843C5F88800208840050FD5D5F83B
:102710008800A16A20F440100843C5F88800A06A28
:10272000B0F5801F03D1E86840F48010E86020888D
:1027300000050FD5D5F88800E16A20F44000084371
:10274000C5F88800E06AB0F5800F03D1E86840F46E
:102750008010E8602088C0040FD5D5F88800216B70
:1027600020F040700843C5F88800206BB0F1807FEE
:1027700003D1E86840F48010E86020884FF00061E1
:1027800080040ED5D5F88800626B20F040601043BD
:10279000C5F88800606B884203D1E86840F4801077
:1027A000E860208840040ED5D5F88800A26B20F0A0
:1027B00040601043C5F88800A06B884203D1E868E8
:1027C00040F48010E860208800040FD5D5F8880018
:1027D000E16B20F040500843C5F88800E06BB0F191
:1027E000805F03D1E86840F48030E8603046BDE89F
:1027F000F883000000100240007000402DE9F0470F
:102800000E4605004FF0000725D0DFF8AC81D8F860
:10281000000000F00F00B0420CD2D8F8001021F0F8
:102820000F013143C8F80010D8F8000000F00F0085
:10283000B04210D12968614CC80741F2883A5AD099
:102840006868DFF87C91032808D0022820682DD022
:10285000400500282CDB0120BDE8F08720688001BE
:10286000F9D5E06800F00302E068C0F30310401CF3
:10287000032A19D0534A00BFB2FBF0F0E268C2F35A
:1028800006225043E268C2F34162521C5200B0FB80
:10289000F2F0484517D9A06810F0F00F0CD0880767
:1028A00011D5A86840B10EE0474AE5E78003D0E7BC
:1028B00000F0B6F8484506D9A06820F0F00040F0D6
:1028C0008000A0608027A068696820F003000843AA
:1028D000A060FFF777FC814606E000BFFFF772FCBF
:1028E000A0EB090151453AD8A068696800F00C00D6
:1028F000B0EB810FF2D12868810714D5400703D5CA
:10290000A06840F4E060A0602878000705D5A068C2
:1029100020F4605040F4E060A060A068A96820F056
:10292000F000084304E0802F03D1A06820F0F000FD
:10293000A060D8F80010404601F00F01B14216D94E
:10294000016821F00F0131430160FFF73BFC0746AE
:1029500007E000BFFFF736FCC11B514501D903203A
:102960007AE7D8F8000000F00F00B042F2D12878E2
:10297000400705D5A068E96820F4E0600843A0603E
:102980002878000706D5A068296920F4605040EA3D
:10299000C100A06000F044F8A1680C4AC1F3031123
:1029A000515C01F01F01C8400949086009480068EE
:1029B000BDE8F047FFF724BC0020024000100240B1
:1029C00000B4C4040024F40000366E01A4520008D0
:1029D000480000203C00002005480649006889683E
:1029E000054AC1F30221515C01F01F01C840704744
:1029F0004800002000100240B45200080548064973
:102A000000688968054AC1F3C221515C01F01F01C9
:102A1000C84070474800002000100240B45200082F
:102A2000184910B58868C0F381021748012A0BD0F5
:102A30008A68164BC2F38102022A06D08A68C2F362
:102A40008102032A03D0002010BD184610BDCA68B9
:102A500002F00304CA68C2F30312521C032C02D012
:102A6000B0FBF2F001E0B3FBF2F0CA68C968C2F350
:102A700006225043C1F34161491C4900B0FBF1F00B
:102A800010BD0000001002400024F40000366E016A
:102A90002DE9F84304007AD02078FA4DC00747D0DA
:102AA000A868E96800F00C0001F003010C2802D0CE
:102AB000082817D001E0032914D06068B0F5803FE2
:102AC00017D0B0F5A02F286817D020F480302860E8
:102AD000286820F4802028606068E0B1FFF772FB6E
:102AE000064614E02868800322D560680028D2D00A
:102AF0001EE0286840F48030EDE740F48020286034
:102B0000F7E700BFFFF75EFB801B642870D82868DA
:102B10008003F7D50CE0FFF755FB064605E000BF44
:102B2000FFF750FB801B6428F0D828688003F7D497
:102B3000207880074CD5A868E96800F00C0001F007
:102B400003010C2802D004280DD001E002290AD08C
:102B5000E068002828682BD040F480702860FFF7D8
:102B600031FB064619E02868400502D5E0680028D8
:102B700091D06868217C20F0FE4040EA01606860E6
:102B8000C1480068FFF73CFB002800D120E076E157
:102B9000FFF718FB801B0228B8D828684005F7D536
:102BA0006868217C20F0FE4040EA016068600FE028
:102BB00020F480702860FFF705FB064605E000BFA3
:102BC000FFF700FB801B0228A0D828684005F7D437
:102BD0002078000729D560690028D5F8940013D023
:102BE00040F00100C5F89400FFF7ECFA064606E055
:102BF00090E000BFFFF7E6FA801B022886D8D5F8E0
:102C000094008007F6D510E020F00100C5F894008C
:102C1000FFF7D8FA064604E0FFF7D4FA801B022833
:102C200078D8D5F894008007F6D42078400761D58D
:102C3000A86D0026C00008D4A86D40F08050A8659B
:102C4000A86D012600F08050009090480168C905E9
:102C500011D40168804641F480710160FFF7B2FA37
:102C6000074604E0FFF7AEFAC01B022852D8D8F896
:102C70000000C005F6D5A068012815D00528D5F8B4
:102C8000900016D020F00100C5F89000D5F8900013
:102C900020F00400C5F89000A06841F28838B8B16F
:102CA000FFF790FA07460EE0D5F8900040F00100DB
:102CB000F0E740F00400C5F89000F5E7FFF782FA6E
:102CC000C11B414526D8D5F890008007F6D50CE009
:102CD000FFF778FA074604E0FFF774FAC11B414595
:102CE00018D8D5F890008007F6D41EB1A86D20F052
:102CF0008050A8652078800629D5A0690028D5F8DD
:102D0000980013D040F00100C5F89800FFF75AFA78
:102D1000064606E077E000BFFFF754FA801B022862
:102D200077D8D5F898008007F6D510E020F001009C
:102D3000C5F89800FFF746FA064604E0FFF742FAA6
:102D4000801B022865D8D5F898008007F6D4E06982
:102D5000F0B3A968C1F38101032961D00228286872
:102D600020F0807028600BD0E86820F00300E86055
:102D7000E86847490840E860FFF724FA04464BE05A
:102D8000FFF720FA064604E0FFF71CFA801B022832
:102D90003FD828688001F7D4F4E908016FF00F02EA
:102DA00002EB01110843218A5204490802EB415108
:102DB000A26841EA02210843217D4FF07E42490882
:102DC00002EB41610843217B40EAC160E96800E011
:102DD00062E0304A11400843E860286840F08070A3
:102DE0002860E86840F08070E860FFF7EBF904467F
:102DF00005E000BFFFF7E6F9001B022809D82868A4
:102E00008001F7D548E004E0FFF7DCF9001B022859
:102E100002D90320BDE8F88328688001F4D43BE0A0
:102E20000128F7D0E868226A00F00301914226D118
:102E3000616A00F0F0020901103991421FD1A26AC3
:102E400000F4FE41B1EB022F19D194F82C2000F0D0
:102E50007841B1EBC26F12D1218E00F4C002490853
:102E60004905A1F50011914209D194F8341000F000
:102E7000C06049084906A1F1007181420CD00120CF
:102E8000C8E70000001002403C0000200070004035
:102E9000FFFFEEFE0C809F010020BBE710B5401E37
:102EA000B0F1807F01D3012010BD4FF0E0246061BC
:102EB0000F21601702F07EF80020A061072020613A
:102EC000002010BD7047704770470000F0B590F8C3
:102ED0003C20012A4AD0012280F83C20CA688B6835
:102EE00022F440721A434B6822F480621A430B6842
:102EF00022F400621A430B6922F480521A434B6990
:102F000022F400521A430B6B22F480421A430B8BBB
:102F100022F4702242EA0342154C03680026154D44
:102F2000A34201D0AB4203D1CF6922F080523A4391
:102F3000A34201D0AB4214D10F8D22F4700242EAB9
:102F400007520F6A22F080723A434F6A22F00072F1
:102F50003A43A34201D0AB4203D1C96A22F00052E6
:102F60000A435A6480F83C600020F0BD0220F0BDA6
:102F7000002C01400034014070477047704700004A
:102F8000F0B590F83C20012A3AD0012580F83C5059
:102F9000022280F83D2003685A689C68194E1A4F37
:102FA000B34201D0BB4204D122F4700C4A6842EA19
:102FB0000C02DFF858C002EA0C02D1F800C04CEA5B
:102FC000020CC3F804C00268B2420DD0B2F1804FC7
:102FD0000AD00F4B9A4207D00E4B9A4204D0BA4205
:102FE00002D00D4B9A4204D1896824F08003194322
:102FF000916080F83D50002180F83C100846F0BDFB
:103000000220F0BD002C0140003401408FFFFFFD85
:1030100000040040000800400040014010B5044694
:10302000022249B104290ED0082913D094F8470090
:10303000012816D0012010BD94F844000128F9D1D0
:1030400084F844200FE094F845000128F2D184F878
:10305000452008E094F846000128EBD184F846208A
:1030600001E084F847200422206801F0B4FA2068C7
:10307000416C41F4004141641049206888420ED0FF
:10308000B0F1804F0BD00E49884208D00D498842DC
:1030900005D00D49884202D00C49884207D1816889
:1030A0000B4A1140062906D0B1F5803F03D00168D4
:1030B00041F001010160002010BD0000002C014022
:1030C000000400400008004000340140004001407E
:1030D0000700010070B504460D460068002201F0AB
:1030E0007AFA2068036A41F211110B4244F2444219
:1030F00006D1036A134203D1436C23F400434364B3
:103100002068036A0B4206D1016A114203D10168AB
:1031100021F00101016001203DB1042D08D0082DEE
:1031200009D084F84700002070BD84F84400FAE715
:1031300084F84500F7E784F84600F4E7704710B5D7
:10314000040003D094F83D0010B107E0012010BD49
:10315000002084F83C00204600F022F8022084F889
:103160003D00211D206801F0D1F9012084F84800BC
:1031700084F83E0084F83F0084F8400084F8410061
:1031800084F8420084F8430084F8440084F8450041
:1031900084F8460084F8470084F83D00002010BD04
:1031A00008B500681349884222D11348016E41F4E2
:1031B00000610166006E002200F40060009011467C
:1031C0001820FFF765F81820FFF754F80022114681
:1031D0001920FFF75DF81920FFF74CF8002211467F
:1031E0001B20FFF755F8BDE808401B20FFF742B849
:1031F00008BD0000002C01400010024090F83D1076
:10320000012901D001207047022180F83D1000689B
:103210000F4988420ED0B0F1804F0BD00D49884243
:1032200008D00D49884205D00C49884202D00C498B
:10323000884207D181680B4A1140062906D0B1F5B2
:10324000803F03D0016841F0010101600020704718
:10325000002C014000040040000800400034014000
:10326000004001400700010070B5044690F83C00A2
:10327000012814D0012584F83C50022084F83D0038
:1032800022689068344B184020F47F4090600868B2
:10329000702827D010DC10F00F0F03D04AE04FF059
:1032A000020070BD4FEA2012072A43D2DFE802F085
:1032B0005050505048313900284BC21A984247D0DC
:1032C00009DCB0F5805F35D0B0F5005F15D0B0F106
:1032D000101F2FD13CE0102A3AD0202A38D0502A93
:1032E00028D135E0CB68D1E90121206801F080F9CF
:1032F0002068816841F0770109E0CB68D1E90121BC
:10330000206801F075F92068816841F4804181608E
:1033100010E0CA684968206801F014FB5021206859
:1033200006E0CA684968206801F01DFB602120683A
:1033300001F068F984F83D50002084F83C0070BD2D
:10334000CA684968206801F0FDFA40212068EFE76B
:10335000226801461046EBE788FFCEFF20001000F0
:10336000704770B50446006801694FF00005C94315
:10337000890715D4C168C943890711D4E91E0161C1
:1033800001202077206880698007204602D0FFF75F
:10339000E7FF04E000F02EF9204600F0EDF9257774
:1033A00020680169C943490717D4C168C94349075F
:1033B00013D46FF004010161022020772068806936
:1033C00010F4407F204602D0FFF7CAFF04E000F06F
:1033D00011F9204600F0D0F9257720680169C9432A
:1033E000090716D4C168C943090712D46FF0080150
:1033F0000161042020772068C0698007204602D040
:10340000FFF7AEFF04E000F0F5F8204600F0B4F955
:10341000257720680169C943C90617D4C168C94323
:10342000C90613D46FF010010161082020772068CD
:10343000C06910F4407F204602D0FFF791FF04E0FE
:1034400000F0D8F8204600F097F925772068016948
:10345000C943C90708D1C168C943C90704D1891E36
:103460000161204600F05EFA20680169C94309063F
:1034700009D4C168C943090605D46FF08001016110
:103480002046FFF720FD20680169C943C90509D41A
:10349000C168C943090605D46FF4807101612046F3
:1034A000FFF710FD20680169C943490609D4C168C6
:1034B000C943490605D46FF040010161204600F080
:1034C00032FA20680169C943890609D4C168C94331
:1034D000890605D46FF0200101612046FFF7F4FC56
:1034E00020680169C943C90209D4C168C943C90236
:1034F00005D46FF4801101612046FFF73EFD20687E
:103500000169C943890209D4C168C943890205D444
:103510006FF4001101612046FFF72EFD206801695C
:10352000C943490209D4C168C943490205D46FF4AB
:10353000800101612046FFF721FD20680169C94330
:1035400009020BD4C168C943090207D46FF4000112
:1035500001612046BDE87040FFF7F0BD70BD00007E
:10356000F0B587B0044614216846FCF74EFF1E49AB
:103570002068884236D11D48C16C41F00201C16407
:10358000C16C01F002010591C16C41F00101C164FF
:10359000C06C022500F0010005904FF4C04000907F
:1035A0000024CDE901540626114FCDE903466946B2
:1035B0003846FEF71DFDA8030090CDE90154042014
:1035C000CDE9034069463846FEF712FD4FF4E0604E
:1035D0000090CDE90154CDE9034669464FF0904093
:1035E000FEF706FD07B0F0BD002C014000100240C0
:1035F00000040048704770B5044690F83C000D4642
:1036000001280BD0012084F83C000C2A45D007DCAF
:103610005AB1042A1BD0082A78D12CE0022070BDB0
:10362000102A4ED0142A71D15DE0206800F0F4FF1A
:103630002068816941F0080181612068816921F079
:1036400004018161206881692A69114311E02068C1
:1036500001F030F82068816941F4006181612068DF
:10366000816921F480618161206881692A6941EA68
:10367000022181614AE0206801F064F82068C16994
:1036800041F00801C1612068C16921F00401C161F4
:103690002068C1692A69114311E0206801F09AF895
:1036A0002068C16941F40061C1612068C16921F4E9
:1036B0008061C1612068C1692A6941EA0221C16152
:1036C00024E0206801F0CEF82068016D41F0080187
:1036D00001652068016D21F0040101652068016D1C
:1036E0002A69114311E0206801F0F4F82068016DA7
:1036F00041F4006101652068016D21F4806101657C
:103700002068016D2A6941EA02210165002084F8E0
:103710003C0070BD10B5040003D094F83D0010B11A
:1037200007E0012010BD002084F83C00204600F096
:1037300022F8022084F83D00211D206800F0E6FEFA
:10374000012084F8480084F83E0084F83F0084F8A3
:10375000400084F8410084F8420084F8430084F873
:10376000440084F8450084F8460084F8470084F853
:103770003D00002010BD70477047000030B5044682
:10378000022269B1042912D0082917D00C291CD0B3
:10379000102921D094F84300012824D0012030BD05
:1037A00094F83E000128F9D184F83E201DE094F8F9
:1037B0003F000128F2D184F83F2016E094F8400041
:1037C0000128EBD184F840200FE094F84100012853
:1037D000E4D184F8412008E094F842000128DDD1CA
:1037E00084F8422001E084F843200122206800F0A0
:1037F000E5FE194B20681949194A984209D08842B8
:1038000007D0904205D0174DA84202D0164DA842CD
:1038100003D1456C45F400454564206898420CD0BE
:10382000B0F1804F09D0114B984206D0104B98420E
:1038300003D0884201D0904207D181680D4A1140DF
:10384000062906D0B1F5803F03D0016841F001019F
:103850000160002030BD0000002C01400034014018
:103860000040014000440140004801400004004085
:10387000000800400700010030B504460D4600680E
:10388000002200F09BFE224B41F2111120688A00B9
:1038900098420BD01F4B984208D01F4B984205D03E
:1038A0001E4B984202D01E4B984209D1036A0B422C
:1038B00006D1036A134203D1436C23F400434364EB
:1038C0002068036A0B4206D1016A114203D10168E4
:1038D00021F00101016001205DB1042D0CD0082D03
:1038E0000DD00C2D0ED0102D0FD084F843000020E9
:1038F00030BD84F83E00FAE784F83F00F7E784F82B
:103900004000F4E784F84100F1E784F84200EEE774
:10391000002C0140003401400040014000440140BF
:10392000004801407047704790F88010012918D076
:10393000012180F880102421C0F8841050F8641B05
:103940000A680B6823F001030B6022F0005100228B
:10395000026050F8643C1960202101620277104631
:103960007047022070477047704770B5044690F862
:10397000800001281DD0012084F880002420C4F894
:10398000840020680568026822F001020260206855
:10399000826822F060620A438260204600F0F6FFEF
:1039A000206805602020C4F88400002084F880008E
:1039B00070BD022070BD70B5044690F880000128EB
:1039C0001DD0012084F880002420C4F884002068E1
:1039D0000568026822F0010202602068826822F015
:1039E00060420A438260204600F0D0FF20680560F4
:1039F0002020C4F88400002084F8800070BD0220DC
:103A000070BD7047704770472DE9F0410368044668
:103A1000D86919689A6840F60F0528424FF00005EA
:103A200009D186067ED501F0200602F080573E437C
:103A300078D0216FFFE0924E924F16400F403743EF
:103A400070D0C70709D0CF0507D501271F62D4F86A
:103A50008C3043F00103C4F88C3083070AD5D307B8
:103A600008D0276802233B62D4F88C3043F004036B
:103A7000C4F88C3043070AD5D30708D0276804233D
:103A80003B62D4F88C3043F00203C4F88C30030757
:103A90000CD501F02003334308D026680823336295
:103AA000D4F88C3043F00803C4F88C3003050BD5F0
:103AB0004B0109D526684FF400633362D4F88C308B
:103AC00043F02003C4F88C30D4F88C30002B34D071
:103AD000800609D501F0200002F08051084303D090
:103AE000216F09B120468847D4F88C002168896885
:103AF000490602D410F0280F21D0204601F04CF8DE
:103B000020688168490615D5816821F040018160EF
:103B1000E06F78B15C498163E06FFEF7C8F8002878
:103B20000BD000E011E0E06F816B00E02046BDE8C3
:103B3000F04108472046FFF766FFBDE8F0812046C8
:103B4000FFF761FFC4F88C50F7E7E76E2026012FDE
:103B50005CD1C7065AD5CF0658D510201862206808
:103B6000816849062FD5E26F116849680904090C7C
:103B7000E3D0B4F85C308B42DFD9A4F85E10116852
:103B80000968890618D4016821F4807101602068F1
:103B9000816821F0010181602068816821F0400185
:103BA0008160C4F88860E5662068016821F0100132
:103BB0000160E06FFEF746F8B4F85C00B4F85E1000
:103BC000401A81B21EE0B4F85C10B4F85E20891A85
:103BD000B4F85E2089B2002AAFD00029ADD00268C7
:103BE00022F49072026020688268254BDB431A4001
:103BF0008260C4F88860E56625672068026822F064
:103C0000100202602046FFF7AEFE96E7C70209D514
:103C1000570207D54FF4801018622046BDE8F041E6
:103C2000FFF7F0BE07060AD501F0800702F4000294
:103C3000174304D0616F00297FF478AF7DE7420617
:103C40000CD54A060AD51968204621F040011960B2
:103C5000C4F88460656700F0EFF86EE7020206D5ED
:103C60004A0004D52046BDE8F041FFF7CABEC001B6
:103C7000CBD50029C9DA2046BDE8F041FFF774BE74
:103C80000100001020010004F94A000810B50400EA
:103C900003D0D4F8840010B107E0012010BD00204B
:103CA00084F88000204600F027F82420C4F884001F
:103CB0002068016821F001010160204600F096FFB4
:103CC0000128EBD0A06A10B1204600F081FE2068E8
:103CD000416821F4904141602068816821F02A0107
:103CE00081602068016841F0010101602046BDE863
:103CF000104000F0D1BE000070B586B00646142119
:103D00006846FCF782FB2149306888423CD1204953
:103D1000886D40F480208865886D00F480200590CF
:103D2000C86C40F00200C864C86C002500F00200B6
:103D300005904FF4406000900220CDE90105072076
:103D4000CDE9035069461348FEF752F9134C124867
:103D500020601D2060601020C4E902058020C4E9B5
:103D60000405A561E56120462562FEF739F808B132
:103D7000FCF735FDB467002211462720A662FEF746
:103D800087FA2720FEF776FA06B070BD004800409B
:103D9000001002400004004808000240CC0300204C
:103DA00070B50446D0F8840020283DD171B36AB3C1
:103DB00094F88000012837D0012084F88000216524
:103DC000A4F85420A4F856200025C4F88C502120D3
:103DD000C4F88400A06FD8B11449C162A16F14481F
:103DE00013460863A16F13484863A06F8563266874
:103DF000216D06F12802A06FFEF752F840B11020A5
:103E0000C4F88C0004F8805F20206060012070BD41
:103E100021684020086284F880502068816841F061
:103E200080018160002070BD022070BD5D4B0008E4
:103E30008D4B00080D4B000870477047FEE700EB04
:103E40008100006E00F0F840704700EB8100006ECA
:103E500000F0F84070478068C0F3C0007047806889
:103E6000C0F3C00070478068C0F38000704780686E
:103E7000C0F380007047C06810F4406F01D000208C
:103E8000704701207047042303EAD15310B518444A
:103E90004369C1F3045107248C40A3438A40134370
:103EA000436110BD042303EAD15310B5184443699C
:103EB000C1F3045107248C40A3438A401343436158
:103EC00010BD00EB8100016E21F00041114301663D
:103ED000704700EB8100016E21F000411143016643
:103EE00070470000F0B59BB000241794189420216F
:103EF0000FA81994FCF789FA3C216846FCF785FA6B
:103F000031484FF0A041012501604FF40021C0E984
:103F1000011400F110010426C46081E870000477E8
:103F20004477056280F82440C462046380F8384016
:103F3000C46380F84040FDF79DFC08B1FCF74FFCDE
:103F400017A921481794FDF7DBF808B1FCF747FCE7
:103F50001E480F9010A906207F2781E89100CDE927
:103F600013640FA91848FDF737F908B1FCF737FCBF
:103F70001748009001A9092081E8A100CDE9046457
:103F80000220089084200A908DF8244080208DF82B
:103F900025400B908DF826408DF8304069460A4840
:103FA000FCF76CFC08B1FCF71AFC0A48009040F2E0
:103FB0000F10019069460448FCF760FC002801D00E
:103FC000FCF70DFC1BB0F0BD640100200008302E92
:103FD0000800900C00106032F0B597B03C216846A4
:103FE000FCF713FA20210FA8FCF70FFA27482649FF
:103FF00000240160C902C0E90114C4600425046101
:10400000C0E90545047744770126066280F824401C
:10401000C462046380F83840C46380F84040FDF710
:1040200029FC08B1FCF7DBFB1948009001A9092025
:104030007F2781E8C100CDE9045484200A908DF8DF
:10404000244080208DF825400B9008968DF826405E
:104050008DF8304069460D48FCF710FC08B1FCF7BC
:10406000BEFB0C480F9010A9062081E89100CDE915
:1040700013540FA90548FDF7AFF8002801D0FCF74D
:10408000AEFB17B0F0BD000000010050D0010020D1
:104090000800900C020030040D4808B5816C41F016
:1040A00004018164816C01F004010091816C41F094
:1040B00001018164806C002200F001000090114633
:1040C0000B20FEF7E5F8BDE808400B20FEF7D2B85C
:1040D0000010024030B587B014216846FCF795F90E
:1040E0002248C16C41F00401C164C16C01F00401BB
:1040F0000591C16C41F02001C164C16C01F0200147
:104100000591C16C41F00101C164C16C01F0010174
:104110000591C16C41F00201C164C06C144D00F006
:1041200002000590002250212846FEF745F84FF482
:10413000305000900F480024CDE90104694628461C
:10414000FDF756FF502000900120CDE9010469469B
:1041500028460394FDF74CFF002211462820FEF765
:1041600097F82820FEF786F807B030BD001002400F
:1041700000080048000011100B4810B50949016003
:10418000002141608160C160016101758161C1628E
:10419000FEF7B0F8002803D0BDE81040FCF71FBBC5
:1041A00010BD0000000301403C0200200B4810B588
:1041B00009490160002141608160C16001610175B0
:1041C0008161C162FEF796F8002803D0BDE8104077
:1041D000FCF705BB10BD000004030140780200207D
:1041E0000B4810B509490160002141608160C16040
:1041F000016101758161C162FEF77CF8002803D07E
:10420000BDE81040FCF7EBBA10BD00000803014008
:10421000B402002030B59BB0002419941A9417946E
:104220001894149415941C2168461694FCF7EDF824
:10423000342107A8FCF7E9F83C483B49C0E90014E1
:104240002021816041F63F71C1604FF480710161AE
:104250000121C0E90514FEF772FF08B1FCF7BFFAAF
:104260004FF48050179017A93048FEF7FDFF08B1B2
:10427000FCF7B5FA2D48FFF74DFA08B1FCF7AFFA95
:104280007025CDE9145414A928481694FEF778FE39
:1042900008B1FCF7A4FA6020CDE90004029403946D
:1042A000049405940022694620480694FFF7A3F978
:1042B00008B1FCF794FA042269461C48FFF79BF901
:1042C00008B1FCF78CFA082269461848FFF793F901
:1042D00008B1FCF784FA41F63E70CDE900500C229B
:1042E00069461248FFF787F908B1FCF778FA079496
:1042F00078200894CDE909404FF40050CDE90B40F7
:104300000D9400030E94CDE90F401194129407A967
:1043100006481394FEF7DAFD08B1FCF760FA03488B
:10432000FFF71EF91BB030BD002C0140F002002049
:10433000184810B5164901604FF461214160002111
:1043400081600C22C160C0E904128161C161016217
:1043500041628162FFF79AFC08B1FCF740FA002144
:104360000C48FFF728FB08B1FCF739FA002109488F
:10437000FFF7FBFA08B1FCF732FA0648FFF7D4FA68
:10438000002803D0BDE81040FCF729BA10BD00009A
:10439000004800403C030020FEE7FEE770477047FE
:1043A00010B504462DED068BB0EE418AB0EE409A72
:1043B000BEEE00AA9FED241A29EE0A0A60EE810AD9
:1043C00070EE208A70EE609AB0EE490AF0EE680A4C
:1043D00000F024FEF0EE690A00F020FEF0EE40AAA4
:1043E000F0EE680AB0EE490A00F0F4FDF0EE690A5A
:1043F00000F0F0FD3AEE800A20EE0A1A31EE090ACA
:1044000071EE281A31EE291AC0EE080AB6EE000A3B
:1044100030EE602ADFED0D0A22EE202A84ED002A1C
:1044200081EE882A70EE421A61EEA01AC4ED011ADC
:10443000C1EE081A30EE610A20EE200A84ED020A6D
:10444000BDEC068B10BD0000D7B35D3F0000FA4500
:10445000FDF7BEBE10B5A4B038216846FBF7D5FF06
:1044600014211FA8FBF7D1FF44210EA8FBF7CDFFB5
:104470000020FEF719F801200090000401900220AE
:104480000324CDE907042821CDE90A100C900D90F2
:1044900009946846FEF7FCFA08B172B6FEE70F20F1
:1044A000CDE91F0400242194229404211FA8239401
:1044B000FEF7A4F908B172B6FEE748F204000E90C8
:1044C000C0061D9011940EA8FEF754F8002801D0E4
:1044D00072B6FEE724B010BD0248016841F47001D5
:1044E0000160704788ED00E00148FEF73ABF000028
:1044F000F00200200148FEF734BF0000F002002067
:104500000148FEF72EBF0000F00200202DE9F04325
:104510000268234B234D244E244C4FF0804998428F
:1045200007D0484505D0A84203D0B04201D0A042F0
:1045300003D122F070074A683A431D4FDFF874C078
:10454000DFF8748098420DD048450BD0A84209D0BE
:10455000B04207D0A04205D0B84203D0604501D098
:10456000404503D122F44075CA682A434D6922F0C0
:1045700080022A4302608A68C2620A6882629842A4
:1045800007D0A04205D0B84203D0604501D04045D5
:1045900001D10969016301214161BDE8F083000097
:1045A000002C01400004004000080040003401409D
:1045B00000400140004401400048014010B501F0B6
:1045C0001F030121046A99408C430462016A9A40E6
:1045D0001143016210BD10B501F01F030421046AEC
:1045E00099408C430462016A9A401143016210BDF4
:1045F00010B5846842EA032224F47F440A4322432C
:10460000826010BD8268034B1A400A4342F00701E2
:10461000816070478FFFCFFF2DE9F043026A22F0DF
:1046200001020262056A436882691C4C25F002059A
:1046300022400C6822F0030214438A68194E2A4370
:10464000174D194FDFF864C0DFF86490A84207D017
:10465000B04205D0B84203D0604501D0484506D1EC
:1046600022F00808CA6842EA080222F00402A842BE
:1046700007D0B04205D0B84203D0604501D04845CC
:1046800005D14D6923F440731D438B692B4343606F
:104690008461496841630262BDE8F0838FFFFEFFD9
:1046A000002C014000340140004001400044014022
:1046B00000480140F0B5026A22F010020262056A69
:1046C00042688369194C1B4E23400C6823F44073E5
:1046D00043EA042425F020038D6843EA0513144DB2
:1046E000A84201D0B04206D1CF6823F0800343EA4C
:1046F000071323F04003A8420AD0B04208D00E4D61
:10470000A84205D00D4DA84202D00D4DA84207D1B8
:104710004D6922F4406242EA85028D6942EA8502CF
:1047200042608461496881630362F0BDFF8FFFFED0
:10473000002C014000340140004001400044014091
:1047400000480140F0B5026A22F480720262056AF4
:104750004368C269194C1B4E22400C6822F00302C8
:10476000144325F400728D6842EA0522144DA842D4
:1047700001D0B04206D1CF6822F4006242EA07229B
:1047800022F48062A8420AD0B04208D00E4DA8425E
:1047900005D00E4DA84202D00D4DA84207D14D695B
:1047A00023F4405343EA05138D6943EA051343603C
:1047B000C4614968C1630262F0BD00008FFFFEFF63
:1047C000002C014000340140004001400044014001
:1047D00000480140F0B5026A22F480520262056A84
:1047E0004268C369194C1B4E23400C6823F4407384
:1047F00043EA042425F400538D6843EA0533144D3D
:10480000A84201D0B04206D1CF6823F4004343EA66
:10481000073323F48043A8420AD0B04208D00E4D9B
:10482000A84205D00D4DA84202D00D4DA84207D197
:104830004D6922F4404242EA85128D6942EA8512AE
:104840004260C461496801640362F0BDFF8FFFFEEE
:10485000002C014000340140004001400044014070
:104860000048014030B5026A22F480320262046AD4
:104870004268036D114D2B400D681D4324F4003335
:104880000C8943EA04430E4CA0420BD00D4CA042CD
:1048900008D00D4CA04205D00C4CA04202D00C4CCC
:1048A000A04204D14C6922F4803242EA04224260E0
:1048B000056549688164036230BD00008FFFFEFF1B
:1048C000002C014000340140004001400044014000
:1048D0000048014030B5026A22F480120262046A84
:1048E0004268036D114D24F400142B400D6843EA17
:1048F00005230D8944EA05540D4DA8420BD00D4DFA
:10490000A84208D00C4DA84205D00C4DA84202D0B8
:104910000B4DA84204D14D6922F4802242EA85223F
:10492000426003654968C164046230BDFF8FFFFEC9
:10493000002C01400034014000400140004401408F
:104940000048014010B5036A046A24F001040462BF
:10495000846924F0F00444EA021423F00A020A43B2
:104960008461026210BD10B5036A23F01003036274
:104970008369046A23F4704343EA023224F0A003FB
:1049800043EA01118261016210BD000030B5416E41
:10499000B9B1026891689268C1F342610B4B520F42
:1049A0009C5CE50003F10804A25CB5FBF2F2A0F800
:1049B0006A205A5C615CD200B2FBF1F1A0F8681089
:1049C00030BD0121A0F86A10F8E7000094520008F9
:1049D00090F82810C90706D001684A68C36A22F413
:1049E00000321A434A6090F82810890706D50168FA
:1049F0004A68036B22F480321A434A6090F8281008
:104A0000490706D501684A68436B22F480221A439D
:104A10004A6090F82810090706D501684A68836B38
:104A200022F400421A434A6090F82810C90606D5BD
:104A300001688A68C36B22F480521A438A6090F836
:104A40002810890606D501688A68036C22F4005292
:104A50001A438A6090F82810490611D501684A68FF
:104A6000436C22F480121A434A60416CB1F5801FF6
:104A700006D101684A68836C22F4C0021A434A6076
:104A800090F82810090606D501684A68C06C22F41F
:104A9000002202434A607047F8B500260446C0F879
:104AA0008C60FDF78FFB0546206800686FF07E473D
:104AB000000708D52B4600224FF40011204600972E
:104AC00000F0CEF960B92068006840070AD52B468F
:104AD00000224FF480012046009700F0C1F908B190
:104AE0000320F8BD2020C4F88400C4F8880044F8EE
:104AF0006C6F00202675F8BD10B5806A0021A0F803
:104B00005E10A0F85610FEF77EFF10BD70B5846AE7
:104B1000D4F88400D4F88850216889684FF00006E2
:104B2000090606D5212804D1A4F85660204600F0D5
:104B30004FF820688068400606D5222D04D1A4F8DD
:104B40005E60204600F028F8D4F88C0040F0100099
:104B5000C4F88C002046FEF756FF70BD10B5014624
:104B6000806A0968096889060DD40021A0F85610EA
:104B700001688A6822F080028A600068016841F05A
:104B80004001016010BDFFF757F910BD10B5806AF4
:104B9000FFF753F910BD000001680A6822F4907213
:104BA0000A6001688A68094B1A408A60C16E01294F
:104BB00004D101680A6822F010020A602021C0F8BE
:104BC00088100021C166016770470000FEFFFFEFFB
:104BD00001680A6822F0C0020A6001688A6822F44B
:104BE00000028A602021C0F8841070472DE9F0414E
:104BF0000446016880682269E36910436269002500
:104C00001A431043DFF82CC20A688B4B1A40024348
:104C10000A6020684168E26821F440511143416014
:104C20002168A069614501D0226A10438A68834BDC
:104C30001A4002438A602068C16A626A21F00F014B
:104C40001143C1627E4923687E488B420DD1D0F862
:104C5000880010F0030006D0012855D0022842D069
:104C600003283FD152E001203DE077498B420BD130
:104C7000D0F8880010F00C0035D0042833D0082874
:104C800040D00C282ED141E070498B420BD1D0F896
:104C9000880010F0300026D0102835D0202831D0E0
:104CA00030281FD132E06A498B420BD1D0F88800FE
:104CB00010F0C00017D0402826D0802822D0C0286D
:104CC00010D123E063450DD1D0F8880010F4406086
:104CD00009D0B0F5806F17D0B0F5006F12D0B0F5E5
:104CE000406F13D010205B4A5B4F00264FF4004109
:104CF000634539D160B102280DD004280DD00828B1
:104D000031D10EE00220EEE70420ECE70820EAE7CC
:104D1000FDF762FE03E0114603E0FDF781FE0100AE
:104D20007DD0606A37F810206768B1FBF2F007EBBE
:104D3000470383426CD8B0EB073F69D8002308468D
:104D40001946FBF7B9FA090241EA10610202780834
:104D5000101871413A460023FBF7AEFA3F4AA0F51E
:104D60004071914259D953E0E3694FF6EF788B4295
:104D70002DD109284CD2DFE800F005080D4B274B58
:104D80004B4B0E00FDF728FE01E0FDF737FE01005A
:104D900001D144E01146606A37F81000B1FBF0F031
:104DA0004100606801EB5001B1FBF0F080B2A0F16E
:104DB000100141452CD84FF6F0710140C0F342007C
:104DC00001432068C1602AE0FDF72AFEDFE70928D9
:104DD0001ED2DFE800F005080D1D1F1D1D1D0E0071
:104DE000FDF7FAFD01E0FDF709FE010001D116E033
:104DF0001146606A37F81000B1FBF0F1606801EB12
:104E00005001B1FBF0F080B2A0F11001414504D98E
:104E1000012504E0FDF704FEE7E72168C8600120F2
:104E2000A4F86A0024F8680F2846A660E660BDE88A
:104E3000F081000000800040F369FFCFFFF4FF1114
:104E4000003801400010024000440040004800408B
:104E5000004C00400024F4007C520008FFFC0F00CE
:104E60002DE9F0479A4617460E4604464FF00009D2
:104E70004FF02008089D39E0681C37D0FDF7A2F9F3
:104E8000A0EB0A00A84222D80DB3206801684907A8
:104E90002CD5C069C043000528D421684FF40060B8
:104EA00008622068016821F4D0710160206881687F
:104EB00021F001018160C4F88480C4F88880C4F8BE
:104EC0008C8000BF84F880900320BDE8F0872068C4
:104ED000016821F4D07101602068816821F001012E
:104EE0008160C4F88480C4F88880EBE72068C069DA
:104EF00036EA000004D00020B842BDD00020E4E72C
:104F00000120F9E70148FEF77FBD00003C030020C7
:104F1000FEE700F001B8000070B5214C214DDFED37
:104F2000220A22492DED028B94ED020A95ED008AAA
:104F300000EE208A9FED1E0A18EE100A884202DD5C
:104F400038EE408A06E0B5EEC08AF1EE10FA01D2E2
:104F500038EE008AB0EE480AFBF7BCFAB0EE401A11
:104F6000B0EE480AF0EE418AFBF704FB94ED002A0C
:104F7000D4ED011A0A4862EE000A22EE282A94EDC6
:104F8000031A103041EEA80A01EEC02AB0EE420A20
:104F9000FFF706FA85ED008ABDEC028B70BD0000BC
:104FA0002C0400204C000020BEB5243ADB0FC94081
:104FB000DB0FC9400907090E002804DB00F1E020DF
:104FC00080F80014704700F00F0000F1E02080F836
:104FD000141D704710B52DED028BB0EE608AF0EE17
:104FE000408A18EE101A18EE900A00F0D3F800F07C
:104FF0007040B0F1005F0CD018EE100A20F00040B5
:10500000C0F1FF40C00F02BFB0EE480ABDEC028BFA
:1050100010BDB0EE680ABDEC028B10BD10B52DEDD1
:10502000028BB0EE608AF0EE408A18EE101A18EE8D
:10503000900A00F0AFF800F07040B0F1004F0CD0D3
:1050400018EE100A20F00040C0F1FF40C00F02BF70
:10505000B0EE480ABDEC028B10BDB0EE680ABDECA4
:10506000028B10BD2DED048BFDF7BAF8FFF7F2F9B6
:10507000FFF730F8FFF710F8FFF75AF9FEF732FFA5
:10508000FEF7AAFFFFF778F8FFF790F8FFF7A8F808
:10509000FFF7C0F82D48FDF7F1F92D48FDF7EEF9BF
:1050A0002C48FDF7EBF97F212B48FBF79BFB7F2179
:1050B0002A48FBF797FB2848202102681160006806
:1050C000042202602548006801602348FBF782FF44
:1050D0002248FBF70BFF224941F63F700860204948
:1050E000401E143108601F48FEF788F80C211D4847
:1050F000FEF744FB1D4C9FED1C0A1D4D84ED000A7C
:10510000B2EE080A84ED010AB1EE040A9FED198A95
:10511000DFED198A84ED020AB3EE0A9A0F48FCF714
:1051200017FD0E48FCF76CFA80B200EE100AA88159
:105130000A20B8EE400A20EE080A20EE280A20EEE7
:10514000090A84ED030AFCF7F1FEE7E73C020020C0
:1051500078020020B402002064010020D001002069
:105160002C2C0140F0020020000000002C04002044
:1051700000000020333353400000803900EE100A55
:1051800000EE901AB4EE600AF1EE10FA78BF7047A4
:1051900000F00DB810B5FFF7F1FFEFF3008020F03D
:1051A000104038BF40F0004080F3008810BDBDE8DB
:1051B000104010B500F017F80000000900F007B823
:1051C0004FF0404010F1004FEFF300807047401067
:1051D00058BFC0F14040491058BFC1F14041814221
:1051E000EFF3008070470EF1020E2EF0030E5EF812
:1051F000044B244204D44FEA4102B2F17F4F11D84C
:105200004FEA4003B3F17F4F0CD80ED14FEAD07C68
:10521000B2F17F4F0CEB4C0C0CF1020C08BF4CEBC5
:10522000D17C04E04FF0080C01E04FEAD17C0CEB9C
:105230004C0324FA03F404F00704B4F1040C06D27E
:105240000EEB840CBDE810404CF0010C6047DFE829
:105250000CF0070802024FF00040A0F5800010BDDE
:105260000846420018BFD2F1807288BF00F00040AB
:1052700010BD4FF04070E1EE100A704701000200CF
:105280000400060008000A000C0010002000400086
:10529000800000010101010307010000080402046D
:1052A00008010101000000000000000001020304E9
:1052B00006070809000000000102030400000000C6
:1052C000920E493CB10AC93C2BC3163D2EFB483D0A
:1052D000752B7B3D04A9963D80B6AF3D36BDC83DDC
:1052E0002FBCE13D73B2FA3D87CF093E8340163EA5
:1052F000B5AB223EA2102F3ECF6E3B3EC2C5473E0D
:105300000115543E135C603E7F9A6C3ECCCF783ED4
:10531000C07D823E938E883E229A8E3E32A0943E7D
:1053200086A09A3EE59AA03E128FA63ED47CAC3E63
:10533000EF63B23E2A44B83E491DBE3E15EFC33E60
:1053400053B9C93ECA7BCF3E4136D53E80E8DA3EEE
:105350004F92E03E7533E63EBBCBEB3EEA5AF13E60
:10536000CBE0F63E275DFC3EE4E7003F3D9C033F7B
:10537000824B063F9BF5083F6B9A0B3FDA390E3F95
:10538000CDD3103F2A68133FD9F6153FC07F183F91
:10539000C6021B3FD17F1D3FCBF61F3F9967223FBF
:1053A00025D2243F5636273F1594293F4AEB2B3F01
:1053B000DE3B2E3FBB85303FC9C8323FF304353F4B
:1053C000233A373F4268393F3B8F3B3FF9AE3D3F81
:1053D00067C73F3F70D8413F01E2433F03E4453F89
:1053E00065DE473F12D1493FF8BB4B3F029F4D3F1F
:1053F000207A4F3F3D4D513F4918533F31DB543FD9
:10540000E595563F5348583F6AF2593F1A945B3F1F
:10541000532D5D3F05BE5E3F2146603F97C5613F0E
:105420005A3C633F59AA643F880F663FD86B673F79
:105430003CBF683FA7096A3F0C4B6B3F5E836C3FE4
:1054400093B26D3F9ED86E3F73F56F3F0809713F71
:105450005213723F4714733FDD0B743F0BFA743FD6
:10546000C6DE753F07BA763FC58B773FF853783F66
:105470009812793F9DC7793F02737A3FBE147B3FF4
:10548000CDAC7B3F283B7C3FC9BF7C3FAC3A7D3FE6
:10549000CCAB7D3F23137E3FB0707E3F6DC47E3F1B
:1054A000580E7F3F6D4E7F3FAB847F3F0FB17F3FF4
:1054B00097D37F3F43EC7F3F11FB7F3F0000803F4E
:1054C00011FB7F3F43EC7F3F97D37F3F0FB17F3F7F
:1054D000AB847F3F6D4E7F3F580E7F3F6DC47E3F54
:1054E000B0707E3F23137E3FCCAB7D3FAC3A7D3F17
:1054F000C9BF7C3F283B7C3FCDAC7B3FBE147B3F8C
:1055000002737A3F9DC7793F9812793FF853783FED
:10551000C58B773F07BA763FC6DE753F0BFA743FFF
:10552000DD0B743F4714733F5213723F0809713FFC
:1055300073F56F3F9ED86E3F93B26D3F5E836C3FB5
:105540000C4B6B3FA7096A3F3CBF683FD86B673F76
:10555000880F663F59AA643F5A3C633F97C5613F35
:105560002146603F05BE5E3F532D5D3F1A945B3F71
:105570006AF2593F5348583FE595563F31DB543F57
:105580004918533F3D4D513F207A4F3F029F4D3FB9
:10559000F8BB4B3F12D1493F65DE473F03E4453F2F
:1055A00001E2433F70D8413F67C73F3FF9AE3D3FFF
:1055B0003B8F3B3F4268393F233A373FF304353F47
:1055C000C9C8323FBB85303FDE3B2E3F4AEB2B3F05
:1055D0001594293F5636273F25D2243F9967223F0D
:1055E000CBF61F3FD17F1D3FC6021B3FC07F183F38
:1055F000D9F6153F2A68133FCDD3103FDA390E3F55
:105600006B9A0B3F9BF5083F824B063F3D9C033F47
:10561000E4E7003F275DFC3ECBE0F63EEA5AF13E70
:10562000BBCBEB3E7533E63E4F92E03E80E8DA3E80
:105630004136D53ECA7BCF3E53B9C93E15EFC33E76
:10564000491DBE3E2A44B83EEF63B23ED47CAC3E18
:10565000128FA63EE59AA03E86A09A3E32A0943EC6
:10566000229A8E3E938E883EC07D823ECCCF783E7D
:105670007F9A6C3E135C603E0115543EC2C5473EA6
:10568000CF6E3B3EA2102F3EB5AB223E8340163E6E
:1056900087CF093E73B2FA3D2FBCE13D36BDC83D10
:1056A00080B6AF3D04A9963D752B7B3D2EFB483D52
:1056B0002BC3163DB10AC93C920E493C00000000C4
:1056C000920E49BCB10AC9BC2BC316BD2EFB48BD06
:1056D000752B7BBD04A996BD80B6AFBD36BDC8BDD8
:1056E0002FBCE1BD73B2FABD87CF09BE834016BEA1
:1056F000B5AB22BEA2102FBECF6E3BBEC2C547BE09
:10570000011554BE135C60BE7F9A6CBECCCF78BED0
:10571000C07D82BE938E88BE229A8EBE32A094BE79
:1057200086A09ABEE59AA0BE128FA6BED47CACBE5F
:10573000EF63B2BE2A44B8BE491DBEBE15EFC3BE5C
:1057400053B9C9BECA7BCFBE4136D5BE80E8DABEEA
:105750004F92E0BE7533E6BEBBCBEBBEEA5AF1BE5C
:10576000CBE0F6BE275DFCBEE4E700BF3D9C03BF77
:10577000824B06BF9BF508BF6B9A0BBFDA390EBF91
:10578000CDD310BF2A6813BFD9F615BFC07F18BF8D
:10579000C6021BBFD17F1DBFCBF61FBF996722BFBB
:1057A00025D224BF563627BF159429BF4AEB2BBFFD
:1057B000DE3B2EBFBB8530BFC9C832BFF30435BF47
:1057C000233A37BF426839BF3B8F3BBFF9AE3DBF7D
:1057D00067C73FBF70D841BF01E243BF03E445BF85
:1057E00065DE47BF12D149BFF8BB4BBF029F4DBF1B
:1057F000207A4FBF3D4D51BF491853BF31DB54BFD5
:10580000E59556BF534858BF6AF259BF1A945BBF1B
:10581000532D5DBF05BE5EBF214660BF97C561BF0A
:105820005A3C63BF59AA64BF880F66BFD86B67BF75
:105830003CBF68BFA7096ABF0C4B6BBF5E836CBFE0
:1058400093B26DBF9ED86EBF73F56FBF080971BF6D
:10585000521372BF471473BFDD0B74BF0BFA74BFD2
:10586000C6DE75BF07BA76BFC58B77BFF85378BF62
:10587000981279BF9DC779BF02737ABFBE147BBFF0
:10588000CDAC7BBF283B7CBFC9BF7CBFAC3A7DBFE2
:10589000CCAB7DBF23137EBFB0707EBF6DC47EBF17
:1058A000580E7FBF6D4E7FBFAB847FBF0FB17FBFF0
:1058B00097D37FBF43EC7FBF11FB7FBF000080BF4A
:1058C00011FB7FBF43EC7FBF97D37FBF0FB17FBF7B
:1058D000AB847FBF6D4E7FBF580E7FBF6DC47EBF50
:1058E000B0707EBF23137EBFCCAB7DBFAC3A7DBF13
:1058F000C9BF7CBF283B7CBFCDAC7BBFBE147BBF88
:1059000002737ABF9DC779BF981279BFF85378BFE9
:10591000C58B77BF07BA76BFC6DE75BF0BFA74BFFB
:10592000DD0B74BF471473BF521372BF080971BFF8
:1059300073F56FBF9ED86EBF93B26DBF5E836CBFB1
:105940000C4B6BBFA7096ABF3CBF68BFD86B67BF72
:10595000880F66BF59AA64BF5A3C63BF97C561BF31
:10596000214660BF05BE5EBF532D5DBF1A945BBF6D
:105970006AF259BF534858BFE59556BF31DB54BF53
:10598000491853BF3D4D51BF207A4FBF029F4DBFB5
:10599000F8BB4BBF12D149BF65DE47BF03E445BF2B
:1059A00001E243BF70D841BF67C73FBFF9AE3DBFFB
:1059B0003B8F3BBF426839BF233A37BFF30435BF43
:1059C000C9C832BFBB8530BFDE3B2EBF4AEB2BBF01
:1059D000159429BF563627BF25D224BF996722BF09
:1059E000CBF61FBFD17F1DBFC6021BBFC07F18BF34
:1059F000D9F615BF2A6813BFCDD310BFDA390EBF51
:105A00006B9A0BBF9BF508BF824B06BF3D9C03BF43
:105A1000E4E700BF275DFCBECBE0F6BEEA5AF1BE6C
:105A2000BBCBEBBE7533E6BE4F92E0BE80E8DABE7C
:105A30004136D5BECA7BCFBE53B9C9BE15EFC3BE72
:105A4000491DBEBE2A44B8BEEF63B2BED47CACBE14
:105A5000128FA6BEE59AA0BE86A09ABE32A094BEC2
:105A6000229A8EBE938E88BEC07D82BECCCF78BE79
:105A70007F9A6CBE135C60BE011554BEC2C547BEA2
:105A8000CF6E3BBEA2102FBEB5AB22BE834016BE6A
:105A900087CF09BE73B2FABD2FBCE1BD36BDC8BD0C
:105AA00080B6AFBD04A996BD752B7BBD2EFB48BD4E
:105AB0002BC316BDB10AC9BC920E49BC00000080C0
:105AC000E05A000800000020500000001402000806
:105AD000305B000850000020580A00003002000827
