:020000040800F2
:10000000E80A0020790200083B420008DD3C0008B5
:1000100039420008150700083951000800000000A7
:100020000000000000000000000000003F42000847
:10003000AF080008000000003D42000841420008EF
:10004000930200089302000893020008930200083C
:10005000930200089302000893020008930200082C
:1000600093020008930200089302000801080008A8
:10007000930200089302000893020008930200080C
:100080009302000800000000150600089302000813
:1000900093020008930200089302000893020008EC
:1000A000D9420008F142000893020008E542000826
:1000B00093020008930200089302000893020008CC
:1000C00093020008930200089302000893020008BC
:1000D0009302000893020008930200082D510008C3
:1000E000B108000893020008930200089302000878
:1000F0009302000893020008930200080000000029
:1001000000000000930200080000000093020008B5
:100110009302000800000000930200089302000808
:10012000930200089302000893020008930200085B
:100130009302000800000000000000009302000885
:100140009302000893020008000000000000000075
:10015000000000000000000000000000000000009F
:1001600000000000000000000000000093020008F2
:1001700093020008000000000000000000000000E2
:1001800000000000930200080000000000000000D2
:10019000000000000000000000000000000000005F
:1001A0000000000000000000930200089302000815
:1001B0009302000893020008930200080000000068
:1001C0000000000093020008000000000000000092
:1001D000930200089302000800F002F800F03CF8D7
:1001E0000AA090E8000C82448344AAF10107DA4592
:1001F00001D100F031F8AFF2090EBAE80F0013F0A8
:10020000010F18BFFB1A43F001031847D45B00002D
:10021000F45B0000103A24BF78C878C1FAD85207BE
:1002200024BF30C830C144BF04680C607047000070
:100230000023002400250026103A28BF78C1FBD8EF
:10024000520728BF30C148BF0B6070471FB505F08B
:1002500025F91FBD10B510BD00F05AF91146FFF782
:10026000F5FF05F013F800F078F903B4FFF7F2FF9B
:1002700003BC00F07BF900000948804709480047AB
:10028000FEE7FEE7FEE7FEE7FEE7FEE7FEE7FEE746
:10029000FEE7FEE704480549054A064B70470000A3
:1002A000C9420008D9010008E8040020E80A00203B
:1002B000E8060020E806002053EA020C00F06980FE
:1002C0002DE9F04B4FF00006002B1FBFB3FA83F56A
:1002D00003FA05F424FA05F65E4012BF1643B2FA9B
:1002E00082F502FA05F4C5F120051EBF22FA05FCCD
:1002F00044EA0C04203556EA044C4FEA144418BF73
:10030000641C4FF000084FF00009904271EB030CA1
:1003100039D3002919BFB1FA81F701FA07F6B0FA0B
:1003200080F700FA07F6C7F120071EBF20FA07FC86
:1003300046EA0C062037B6FBF4FCA7EB0507103F96
:1003400007F01F0BCBF120060CFA0BFB2CFA06F67C
:1003500044BFB3460026202FA4BF5E464FF0000BDB
:100360005BEA060C08BF4FF0010B19EB0B09ABFB66
:10037000027C48EB0608C01B06FB02CC0BFB03CC3F
:1003800071EB0C01C1E70B46024641464846BDE809
:10039000F08B13B54FF000004FF00001AFF3008079
:1003A000BDE81C407047032A40F2308010F0030C77
:1003B00000F0158011F8013BBCF1020F624498BFB8
:1003C00011F801CB00F8013B38BF11F8013BA2F155
:1003D000040298BF00F801CB38BF00F8013B11F0D0
:1003E000030300F05A80083AC0F0088051F8043B3B
:1003F000083A51F804CBA0E80810F5E7121D5CBFDD
:1004000051F8043B40F8043BAFF30080D20724BF0F
:1004100011F8013B11F801CB48BF11F8012B24BFA3
:1004200000F8013B00F801CB48BF00F8012B7047F2
:100430004FF0000200B5134694469646203922BF7D
:10044000A0E80C50A0E80C50B1F12001BFF4F7AFC8
:10045000090728BFA0E80C5048BF0CC05DF804EBAA
:10046000890028BF40F8042B08BF704748BF20F818
:10047000022B11F0804F18BF00F8012B7047704716
:100480007047704710B500F03BF8006810BD10B51C
:10049000044600F035F8046010BD10B5203AC0F0F5
:1004A0000B80B1E81850203AA0E81850B1E8185075
:1004B000A0E81850BFF4F5AF5FEA027C24BFB1E8B2
:1004C0001850A0E8185044BF18C918C0BDE8104023
:1004D0005FEA827C24BF51F8043B40F8043B08BF2C
:1004E0007047D20728BF31F8023B48BF11F8012BF3
:1004F00028BF20F8023B48BF00F8012B70470000DE
:10050000004870478404002000487047840400209D
:100510007546FFF7F9FFAE4605006946534620F0E1
:100520000700854618B020B5FFF7B4FEBDE82040AF
:100530004FF000064FF000074FF000084FF0000B9F
:1005400021F00701AC46ACE8C009ACE8C009ACE852
:10055000C009ACE8C0098D46704710B50446AFF33A
:1005600000802046BDE81040FFF77FBE01491820FB
:10057000ABBEFEE726000200704700009FED221A86
:1005800045F2DC530021B7EE004AC0F6000320EE2E
:10059000010ABDEEC01AB5EEC00A11EE100AF1EE66
:1005A00010FA9FED1A1AB8BF013802EE100AB8EE21
:1005B000C22A30EE420A9FED162A20EE010ABDEE55
:1005C000C01A11EE100A30EE021A0246B1EB502F9B
:1005D00018BF002202EE102A03EB8203B1EB502F6A
:1005E00018BFB0EE410AB8EE421A93ED002A93ED1F
:1005F000013A30EE410A34EE401A20EE030A21EEB1
:10060000021A31EE000A704783F9223E00000044CE
:10061000000000C410B5044800F0FCFFBDE8104025
:10062000024800F0F7BF0000BC01002028020020B3
:1006300070B50446006881688268C1F3400112F019
:10064000010F28D039BB816801F00D01012914D1B7
:100650008168124A1140891C81602168032008606A
:1006600001F036FD054612E001F032FD401B022884
:100670000DD920688068C00709D0E06D40F01000F7
:10068000E065206E40F001002066012070BD20680A
:100690008068C007E8D1002070BD0000C0FFFF7F68
:1006A00070B504460068816811F0010F2DD1816892
:1006B000174A11421AD18168D5432940491C8160EB
:1006C00001F006FD06461BE0816811F0010F03D121
:1006D00081682940491C816001F0FAFC801B0228D6
:1006E0000ED920680068C043C00709D0E06D40F013
:1006F0001000E065206E40F001002066012070BD12
:1007000020680168C943C907DED1002070BD000020
:100710003F000080FEE7000010B5304C9FED300A2E
:1007200030492DED028BD4ED030ADFED2F8A30EE38
:10073000808A18EE100A884202DD38EE688A08E0E6
:10074000B0EE480AB5EEC00AF1EE10FA01D238EE6A
:10075000288A9FED260AF0EE680A38EE000A04F0B7
:10076000E9FDB1EE400AFFF709FF84ED000A9FEDB5
:10077000200AF0EE680A38EE000A04F0DBFDB1EE64
:10078000400AFFF7FBFE84ED010AF0EE680AB0EEC6
:10079000480A04F0CFFDB1EE400AFFF7EFFEDFEDAF
:1007A000150A84ED020A84ED038A20EE201A94ECE7
:1007B000020A9FED112A0948103070EE201A30EE1F
:1007C000600ADFED0E0A01EEC21A20EE200A80ED6B
:1007D000001A80ED010ABDEC028B10BD90000020D4
:1007E000BEB5243ADB0FC940DB0FC940920A06C0F0
:1007F000920A0640ABAA2A3FABAAAA3E3ACD133FC3
:10080000014801F01FBA0000240400200D490268CD
:100810008A4201D20C4901E00B492031D2B21423A3
:10082000083AB2FBF3F2436C02F01F0223F0030319
:100830001944816404498031C164012191400165FA
:100840007047000008040240000802400179074A8E
:1008500002EB81024265054A4432491E826501F07D
:100860001F0201219140C16570470000FC08024051
:1008700030B5D0E913456560446D14B1D0E9164533
:10088000656090F8444004F01F050124AC40056CFD
:100890006C60046863608368102B036803D0996000
:1008A0000068C26030BD9A600068C16030BD7047AA
:1008B00010B54FF4806001F00DFB4FF4006001F0C3
:1008C00009FBBDE810404FF4005001F003BB72B6C5
:1008D000FEE70000F8B500260446009690F85800A0
:1008E0000D4601280BD0012084F858002046FFF760
:1008F0009FFE0100E06D04D040F010002AE00220CD
:10090000F8BD20F4885040F00200E065206882685D
:10091000134B1A4005F080431A4342F000428260B4
:10092000104A20680EE0009B5B1C0093934209D3A1
:10093000E06D20F0020040F01000E06584F858609F
:100940000120F8BD8368DB0FEDD1E06D20F00200DF
:1009500040F00100E06584F858600846F8BD0000EA
:10096000C0FFFF3F02DE0400704700002DE9F84F92
:100970004FF000080446CDF800800D4694F858204A
:10098000DFF8EC93616947464046012A0AD0012608
:10099000F84A84F8586041B1296A012905D0A36E4C
:1009A000EBB129E00220BDE8F88F6868092838D14A
:1009B000A96A4FF4785041B12B6801F07C0100EA3C
:1009C00053400843E96A084302E0296800EA5140BD
:1009D0002168CB6C13400343CB64606621E0C4E91B
:1009E0001971A96A286A31B101F07C01401E0843DF
:1009F000E96A084300E0401E29682B79C1F384614D
:100A000003F01F0399400143A06E401EA066636E71
:100A100043EA0103636604D12068C16C11401943A5
:100A2000C164206803F06BF958B995F8250098B1B6
:100A30002068C16895F8262021F4401141EA42510E
:100A4000C160206803F063F98246206803F057F91B
:100A50005AEA00000DD0FBE095F8260095F8241026
:100A6000400540EA01512068C26822F44012114357
:100A7000E6E7A86A30B1E86A20B195F825000128B8
:100A80005ED003E095F82500012804D02068C168F5
:100A900021F0007103E02068C16841F00071C1607D
:100AA00095F83000012852D02068016921F0020138
:100AB0000161AA6829682068B2F1004F38D003F0BC
:100AC00041F92068416921F000414161206869696C
:100AD000C268C2F3C102520091402A69042A44D07C
:100AE00000EB82002B68026EDFF88CC203F0F84343
:100AF00002EA0C020B431A4342F0004101662068EF
:100B00002A69A96900EB8200026E22F080720A4312
:100B10000266297F22682869012923D05FF000013D
:100B200002EB8000026E22F000720A4302668FE040
:100B3000002203F007F92068416941F00041C4E751
:100B4000E06D40F02000E0654FF00108A8E7D5E92E
:100B50000D1001432068026922F4FF7242F0020284
:100B60001143A5E74FF00071DAE7002103F0BDF86B
:100B7000400320684FF0000172D003F0B6F890FAFD
:100B8000A0F0B0FA80F1286842036ED090FAA0F08D
:100B9000B0FA80F0814204D100221146206803F0AF
:100BA000E8F80121206803F0A0F8400320684FF026
:100BB00001015DD003F099F890FAA0F0B0FA80F14D
:100BC0002868420359D090FAA0F0B0FA80F0814230
:100BD00004D100220121206803F0CBF80221206813
:100BE00003F083F8400320684FF0020148D003F07F
:100BF0007CF890FAA0F0B0FA80F12868420344D063
:100C000090FAA0F0B0FA80F0814204D100220221D3
:100C1000206803F0AEF80321206803F066F8400373
:100C200020684FF0030133D003F05FF890FAA0F092
:100C3000B0FA80F1286842032FD090FAA0F0B0FA01
:100C400080F0814204D100220321206803F091F852
:100C50002068816811F0010F22D0B6E000E004E0C6
:100C600003F043F8C0F384618DE7C0F3846091E73B
:100C700003F03BF8C0F38461A2E7C0F38460A6E709
:100C800003F033F8C0F38461B7E7C0F38460BBE7D7
:100C900003F02BF8C0F38461CCE7C0F38460D0E7A5
:100CA0002A7B296850F8B03FC1F3120C23EA0C03E9
:100CB00002F0180C314A22FA0CF20A401343036086
:100CC000E96849457ED1286841031CD090FAA0F11B
:100CD000B1FA81F1491C01F01F0109294FEA4031A5
:100CE00032D8002912D000BF90FAA0F1B1FA81F1F8
:100CF00001F1010101F01F0106FA01F609D100BF5F
:100D0000C0F3846109E0C0F38461E3E7C0F3846168
:100D1000EEE790FAA0F1B1FA81F101F1010101F0E1
:100D20001F0146EA816102D1C0F3846003E090FABA
:100D3000A0F0B0FA80F000F1010000F01F0000EB1D
:100D4000400041EA00513AE000290ED090FAA0F1AB
:100D5000B1FA81F101F1010101F01F0106FA01F67A
:100D60000ED100BFC0F384610EE0C0F38461F1E7EF
:100D700000007F400040100400F0FF03FFFF070069
:100D800090FAA0F1B1FA81F101F1010101F01F0126
:100D900046EA816102D1C0F3846003E090FAA0F0DA
:100DA000B0FA80F000F1010000F01F002B4A00EBC8
:100DB000400002EB005041EA000141F00071AA68D6
:100DC000206800E001E002F0BDFF25482A680242E9
:100DD00040D024488168244B01F0E0719A4202D04F
:100DE000224B9A421BD10B0219D42268B2F1A04FB8
:100DF00030D1826841F4000122F0E0720A4382603F
:100E00001B481C490068B0FBF1F0801C00EB40005F
:100E1000800000E0401E00900028FBD11AE0164D33
:100E2000164BAA4207D1CD0105D422689A4211D0AF
:100E300041F0807109E0124DAA420BD14A0209D457
:100E400022689A4206D041F48001826822F0E07262
:100E50000A43826084F858704046A4E5000020FEF2
:100E60000000088000030050000021C31000C09063
:100E70008C000020400D0300000052C7000100500C
:100E8000000084CB154910B5884226D1FFF744FCF9
:100E900013491448142291ED000A80ED030A91EDE4
:100EA000010A114980ED040A91ED000A0F4980ED15
:100EB000000A91ED000A0E4980ED010A91ED000A49
:100EC000014680ED020A0B48FFF76DFABDE81040BD
:100ED00018220849084802F0B3BE10BDBC0100202A
:100EE000A0000020A8010020980000209000002011
:100EF000940000206200002094030020704700004E
:100F00002DE9F04104463548806800F01F0520684F
:100F100002F0F5FE08BB2168C868C96C00F000400B
:100F200011F4C07F00D190B194F85800012814D07A
:100F3000012084F858002046FFF7B2FB02004FF072
:100F400000030CD084F858301046BDE8F081E06D05
:100F500040F02000E0650120F7E70220F5E7E06DB2
:100F6000C00504D5206E20F00800206600E023664E
:100F7000E06D42F20101884340F48050E065184F73
:100F800021684FF0A046B94201D1304600E0084642
:100F9000884200D01DB9E06D20F48010E06560202B
:100FA000086084F858302068B84200D0064686426F
:100FB00009D045B1062D06D0072D04D0E06D40F4D0
:100FC0008010E065C0E7C16811F0007FBCD1816886
:100FD000044B194041F008018160B5E7000300505F
:100FE00000010050C0FFFF7F2DE9F0410446454855
:100FF000806800F01F05206802F081FE08BB2168B0
:10100000C868C96C00F0004011F4C07F00D190B1F5
:1010100094F85800012814D0012084F85800204684
:10102000FFF73EFB01004FF000020CD084F858207F
:101030000846BDE8F081E06D40F02000E065012049
:10104000F7E70220F5E7E06DC00504D5206E20F03B
:101050000800206600E02266E06D42F2010398433A
:1010600040F48050E065284B20684FF0A04698423D
:1010700001D1374600E00746874200D01DB9E76D31
:1010800027F48017E7656027076084F858202068F8
:10109000C268920203D5426842F480624260A0694D
:1010A00008282068426807D022F040024260206889
:1010B000426842F0200206E022F0200242602068EE
:1010C000426842F0400242602068984201D13246B4
:1010D00000E00246824209D045B1062D06D0072D18
:1010E00004D0E06D40F48010E065A1E7C26812F022
:1010F000007F9DD18268054B1A4042F00802826051
:1011000096E700000003005000010050C0FFFF7F81
:10111000704770472DE9F047044690F858009CB09E
:101120000E464FF00009012815D0012084F8580020
:1011300000251795189520684FF0A04840450ED11E
:10114000284F0097384602F0E2FD8246206802F000
:10115000DEFD60B10EE002201CB0BDE8F087E06D5E
:1011600040F02000E06584F858500120F4E7BAF11F
:10117000000F09D0E06D40F02000E0654FF001095C
:1011800084F858504846E7E71748326840F61F7120
:10119000002A826822F4604216D094F8383042EA7D
:1011A000433273681A438260D8F80820BB6802F0A3
:1011B000010203F001031A43E2D1B36832681A4313
:1011C00083688B431A430BE08260D8F80820BB6821
:1011D00002F0010203F001031A43D1D182688A436D
:1011E0008260CDE700010050000300502DE9F84F68
:1011F00000270446009790F85800DFF8E0930D466A
:10120000B846012811D0012684F85860206802F001
:101210007AFD60B1E06D40F02000E0655FF001070D
:1012200084F858803846BDE8F88F0220FBE7D5E9FE
:1012300000210C23206803EA91131844036B01F08A
:101240001F014FF01F0C0CFA01FCC2F3846223EA69
:101250000C038A4013430363206802F054FD824666
:10126000206802F048FD5AEA00003CD1AA682968CB
:101270002068B2F1004F37D002F055FD2068416977
:1012800021F00041416120686969C268C2F3C1026E
:10129000520091402A69042A31D000EB82002B6869
:1012A000026EDFF83CC303F0F84302EA0C020B4382
:1012B0001A4342F00041016620682A69A96900EBDF
:1012C0008200026E22F080720A430266297F226841
:1012D0002869012910D0002102EB8000026E22F063
:1012E00000720A4302667DE0002202F01CFD2068C5
:1012F000416941F00041C5E74FF00071ECE7002182
:1013000002F0EDFC400320684FF0000172D002F0C3
:10131000E6FC90FAA0F0B0FA80F1286842036ED0A3
:1013200090FAA0F0B0FA80F0814204D10022114678
:10133000206802F016FD0121206802F0D0FC400375
:1013400020684FF001015DD002F0C9FC90FAA0F0D6
:10135000B0FA80F12868420359D090FAA0F0B0FAB0
:1013600080F0814204D100220121206802F0F9FCC2
:101370000221206802F0B3FC400320684FF0020114
:1013800048D002F0ACFC90FAA0F0B0FA80F12868E6
:10139000420344D090FAA0F0B0FA80F0814204D128
:1013A00000220221206802F0DCFC0321206802F008
:1013B00096FC400320684FF0030133D002F08FFC0D
:1013C00090FAA0F0B0FA80F1286842032FD090FA8A
:1013D000A0F0B0FA80F0814204D1002203212068FD
:1013E00002F0BFFC2068816811F0010F22D0ACE050
:1013F00000E004E002F073FCC0F384618DE7C0F309
:10140000846091E702F06BFCC0F38461A2E7C0F353
:101410008460A6E702F063FCC0F38461B7E7C0F321
:101420008460BBE702F05BFCC0F38461CCE7C0F3EF
:101430008460D0E72A7B296850F8B03FC1F3120CD2
:1014400023EA0C0302F0180C664A22FA0CF20A4056
:1014500013430360E968494577D1286841031CD0EC
:1014600090FAA0F1B1FA81F1491C01F01F0109299C
:101470004FEA403132D8002912D000BF90FAA0F1D3
:10148000B1FA81F101F1010101F01F0106FA01F643
:1014900009D100BFC0F3846109E0C0F38461E3E7D0
:1014A000C0F38461EEE790FAA0F1B1FA81F101F1A5
:1014B000010101F01F0146EA816102D1C0F384609D
:1014C00003E090FAA0F0B0FA80F000F1010000F023
:1014D0001F0000EB400041EA005132E000290ED02D
:1014E00090FAA0F1B1FA81F101F1010101F01F01BF
:1014F00006FA01F606D100BFC0F3846106E0C0F32E
:101500008461F1E790FAA0F1B1FA81F101F10101F2
:1015100001F01F0146EA816102D1C0F3846003E05B
:1015200090FAA0F0B0FA80F000F1010000F01F0086
:101530002D4A00EB400002EB005041EA000141F06F
:101540000071AA68206802F0EEFB28482A6802426F
:101550003FF466AE26488168264B01F0E0719A425E
:1015600002D0254B9A421CD10B021AD42268B2F148
:10157000A04F7FF455AE826841F4000122F0E07282
:101580000A4382601D481E490068B0FBF1F0401C10
:1015900000EB4000800000E0401E00900028FBD1DE
:1015A0003EE6184D184BAA4207D1CD0105D422685A
:1015B0009A42F5D041F0807109E0144DAA42EFD172
:1015C0004A02EDD422689A42EAD041F4800182684E
:1015D00022F0E0720A43826022E6000000007F40B1
:1015E00000F0FF03FFFF0700000020FE000008805E
:1015F00000030050000021C31000C0908C000020A8
:10160000400D0300000052C700010050000084CBD1
:10161000704770472DE9F05F04460068066845682A
:10162000DFF854B2DBF8080000F01F07B0070ED552
:10163000A8070CD5E06DC00603D4E06D40F400604F
:10164000E0652046FFF790F9216802200860DFF886
:101650002CA270074FF0A04801D5680703D43007CB
:1016600037D5280735D5E06DC00603D4E06D40F4CA
:101670000070E065206802F04EFB20B32068504502
:1016800001D1424600E00246824208D03FB1052F18
:1016900005D0092F03D0504503D1414602E0C1686F
:1016A00001E00146C96889040DD4016809070AD51B
:1016B00002F029FB58B3E06D40F01000E065206EA9
:1016C00040F0010020662046FFF7A2FF21680C20B1
:1016D0000860B00601D5A80603D4700658D5680680
:1016E00056D5E06DC00603D4E06D40F40050E065CF
:1016F0002068C16C11F4C07F1AD00021894602F025
:101700000AFB02462068504514D1434613E0206886
:10171000416821F00C014160E06D20F48070E065CB
:10172000E06DC004CFD4E06D40F00100E065CAE791
:101730000121E3E70346834208D03FB1062F05D0DD
:10174000072F03D0504503D1414602E0C16801E0B4
:101750000146C968B9F1000F14D08B0102D58AB1D6
:101760008A040FD4026852060CD589020AD402F00A
:10177000C2FAE8B3E06D40F01000E065206E40F082
:10178000010020662046FFF77DFB2168602008608D
:1017900030060BD5280609D5E06D40F48030E065B1
:1017A000204600F06BF9216880200860F0050CD518
:1017B000E8050AD5E06D40F40030E0652046FFF70B
:1017C000A7FC21684FF480700860B0050CD5A8050F
:1017D0000AD5E06D40F48020E0652046FFF799FCD3
:1017E00021684FF400700860F0062ED5E80600E08E
:1017F00008E02AD5E06BD0B1AFB1DBF8080000F407
:10180000604013E02068416821F060014160E06DB4
:1018100020F48050E065E06DC005B3D4E06D40F089
:101820000100E065AEE72068C068C00750B1E06D18
:1018300040F48060E065206E40F0020020662046A3
:10184000FFF7E7FE216810200860700512D56805D3
:1018500010D5E06D40F48040E065206E40F0080057
:10186000206621684FF4806008602046BDE8F05F84
:10187000FFF744BBBDE8F09F00030050000100509B
:10188000F8B54FF0000504002E46009502D0E06D3B
:1018900010B107E00120F8BD204600F0F1F82666FF
:1018A00084F8586020688168C1F3407119B181687B
:1018B0006A4A1140816020688168C1F3007189B96A
:1018C0008168674A114041F08051816065486649EE
:1018D0000068B0FBF1F04000801C00E0401E00906A
:1018E0000028FBD120688168C1F3007141B9E16D26
:1018F00041F01001E165216E41F0010121660125F1
:1019000002F001FAE16DC90600D430B1E06D40F09B
:101910001000E06501252846F8BDE06D20F48070D8
:1019200040F00200E0652068806810F0010F11D1DE
:101930004FF0A04080684D4900F00100896801F037
:101940000101084306D14A486168826822F47C128A
:101950000A438260E168E06B627F0843A16841EA64
:101960004231084394F8241040EA0140012904D18F
:10197000218D404A02EB41410843E16A29B101F45B
:101980007871226B014342EA01002168CA683A4B30
:101990001A400243CA6020680169626B21F040610D
:1019A00011430161206802F0AEF90646206802F09A
:1019B000A2F930432ED1207F94F83810800340EAFA
:1019C00041022068C16844F2020399431143C16097
:1019D00020690028206801690AD041F48031016142
:1019E000206850F8C01F22696FF30D01114307E012
:1019F00021F480310161206850F8C01F6FF30D01A0
:101A0000016094F8400001280CD02068016921F0A1
:101A100001010161606901282068016B21F00F015B
:101A200011D013E0D4E911010843D4E91312114392
:101A3000084321680A6940F2FC739A43104340F05E
:101A400001000861E6E7226A521E11430163E06D5E
:101A500020F0020040F00100E0655CE7C0FFFF5F9E
:101A6000C0FFFF7F8C000020400D030000010050EC
:101A7000000300500000FEFF0740F0FF7047000029
:101A8000F0B587B0044614216846FEF7D1FC2F4B11
:101A9000266800241A6803252D49521C4FF09040F7
:101AA000B6F1A04F06D02B4FBE424CD11A60012A8E
:101AB0002AD031E01A60012A07D1CA6C42F40052E0
:101AC000CA64CA6C02F400520592CA6C42F0010268
:101AD000CA64CA6C02F001020592CA6C42F00202AA
:101AE000CA64C96C029401F0020105910421CDE998
:101AF0000015694600F0FAF941F20200CDE900054F
:101B000069460294144814E0CA6C42F40052CA6454
:101B1000CA6C02F400520592CA6C42F00102CA6417
:101B2000C96C029401F0010105914121CDE9001534
:101B3000694600F0DBF900221146122000F02EFB6E
:101B4000122000F01DFB07B0F0BD00007C0000205B
:101B500000100240000100500004004810B590F849
:101B6000253000210122022B03D00421C163012171
:101B700022E003681C6824F00E041C60836C1C685F
:101B800024F480741C6003681C6824F001041C6049
:101B900090F84430046C03F01F0302FA03F363600F
:101BA000D0E913345C60436D33B11C6824F4807455
:101BB0001C60D0E916345C6080F82520002280F893
:101BC0002420084610BD70B590F82520002401217E
:101BD0002346022A07D00422C26380F8251080F829
:101BE0002430012429E00268156825F00E051560EF
:101BF0000268156825F001051560826C156825F4EA
:101C00008075156090F84420056C02F01F0201FAFF
:101C100002F26A60D0E913255560426D32B1156851
:101C200025F480751560D0E91625556080F82510DB
:101C300080F82430816B01B18847204670BD90F850
:101C400025007047F0B4016C0C6801680D6890F8CD
:101C5000442002F01F06042202FA06F3234211D0A8
:101C60006B070FD50B689B0603D40B6823F00403A6
:101C70000B6090F8441001F01F018A40016C4A602B
:101C8000016B1DE0022303FA06F727424FF0000C18
:101C90004FF0010218D0AF0716D50C68A40605D482
:101CA0000C6824F00A040C6080F8252090F8441099
:101CB00001F01F018B40016C4B6080F824C0C16AA9
:101CC00000291AD0F0BC08470823B340234214D09F
:101CD0002B0712D50B6823F00E030B6090F844100D
:101CE000036C01F01F0102FA01F15960C26380F830
:101CF000252080F824C0416BE2E7F0BC704700006B
:101D000070B504000CD02B4A21681420914209D2EE
:101D1000294A0A44B2FBF0F08000606427480AE0D8
:101D2000012070BD234A52420A44B2FBF0F0800009
:101D30006064204808382064022084F825000A687E
:101D400047F6F0708243D4E902031843D4E904351E
:101D50002B431843A3691843E3691843236A1843C4
:101D6000104308602046FEF751FDA0680025B0F53D
:101D7000804F00D16560A16C20790860D4E913011F
:101D800041606068401E032808D82046FEF75EFDCB
:101D9000606D0560D4E91601416002E06565A565E6
:101DA000E565E563012084F8250084F824500020CF
:101DB00070BD000008040240F8FFFDBF00000240B3
:101DC00070B5044690F82400002501280CD00120AD
:101DD00084F8240094F825600020012E06D084F8B1
:101DE00024000225284670BD022070BD022684F81A
:101DF0002560E0632068066826F00106066020463C
:101E0000FEF736FD206B00282068016802D041F003
:101E10000E0106E021F0040101602068016841F034
:101E20000A010160A06C0168C90303D5016841F48F
:101E300080710160606D18B1016841F480710160CA
:101E40002068016841F001010160CBE710B51D4C2D
:101E5000B0F5806F1BD0B0F5006F25D0B0F5005FF6
:101E60002FD100224021204600F02CF90022102121
:101E7000204600F027F91448FFF7E1FE0128FAD1C7
:101E800012492022BDE81040114801F0D9BE40217E
:101E9000204600F00FF90C48FFF7D1FE0128FAD1D7
:101EA0000A4920224039EDE71021204600F002F9CE
:101EB0000548FFF7C4FE0128FAD104492022203941
:101EC000E0E710BD00080048240400204200002084
:101ED00094030020044910B50A68024202D0086049
:101EE000FFF7B4FF10BD0000140401402DE9FC4FC2
:101EF000DFF8A0A1002301250AF1040B03244FF011
:101F00000F0C0BF1040EBDE005FA03F632406FD062
:101F10004F68012F05D0022F03D0112F01D0122FAF
:101F200017D1D0F808905F0004FA07F829EA0809E9
:101F30000097D1F80C8008FA07F848EA0908C0F8B9
:101F400008804768B7430E79C6F300169E403E43AB
:101F50004660C6684FEA430804FA08F7BE43019793
:101F60008F6807FA08F73743C7604E68022E01D022
:101F7000122E13D1DE0800EB86060096366A5F0744
:101F8000FF0E0CFA07F926EA0906D1F8109009FAB3
:101F900007F949EA0609009EC6F820900668019FE5
:101FA000BE430F7907F0030707FA08F737430760C6
:101FB0004E68F60065D5384E376E47F00107376634
:101FC000366E23F0030706F001060096334E3E44BA
:101FD000B146B6689F074FEA17780CFA08F7BE4378
:101FE000B0F1904F05D02E4FB84204D1012717E031
:101FF00047E0002714E02B4FB84201D102270FE041
:10200000294FB84201D103270AE0284FB84201D135
:10201000042705E0264FB84201D1052700E0062736
:1020200007FA08F73743C9F80870DAF8006057462E
:10203000D1F8048096435FEAC83800D516433E6065
:10204000DBF800605F46D1F8048096435FEA883889
:1020500000D516433E60DEF800607746D1F8048074
:1020600096435FEAC82800D516433E60094F0C37F7
:102070003E68D1F8048096435FEA882800D516436D
:102080003E605B1C0A6832FA03F67FF43DAFBDE8A0
:10209000FC8F0000000401400010024000000140DD
:1020A0000004004800080048000C004800100048E8
:1020B00000140048426921EA02030A4043EA02414F
:1020C000816170470AB18161704781627047000089
:1020D0000148806870470000800000200248816845
:1020E00042681144816070478000002010B50024D0
:1020F000032000F073F80F2000F008F808B1012465
:1021000001E000F025F8204610BD000070B50E4E2D
:1021100005460024706898B14FF47A71B1FBF0F075
:102120000A490968B1FBF0F000F03EFE40B9102DFD
:1021300006D200222946501E00F030F8356000E03B
:102140000124204670BD0000800000208C0000208B
:102150000A4882B0016E41F001010166016E01F092
:1021600001010091816D41F080518165806D00F029
:102170008050009002B000F07BB9000000100240D7
:10218000002809DB00F01F02012191404009800076
:1021900000F1E020C0F8001170470000F0B40E4BD1
:1021A0001B680C46C3F30223C3F10705042D00D9B5
:1021B0000425191D072901D2002300E0DB1E01269A
:1021C00006FA05F1491E214099409E40761E1640B0
:1021D0003143F0BC02F0B1BF0CED00E0064900F065
:1021E000070208684FF6FF03184040EA0220034A3E
:1021F00010430860704700000CED00E00000FA0595
:10220000F8B504004FF0000514D094F83A00052802
:1022100010D094F83A0002280CD03448016E41F0F6
:1022200001010166006E00F00100009094F83A0090
:1022300010B104E00120F8BD002084F839002046E8
:1022400000F058F8A0682A4A4FF48071402836D030
:10225000602834D020680368E66A23F01003334313
:102260000360D4E901031843D4E903363343184328
:10227000237D012B00D000210843616A0843A16A35
:102280000843218E40EAC14094F8341040EA0161CD
:1022900020680368134019430160206881690029A0
:1022A00009DBD4E906121143226A836923F03F0354
:1022B0001A431143816194F83A0090B114E0206808
:1022C0000368E66A23F0100333430360D4E9010393
:1022D0001843267D2369012E00D000210B431843AB
:1022E000CBE7012084F83A002846F8BD00100240F0
:1022F000113E00E030B587B0044614216846FEF771
:1023000097F824681D4D00221D4903234FF090408B
:10231000AC4209D1CC6C44F00104CC64C96C01F02E
:10232000010105910E210CE0144D2D1DAC4211D17F
:10233000CC6C44F00104CC64C96C01F0010105913E
:10234000E021CDE9001302924FEA0D01FFF7CEFD27
:1023500007B030BD094808308442F9D1C86C40F05C
:102360000200C864C86C694600F0020005900720AE
:10237000CDE9000302920348E8E7000000030140B2
:102380000010024000040048002138B190F83A20C3
:10239000052A03D090F83A20012A02D001210846EC
:1023A00070470268136843F001031360042280F849
:1023B0003A20F4E72B492C4B0A6832214A432B4937
:1023C00040B1B0F5007F086829D020F4C06040F427
:1023D00080602CE00868C0F34120022804D051F846
:1023E000800F20F4807022E0D1F8800020F480700B
:1023F000C1F88000086820F4C06040F400700860F4
:10240000B2FBF3F0401C00E0401E4A69520501D5C2
:102410000028F9D1486940050AD503207047C0F368
:102420004120022806D051F8800F40F480700860E7
:1024300000207047D1F8800040F48070C1F880001F
:10244000086820F4C06040F400700860B2FBF3F04C
:10245000401C00E0401E4A695205DBD50028F9D136
:10246000D8E700008C00002040420F0000700040C0
:102470000248816841F480418160704700700040EB
:102480002DE9F8430446006800269D4D00035ED503
:10249000A86D0027C00008D4A86D40F08050A86542
:1024A000A86D012700F080500090DFF85892D9F80D
:1024B000001041F48071C9F80010FFF709FE804652
:1024C00006E000BFFFF704FEA0EB080002282BD8AF
:1024D000D9F80000C005F5D5D5F8900010F440708B
:1024E00014D0216C814211D0D5F89000D5F890100D
:1024F00020F4407041F48031C5F89010D5F8901068
:1025000021F48031C5F89010C5F89000C00711D0B3
:10251000FFF7DEFD804641F2883907E0FFF7D8FD7E
:10252000A0EB0801494501D903260BE0D5F890003E
:102530008007F3D5D5F89000216C20F44070084353
:10254000C5F890001FB1A86D20F08050A8652078D4
:10255000C00707D0D5F88800616820F00300084361
:10256000C5F888002078800707D5D5F88800A168CD
:1025700020F00C000843C5F888002078400707D5F4
:10258000D5F88800E16820F030000843C5F88800DD
:102590002078000707D5D5F88800216920F0C00011
:1025A0000843C5F888002078800607D5D5F888004C
:1025B000616920F440600843C5F88800207840062F
:1025C00007D5D5F88800A16920F440500843C5F824
:1025D00088002078000607D5D5F88800E16920F446
:1025E00040400843C5F888002088C00507D5D5F8C5
:1025F0008800216A20F440300843C5F8880020880C
:10260000800507D5D5F88800616A20F4402008438A
:10261000C5F88800208840050FD5D5F88800A16A44
:1026200020F440100843C5F88800A06AB0F5801F68
:1026300003D1E86840F48010E860208800050FD5D9
:10264000D5F88800E16A20F440000843C5F8880006
:10265000E06AB0F5800F03D1E86840F48010E860CC
:102660002088C0040FD5D5F88800216B20F0407079
:102670000843C5F88800206BB0F1807F03D1E8687B
:1026800040F48010E86020884FF0006180040ED58F
:10269000D5F88800626B20F040601043C5F88800D0
:1026A000606B884203D1E86840F48010E8602088BD
:1026B00040040ED5D5F88800A26B20F0406010438E
:1026C000C5F88800A06B884203D1E86840F4801008
:1026D000E860208800040FD5D5F88800E16B20F071
:1026E00040500843C5F88800E06BB0F1805F03D12B
:1026F000E86840F48030E8603046BDE8F8830000C8
:1027000000100240007000402DE9F0470E46050021
:102710004FF0000725D0DFF8AC81D8F8000000F0BA
:102720000F00B0420CD2D8F8001021F00F01314355
:10273000C8F80010D8F8000000F00F00B04210D127
:102740002968614CC80741F2883A5AD06868DFF8B6
:102750007C91032808D0022820682DD0400500284D
:102760002CDB0120BDE8F08720688001F9D5E06806
:1027700000F00302E068C0F30310401C032A19D0E4
:10278000534A00BFB2FBF0F0E268C2F306225043A6
:10279000E268C2F34162521C5200B0FBF2F04845BD
:1027A00017D9A06810F0F00F0CD0880711D5A868D1
:1027B00040B10EE0474AE5E78003D0E700F0B6F805
:1027C000484506D9A06820F0F00040F08000A060E5
:1027D0008027A068696820F003000843A060FFF725
:1027E00077FC814606E000BFFFF772FCA0EB090111
:1027F00051453AD8A068696800F00C00B0EB810F31
:10280000F2D12868810714D5400703D5A06840F4A9
:10281000E060A0602878000705D5A06820F460502B
:1028200040F4E060A060A068A96820F0F0000843D0
:1028300004E0802F03D1A06820F0F000A060D8F859
:102840000010404601F00F01B14216D9016821F095
:102850000F0131430160FFF73BFC074607E000BF73
:10286000FFF736FCC11B514501D903207AE7D8F8A0
:10287000000000F00F00B042F2D12878400705D5E3
:10288000A068E96820F4E0600843A06028780007A9
:1028900006D5A068296920F4605040EAC100A06014
:1028A00000F044F8A1680C4AC1F30311515C01F037
:1028B0001F01C8400949086009480068BDE8F047A1
:1028C000FFF724BC002002400010024000B4C40402
:1028D0000024F40000366E01C45500088C0000206E
:1028E000800000200548064900688968054AC1F350
:1028F0000221515C01F01F01C84070478C0000208C
:1029000000100240D455000805480649006889684F
:10291000054AC1F3C221515C01F01F01C840704754
:102920008C00002000100240D4550008184910B552
:102930008868C0F381021748012A0BD08A68164BB9
:10294000C2F38102022A06D08A68C2F38102032AF6
:1029500003D0002010BD184610BDCA6802F0030461
:10296000CA68C2F30312521C032C02D0B0FBF2F06F
:1029700001E0B3FBF2F0CA68C968C2F30622504313
:10298000C1F34161491C4900B0FBF1F010BD0000EA
:10299000001002400024F40000366E012DE9F843D7
:1029A00004007AD02078FA4DC00747D0A868E968BB
:1029B00000F00C0001F003010C2802D0082817D009
:1029C00001E0032914D06068B0F5803F17D0B0F55E
:1029D000A02F286817D020F480302860286820F4C1
:1029E000802028606068E0B1FFF772FB064614E0C3
:1029F0002868800322D560680028D2D01EE02868AD
:102A000040F48030EDE740F480202860F7E700BF15
:102A1000FFF75EFB801B642870D828688003F7D519
:102A20000CE0FFF755FB064605E000BFFFF750FB43
:102A3000801B6428F0D828688003F7D420788007AA
:102A40004CD5A868E96800F00C0001F003010C28DF
:102A500002D004280DD001E002290AD0E068002845
:102A600028682BD040F480702860FFF731FB0646C1
:102A700019E02868400502D5E068002891D0686810
:102A8000217C20F0FE4040EA01606860C148006897
:102A9000FFF73CFB002800D120E076E1FFF718FBB0
:102AA000801B0228B8D828684005F7D56868217CC3
:102AB00020F0FE4040EA016068600FE020F4807082
:102AC0002860FFF705FB064605E000BFFFF700FBA7
:102AD000801B0228A0D828684005F7D4207800077A
:102AE00029D560690028D5F8940013D040F0010082
:102AF000C5F89400FFF7ECFA064606E090E000BF48
:102B0000FFF7E6FA801B022886D8D5F894008007E4
:102B1000F6D510E020F00100C5F89400FFF7D8FAD0
:102B2000064604E0FFF7D4FA801B022878D8D5F8CF
:102B300094008007F6D42078400761D5A86D002660
:102B4000C00008D4A86D40F08050A865A86D01268B
:102B500000F08050009090480168C90511D40168C8
:102B6000804641F480710160FFF7B2FA074604E045
:102B7000FFF7AEFAC01B022852D8D8F80000C005F3
:102B8000F6D5A068012815D00528D5F8900016D0F4
:102B900020F00100C5F89000D5F8900020F0040066
:102BA000C5F89000A06841F28838B8B1FFF790FAF4
:102BB00007460EE0D5F8900040F00100F0E740F045
:102BC0000400C5F89000F5E7FFF782FAC11B414504
:102BD00026D8D5F890008007F6D50CE0FFF778FAF4
:102BE000074604E0FFF774FAC11B414518D8D5F831
:102BF00090008007F6D41EB1A86D20F08050A86523
:102C00002078800629D5A0690028D5F8980013D02F
:102C100040F00100C5F89800FFF75AFA064606E0B2
:102C200077E000BFFFF754FA801B022877D8D5F869
:102C300098008007F6D510E020F00100C5F8980054
:102C4000FFF746FA064604E0FFF742FA801B022827
:102C500065D8D5F898008007F6D4E069F0B3A96884
:102C6000C1F38101032961D00228286820F0807017
:102C700028600BD0E86820F00300E860E868474966
:102C80000840E860FFF724FA04464BE0FFF720FA1B
:102C9000064604E0FFF71CFA801B02283FD828688C
:102CA0008001F7D4F4E908016FF00F0202EB011183
:102CB0000843218A5204490802EB4151A26841EAC3
:102CC00002210843217D4FF07E42490802EB416119
:102CD0000843217B40EAC160E96800E062E0304AD5
:102CE00011400843E860286840F080702860E86878
:102CF00040F08070E860FFF7EBF9044605E000BFA4
:102D0000FFF7E6F9001B022809D828688001F7D5EB
:102D100048E004E0FFF7DCF9001B022802D9032099
:102D2000BDE8F88328688001F4D43BE00128F7D09F
:102D3000E868226A00F00301914226D1616A00F03E
:102D4000F0020901103991421FD1A26A00F4FE413C
:102D5000B1EB022F19D194F82C2000F07841B1EB9F
:102D6000C26F12D1218E00F4C00249084905A1F5B5
:102D70000011914209D194F8341000F0C060490864
:102D80004906A1F1007181420CD00120C8E7000082
:102D9000001002408000002000700040FFFFEEFEA7
:102DA0000C809F010020BBE710B5401EB0F1807F72
:102DB00001D3012010BD4FF0E02460610F216017A6
:102DC00002F0BBF90020A06107202061002010BDA7
:102DD0007047704770470000F0B590F83C20012A1A
:102DE0004AD0012280F83C20CA688B6822F44072E5
:102DF0001A434B6822F480621A430B6822F4006283
:102E00001A430B6922F480521A434B6922F4005290
:102E10001A430B6B22F480421A430B8B22F470226C
:102E200042EA0342154C03680026154DA34201D027
:102E3000AB4203D1CF6922F080523A43A34201D082
:102E4000AB4214D10F8D22F4700242EA07520F6A8E
:102E500022F080723A434F6A22F000723A43A34252
:102E600001D0AB4203D1C96A22F000520A435A642E
:102E700080F83C600020F0BD0220F0BD002C014035
:102E8000003401407047704770470000F0B590F87B
:102E90003C20012A3AD0012580F83C50022280F8DB
:102EA0003D2003685A689C68194E1A4FB34201D0FE
:102EB000BB4204D122F4700C4A6842EA0C02DFF8EB
:102EC00058C002EA0C02D1F800C04CEA020CC3F868
:102ED00004C00268B2420DD0B2F1804F0AD00F4B4D
:102EE0009A4207D00E4B9A4204D0BA4202D00D4B00
:102EF0009A4204D1896824F080031943916080F8D4
:102F00003D50002180F83C100846F0BD0220F0BD85
:102F1000002C0140003401408FFFFFFD0004004001
:102F20000008004000400140704710B5040003D085
:102F300094F83D0010B107E0012010BD002084F896
:102F40003C00204600F022F8022084F83D00211DBC
:102F5000206801F0D3F9012084F8480084F83E008D
:102F600084F83F0084F8400084F8410084F842006F
:102F700084F8430084F8440084F8450084F846004F
:102F800084F8470084F83D00002010BD08B50068B3
:102F90001349884222D11348016E41F40061016651
:102FA000006E002200F40060009011461820FFF728
:102FB000F5F81820FFF7E4F8002211461920FFF772
:102FC000EDF81920FFF7DCF8002211461B20FFF76F
:102FD000E5F8BDE808401B20FFF7D2B808BD0000A7
:102FE000002C01400010024090F83D10012901D052
:102FF00001207047022180F83D1000680F49884287
:103000000ED0B0F1804F0BD00D49884208D00D4949
:10301000884205D00C49884202D00C49884207D129
:1030200081680B4A1140062906D0B1F5803F03D0D4
:10303000016841F00101016000207047002C01404F
:1030400000040040000800400034014000400140FE
:103050000700010070B5044690F83C00012814D028
:10306000012584F83C50022084F83D0022689068D5
:10307000344B184020F47F4090600868702827D0B7
:1030800010DC10F00F0F03D04AE04FF0020070BDCB
:103090004FEA2012072A43D2DFE802F05050505086
:1030A00048313900284BC21A984247D009DCB0F5A4
:1030B000805F35D0B0F5005F15D0B0F1101F2FD173
:1030C0003CE0102A3AD0202A38D0502A28D135E0C6
:1030D000CB68D1E90121206801F075F92068816889
:1030E00041F0770109E0CB68D1E90121206801F0C6
:1030F0006AF92068816841F48041816010E0CA6803
:103100004968206801F00AFB5021206806E0CA687F
:103110004968206801F013FB6021206801F05EF926
:1031200084F83D50002084F83C0070BDCA684968AE
:10313000206801F0F3FA40212068EFE72268014699
:103140001046EBE788FFCEFF20001000704770B5F7
:103150000446006801694FF00005C943890715D48A
:10316000C168C943890711D4E91E01610120207794
:10317000206880698007204602D0FFF7E7FF04E05F
:1031800000F02EF9204600F0EDF92577206801695E
:10319000C943490717D4C168C943490713D46FF01D
:1031A00004010161022020772068806910F4407FCB
:1031B000204602D0FFF7CAFF04E000F011F92046D4
:1031C00000F0D0F9257720680169C943090716D4B2
:1031D000C168C943090712D46FF0080101610420D6
:1031E00020772068C0698007204602D0FFF7AEFF35
:1031F00004E000F0F5F8204600F0B4F925772068E7
:103200000169C943C90617D4C168C943C90613D4A3
:103210006FF010010161082020772068C06910F468
:10322000407F204602D0FFF791FF04E000F0D8F87D
:10323000204600F097F9257720680169C943C9073E
:1032400008D1C168C943C90704D1891E016120465C
:1032500000F008FA20680169C943090609D4C16869
:10326000C943090605D46FF0800101612046FFF7CC
:10327000B0FD20680169C943C90509D4C168C943C3
:10328000090605D46FF4807101612046FFF7A0FDA7
:1032900020680169C943490609D4C168C943490680
:1032A00005D46FF040010161204600F0DCF9206890
:1032B0000169C943890609D4C168C943890605D48F
:1032C0006FF0200101612046FFF784FD206801694D
:1032D000C943C90209D4C168C943C90205D46FF4FE
:1032E000801101612046FFF7CEFD20680169C943C6
:1032F000890209D4C168C943890205D46FF4001159
:1033000001612046FFF7BEFD20680169C9434902FB
:1033100009D4C168C943490205D46FF48001016131
:103320002046FFF7B1FD20680169C94309020BD4AB
:10333000C168C943090207D46FF400010161204646
:10334000BDE87040FFF7F0BD70BD0000F0B587B07C
:10335000044614216846FDF76BF81E492068884230
:1033600036D11D48C16C41F00201C164C16C01F04D
:1033700002010591C16C41F00101C164C06C0225DC
:1033800000F0010005904FF4C04000900024CDE90A
:1033900001540626114FCDE9034669463846FEF72B
:1033A000A5FDA8030090CDE901540420CDE9034018
:1033B00069463846FEF79AFD4FF4E0600090CDE98B
:1033C0000154CDE9034669464FF09040FEF78EFD6B
:1033D00007B0F0BD002C014000100240000400487E
:1033E000704770B5044690F83C000D4601280BD09C
:1033F000012084F83C000C2A45D007DC5AB1042A8D
:103400001BD0082A78D12CE0022070BD102A4ED0A3
:10341000142A71D15DE0206800F0EAFF206881691C
:1034200041F0080181612068816921F00401816116
:10343000206881692A69114311E0206801F026F8AB
:103440002068816941F4006181612068816921F40B
:1034500080618161206881692A6941EA0221816174
:103460004AE0206801F05AF82068C16941F008017B
:10347000C1612068C16921F00401C1612068C1698E
:103480002A69114311E0206801F090F82068C169B1
:1034900041F40061C1612068C16921F48061C161AA
:1034A0002068C1692A6941EA0221C16124E02068DB
:1034B00001F0C4F82068016D41F008010165206841
:1034C000016D21F0040101652068016D2A69114335
:1034D00011E0206801F0EAF82068016D41F4006114
:1034E00001652068016D21F4806101652068016D2E
:1034F0002A6941EA02210165002084F83C0070BD80
:1035000010B5040003D094F83D0010B107E001208D
:1035100010BD002084F83C00204600F022F8022074
:1035200084F83D00211D206800F0E8FE012084F8A9
:10353000480084F83E0084F83F0084F8400084F896
:10354000410084F8420084F8430084F8440084F881
:10355000450084F8460084F8470084F83D000020C8
:1035600010BD70477047000030B50446022269B1B3
:10357000042912D0082917D00C291CD0102921D0D9
:1035800094F84300012824D0012030BD94F83E0077
:103590000128F9D184F83E201DE094F83F0001286D
:1035A000F2D184F83F2016E094F840000128EBD1D6
:1035B00084F840200FE094F841000128E4D184F819
:1035C000412008E094F842000128DDD184F842202F
:1035D00001E084F843200122206800F0E7FE194B47
:1035E00020681949194A984209D0884207D0904268
:1035F00005D0174DA84202D0164DA84203D1456C04
:1036000045F400454564206898420CD0B0F1804FE5
:1036100009D0114B984206D0104B984203D08842F3
:1036200001D0904207D181680D4A1140062906D089
:10363000B1F5803F03D0016841F001010160002035
:1036400030BD0000002C014000340140004001402A
:1036500000440140004801400004004000080040D0
:10366000070001007047704790F88010012918D0BA
:10367000012180F880102421C0F8841050F8641BC8
:103680000A680B6823F001030B6022F0005100224E
:10369000026050F8643C19602021016202771046F4
:1036A0007047022070477047704770B5044690F825
:1036B000800001281DD0012084F880002420C4F857
:1036C000840020680568026822F001020260206818
:1036D000826822F060620A438260204601F042F86C
:1036E000206805602020C4F88400002084F8800051
:1036F00070BD022070BD70B5044690F880000128AE
:103700001DD0012084F880002420C4F884002068A3
:103710000568026822F0010202602068826822F0D7
:1037200060420A438260204601F01CF82068056070
:103730002020C4F88400002084F8800070BD02209E
:1037400070BD7047704770472DE9F041036804462B
:10375000D86919689A6840F60F0528424FF00005AD
:1037600009D186067ED501F0200602F080573E433F
:1037700078D0216FFFE0924E924F16400F403743B2
:1037800070D0C70709D0CF0507D501271F62D4F82D
:103790008C3043F00103C4F88C3083070AD5D3077B
:1037A00008D0276802233B62D4F88C3043F004032E
:1037B000C4F88C3043070AD5D30708D02768042300
:1037C0003B62D4F88C3043F00203C4F88C3003071A
:1037D0000CD501F02003334308D026680823336258
:1037E000D4F88C3043F00803C4F88C3003050BD5B3
:1037F0004B0109D526684FF400633362D4F88C304E
:1038000043F02003C4F88C30D4F88C30002B34D033
:10381000800609D501F0200002F08051084303D052
:10382000216F09B120468847D4F88C002168896847
:10383000490602D410F0280F21D0204601F098F854
:1038400020688168490615D5816821F040018160B2
:10385000E06F78B15C498163E06FFEF7B4F900284E
:103860000BD000E011E0E06F816B00E02046BDE886
:10387000F04108472046FFF766FFBDE8F08120468B
:10388000FFF761FFC4F88C50F7E7E76E2026012FA1
:103890005CD1C7065AD5CF0658D5102018622068CB
:1038A000816849062FD5E26F116849680904090C3F
:1038B000E3D0B4F85C308B42DFD9A4F85E10116815
:1038C0000968890618D4016821F4807101602068B4
:1038D000816821F0010181602068816821F0400148
:1038E0008160C4F88860E5662068016821F01001F5
:1038F0000160E06FFEF732F9B4F85C00B4F85E10D6
:10390000401A81B21EE0B4F85C10B4F85E20891A47
:10391000B4F85E2089B2002AAFD00029ADD0026889
:1039200022F49072026020688268254BDB431A40C3
:103930008260C4F88860E56625672068026822F026
:10394000100202602046FFF7AEFE96E7C70209D5D7
:10395000570207D54FF4801018622046BDE8F041A9
:10396000FFF7F0BE07060AD501F0800702F4000257
:10397000174304D0616F00297FF478AF7DE74206DA
:103980000CD54A060AD51968204621F04001196075
:10399000C4F88460656700F09FF96EE7020206D5FF
:1039A0004A0004D52046BDE8F041FFF7CABEC00179
:1039B000CBD50029C9DA2046BDE8F041FFF774BE37
:1039C0000100001020010004D148000810B50400D7
:1039D00003D0D4F8840010B107E0012010BD00200E
:1039E00084F88000204600F027F82420C4F88400E2
:1039F0002068016821F001010160204601F09EF974
:103A00000128EBD0A06A10B1204600F0CDFE20685E
:103A1000416821F4904141602068816821F02A01C9
:103A200081602068016841F0010101602046BDE825
:103A3000104000F01DBF000070B586B0064614218E
:103A40006846FCF7F5FC2149306888423CD12049A2
:103A5000886D40F480208865886D00F48020059092
:103A6000C86C40F00200C864C86C002500F0020079
:103A700005904FF4406000900220CDE90105072039
:103A8000CDE9035069461348FEF730FA134C12484B
:103A900020601D2060601020C4E902058020C4E978
:103AA0000405A561E56120462562FEF729F908B104
:103AB000FCF70DFFB467002211462720A662FEF72F
:103AC0006DFB2720FEF75CFB06B070BD0048004090
:103AD00000100240000400480800024024040020B6
:103AE00010B4D0F88830202B1BD1B9B1B2B190F806
:103AF0008030012B15D0012380F880300023C3666D
:103B0000094C0368A34206D05C68240203D51C68F4
:103B100044F080641C6010BC01F04ABA012010BC63
:103B200070470220FBE7000000800040104910B5FC
:103B30000878FF280ED3002008704FF480710D48DC
:103B4000FCF776FC4FF6FF730A220BA10C4800F03D
:103B500019F804E0074B4A781A54401C08700449CD
:103B60000122BDE81040491C0548FFF7B9BF00001D
:103B700000000020A80000203F3F3F3F0000000061
:103B8000940300202DE9F8430446D0F884001F4632
:103B900016460D46202851D1DDB1D6B194F88000EB
:103BA00001284BD0012084F880004FF00008C4F8B1
:103BB0008C802120C4F884001834FEF789FAA68787
:103BC0008146E68754F8100C183CB0F5805F03D0AE
:103BD00004E00120BDE8F883206920B12E460025CD
:103BE00084F8808010E00026FAE78021204601F06A
:103BF0004BFAB8B9C6B116F8010B21688862B4F85F
:103C00005600401EA4F85600B4F856004B464FF03C
:103C1000000200970028E8D14FF04001204601F053
:103C200033FA30B10320D5E735F8020BC0F30800B2
:103C3000E3E72020C4F884000020CBE70220C9E796
:103C400070B50446D0F8840020283DD171B36AB322
:103C500094F88000012837D0012084F88000216585
:103C6000A4F85420A4F856200025C4F88C50212034
:103C7000C4F88400A06FD8B11449C162A16F144880
:103C800013460863A16F13484863A06F85632668D5
:103C9000216D06F12802A06FFEF792F840B11020C6
:103CA000C4F88C0004F8805F20206060012070BDA3
:103CB00021684020086284F880502068816841F0C3
:103CC00080018160002070BD022070BD3549000870
:103CD00065490008E548000870477047FEE700EBBB
:103CE0008100006E00F0F840704700EB8100006E2C
:103CF00000F0F84070478068C0F3C00070478068EB
:103D0000C0F3C00070478068C0F3800070478068CF
:103D1000C0F380007047C06810F4406F01D00020ED
:103D2000704701207047042303EAD15310B51844AB
:103D30004369C1F3045107248C40A3438A401343D1
:103D4000436110BD042303EAD15310B518444369FD
:103D5000C1F3045107248C40A3438A4013434361B9
:103D600010BD00EB8100016E21F00041114301669E
:103D7000704700EB8100016E21F0004111430166A4
:103D800070470000F0B59BB00024179418942021D0
:103D90000FA81994FCF74CFB3C216846FCF748FB44
:103DA00031484FF0A041012501604FF40021C0E9E6
:103DB000011400F110010426C46081E8700004774A
:103DC0004477056280F82440C462046380F8384078
:103DD000C46380F84040FDF753FD08B1FCF777FD60
:103DE00017A921481794FDF795F908B1FCF76FFD65
:103DF0001E480F9010A906207F2781E89100CDE989
:103E000013640FA91848FDF7F1F908B1FCF75FFD3D
:103E10001748009001A9092081E8A100CDE90464B8
:103E20000220089084200A908DF8244080208DF88C
:103E300025400B908DF826408DF8304069460A48A1
:103E4000FCF794FD08B1FCF742FD0A48009040F2EF
:103E50000F10019069460448FCF788FD002801D046
:103E6000FCF735FD1BB0F0BDBC0100200008302E72
:103E70000800900C00106032F0B597B03C21684605
:103E8000FCF7D6FA20210FA8FCF7D2FA27482649DA
:103E900000240160C902C0E90114C4600425046162
:103EA000C0E90545047744770126066280F824407E
:103EB000C462046380F83840C46380F84040FDF772
:103EC000DFFC08B1FCF703FD1948009001A90920A7
:103ED0007F2781E8C100CDE9045484200A908DF841
:103EE000244080208DF825400B9008968DF82640C0
:103EF0008DF8304069460D48FCF738FD08B1FCF7F5
:103F0000E6FC0C480F9010A9062081E89100CDE94D
:103F100013540FA90548FDF769F9002801D0FCF7F3
:103F2000D6FC17B0F0BD00000001005028020020B0
:103F30000800900C020030040D4808B5816C41F077
:103F400004018164816C01F004010091816C41F0F5
:103F500001018164806C002200F001000090114694
:103F60000B20FEF71BF9BDE808400B20FEF708B94F
:103F70000010024030B587B014216846FCF758FAAB
:103F80002248C16C41F00401C164C16C01F004011C
:103F90000591C16C41F02001C164C16C01F02001A8
:103FA0000591C16C41F00101C164C16C01F00101D6
:103FB0000591C16C41F00201C164C06C144D00F068
:103FC00002000590002250212846FEF77BF84FF4AE
:103FD000305000900F480024CDE90104694628467E
:103FE000FDF784FF502000900120CDE901046946CF
:103FF00028460394FDF77AFF002211462820FEF799
:10400000CDF82820FEF7BCF807B030BD0010024004
:1040100000080048000011100B4810B50949016064
:10402000002141608160C160016101758161C162EF
:10403000FEF7E6F8002803D0BDE81040FCF747BCC7
:1040400010BD000000030140940200200B4810B591
:1040500009490160002141608160C1600161017511
:104060008161C162FEF7CCF8002803D0BDE81040A2
:10407000FCF72DBC10BD000004030140D00200205D
:104080000B4810B509490160002141608160C160A1
:10409000016101758161C162FEF7B2F8002803D0A9
:1040A000BDE81040FCF713BC10BD00000803014040
:1040B0000C03002030B59BB0002419941A94179477
:1040C0001894149415941C2168461694FCF7B0F9C2
:1040D000342107A8FCF7ACF93C483B49C0E900147F
:1040E0002021816041F63F71C1604FF48071016110
:1040F0000121C0E90514FEF718FF08B1FCF7E7FB42
:104100004FF48050179017A93048FEF7A3FF08B16D
:10411000FCF7DDFB2D48FFF7F3F908B1FCF7D7FBFF
:104120007025CDE9145414A928481694FEF7AEFE64
:1041300008B1FCF7CCFB6020CDE9000402940394A5
:10414000049405940022694620480694FFF749F933
:1041500008B1FCF7BCFB042269461C48FFF741F993
:1041600008B1FCF7B4FB082269461848FFF739F993
:1041700008B1FCF7ACFB41F63E70CDE900500C22D3
:1041800069461248FFF72DF908B1FCF7A0FB079428
:1041900078200894CDE909404FF40050CDE90B4058
:1041A0000D9400030E94CDE90F401194129407A9C9
:1041B00006481394FEF710FE08B1FCF788FB03488D
:1041C000FFF7C4F81BB030BD002C014048030020AD
:1041D000184810B5164901604FF461214160002173
:1041E00081600C22C160C0E904128161C161016279
:1041F00041628162FFF7EAFB08B1FCF768FB00212E
:104200000C48FFF778FA08B1FCF761FB0021094878
:10421000FFF74BFA08B1FCF75AFB0648FFF724FA00
:10422000002803D0BDE81040FCF751BB10BD0000D2
:104230000048004094030020FEE7FEE77047704707
:10424000FDF74CBF10B5A4B038216846FCF7F0F874
:1042500014211FA8FCF7ECF844210EA8FCF7E8F89D
:104260000020FEF7A7F80120009000040190022032
:104270000324CDE907042821CDE90A100C900D9004
:1042800009946846FEF78AFB08B172B6FEE70F2074
:10429000CDE91F0400242194229404211FA8239413
:1042A000FEF732FA08B172B6FEE748F204000E904B
:1042B000C0061D9011940EA8FEF7E2F8002801D068
:1042C00072B6FEE724B010BD0248016841F47001E7
:1042D0000160704788ED00E00148FEF738BF00003C
:1042E000480300200148FEF732BF000048030020C9
:1042F0000148FEF72CBF0000480300202DE9F043E1
:104300000268234B234D244E244C4FF080499842A1
:1043100007D0484505D0A84203D0B04201D0A04202
:1043200003D122F070074A683A431D4FDFF874C08A
:10433000DFF8748098420DD048450BD0A84209D0D0
:10434000B04207D0A04205D0B84203D0604501D0AA
:10435000404503D122F44075CA682A434D6922F0D2
:1043600080022A4302608A68C2620A6882629842B6
:1043700007D0A04205D0B84203D0604501D04045E7
:1043800001D10969016301214161BDE8F0830000A9
:10439000002C0140000400400008004000340140AF
:1043A00000400140004401400048014010B501F0C8
:1043B0001F030121046A99408C430462016A9A40F8
:1043C0001143016210BD10B5846842EA032224F44F
:1043D0007F440A432243826010BD00008268034B81
:1043E0001A400A4342F00701816070478FFFCFFFF8
:1043F0002DE9F043026A22F001020262056A436875
:1044000082691C4C25F0020522400C6822F0030250
:1044100014438A68194E2A43174D194FDFF864C0B8
:10442000DFF86490A84207D0B04205D0B84203D06C
:10443000604501D0484506D122F00808CA6842EA22
:10444000080222F00402A84207D0B04205D0B842C8
:1044500003D0604501D0484505D14D6923F4407330
:104460001D438B692B434360846149684163026249
:10447000BDE8F0838FFFFEFF002C014000340140B7
:10448000004001400044014000480140F0B5026A8C
:1044900022F010020262056A42688369194C1B4EC1
:1044A00023400C6823F4407343EA042425F02003DE
:1044B0008D6843EA0513144DA84201D0B04206D1DD
:1044C000CF6823F0800343EA071323F04003A84298
:1044D0000AD0B04208D00E4DA84205D00D4DA842DA
:1044E00002D00D4DA84207D14D6922F4406242EA44
:1044F00085028D6942EA8502426084614968816370
:104500000362F0BDFF8FFFFE002C0140003401402C
:10451000004001400044014000480140F0B5026AFB
:1045200022F480720262056A4368C269194C1B4E0C
:1045300022400C6822F00302144325F400728D68B7
:1045400042EA0522144DA84201D0B04206D1CF68FC
:1045500022F4006242EA072222F48062A8420AD0D2
:10456000B04208D00E4DA84205D00E4DA84202D050
:104570000D4DA84207D14D6923F4405343EA05137A
:104580008D6943EA05134360C4614968C1630262EF
:10459000F0BD00008FFFFEFF002C01400034014001
:1045A000004001400044014000480140F0B5026A6B
:1045B00022F480520262056A4268C369194C1B4E9C
:1045C00023400C6823F4407343EA042425F4005389
:1045D0008D6843EA0533144DA84201D0B04206D19C
:1045E000CF6823F4004343EA073323F48043A8420F
:1045F0000AD0B04208D00E4DA84205D00D4DA842B9
:1046000002D00D4DA84207D14D6922F4404242EA42
:1046100085128D6942EA85124260C461496801646D
:104620000362F0BDFF8FFFFE002C0140003401400B
:1046300000400140004401400048014030B5026A9A
:1046400022F480320262046A4268036D114D2B40ED
:104650000D681D4324F400330C8943EA04430E4CD7
:10466000A0420BD00D4CA04208D00D4CA04205D06A
:104670000C4CA04202D00C4CA04204D14C6922F454
:10468000803242EA0422426005654968816403621F
:1046900030BD00008FFFFEFF002C014000340140C0
:1046A00000400140004401400048014030B5026A2A
:1046B00022F480120262046A4268036D114D24F4F0
:1046C00000142B400D6843EA05230D8944EA055484
:1046D0000D4DA8420BD00D4DA84208D00C4DA8425C
:1046E00005D00C4DA84202D00B4DA84204D14D6913
:1046F00022F4802242EA8522426003654968C1644F
:10470000046230BDFF8FFFFE002C014000340140E9
:1047100000400140004401400048014010B5036AD8
:10472000046A24F001040462846924F0F00444EA79
:10473000021423F00A020A438461026210BD10B51C
:10474000036A23F0100303628369046A23F470434D
:1047500043EA023224F0A00343EA011182610162BC
:1047600010BD000030B5416EB9B102689168926821
:10477000C1F342610B4B520F9C5CE50003F108044E
:10478000A25CB5FBF2F2A0F86A205A5C615CD20030
:10479000B2FBF1F1A0F8681030BD0121A0F86A1059
:1047A000F8E70000B455000890F82810C90706D0B3
:1047B00001684A68C36A22F400321A434A6090F8DA
:1047C0002810890706D501684A68036B22F48032F5
:1047D0001A434A6090F82810490706D501684A68CC
:1047E000436B22F480221A434A6090F8281009078C
:1047F00006D501684A68836B22F400421A434A6076
:1048000090F82810C90606D501688A68C36B22F49F
:1048100080521A438A6090F82810890606D50168EC
:104820008A68036C22F400521A438A6090F82810B8
:10483000490611D501684A68436C22F480121A4374
:104840004A60416CB1F5801F06D101684A68836CEB
:1048500022F4C0021A434A6090F82810090606D5CF
:1048600001684A68C06C22F4002202434A60704723
:10487000F8B500260446C0F88C60FDF729FC054613
:10488000206800686FF07E47000708D52B4600229D
:104890004FF400112046009700F0F6FB60B9206845
:1048A000006840070AD52B4600224FF480012046BD
:1048B000009700F0E9FB08B10320F8BD2020C4F800
:1048C0008400C4F8880044F86C6F00202675F8BD99
:1048D00010B5806A0021A0F85E10A0F85610FEF70F
:1048E00032FF10BD70B5846AD4F88400D4F88850C3
:1048F000216889684FF00006090606D5212804D1F1
:10490000A4F85660204600F04FF820688068400602
:1049100006D5222D04D1A4F85E60204600F028F8C8
:10492000D4F88C0040F01000C4F88C002046FEF74C
:104930000AFF70BD10B50146806A096809688906DA
:104940000DD40021A0F8561001688A6822F0800278
:104950008A600068016841F04001016010BDFFF706
:10496000BBF910BD10B5806AFFF7B7F910BD0000A4
:1049700001680A6822F490720A6001688A68094B2B
:104980001A408A60C16E012904D101680A6822F0C8
:1049900010020A602021C0F888100021C16601675A
:1049A00070470000FEFFFFEF01680A6822F0C002B6
:1049B0000A6001688A6822F400028A602021C0F837
:1049C0008410704770B5B0F86010D0F888200446A5
:1049D0000068222A04D0816941F00801816170BD1C
:1049E000406AA26D08401080A06D801CA065B4F8DC
:1049F0005E00401EA4F85E00B4F85E000028EED110
:104A00002068016821F4907101602068816821F0BC
:104A1000010181602020C4F8880000252567E06E30
:104A2000012804D02046FFF781F8E56670BD2068B4
:104A3000016821F010010160B4F85C102046FEF717
:104A400032FEF2E72DE9F0470446B0F860600068F6
:104A5000C569D0F800A0D0F80880D4F888102229C1
:104A600005D0816941F008018161BDE8F087B4F8A3
:104A700068704FF000095BE02068406AA16D30402B
:104A80000880A06D801CA065B4F85E00401EA4F8EC
:104A90005E002068C569690730D0E9070AD05FEA7F
:104AA000CA5107D501210162D4F88C0040F0010001
:104AB000C4F88C00A8070BD55FEAC87008D021683D
:104AC00002200862D4F88C0040F00400C4F88C0086
:104AD00068070BD55FEAC87008D021680420086217
:104AE000D4F88C0040F00200C4F88C00D4F88C009C
:104AF00020B12046FEF727FEC4F88C90B4F85E0083
:104B0000B0B92068016821F4807101602068816873
:104B1000194A114081602020C4F88800C4F87090C0
:104B2000E06E01281CD02046FFF700F8C4F86C9016
:104B30000FB1A806A0D4B4F85E00002895D0B4F850
:104B40006810814291D92068816821F0805181608C
:104B50000A4820672068016841F02001016084E76D
:104B60002068016821F010010160B4F85C10204653
:104B7000FEF799FDDAE70000FEFFFFEFC5490008E8
:104B800070B5B0F86010D0F8882004460068222A7A
:104B900004D0816941F00801816170BD406A08401C
:104BA000A16D0870A06D401CA065B4F85E00401EA9
:104BB000A4F85E00B4F85E000028EED12068016819
:104BC00021F4907101602068816821F00101816009
:104BD0002020C4F8880000252567E06E012804D055
:104BE0002046FEF7A3FFE56670BD2068016821F04E
:104BF00010010160B4F85C102046FEF754FDF2E7A6
:104C00002DE9F0470446B0F860600068C569D0F847
:104C100000A0D0F80880D4F88810222905D0816936
:104C200041F008018161BDE8F087B4F868704FF089
:104C300000095BE02068406AA16D30400870A06DFB
:104C4000401CA065B4F85E00401EA4F85E00206819
:104C5000C569690730D0E9070AD05FEACA5107D5AC
:104C600001210162D4F88C0040F00100C4F88C00EE
:104C7000A8070BD55FEAC87008D021680220086237
:104C8000D4F88C0040F00400C4F88C0068070BD501
:104C90005FEAC87008D0216804200862D4F88C004C
:104CA00040F00200C4F88C00D4F88C0020B12046FB
:104CB000FEF749FDC4F88C90B4F85E00B0B92068E6
:104CC000016821F48071016020688168194A1140EF
:104CD00081602020C4F88800C4F87090E06E01283C
:104CE0001CD02046FEF722FFC4F86C900FB1A80636
:104CF000A0D4B4F85E00002895D0B4F868108142C2
:104D000091D92068816821F0805181600A4820672C
:104D10002068016841F02001016084E72068016893
:104D200021F010010160B4F85C102046FEF7BBFCD6
:104D3000DAE70000FEFFFFEF814B00082DE9F041AC
:104D40000446016880682269E369104362690025AE
:104D50001A431043DFF82CC20A688B4B1A400243F7
:104D60000A6020684168E26821F4405111434160C3
:104D70002168A069614501D0226A10438A68834B8B
:104D80001A4002438A602068C16A626A21F00F01FA
:104D90001143C1627E4923687E488B420DD1D0F811
:104DA000880010F0030006D0012855D0022842D018
:104DB00003283FD152E001203DE077498B420BD1DF
:104DC000D0F8880010F00C0035D0042833D0082823
:104DD00040D00C282ED141E070498B420BD1D0F845
:104DE000880010F0300026D0102835D0202831D08F
:104DF00030281FD132E06A498B420BD1D0F88800AD
:104E000010F0C00017D0402826D0802822D0C0281B
:104E100010D123E063450DD1D0F8880010F4406034
:104E200009D0B0F5806F17D0B0F5006F12D0B0F593
:104E3000406F13D010205B4A5B4F00264FF40041B7
:104E4000634539D160B102280DD004280DD008285F
:104E500031D10EE00220EEE70420ECE70820EAE77B
:104E6000FDF740FD03E0114603E0FDF75FFD0100A3
:104E70007DD0606A37F810206768B1FBF2F007EB6D
:104E8000470383426CD8B0EB073F69D8002308463C
:104E90001946FBF711FA090241EA1061020278088B
:104EA000101871413A460023FBF706FA3F4AA0F575
:104EB0004071914259D953E0E3694FF6EF788B4244
:104EC0002DD109284CD2DFE800F005080D4B274B07
:104ED0004B4B0E00FDF706FD01E0FDF715FD01004F
:104EE00001D144E01146606A37F81000B1FBF0F0E0
:104EF0004100606801EB5001B1FBF0F080B2A0F11D
:104F0000100141452CD84FF6F0710140C0F342002A
:104F100001432068C1602AE0FDF708FDDFE70928AA
:104F20001ED2DFE800F005080D1D1F1D1D1D0E001F
:104F3000FDF7D8FC01E0FDF7E7FC010001D116E028
:104F40001146606A37F81000B1FBF0F1606801EBC0
:104F50005001B1FBF0F080B2A0F11001414504D93D
:104F6000012504E0FDF7E2FCE7E72168C8600120C5
:104F7000A4F86A0024F8680F2846A660E660BDE839
:104F8000F081000000800040F369FFCFFFF4FF11C3
:104F9000003801400010024000440040004800403A
:104FA000004C00400024F4009C550008FFFC0F005A
:104FB00070B58165A0F85C20A0F85E200021016733
:104FC00083684FF48056FF24B34204D10369D3B9F8
:104FD00040F2FF131DE07F259BB1B3F1805F15D038
:104FE000A0F86010C0F88C102223C0F88830036845
:104FF0009C6844F001049C60436EB3F1005F0ED0E6
:1050000027E0036943B9A0F86040EBE703691BB1EF
:105010003F23A0F86030E5E7A0F86050E2E7B0F881
:105020006830934215D88268B24201D1026972B1E8
:10503000114A026780F8801001680A6842F48072A1
:105040000A600068816841F0805181600FE00B4A7E
:10505000EFE78268B24201D1026952B1084A0267A1
:1050600080F880100068016841F4907101600020B0
:1050700070BD044AF3E70000014C0008454A0008EF
:10508000814B0008C54900082DE9F0479A461746AC
:105090000E4604464FF000094FF02008089D39E005
:1050A000681C37D0FDF714F8A0EB0A00A84222D8FC
:1050B0000DB32068016849072CD5C069C0430005BD
:1050C00028D421684FF4006008622068016821F448
:1050D000D07101602068816821F001018160C4F80D
:1050E0008480C4F88880C4F88C8000BF84F88090E5
:1050F0000320BDE8F0872068016821F4D0710160C9
:105100002068816821F001018160C4F88480C4F8BE
:105110008880EBE72068C06936EA000004D00020F0
:10512000B842BDD00020E4E70120F9E70148FEF7CE
:105130000BBB000094030020FEE70907090E0028BE
:1051400004DB00F1E02080F80014704700F00F004D
:1051500000F1E02080F8141D7047000010EE100AE6
:10516000C0F3C7517F391729A8BF7047DFED140A74
:10517000002970EE200A0DDAF5EEC00AF1EE10FA01
:105180001ADD0028A8BF002016DAB0F1004F18BFC2
:105190000C4811E00C4ACA40104208BF7047F5EEB7
:1051A000C00AF1EE10FA07DD002804DA4FF400031C
:1051B00023FA01F10844904300EE100A7047000002
:1051C000CAF24971000080BFFFFF7F0010B52DEDCE
:1051D000028BF0EE408A18EE900AB0EE608A20F062
:1051E0000040C0F1FF40C00F07D118EE100A20F0B8
:1051F0000040C0F1FF40C00F2BD018EE101A18EE7F
:10520000900A00F051F900EE100A10EE100A6FEA51
:10521000D05010F0FF0F04BFBDEC028B10BD18EE94
:10522000900A00F0004110EE100A00F000408142A8
:1052300004BFBDEC028B10BD18EE101A10EE100A60
:10524000BDEC028B61F31E0000EE900A30EE600AA6
:1052500010BD18EE900A4FF07F41B1EB400F1CBF1C
:1052600018EE100A5FEA4000C7D10120FBF70FF9E2
:10527000BDEC028BBDE81040AFF30080DFED020A09
:1052800080EEA00A7047000000000000FCF72EFF2F
:10529000FEF7D8FFFEF76EFEFEF74EFEFEF798FF14
:1052A000FEF770FDFEF7E8FDFEF7B6FEFEF7CEFE58
:1052B000FEF7E6FEFEF7FEFE1548FDF765F8154819
:1052C000FDF762F81448FDF75FF80122134914480E
:1052D000FEF706FC7F211348FBF7FCFA7F211248FA
:1052E000FBF7F8FA114941F63F7008600F49401E7C
:1052F000143108600E48FDF777FE0C210C48FEF7CC
:1053000033F90848FBF770FE0748FBF7F9FDFEE7A5
:1053100094020020D00200200C0300200100002095
:1053200094030020BC010020280200202C2C014006
:105330004803002010B52DED068BF0EE608AB0EE2C
:10534000409AF5EEC08AB0EE498AF1EE10FA07D124
:10535000B5EEC09AF1EE10FA50D1B0EE688A4DE089
:105360009FED29AAB5EEC09AF1EE10FA02D18AEEAD
:10537000288A43E0F0EE680AB0EE490AFFF726FFFC
:10538000B0EE408AB5EEC08AF1EE10FA1FD0B0EE52
:10539000680AFFF7E3FEB4EEE80AF1EE10FA19D25C
:1053A00089EE280AF0EEC09AB6EE000A39EE800ABD
:1053B000FFF7D4FEDFED150A39EEC00A69EEA00A48
:1053C000B0EEC00AB4EEE00AF1EE10FA02D8B0EE88
:1053D0004A8A13E0B5EEC09AF1EE10FA01D201202C
:1053E00000E00020F5EEC08AF1EE10FA01D20121B2
:1053F00000E00021884201D038EE288AB0EE480A49
:10540000BDEC068B10BD0000000000000000003461
:105410000EF1020E2EF0030E5EF8044B244204D46B
:105420004FEA4102B2F17F4F11D84FEA4003B3F186
:105430007F4F0CD80ED14FEAD07CB2F17F4F0CEBEE
:105440004C0C0CF1020C08BF4CEBD17C04E04FF08B
:10545000080C01E04FEAD17C0CEB4C0324FA03F476
:1054600004F00704B4F1040C06D20EEB840CBDE882
:1054700010404CF0010C6047DFE80CF00708020216
:105480004FF00040A0F5800010BD0846420018BF54
:10549000D2F1807288BF00F0004010BD4FF0407024
:1054A000E1EE100A704700004FF07F4C3CEA4103E8
:1054B00018BF3CEA400200F062804FF47F0C10F00D
:1054C000004F0CEAD11318BF43F005031CEAD012B9
:1054D00018BF13EA0C0F00F057804FF0004C4CEA55
:1054E00000204CEA0121A3F580339A4210DDB0F18F
:1054F000004F23F0020306D3401A43F00203BCBF5F
:10550000404283F001034FEA4000A2F58032ECE70D
:105510004FEA224CBCEB234F08DB884206D31CD059
:10552000A0EB4100C0F1000083F0010340001DD258
:1055300017D40DD0B0FA80FC0CF1010C00FA0CF07D
:10554000A2EB0C42D2F1000C12DB4FEAC3707047A1
:105550004FEA437000F00040704713F0020FE5D0AF
:10556000DEE7B2F580324FEA4000EBDD002AE9DDEC
:105570004FEAC21242EA502040EAC370704710B5A9
:10558000FFF746FFEDFFFF3E1CEAD11F02D000F0FF
:1055900000407047004870470000C07F01000200D3
:1055A0000400060008000A000C0010002000400063
:1055B000800000010101010307010000080402044A
:1055C00008010101000000000000000001020304C6
:1055D00006070809000000000102030400000000A3
:1055E000920E493CB10AC93C2BC3163D2EFB483DE7
:1055F000752B7B3D04A9963D80B6AF3D36BDC83DB9
:105600002FBCE13D73B2FA3D87CF093E8340163E81
:10561000B5AB223EA2102F3ECF6E3B3EC2C5473EE9
:105620000115543E135C603E7F9A6C3ECCCF783EB1
:10563000C07D823E938E883E229A8E3E32A0943E5A
:1056400086A09A3EE59AA03E128FA63ED47CAC3E40
:10565000EF63B23E2A44B83E491DBE3E15EFC33E3D
:1056600053B9C93ECA7BCF3E4136D53E80E8DA3ECB
:105670004F92E03E7533E63EBBCBEB3EEA5AF13E3D
:10568000CBE0F63E275DFC3EE4E7003F3D9C033F58
:10569000824B063F9BF5083F6B9A0B3FDA390E3F72
:1056A000CDD3103F2A68133FD9F6153FC07F183F6E
:1056B000C6021B3FD17F1D3FCBF61F3F9967223F9C
:1056C00025D2243F5636273F1594293F4AEB2B3FDE
:1056D000DE3B2E3FBB85303FC9C8323FF304353F28
:1056E000233A373F4268393F3B8F3B3FF9AE3D3F5E
:1056F00067C73F3F70D8413F01E2433F03E4453F66
:1057000065DE473F12D1493FF8BB4B3F029F4D3FFB
:10571000207A4F3F3D4D513F4918533F31DB543FB5
:10572000E595563F5348583F6AF2593F1A945B3FFC
:10573000532D5D3F05BE5E3F2146603F97C5613FEB
:105740005A3C633F59AA643F880F663FD86B673F56
:105750003CBF683FA7096A3F0C4B6B3F5E836C3FC1
:1057600093B26D3F9ED86E3F73F56F3F0809713F4E
:105770005213723F4714733FDD0B743F0BFA743FB3
:10578000C6DE753F07BA763FC58B773FF853783F43
:105790009812793F9DC7793F02737A3FBE147B3FD1
:1057A000CDAC7B3F283B7C3FC9BF7C3FAC3A7D3FC3
:1057B000CCAB7D3F23137E3FB0707E3F6DC47E3FF8
:1057C000580E7F3F6D4E7F3FAB847F3F0FB17F3FD1
:1057D00097D37F3F43EC7F3F11FB7F3F0000803F2B
:1057E00011FB7F3F43EC7F3F97D37F3F0FB17F3F5C
:1057F000AB847F3F6D4E7F3F580E7F3F6DC47E3F31
:10580000B0707E3F23137E3FCCAB7D3FAC3A7D3FF3
:10581000C9BF7C3F283B7C3FCDAC7B3FBE147B3F68
:1058200002737A3F9DC7793F9812793FF853783FCA
:10583000C58B773F07BA763FC6DE753F0BFA743FDC
:10584000DD0B743F4714733F5213723F0809713FD9
:1058500073F56F3F9ED86E3F93B26D3F5E836C3F92
:105860000C4B6B3FA7096A3F3CBF683FD86B673F53
:10587000880F663F59AA643F5A3C633F97C5613F12
:105880002146603F05BE5E3F532D5D3F1A945B3F4E
:105890006AF2593F5348583FE595563F31DB543F34
:1058A0004918533F3D4D513F207A4F3F029F4D3F96
:1058B000F8BB4B3F12D1493F65DE473F03E4453F0C
:1058C00001E2433F70D8413F67C73F3FF9AE3D3FDC
:1058D0003B8F3B3F4268393F233A373FF304353F24
:1058E000C9C8323FBB85303FDE3B2E3F4AEB2B3FE2
:1058F0001594293F5636273F25D2243F9967223FEA
:10590000CBF61F3FD17F1D3FC6021B3FC07F183F14
:10591000D9F6153F2A68133FCDD3103FDA390E3F31
:105920006B9A0B3F9BF5083F824B063F3D9C033F24
:10593000E4E7003F275DFC3ECBE0F63EEA5AF13E4D
:10594000BBCBEB3E7533E63E4F92E03E80E8DA3E5D
:105950004136D53ECA7BCF3E53B9C93E15EFC33E53
:10596000491DBE3E2A44B83EEF63B23ED47CAC3EF5
:10597000128FA63EE59AA03E86A09A3E32A0943EA3
:10598000229A8E3E938E883EC07D823ECCCF783E5A
:105990007F9A6C3E135C603E0115543EC2C5473E83
:1059A000CF6E3B3EA2102F3EB5AB223E8340163E4B
:1059B00087CF093E73B2FA3D2FBCE13D36BDC83DED
:1059C00080B6AF3D04A9963D752B7B3D2EFB483D2F
:1059D0002BC3163DB10AC93C920E493C00000000A1
:1059E000920E49BCB10AC9BC2BC316BD2EFB48BDE3
:1059F000752B7BBD04A996BD80B6AFBD36BDC8BDB5
:105A00002FBCE1BD73B2FABD87CF09BE834016BE7D
:105A1000B5AB22BEA2102FBECF6E3BBEC2C547BEE5
:105A2000011554BE135C60BE7F9A6CBECCCF78BEAD
:105A3000C07D82BE938E88BE229A8EBE32A094BE56
:105A400086A09ABEE59AA0BE128FA6BED47CACBE3C
:105A5000EF63B2BE2A44B8BE491DBEBE15EFC3BE39
:105A600053B9C9BECA7BCFBE4136D5BE80E8DABEC7
:105A70004F92E0BE7533E6BEBBCBEBBEEA5AF1BE39
:105A8000CBE0F6BE275DFCBEE4E700BF3D9C03BF54
:105A9000824B06BF9BF508BF6B9A0BBFDA390EBF6E
:105AA000CDD310BF2A6813BFD9F615BFC07F18BF6A
:105AB000C6021BBFD17F1DBFCBF61FBF996722BF98
:105AC00025D224BF563627BF159429BF4AEB2BBFDA
:105AD000DE3B2EBFBB8530BFC9C832BFF30435BF24
