:020000040800F2
:10000000F80A00207902000843430008E53D000893
:10001000414300087D060008B94E000800000000BA
:10002000000000000000000000000000474300083E
:100030002F0700080000000045430008F9430008AE
:10004000930200089302000893020008930200083C
:10005000930200089302000893020008930200082C
:10006000930200089302000893020008810600082A
:10007000930200089302000893020008930200080C
:1000800093020008000000007D05000893020008AC
:1000900093020008930200089302000893020008EC
:1000A00091440008A9440008930200089D440008F8
:1000B00093020008930200089302000893020008CC
:1000C00093020008930200089302000893020008BC
:1000D000930200089302000893020008AD4E000846
:1000E00031070008930200089302000893020008F9
:1000F0009302000893020008930200080000000029
:1001000000000000930200080000000093020008B5
:100110009302000800000000930200089302000808
:10012000930200089302000893020008930200085B
:100130009302000800000000000000009302000885
:100140009302000893020008000000000000000075
:10015000000000000000000000000000000000009F
:1001600000000000000000000000000093020008F2
:1001700093020008000000000000000000000000E2
:1001800000000000930200080000000000000000D2
:10019000000000000000000000000000000000005F
:1001A0000000000000000000930200089302000815
:1001B0009302000893020008930200080000000068
:1001C0000000000093020008000000000000000092
:1001D000930200089302000800F002F800F03CF8D7
:1001E0000AA090E8000C82448344AAF10107DA4592
:1001F00001D100F031F8AFF2090EBAE80F0013F0A8
:10020000010F18BFFB1A43F001031847DC5C000024
:10021000FC5C0000103A24BF78C878C1FAD85207B5
:1002200024BF30C830C144BF04680C607047000070
:100230000023002400250026103A28BF78C1FBD8EF
:10024000520728BF30C148BF0B6070471FB505F08B
:100250009CFD1FBD10B510BD00F05AF91146FFF707
:10026000F5FF05F05FFB00F078F903B4FFF7F2FF4C
:1002700003BC00F07BF900000948804709480047AB
:10028000FEE7FEE7FEE7FEE7FEE7FEE7FEE7FEE746
:10029000FEE7FEE704480549054A064B70470000A3
:1002A00081440008D9010008F8040020F80A002061
:1002B000F8060020F806002053EA020C00F06980DE
:1002C0002DE9F04B4FF00006002B1FBFB3FA83F56A
:1002D00003FA05F424FA05F65E4012BF1643B2FA9B
:1002E00082F502FA05F4C5F120051EBF22FA05FCCD
:1002F00044EA0C04203556EA044C4FEA144418BF73
:10030000641C4FF000084FF00009904271EB030CA1
:1003100039D3002919BFB1FA81F701FA07F6B0FA0B
:1003200080F700FA07F6C7F120071EBF20FA07FC86
:1003300046EA0C062037B6FBF4FCA7EB0507103F96
:1003400007F01F0BCBF120060CFA0BFB2CFA06F67C
:1003500044BFB3460026202FA4BF5E464FF0000BDB
:100360005BEA060C08BF4FF0010B19EB0B09ABFB66
:10037000027C48EB0608C01B06FB02CC0BFB03CC3F
:1003800071EB0C01C1E70B46024641464846BDE809
:10039000F08B13B54FF000004FF00001AFF3008079
:1003A000BDE81C407047032A40F2308010F0030C77
:1003B00000F0158011F8013BBCF1020F624498BFB8
:1003C00011F801CB00F8013B38BF11F8013BA2F155
:1003D000040298BF00F801CB38BF00F8013B11F0D0
:1003E000030300F05A80083AC0F0088051F8043B3B
:1003F000083A51F804CBA0E80810F5E7121D5CBFDD
:1004000051F8043B40F8043BAFF30080D20724BF0F
:1004100011F8013B11F801CB48BF11F8012B24BFA3
:1004200000F8013B00F801CB48BF00F8012B7047F2
:100430004FF0000200B5134694469646203922BF7D
:10044000A0E80C50A0E80C50B1F12001BFF4F7AFC8
:10045000090728BFA0E80C5048BF0CC05DF804EBAA
:10046000890028BF40F8042B08BF704748BF20F818
:10047000022B11F0804F18BF00F8012B7047704716
:100480007047704710B500F03BF8006810BD10B51C
:10049000044600F035F8046010BD10B5203AC0F0F5
:1004A0000B80B1E81850203AA0E81850B1E8185075
:1004B000A0E81850BFF4F5AF5FEA027C24BFB1E8B2
:1004C0001850A0E8185044BF18C918C0BDE8104023
:1004D0005FEA827C24BF51F8043B40F8043B08BF2C
:1004E0007047D20728BF31F8023B48BF11F8012BF3
:1004F00028BF20F8023B48BF00F8012B70470000DE
:100500000048704798040020004870479804002075
:100510007546FFF7F9FFAE4605006946534620F0E1
:100520000700854618B020B5FFF7B4FEBDE82040AF
:100530004FF000064FF000074FF000084FF0000B9F
:1005400021F00701AC46ACE8C009ACE8C009ACE852
:10055000C009ACE8C0098D46704710B50446AFF33A
:1005600000802046BDE81040FFF77FBE01491820FB
:10057000ABBEFEE7260002007047000010B504483D
:1005800001F008F8BDE81040024801F003B800008F
:1005900084010020F001002070B5044600688168E5
:1005A0008268C1F3400112F0010F28D039BB816885
:1005B00001F00D01012914D18168124A1140891CF2
:1005C000816021680320086001F0D0FD054612E03B
:1005D00001F0CCFD401B02280DD920688068C007BF
:1005E00009D0E06D40F01000E065206E40F00100A1
:1005F0002066012070BD20688068C007E8D1002017
:1006000070BD0000C0FFFF7F70B5044600688168C0
:1006100011F0010F2DD18168174A11421AD181685A
:10062000D5432940491C816001F0A0FD06461BE02E
:10063000816811F0010F03D181682940491C816054
:1006400001F094FD801B02280ED920680068C04389
:10065000C00709D0E06D40F01000E065206E40F06A
:1006600001002066012070BD20680168C943C907E8
:10067000DED1002070BD00003F000080FEE70000DA
:10068000014801F016BB0000EC0300200D49026890
:100690008A4201D20C4901E00B492031D2B2142325
:1006A000083AB2FBF3F2436C02F01F0223F003039B
:1006B0001944816404498031C1640121914001657C
:1006C0007047000008040240000802400179074A10
:1006D00002EB81024265054A4432491E826501F0FF
:1006E0001F0201219140C16570470000FC080240D3
:1006F00030B5D0E913456560446D14B1D0E91645B5
:10070000656090F8444004F01F050124AC40056C7E
:100710006C60046863608368102B036803D0996081
:100720000068C26030BD9A600068C16030BD70472B
:1007300010B54FF4806001F023FC4FF4006001F02D
:100740001FFCBDE810404FF4005001F019BC72B618
:10075000FEE70000F8B500260446009690F8580021
:100760000D4601280BD0012084F858002046FFF7E1
:1007700013FF0100E06D04D040F010002AE00220D9
:10078000F8BD20F4885040F00200E06520688268DF
:10079000134B1A4005F080431A4342F00042826036
:1007A000104A20680EE0009B5B1C0093934209D323
:1007B000E06D20F0020040F01000E06584F8586021
:1007C0000120F8BD8368DB0FEDD1E06D20F0020061
:1007D00040F00100E06584F858600846F8BD00006C
:1007E000C0FFFF3F02DE0400704700002DE9F84F14
:1007F0004FF000080446CDF800800D4694F85820CC
:10080000DFF8EC93616947464046012A0AD0012689
:10081000F84A84F8586041B1296A012905D0A36ECD
:10082000EBB129E00220BDE8F88F6868092838D1CB
:10083000A96A4FF4785041B12B6801F07C0100EABD
:1008400053400843E96A084302E0296800EA51403E
:100850002168CB6C13400343CB64606621E0C4E99C
:100860001971A96A286A31B101F07C01401E084360
:10087000E96A084300E0401E29682B79C1F38461CE
:1008800003F01F0399400143A06E401EA066636EF3
:1008900043EA0103636604D12068C16C1140194327
:1008A000C164206803F0AFFA58B995F8250098B1F3
:1008B0002068C16895F8262021F4401141EA425190
:1008C000C160206803F0A7FA8246206803F09BFA13
:1008D0005AEA00000DD0FBE095F8260095F82410A8
:1008E000400540EA01512068C26822F440121143D9
:1008F000E6E7A86A30B1E86A20B195F8250001283A
:100900005ED003E095F82500012804D02068C16876
:1009100021F0007103E02068C16841F00071C160FE
:1009200095F83000012852D02068016921F00201B9
:100930000161AA6829682068B2F1004F38D003F03D
:1009400085FA2068416921F00041416120686969A8
:10095000C268C2F3C102520091402A69042A44D0FD
:1009600000EB82002B68026EDFF88CC203F0F843C4
:1009700002EA0C020B431A4342F000410166206870
:100980002A69A96900EB8200026E22F080720A4394
:100990000266297F22682869012923D05FF00001BF
:1009A00002EB8000026E22F000720A4302668FE0C2
:1009B000002203F04BFA2068416941F00041C4E78E
:1009C000E06D40F02000E0654FF00108A8E7D5E9B0
:1009D0000D1001432068026922F4FF7242F0020206
:1009E0001143A5E74FF00071DAE7002103F001FAA7
:1009F000400320684FF0000172D003F0FAF990FA3A
:100A0000A0F0B0FA80F1286842036ED090FAA0F00E
:100A1000B0FA80F0814204D100221146206803F030
:100A20002CFA0121206803F0E4F9400320684FF01C
:100A300001015DD003F0DDF990FAA0F0B0FA80F189
:100A40002868420359D090FAA0F0B0FA80F08142B1
:100A500004D100220121206803F00FFA022120684E
:100A600003F0C7F9400320684FF0020148D003F0BB
:100A7000C0F990FAA0F0B0FA80F12868420344D09F
:100A800090FAA0F0B0FA80F0814204D10022022155
:100A9000206803F0F2F90321206803F0AAF940036B
:100AA00020684FF0030133D003F0A3F990FAA0F0CF
:100AB000B0FA80F1286842032FD090FAA0F0B0FA83
:100AC00080F0814204D100220321206803F0D5F98F
:100AD0002068816811F0010F22D0B6E000E004E048
:100AE00003F087F9C0F384618DE7C0F3846091E778
:100AF00003F07FF9C0F38461A2E7C0F38460A6E746
:100B000003F077F9C0F38461B7E7C0F38460BBE713
:100B100003F06FF9C0F38461CCE7C0F38460D0E7E1
:100B20002A7B296850F8B03FC1F3120C23EA0C036A
:100B300002F0180C314A22FA0CF20A401343036007
:100B4000E96849457ED1286841031CD090FAA0F19C
:100B5000B1FA81F1491C01F01F0109294FEA403126
:100B600032D8002912D000BF90FAA0F1B1FA81F179
:100B700001F1010101F01F0106FA01F609D100BFE0
:100B8000C0F3846109E0C0F38461E3E7C0F38461EA
:100B9000EEE790FAA0F1B1FA81F101F1010101F063
:100BA0001F0146EA816102D1C0F3846003E090FA3C
:100BB000A0F0B0FA80F000F1010000F01F0000EB9F
:100BC000400041EA00513AE000290ED090FAA0F12D
:100BD000B1FA81F101F1010101F01F0106FA01F6FC
:100BE0000ED100BFC0F384610EE0C0F38461F1E771
:100BF00000007F400040100400F0FF03FFFF0700EB
:100C000090FAA0F1B1FA81F101F1010101F01F01A7
:100C100046EA816102D1C0F3846003E090FAA0F05B
:100C2000B0FA80F000F1010000F01F002B4A00EB49
:100C3000400002EB005041EA000141F00071AA6857
:100C4000206800E001E003F001F925482A6802422B
:100C500040D024488168244B01F0E0719A4202D0D0
:100C6000224B9A421BD10B0219D42268B2F1A04F39
:100C700030D1826841F4000122F0E0720A438260C0
:100C80001B481C490068B0FBF1F0801C00EB4000E1
:100C9000800000E0401E00900028FBD11AE0164DB5
:100CA000164BAA4207D1CD0105D422689A4211D031
:100CB00041F0807109E0124DAA420BD14A0209D4D9
:100CC00022689A4206D041F48001826822F0E072E4
:100CD0000A43826084F858704046A4E5000020FE74
:100CE0000000088000030050000021C31000C090E5
:100CF0003C000020400D0300000052C700010050DE
:100D0000000084CB2DE9F0414F4988427ED1504903
:100D10004E480D6801464678CC890B8A4A8A4A4972
:100D20000968E6B351F8806FB6B2C680496889B2E7
:100D30004181D5F88050ADB20581301B00EE100A1C
:100D4000F8EEC00A9FED430A434CE81A60EE800AB1
:100D5000C4ED000A00EE900A881AF8EEE00A60EE90
:100D6000800AC4ED010A00EE900AF8EEE00A20EED7
:100D7000800A84ED020A04F0C9FB3848384A90ED35
:100D8000000ABCEEC00A10EE101A116090ED010AC4
:100D9000121DBCEEC00A10EE101A116000E02BE02C
:100DA00090ED020A111DBCEEC00A10EE100A086098
:100DB0002C4894ED000A2C4980ED000A94ED010ABC
:100DC000142280ED010A94ED020A80ED020A91EDF1
:100DD000000A014680ED030A9FED240A80ED040A13
:100DE0001A481430FFF7DFFABDE8F041174918221E
:100DF00014311F4802F0A8BFC678761CF7B2C7703E
:100E000051F8806FC680D5F8805000E019E0058168
:100E1000496841813444A4B22B44C4819BB211443B
:100E200003828AB242820A2F0BD3012141700A2128
:100E3000B4FBF1F4B3FBF1F3B2FBF1F1C481038233
:100E40004182BDE8F0810000840100200000002004
:100E5000F00100206EFAB33C780400208C040020DE
:100E6000342C0140700100204400002000000000EC
:100E70005C030020704700002DE9F041044635482E
:100E8000806800F01F05206802F0BDFF08BB2168E4
:100E9000C868C96C00F0004011F4C07F00D190B167
:100EA00094F85800012814D0012084F858002046F6
:100EB000FFF7AAFB02004FF000030CD084F8583073
:100EC0001046BDE8F081E06D40F02000E0650120B3
:100ED000F7E70220F5E7E06DC00504D5206E20F0AD
:100EE0000800206600E02366E06D42F201018843BD
:100EF00040F48050E065184F21684FF0A046B94299
:100F000001D1304600E00846884200D01DB9E06DAE
:100F100020F48010E0656020086084F85830206874
:100F2000B84200D00646864209D045B1062D06D00B
:100F3000072D04D0E06D40F48010E065C0E7C16883
:100F400011F0007FBCD18168044B194041F00801C9
:100F50008160B5E70003005000010050C0FFFF7F33
:100F60002DE9F04104464548806800F01F052068DF
:100F700002F049FF08BB2168C868C96C00F0004056
:100F800011F4C07F00D190B194F85800012814D01A
:100F9000012084F858002046FFF736FB01004FF08F
:100FA00000020CD084F858200846BDE8F081E06DBE
:100FB00040F02000E0650120F7E70220F5E7E06D52
:100FC000C00504D5206E20F00800206600E02266EF
:100FD000E06D42F20103984340F48050E065284BF5
:100FE00020684FF0A046984201D1374600E00746FE
:100FF000874200D01DB9E76D27F48017E7656027A9
:10100000076084F858202068C268920203D54268BD
:1010100042F480624260A06908282068426807D0D4
:1010200022F0400242602068426842F0200206E05E
:1010300022F0200242602068426842F04002426092
:101040002068984201D1324600E00246824209D02F
:1010500045B1062D06D0072D04D0E06D40F4801078
:10106000E065A1E7C26812F0007F9DD18268054B60
:101070001A4042F00802826096E700000003005028
:1010800000010050C0FFFF7F704770472DE9F04717
:10109000044690F858009CB00E464FF00009012815
:1010A00015D0012084F85800002517951895206860
:1010B0004FF0A04840450ED1284F0097384602F027
:1010C000AAFE8246206802F0A6FE60B10EE0022071
:1010D0001CB0BDE8F087E06D40F02000E06584F8CA
:1010E00058500120F4E7BAF1000F09D0E06D40F04C
:1010F0002000E0654FF0010984F858504846E7E7C2
:101100001748326840F61F71002A826822F4604254
:1011100016D094F8383042EA433273681A4382603A
:10112000D8F80820BB6802F0010203F001031A435B
:10113000E2D1B36832681A4383688B431A430BE0E9
:101140008260D8F80820BB6802F0010203F00103B6
:101150001A43D1D182688A438260CDE700010050F2
:10116000000300502DE9F84F00270446009790F83F
:101170005800DFF8E0930D46B846012811D001264B
:1011800084F85860206802F042FE60B1E06D40F0E3
:101190002000E0655FF0010784F858803846BDE81C
:1011A000F88F0220FBE7D5E900210C23206803EA31
:1011B00091131844036B01F01F014FF01F0C0CFA40
:1011C00001FCC2F3846223EA0C038A4013430363E5
:1011D000206802F01CFE8246206802F010FE5AEAE7
:1011E00000003CD1AA6829682068B2F1004F37D0CE
:1011F00002F01DFE2068416921F000414161206834
:101200006969C268C2F3C102520091402A69042A86
:1012100031D000EB82002B68026EDFF83CC303F094
:10122000F84302EA0C020B431A4342F00041016604
:1012300020682A69A96900EB8200026E22F08072A0
:101240000A430266297F22682869012910D00021FB
:1012500002EB8000026E22F000720A4302667DE01B
:10126000002202F0E4FD2068416941F00041C5E739
:101270004FF00071ECE7002102F0B5FD400320685B
:101280004FF0000172D002F0AEFD90FAA0F0B0FA7B
:1012900080F1286842036ED090FAA0F0B0FA80F096
:1012A000814204D100221146206802F0DEFD0121B6
:1012B000206802F098FD400320684FF001015DD0E6
:1012C00002F091FD90FAA0F0B0FA80F12868420394
:1012D00059D090FAA0F0B0FA80F0814204D10022F7
:1012E0000121206802F0C1FD0221206802F07BFD8F
:1012F000400320684FF0020148D002F074FD90FADC
:10130000A0F0B0FA80F12868420344D090FAA0F02F
:10131000B0FA80F0814204D100220221206802F05C
:10132000A4FD0321206802F05EFD400320684FF019
:10133000030133D002F057FD90FAA0F0B0FA80F12B
:10134000286842032FD090FAA0F0B0FA80F08142D2
:1013500004D100220321206802F087FD2068816803
:1013600011F0010F22D0ACE000E004E002F03BFD00
:10137000C0F384618DE7C0F3846091E702F033FD30
:10138000C0F38461A2E7C0F38460A6E702F02BFDFE
:10139000C0F38461B7E7C0F38460BBE702F023FDCC
:1013A000C0F38461CCE7C0F38460D0E72A7B29686E
:1013B00050F8B03FC1F3120C23EA0C0302F0180CF2
:1013C000664A22FA0CF20A4013430360E968494571
:1013D00077D1286841031CD090FAA0F1B1FA81F1CD
:1013E000491C01F01F0109294FEA403132D8002978
:1013F00012D000BF90FAA0F1B1FA81F101F1010120
:1014000001F01F0106FA01F609D100BFC0F38461A3
:1014100009E0C0F38461E3E7C0F38461EEE790FA8A
:10142000A0F1B1FA81F101F1010101F01F0146EAD9
:10143000816102D1C0F3846003E090FAA0F0B0FAB9
:1014400080F000F1010000F01F0000EB400041EAD5
:10145000005132E000290ED090FAA0F1B1FA81F1EA
:1014600001F1010101F01F0106FA01F606D100BFEA
:10147000C0F3846106E0C0F38461F1E790FAA0F163
:10148000B1FA81F101F1010101F01F0146EA816128
:1014900002D1C0F3846003E090FAA0F0B0FA80F0CB
:1014A00000F1010000F01F002D4A00EB400002EBAC
:1014B000005041EA000141F00071AA68206802F082
:1014C000B6FC28482A6802423FF466AE2648816886
:1014D000264B01F0E0719A4202D0254B9A421CD172
:1014E0000B021AD42268B2F1A04F7FF455AE826885
:1014F00041F4000122F0E0720A4382601D481E4957
:101500000068B0FBF1F0401C00EB4000800000E000
:10151000401E00900028FBD13EE6184D184BAA4211
:1015200007D1CD0105D422689A42F5D041F08071EF
:1015300009E0144DAA42EFD14A02EDD422689A4242
:10154000EAD041F48001826822F0E0720A438260AE
:1015500022E6000000007F4000F0FF03FFFF0700CD
:10156000000020FE0000088000030050000021C39E
:101570001000C0903C000020400D0300000052C746
:1015800000010050000084CB704770470068006C79
:10159000704700002DE9F05F044600680668456862
:1015A000DFF854B2DBF8080000F01F07B0070ED5D3
:1015B000A8070CD5E06DC00603D4E06D40F40060D0
:1015C000E0652046FFF710F9216802200860DFF887
:1015D0002CA270074FF0A04801D5680703D430074C
:1015E00037D5280735D5E06DC00603D4E06D40F44B
:1015F0000070E065206802F012FC20B320685045BE
:1016000001D1424600E00246824208D03FB1052F98
:1016100005D0092F03D0504503D1414602E0C168EF
:1016200001E00146C96889040DD4016809070AD59B
:1016300002F0EDFB58B3E06D40F01000E065206E65
:1016400040F0010020662046FFF79EFF21680C2035
:101650000860B00601D5A80603D4700658D5680600
:1016600056D5E06DC00603D4E06D40F40050E0654F
:101670002068C16C11F4C07F1AD00021894602F0A5
:10168000CEFB02462068504514D1434613E0206843
:10169000416821F00C014160E06D20F48070E0654C
:1016A000E06DC004CFD4E06D40F00100E065CAE712
:1016B0000121E3E70346834208D03FB1062F05D05E
:1016C000072F03D0504503D1414602E0C16801E035
:1016D0000146C968B9F1000F14D08B0102D58AB157
:1016E0008A040FD4026852060CD589020AD402F08B
:1016F00086FBE8B3E06D40F01000E065206E40F03E
:10170000010020662046FFF7FDFA2168602008608E
:1017100030060BD5280609D5E06D40F48030E06531
:10172000204600F06BF9216880200860F0050CD598
:10173000E8050AD5E06D40F40030E0652046FFF78B
:10174000A3FC21684FF480700860B0050CD5A80593
:101750000AD5E06D40F48020E0652046FFF795FC57
:1017600021684FF400700860F0062ED5E80600E00E
:1017700008E02AD5E06BD0B1AFB1DBF8080000F487
:10178000604013E02068416821F060014160E06D35
:1017900020F48050E065E06DC005B3D4E06D40F00A
:1017A0000100E065AEE72068C068C00750B1E06D99
:1017B00040F48060E065206E40F002002066204624
:1017C000FFF7E3FE216810200860700512D5680558
:1017D00010D5E06D40F48040E065206E40F00800D8
:1017E000206621684FF4806008602046BDE8F05F05
:1017F000FFF740BBBDE8F09F000300500001005020
:10180000F8B54FF0000504002E46009502D0E06DBB
:1018100010B107E00120F8BD204600F0F1F826667F
:1018200084F8586020688168C1F3407119B18168FB
:101830006A4A1140816020688168C1F3007189B9EA
:101840008168674A114041F080518160654866496E
:101850000068B0FBF1F04000801C00E0401E0090EA
:101860000028FBD120688168C1F3007141B9E16DA6
:1018700041F01001E165216E41F001012166012571
:1018800002F0C5FAE16DC90600D430B1E06D40F058
:101890001000E06501252846F8BDE06D20F4807059
:1018A00040F00200E0652068806810F0010F11D15F
:1018B0004FF0A04080684D4900F00100896801F0B8
:1018C0000101084306D14A486168826822F47C120B
:1018D0000A438260E168E06B627F0843A16841EAE5
:1018E0004231084394F8241040EA0140012904D110
:1018F000218D404A02EB41410843E16A29B101F4DC
:101900007871226B014342EA01002168CA683A4BB0
:101910001A400243CA6020680169626B21F040618D
:1019200011430161206802F072FA0646206802F055
:1019300066FA30432ED1207F94F83810800340EAB5
:1019400041022068C16844F2020399431143C16017
:1019500020690028206801690AD041F480310161C2
:10196000206850F8C01F22696FF30D01114307E092
:1019700021F480310161206850F8C01F6FF30D0120
:10198000016094F8400001280CD02068016921F022
:1019900001010161606901282068016B21F00F01DC
:1019A00011D013E0D4E911010843D4E91312114313
:1019B000084321680A6940F2FC739A43104340F0DF
:1019C00001000861E6E7226A521E11430163E06DDF
:1019D00020F0020040F00100E0655CE7C0FFFF5F1F
:1019E000C0FFFF7F3C000020400D030000010050BD
:1019F000000300500000FEFF0740F0FF70470000AA
:101A0000F0B587B0044614216846FEF711FD2F4B50
:101A1000266800241A6803252D49521C4FF0904077
:101A2000B6F1A04F06D02B4FBE424CD11A60012A0E
:101A30002AD031E01A60012A07D1CA6C42F4005260
:101A4000CA64CA6C02F400520592CA6C42F00102E8
:101A5000CA64CA6C02F001020592CA6C42F002022A
:101A6000CA64C96C029401F0020105910421CDE918
:101A70000015694600F090FA41F20200CDE9000538
:101A800069460294144814E0CA6C42F40052CA64D5
:101A9000CA6C02F400520592CA6C42F00102CA6498
:101AA000C96C029401F0010105914121CDE90015B5
:101AB000694600F071FA00221146122000F0BCFBCA
:101AC000122000F0ABFB07B0F0BD00002C0000209E
:101AD0000010024000010050000400482DE9F041D0
:101AE00004463848806800F01F05206802F08FF92E
:101AF00018B102210846BDE8F08194F85800012889
:101B00000CD0012084F858002046FEF77DFD01002E
:101B10004FF0000304D084F85830EBE70220EAE7E6
:101B2000E06D40F60162904340F48070E065264A23
:101B300020684FF0A046904201D1374600E00746AA
:101B4000874200D01DB9E76D27F48017E765E76D80
:101B5000FF0404D5276E27F00607276600E02366FA
:101B60001C27076084F858302068904201D1334622
:101B700000E00346834215D0A5B1052D12D0092DF2
:101B800010D0E36D43F48013E365904200D13046FA
:101B9000C0688001AED5E06D20F4005040F4805064
:101BA000E065A7E7C268920105D5E26D22F4005214
:101BB00042F48052E2658268044B1A40121D826032
:101BC00098E700000003005000010050C0FFFF7FB5
:101BD00010B590F8253000210122022B03D00421FA
:101BE000C163012122E003681C6824F00E041C601C
:101BF000836C1C6824F480741C6003681C6824F0E7
:101C000001041C6090F84430046C03F01F0302FAD6
:101C100003F36360D0E913345C60436D33B11C6837
:101C200024F480741C60D0E916345C6080F82520B0
:101C3000002280F82420084610BD70B590F82520B9
:101C4000002401212346022A07D00422C26380F81F
:101C5000251080F82430012429E00268156825F059
:101C60000E0515600268156825F001051560826C87
:101C7000156825F48075156090F84420056C02F015
:101C80001F0201FA02F26A60D0E913255560426D25
:101C900032B1156825F480751560D0E916255560B8
:101CA00080F8251080F82430816B01B188472046E8
:101CB00070BDF0B4016C0C6801680D6890F84420A8
:101CC00002F01F06042202FA06F3234211D06B072A
:101CD0000FD50B689B0603D40B6823F004030B603D
:101CE00090F8441001F01F018A40016C4A60016BBA
:101CF0001DE0022303FA06F727424FF0000C4FF0D5
:101D0000010218D0AF0716D50C68A40605D40C68DC
:101D100024F00A040C6080F8252090F8441001F0AB
:101D20001F018B40016C4B6080F824C0C16A002900
:101D30001AD0F0BC08470823B340234214D02B0725
:101D400012D50B6823F00E030B6090F84410036C5F
:101D500001F01F0102FA01F15960C26380F82520E9
:101D600080F824C0416BE2E7F0BC704770B5040016
:101D70000CD02B4A21681420914209D2294A0A44E6
:101D8000B2FBF0F08000606427480AE0012070BDDB
:101D9000234A52420A44B2FBF0F0800060642048BB
:101DA00008382064022084F825000A6847F6F0709D
:101DB0008243D4E902031843D4E904352B43184382
:101DC000A3691843E3691843236A18431043086062
:101DD0002046FEF75BFCA0680025B0F5804F00D1DF
:101DE0006560A16C20790860D4E9130141606068E6
:101DF000401E032808D82046FEF768FC606D056089
:101E0000D4E91601416002E06565A565E565E56315
:101E1000012084F8250084F82450002070BD0000C3
:101E200008040240F8FFFDBF0000024070B5044600
:101E300090F82400002501280CD0012084F824000B
:101E400094F825600020012E06D084F82400022595
:101E5000284670BD022070BD022684F82560E0632C
:101E60002068066826F0010606602046FEF740FC62
:101E7000206B00282068016802D041F00E0106E0C6
:101E800021F0040101602068016841F00A0101604D
:101E9000A06C0168C90303D5016841F48071016039
:101EA000606D18B1016841F48071016020680168BB
:101EB00041F001010160CBE770B5044600F056F92E
:101EC0000546601C02D004484068044400F04EF906
:101ED000401BA042FAD370BD3000002010B5B0F511
:101EE000005F43D122498878C04310F0FF0088701A
:101EF00020491DD0B7EE000A81ED040A00211E48DA
:101F000001F010FC04211C4801F00CFC08211A48C7
:101F100001F008FC0021184801F054F8042116488B
:101F200001F050F8BDE810400821134801F04AB80C
:101F30009FED120A104881ED040A002101F070FCA7
:101F400004210D4801F06CFC08210B4801F068FCED
:101F50000021094801F092F80421074801F08EF8A9
:101F6000BDE810400821044801F088B810BD000009
:101F70000000002078040020100300200000000072
:101F8000044910B50A68024202D00860FFF7A6FFB4
:101F900010BD0000140401402DE9FC4FDFF8A0A1A2
:101FA000002301250AF1040B03244FF00F0C0BF161
:101FB000040EBDE005FA03F632406FD04F68012FE2
:101FC00005D0022F03D0112F01D0122F17D1D0F836
:101FD00008905F0004FA07F829EA08090097D1F889
:101FE0000C8008FA07F848EA0908C0F80880476832
:101FF000B7430E79C6F300169E403E434660C6685E
:102000004FEA430804FA08F7BE4301978F6807FABE
:1020100008F73743C7604E68022E01D0122E13D145
:10202000DE0800EB86060096366A5F07FF0E0CFAA4
:1020300007F926EA0906D1F8109009FA07F949EAE2
:102040000609009EC6F820900668019FBE430F79DE
:1020500007F0030707FA08F7374307604E68F600F2
:1020600065D5384E376E47F001073766366E23F078
:10207000030706F001060096334E3E44B146B668AB
:102080009F074FEA17780CFA08F7BE43B0F1904F5C
:1020900005D02E4FB84204D1012717E047E00027B2
:1020A00014E02B4FB84201D102270FE0294FB8426C
:1020B00001D103270AE0284FB84201D1042705E0E7
:1020C000264FB84201D1052700E0062707FA08F796
:1020D0003743C9F80870DAF800605746D1F8048031
:1020E00096435FEAC83800D516433E60DBF80060CF
:1020F0005F46D1F8048096435FEA883800D51643DE
:102100003E60DEF800607746D1F8048096435FEACF
:10211000C82800D516433E60094F0C373E68D1F8F9
:10212000048096435FEA882800D516433E605B1C16
:102130000A6832FA03F67FF43DAFBDE8FC8F000079
:10214000000401400010024000000140000400486B
:1021500000080048000C0048001000480014004827
:102160000AB1816170478162704700000148806850
:102170007047000030000020024881684268114426
:10218000816070473000002010B50024032000F06B
:1021900073F80F2000F008F808B1012401E000F006
:1021A00025F8204610BD000070B50E4E05460024EF
:1021B000706898B14FF47A71B1FBF0F00A49096880
:1021C000B1FBF0F000F03EFE40B9102D06D2002227
:1021D0002946501E00F030F8356000E0012420460A
:1021E00070BD0000300000203C0000200A4882B092
:1021F000016E41F001010166016E01F001010091E3
:10220000816D41F080518165806D00F080500090BB
:1022100002B000F07BB9000000100240002809DB8A
:1022200000F01F02012191404009800000F1E020F0
:10223000C0F8001170470000F0B40E4B1B680C464C
:10224000C3F30223C3F10705042D00D90425191D8A
:10225000072901D2002300E0DB1E012606FA05F162
:10226000491E214099409E40761E16403143F0BCE5
:1022700002F036BE0CED00E0064900F007020868E7
:102280004FF6FF03184040EA0220034A104308605B
:10229000704700000CED00E00000FA05F8B50400FE
:1022A0004FF0000514D094F83A00052810D094F8A7
:1022B0003A0002280CD03448016E41F00101016659
:1022C000006E00F00100009094F83A0010B104E0B4
:1022D0000120F8BD002084F83900204600F058F8AD
:1022E000A0682A4A4FF48071402836D0602834D044
:1022F00020680368E66A23F0100333430360D4E9DF
:1023000001031843D4E9033633431843237D012BDB
:1023100000D000210843616A0843A16A0843218E66
:1023200040EAC14094F8341040EA01612068036833
:1023300013401943016020688169002909DBD4E951
:1023400006121143226A836923F03F031A431143A3
:10235000816194F83A0090B114E020680368E66A5D
:1023600023F0100333430360D4E901031843267DAF
:102370002369012E00D000210B431843CBE7012035
:1023800084F83A002846F8BD00100240113E00E0F3
:1023900030B587B0044614216846FEF749F8246832
:1023A0001D4D00221D4903234FF09040AC4209D13E
:1023B000CC6C44F00104CC64C96C01F001010591BE
:1023C0000E210CE0144D2D1DAC4211D1CC6C44F00B
:1023D0000104CC64C96C01F001010591E021CDE953
:1023E000001302924FEA0D01FFF7D6FD07B030BD92
:1023F000094808308442F9D1C86C40F00200C86432
:10240000C86C694600F0020005900720CDE9000382
:1024100002920348E8E70000000301400010024078
:1024200000040048002138B190F83A20052A03D072
:1024300090F83A20012A02D001210846704702682C
:10244000136843F001031360042280F83A20F4E794
:102450002B492C4B0A6832214A432B4940B1B0F535
:10246000007F086829D020F4C06040F480602CE030
:102470000868C0F34120022804D051F8800F20F4EE
:10248000807022E0D1F8800020F48070C1F88000D4
:10249000086820F4C06040F400700860B2FBF3F0FC
:1024A000401C00E0401E4A69520501D50028F9D1C0
:1024B000486940050AD503207047C0F3412002282F
:1024C00006D051F8800F40F48070086000207047FB
:1024D000D1F8800040F48070C1F88000086820F4D2
:1024E000C06040F400700860B2FBF3F0401C00E0F4
:1024F000401E4A695205DBD50028F9D1D8E7000013
:102500003C00002040420F000070004002488168FB
:1025100041F4804181607047007000402DE9F8432C
:102520000446006800269D4D00035ED5A86D002777
:10253000C00008D4A86D40F08050A865A86D0127A0
:1025400000F080500090DFF85892D9F8001041F464
:102550008071C9F80010FFF709FE804606E000BF51
:10256000FFF704FEA0EB080002282BD8D9F80000E2
:10257000C005F5D5D5F8900010F4407014D0216C4A
:10258000814211D0D5F89000D5F8901020F4407019
:1025900041F48031C5F89010D5F8901021F48031C5
:1025A000C5F89010C5F89000C00711D0FFF7DEFD08
:1025B000804641F2883907E0FFF7D8FDA0EB08011B
:1025C000494501D903260BE0D5F890008007F3D5E3
:1025D000D5F89000216C20F440700843C5F89000B5
:1025E0001FB1A86D20F08050A8652078C00707D0E3
:1025F000D5F88800616820F003000843C5F888001A
:102600002078800707D5D5F88800A16820F00C0055
:102610000843C5F888002078400707D5D5F888001A
:10262000E16820F030000843C5F8880020780007F2
:1026300007D5D5F88800216920F0C0000843C5F807
:1026400088002078800607D5D5F88800616920F4D5
:1026500040600843C5F888002078400607D5D5F8C3
:102660008800A16920F440500843C5F8880020780C
:10267000000607D5D5F88800E16920F440400843FA
:10268000C5F888002088C00507D5D5F88800216ADC
:1026900020F440300843C5F888002088800507D51D
:1026A000D5F88800616A20F440200843C5F8880006
:1026B000208840050FD5D5F88800A16A20F4401085
:1026C0000843C5F88800A06AB0F5801F03D1E86808
:1026D00040F48010E860208800050FD5D5F8880008
:1026E000E16A20F440000843C5F88800E06AB0F5CC
:1026F000800F03D1E86840F48010E8602088C004AF
:102700000FD5D5F88800216B20F040700843C5F83C
:102710008800206BB0F1807F03D1E86840F480101E
:10272000E86020884FF0006180040ED5D5F888005D
:10273000626B20F040601043C5F88800606B8842EF
:1027400003D1E86840F48010E860208840040ED58A
:10275000D5F88800A26B20F040601043C5F88800CF
:10276000A06B884203D1E86840F48010E8602088BC
:1027700000040FD5D5F88800E16B20F040500843E5
:10278000C5F88800E06BB0F1805F03D1E86840F4E1
:102790008030E8603046BDE8F88300000010024059
:1027A000007000402DE9F0470E4605004FF000078D
:1027B00025D0DFF8AC81D8F8000000F00F00B0425F
:1027C0000CD2D8F8001021F00F013143C8F80010E6
:1027D000D8F8000000F00F00B04210D12968614C19
:1027E000C80741F2883A5AD06868DFF87C9103281C
:1027F00008D0022820682DD0400500282CDB0120BD
:10280000BDE8F08720688001F9D5E06800F0030298
:10281000E068C0F30310401C032A19D0534A00BFDC
:10282000B2FBF0F0E268C2F306225043E268C2F362
:102830004162521C5200B0FBF2F0484517D9A06823
:1028400010F0F00F0CD0880711D5A86840B10EE049
:10285000474AE5E78003D0E700F0B6F8484506D9D7
:10286000A06820F0F00040F08000A0608027A06801
:10287000696820F003000843A060FFF777FC8146F9
:1028800006E000BFFFF772FCA0EB090151453AD802
:10289000A068696800F00C00B0EB810FF2D12868E5
:1028A000810714D5400703D5A06840F4E060A0601C
:1028B0002878000705D5A06820F4605040F4E06057
:1028C000A060A068A96820F0F000084304E0802F11
:1028D00003D1A06820F0F000A060D8F800104046B6
:1028E00001F00F01B14216D9016821F00F01314307
:1028F0000160FFF73BFC074607E000BFFFF736FC2F
:10290000C11B514501D903207AE7D8F8000000F037
:102910000F00B042F2D12878400705D5A068E968D9
:1029200020F4E0600843A0602878000706D5A0687E
:10293000296920F4605040EAC100A06000F044F82A
:10294000A1680C4AC1F30311515C01F01F01C8409A
:102950000949086009480068BDE8F047FFF724BC52
:10296000002002400010024000B4C4040024F4001F
:1029700000366E01B05E00083C00002030000020F0
:102980000548064900688968054AC1F30221515C7F
:1029900001F01F01C84070473C00002000100240B9
:1029A000C05E00080548064900688968054AC1F309
:1029B000C221515C01F01F01C84070473C0000205B
:1029C00000100240C05E0008184910B58868C0F3C6
:1029D00081021748012A0BD08A68164BC2F3810284
:1029E000022A06D08A68C2F38102032A03D000209B
:1029F00010BD184610BDCA6802F00304CA68C2F3CD
:102A00000312521C032C02D0B0FBF2F001E0B3FB26
:102A1000F2F0CA68C968C2F306225043C1F34161AB
:102A2000491C4900B0FBF1F010BD0000001002404D
:102A30000024F40000366E012DE9F84304007AD03A
:102A40002078FA4DC00747D0A868E96800F00C006C
:102A500001F003010C2802D0082817D001E0032957
:102A600014D06068B0F5803F17D0B0F5A02F28686B
:102A700017D020F480302860286820F48020286057
:102A80006068E0B1FFF772FB064614E02868800337
:102A900022D560680028D2D01EE0286840F480303B
:102AA000EDE740F480202860F7E700BFFFF75EFB0A
:102AB000801B642870D828688003F7D50CE0FFF7E6
:102AC00055FB064605E000BFFFF750FB801B64285E
:102AD000F0D828688003F7D4207880074CD5A86800
:102AE000E96800F00C0001F003010C2802D0042872
:102AF0000DD001E002290AD0E068002828682BD018
:102B000040F480702860FFF731FB064619E0286822
:102B1000400502D5E068002891D06868217C20F04B
:102B2000FE4040EA01606860C1480068FFF73CFB76
:102B3000002800D120E076E1FFF718FB801B022877
:102B4000B8D828684005F7D56868217C20F0FE4099
:102B500040EA016068600FE020F480702860FFF7B1
:102B600005FB064605E000BFFFF700FB801B0228BF
:102B7000A0D828684005F7D42078000729D56069D7
:102B80000028D5F8940013D040F00100C5F8940057
:102B9000FFF7ECFA064606E090E000BFFFF7E6FA22
:102BA000801B022886D8D5F894008007F6D510E05F
:102BB00020F00100C5F89400FFF7D8FA064604E0BB
:102BC000FFF7D4FA801B022878D8D5F89400800744
:102BD000F6D42078400761D5A86D0026C00008D43F
:102BE000A86D40F08050A865A86D012600F08050C7
:102BF000009090480168C90511D40168804641F4ED
:102C000080710160FFF7B2FA074604E0FFF7AEFA01
:102C1000C01B022852D8D8F80000C005F6D5A0681D
:102C2000012815D00528D5F8900016D020F0010015
:102C3000C5F89000D5F8900020F00400C5F8900089
:102C4000A06841F28838B8B1FFF790FA07460EE065
:102C5000D5F8900040F00100F0E740F00400C5F81E
:102C60009000F5E7FFF782FAC11B414526D8D5F859
:102C700090008007F6D50CE0FFF778FA074604E0ED
:102C8000FFF774FAC11B414518D8D5F890008007AA
:102C9000F6D41EB1A86D20F08050A865207880067B
:102CA00029D5A0690028D5F8980013D040F001007C
:102CB000C5F89800FFF75AFA064606E077E000BF2D
:102CC000FFF754FA801B022877D8D5F898008007C0
:102CD000F6D510E020F00100C5F89800FFF746FA9D
:102CE000064604E0FFF742FA801B022865D8D5F8B3
:102CF00098008007F6D4E069F0B3A968C1F38101B8
:102D0000032961D00228286820F0807028600BD049
:102D1000E86820F00300E860E86847490840E86098
:102D2000FFF724FA04464BE0FFF720FA064604E0DA
:102D3000FFF71CFA801B02283FD828688001F7D4CF
:102D4000F4E908016FF00F0202EB01110843218A38
:102D50005204490802EB4151A26841EA02210843AA
:102D6000217D4FF07E42490802EB41610843217BFF
:102D700040EAC160E96800E062E0304A114008437F
:102D8000E860286840F080702860E86840F0807053
:102D9000E860FFF7EBF9044605E000BFFFF7E6F94E
:102DA000001B022809D828688001F7D548E004E014
:102DB000FFF7DCF9001B022802D90320BDE8F883E5
:102DC00028688001F4D43BE00128F7D0E868226A43
:102DD00000F00301914226D1616A00F0F00209017E
:102DE000103991421FD1A26A00F4FE41B1EB022FCB
:102DF00019D194F82C2000F07841B1EBC26F12D1B8
:102E0000218E00F4C00249084905A1F50011914244
:102E100009D194F8341000F0C06049084906A1F1C6
:102E2000007181420CD00120C8E700000010024070
:102E30003000002000700040FFFFEEFE0C809F017C
:102E40000020BBE710B5401EB0F1807F01D3012008
:102E500010BD4FF0E02460610F21601702F040F8D0
:102E60000020A06107202061002010BD704770473E
:102E700070470000F0B590F83C20012A4AD00122AA
:102E800080F83C20CA688B6822F440721A434B6871
:102E900022F480621A430B6822F400621A430B6921
:102EA00022F480521A434B6922F400521A430B6BEE
:102EB00022F480421A430B8B22F4702242EA03422E
:102EC000154C03680026154DA34201D0AB4203D137
:102ED000CF6922F080523A43A34201D0AB4214D1D1
:102EE0000F8D22F4700242EA07520F6A22F08072BC
:102EF0003A434F6A22F000723A43A34201D0AB42F8
:102F000003D1C96A22F000520A435A6480F83C6037
:102F10000020F0BD0220F0BD002C01400034014033
:102F20007047704770470000F0B590F83C20012AC8
:102F30003AD0012580F83C50022280F83D200368F9
:102F40005A689C68194E1A4FB34201D0BB4204D153
:102F500022F4700C4A6842EA0C02DFF858C002EA18
:102F60000C02D1F800C04CEA020CC3F804C002689D
:102F7000B2420DD0B2F1804F0AD00F4B9A4207D027
:102F80000E4B9A4204D0BA4202D00D4B9A4204D161
:102F9000896824F080031943916080F83D50002136
:102FA00080F83C100846F0BD0220F0BD002C014026
:102FB000003401408FFFFFFD000400400008004086
:102FC0000040014010B50446022249B104290ED048
:102FD000082913D094F84700012816D0012010BD0D
:102FE00094F844000128F9D184F844200FE094F8C3
:102FF00045000128F2D184F8452008E094F8460005
:103000000128EBD184F8462001E084F8472004220F
:10301000206801F0B4FA2068416C41F40041416439
:103020001049206888420ED0B0F1804F0BD00E4975
:10303000884208D00D49884205D00D49884202D007
:103040000C49884207D181680B4A1140062906D0F5
:10305000B1F5803F03D0016841F00101016000201B
:1030600010BD0000002C014000040040000800409A
:1030700000340140004001400700010070B50446E3
:103080000D460068002201F07AFA2068036A41F2D6
:1030900011110B4244F2444206D1036A134203D198
:1030A000436C23F4004343642068036A0B4206D157
:1030B000016A114203D1016821F001010160012080
:1030C0003DB1042D08D0082D09D084F84700002018
:1030D00070BD84F84400FAE784F84500F7E784F807
:1030E0004600F4E7704710B5040003D094F83D00A3
:1030F00010B107E0012010BD002084F83C002046FC
:1031000000F022F8022084F83D00211D206801F023
:10311000D1F9012084F8480084F83E0084F83F008B
:1031200084F8400084F8410084F8420084F84300A9
:1031300084F8440084F8450084F8460084F8470089
:1031400084F83D00002010BD08B50068134988428E
:1031500022D11348016E41F400610166006E002225
:1031600000F40060009011461820FFF765F8182061
:10317000FFF754F8002211461920FFF75DF81920D7
:10318000FFF74CF8002211461B20FFF755F8BDE869
:1031900008401B20FFF742B808BD0000002C01408A
:1031A0000010024090F83D10012901D00120704725
:1031B000022180F83D1000680F4988420ED0B0F11E
:1031C000804F0BD00D49884208D00D49884205D068
:1031D0000C49884202D00C49884207D181680B4AC9
:1031E0001140062906D0B1F5803F03D0016841F0B7
:1031F0000101016000207047002C014000040040E4
:103200000008004000340140004001400700010078
:1032100070B5044690F83C00012814D0012584F8CC
:103220003C50022084F83D0022689068344B1840DE
:1032300020F47F4090600868702827D010DC10F0E0
:103240000F0F03D04AE04FF0020070BD4FEA20128A
:10325000072A43D2DFE802F050505050483139007D
:10326000284BC21A984247D009DCB0F5805F35D0B0
:10327000B0F5005F15D0B0F1101F2FD13CE0102A3F
:103280003AD0202A38D0502A28D135E0CB68D1E96D
:103290000121206801F080F92068816841F0770100
:1032A00009E0CB68D1E90121206801F075F92068B7
:1032B000816841F48041816010E0CA6849682068F3
:1032C00001F014FB5021206806E0CA6849682068B4
:1032D00001F01DFB6021206801F068F984F83D5081
:1032E000002084F83C0070BDCA684968206801F07D
:1032F000FDFA40212068EFE7226801461046EBE71F
:1033000088FFCEFF20001000704770B504460068AB
:1033100001694FF00005C943890715D4C168C94345
:10332000890711D4E91E0161012020772068806996
:103330008007204602D0FFF7E7FF04E000F02EF9F7
:10334000204600F0EDF9257720680169C943490757
:1033500017D4C168C943490713D46FF00401016150
:10336000022020772068806910F4407F204602D038
:10337000FFF7CAFF04E000F011F9204600F0D0F991
:10338000257720680169C943090716D4C168C94374
:10339000090712D46FF0080101610420207720682A
:1033A000C0698007204602D0FFF7AEFF04E000F0BE
:1033B000F5F8204600F0B4F9257720680169C94383
:1033C000C90617D4C168C943C90613D46FF01001E8
:1033D0000161082020772068C06910F4407F2046F2
:1033E00002D0FFF791FF04E000F0D8F8204600F08B
:1033F00097F9257720680169C943C90708D1C168D1
:10340000C943C90704D1891E0161204600F05EFA54
:1034100020680169C943090609D4C168C94309067E
:1034200005D46FF0800101612046FFF720FD206880
:103430000169C943C90509D4C168C943090605D44E
:103440006FF4807101612046FFF710FD206801696B
:10345000C943490609D4C168C943490605D46FF078
:1034600040010161204600F032FA20680169C94339
:10347000890609D4C168C943890605D46FF02001C3
:1034800001612046FFF7F4FC20680169C943C902C5
:1034900009D4C168C943C90205D46FF48011016120
:1034A0002046FFF73EFD20680169C943890209D41F
:1034B000C168C943890205D46FF400110161204637
:1034C000FFF72EFD20680169C943490209D4C1688C
:1034D000C943490205D46FF4800101612046FFF71A
:1034E00021FD20680169C94309020BD4C168C943A1
:1034F000090207D46FF4000101612046BDE8704065
:10350000FFF7F0BD70BD0000F0B587B00446142190
:103510006846FCF78DFF1E492068884236D11D4859
:10352000C16C41F00201C164C16C01F0020105915E
:10353000C16C41F00101C164C06C022500F00100C2
:1035400005904FF4C04000900024CDE901540626B8
:10355000114FCDE9034669463846FEF71DFDA80325
:103560000090CDE901540420CDE903406946384676
:10357000FEF712FD4FF4E0600090CDE90154CDE973
:10358000034669464FF09040FEF706FD07B0F0BDD8
:10359000002C01400010024000040048704770B544
:1035A000044690F83C000D4601280BD0012084F819
:1035B0003C000C2A45D007DC5AB1042A1BD0082A4B
:1035C00078D12CE0022070BD102A4ED0142A71D17F
:1035D0005DE0206800F0F4FF2068816941F0080197
:1035E00081612068816921F004018161206881691D
:1035F0002A69114311E0206801F030F820688169E0
:1036000041F4006181612068816921F480618161F8
:10361000206881692A6941EA022181614AE02068C3
:1036200001F064F82068C16941F00801C1612068B7
:10363000C16921F00401C1612068C1692A6911438F
:1036400011E0206801F09AF82068C16941F4006136
:10365000C1612068C16921F48061C1612068C169CC
:103660002A6941EA0221C16124E0206801F0CEF814
:103670002068016D41F0080101652068016D21F0AD
:10368000040101652068016D2A69114311E0206879
:1036900001F0F4F82068016D41F4006101652068D3
:1036A000016D21F4806101652068016D2A6941EA9C
:1036B00002210165002084F83C0070BD10B50400B3
:1036C00003D094F83D0010B107E0012010BD0020A8
:1036D00084F83C00204600F022F8022084F83D00E7
:1036E000211D206800F0E6FE012084F8480084F8DF
:1036F0003E0084F83F0084F8400084F8410084F8DC
:10370000420084F8430084F8440084F8450084F8BB
:10371000460084F8470084F83D00002010BD704743
:103720007047000030B50446022269B1042912D066
:10373000082917D00C291CD0102921D094F8430057
:10374000012824D0012030BD94F83E000128F9D191
:1037500084F83E201DE094F83F000128F2D184F85F
:103760003F2016E094F840000128EBD184F8402077
:103770000FE094F841000128E4D184F8412008E0EA
:1037800094F842000128DDD184F8422001E084F859
:1037900043200122206800F0E5FE194B20681949FA
:1037A000194A984209D0884207D0904205D0174D57
:1037B000A84202D0164DA84203D1456C45F40045FD
:1037C0004564206898420CD0B0F1804F09D0114B6D
:1037D000984206D0104B984203D0884201D09042C4
:1037E00007D181680D4A1140062906D0B1F5803F06
:1037F00003D0016841F001010160002030BD0000EC
:10380000002C0140003401400040014000440140D0
:10381000004801400004004000080040070001008B
:1038200030B504460D460068002200F09BFE224B96
:1038300041F2111120688A0098420BD01F4B984228
:1038400008D01F4B984205D01E4B984202D01E4B09
:10385000984209D1036A0B4206D1036A134203D18D
:10386000436C23F4004343642068036A0B4206D18F
:10387000016A114203D1016821F0010101600120B8
:103880005DB1042D0CD0082D0DD00C2D0ED0102DB7
:103890000FD084F84300002030BD84F83E00FAE7E2
:1038A00084F83F00F7E784F84000F4E784F841002B
:1038B000F1E784F84200EEE7002C014000340140BB
:1038C00000400140004401400048014070477047FB
:1038D00090F88010012918D0012180F8801024214F
:1038E000C0F8841050F8641B0A680B6823F00103C9
:1038F0000B6022F000510022026050F8643C196015
:1039000020210162027710467047022070477047FD
:10391000704770B5044690F8800001281DD0012042
:1039200084F880002420C4F88400206805680268B8
:1039300022F0010202602068826822F060620A437D
:103940008260204600F0F6FF206805602020C4F861
:103950008400002084F8800070BD022070BD70B526
:10396000044690F8800001281DD0012084F88000D2
:103970002420C4F8840020680568026822F001024F
:1039800002602068826822F060420A43826020461A
:1039900000F0D0FF206805602020C4F884000020DB
:1039A00084F8800070BD022070BD7047704770477A
:1039B0002DE9F04103680446D86919689A6840F611
:1039C0000F0528424FF0000509D186067ED501F08B
:1039D000200602F080573E4378D0216FFFE0924EE0
:1039E000924F16400F40374370D0C70709D0CF051C
:1039F00007D501271F62D4F88C3043F00103C4F8C7
:103A00008C3083070AD5D30708D0276802233B628E
:103A1000D4F88C3043F00403C4F88C3043070AD543
:103A2000D30708D0276804233B62D4F88C3043F0D6
:103A30000203C4F88C3003070CD501F02003334394
:103A400008D0266808233362D4F88C3043F008038A
:103A5000C4F88C3003050BD54B0109D526684FF40B
:103A600000633362D4F88C3043F02003C4F88C3008
:103A7000D4F88C30002B34D0800609D501F020001A
:103A800002F08051084303D0216F09B120468847D6
:103A9000D4F88C0021688968490602D410F0280FF8
:103AA00021D0204601F04CF820688168490615D5E0
:103AB000816821F040018160E06F78B15C498163E9
:103AC000E06FFEF7BAF800280BD000E011E0E06FDD
:103AD000816B00E02046BDE8F04108472046FFF733
:103AE00066FFBDE8F0812046FFF761FFC4F88C5007
:103AF000F7E7E76E2026012F5CD1C7065AD5CF061F
:103B000058D5102018622068816849062FD5E26FC9
:103B1000116849680904090CE3D0B4F85C308B42A1
:103B2000DFD9A4F85E1011680968890618D4016805
:103B300021F4807101602068816821F001018160B9
:103B40002068816821F040018160C4F88860E566E2
:103B50002068016821F010010160E06FFEF738F87D
:103B6000B4F85C00B4F85E10401A81B21EE0B4F8FC
:103B70005C10B4F85E20891AB4F85E2089B2002A7D
:103B8000AFD00029ADD0026822F4907202602068A4
:103B90008268254BDB431A408260C4F88860E56682
:103BA00025672068026822F0100202602046FFF7B5
:103BB000AEFE96E7C70209D5570207D54FF480102D
:103BC00018622046BDE8F041FFF7F0BE07060AD5AF
:103BD00001F0800702F40002174304D0616F00294E
:103BE0007FF478AF7DE742060CD54A060AD51968FE
:103BF000204621F040011960C4F88460656700F038
:103C0000EFF86EE7020206D54A0004D52046BDE86B
:103C1000F041FFF7CABEC001CBD50029C9DA204662
:103C2000BDE8F041FFF774BE010000102001000460
:103C3000A14A000810B5040003D0D4F8840010B1E4
:103C400007E0012010BD002084F88000204600F02D
:103C500027F82420C4F884002068016821F00101BD
:103C60000160204600F096FF0128EBD0A06A10B159
:103C7000204600F081FE2068416821F490414160B7
:103C80002068816821F02A0181602068016841F084
:103C9000010101602046BDE8104000F0D1BE0000E7
:103CA00070B586B0064614216846FCF7C1FB214971
:103CB000306888423CD12049886D40F48020886576
:103CC000886D00F480200590C86C40F00200C86444
:103CD000C86C002500F0020005904FF44060009091
:103CE0000220CDE901050720CDE9035069461348BC
:103CF000FEF752F9134C124820601D20606010201E
:103D0000C4E902058020C4E90405A561E5612046F7
:103D10002562FEF72BF808B1FCF719FDB467002205
:103D200011462720A662FEF787FA2720FEF776FACB
:103D300006B070BD0048004000100240000400487A
:103D400008000240EC03002070B50446D0F884005F
:103D500020283DD171B36AB394F88000012837D090
:103D6000012084F880002165A4F85420A4F856208E
:103D70000025C4F88C502120C4F88400A06FD8B16D
:103D80001449C162A16F144813460863A16F134818
:103D90004863A06F85632668216D06F12802A06F35
:103DA000FEF744F840B11020C4F88C0004F8805F9E
:103DB00020206060012070BD21684020086284F8E6
:103DC00080502068816841F080018160002070BDD2
:103DD000022070BD054B0008354B0008B54A0008AD
:103DE00070477047FEE700EB8100006E00F0F8407E
:103DF000704700EB8100006E00F0F840704780686B
:103E0000C0F3C00070478068C0F3C000704780688E
:103E1000C0F3800070478068C0F380007047C068BE
:103E200010F4406F01D00020704701207047042338
:103E300003EAD15310B518444369C1F30451072470
:103E40008C40A3438A401343436110BD042303EA1B
:103E5000D15310B518444369C1F3045107248C4071
:103E6000A3438A401343436110BD00EB8100016E00
:103E700021F0004111430166704700EB8100016EA3
:103E800021F000411143016670470000F0B59BB07E
:103E900000241794189420210FA81994FCF7C8FA4D
:103EA0003C216846FCF7C4FA31484FF0A041012597
:103EB00001604FF40021C0E9011400F11001042653
:103EC000C46081E8700004774477056280F824407C
:103ED000C462046380F83840C46380F84040FDF752
:103EE0008FFC08B1FCF733FC17A921481794FDF7A4
:103EF000CDF808B1FCF72BFC1E480F9010A9062046
:103F00007F2781E89100CDE913640FA91848FDF7D8
:103F100029F908B1FCF71BFC1748009001A90920FA
:103F200081E8A100CDE904640220089084200A9071
:103F30008DF8244080208DF825400B908DF8264088
:103F40008DF8304069460A48FCF750FC08B1FCF790
:103F5000FEFB0A48009040F20F10019069460448A9
:103F6000FCF744FC002801D0FCF7F1FB1BB0F0BDCE
:103F7000840100200008302E0800900C00106032F0
:103F8000F0B597B03C216846FCF752FA20210FA803
:103F9000FCF74EFA2748264900240160C902C0E90F
:103FA0000114C46004250461C0E905450477447721
:103FB0000126066280F82440C462046380F8384019
:103FC000C46380F84040FDF71BFC08B1FCF7BFFB61
:103FD0001948009001A909207F2781E8C100CDE997
:103FE000045484200A908DF8244080208DF82540C8
:103FF0000B9008968DF826408DF8304069460D48A4
:10400000FCF7F4FB08B1FCF7A2FB0C480F9010A9D9
:10401000062081E89100CDE913540FA90548FDF76A
:10402000A1F8002801D0FCF792FB17B0F0BD00000A
:1040300000010050F00100200800900C0200300444
:104040000D4808B5816C41F004018164816C01F078
:1040500004010091816C41F001018164806C0022B7
:1040600000F00100009011460B20FEF7E5F8BDE8D6
:1040700008400B20FEF7D2B80010024030B587B0E0
:1040800014216846FCF7D4F92248C16C41F00401C0
:10409000C164C16C01F004010591C16C41F02001C3
:1040A000C164C16C01F020010591C16C41F00101B6
:1040B000C164C16C01F001010591C16C41F00201C4
:1040C000C164C06C144D00F0020005900022502124
:1040D0002846FEF745F84FF4305000900F48002472
:1040E000CDE9010469462846FDF756FF50200090AF
:1040F0000120CDE90104694628460394FDF74CFFF1
:10410000002211462820FEF797F82820FEF786F8AF
:1041100007B030BD00100240000800480000111038
:104120000B4810B509490160002141608160C16000
:10413000016101758161C162FEF7B0F8002803D00A
:10414000BDE81040FCF703BB10BD000000030140B8
:104150005C0200200B4810B5094901600021416054
:104160008160C160016101758161C162FEF796F8ED
:10417000002803D0BDE81040FCF7E9BA10BD0000EC
:1041800004030140980200200B4810B50949016062
:10419000002141608160C160016101758161C1627E
:1041A000FEF77CF8002803D0BDE81040FCF7CFBA3A
:1041B00010BD000008030140D402002030B59BB0C0
:1041C000002419941A9417941894149415941C218B
:1041D00068461694FCF72CF9342107A8FCF728F957
:1041E0003C483B49C0E900142021816041F63F7101
:1041F000C1604FF4807101610121C0E90514FEF72F
:1042000072FF08B1FCF7A3FA4FF48050179017A97A
:104210003048FEF7FDFF08B1FCF799FA2D48FFF78B
:104220004DFA08B1FCF793FA7025CDE9145414A99E
:1042300028481694FEF778FE08B1FCF788FA60204B
:10424000CDE9000402940394049405940022694685
:1042500020480694FFF7A3F908B1FCF778FA042286
:1042600069461C48FFF79BF908B1FCF770FA082271
:1042700069461848FFF793F908B1FCF768FA41F668
:104280003E70CDE900500C2269461248FFF787F9CD
:1042900008B1FCF75CFA079478200894CDE909404E
:1042A0004FF40050CDE90B400D9400030E94CDE97E
:1042B0000F401194129407A906481394FEF7DAFDF3
:1042C00008B1FCF744FA0348FFF71EF91BB030BDF4
:1042D000002C014010030020184810B51649016059
:1042E0004FF461214160002181600C22C160C0E96E
:1042F00004128161C161016241628162FFF79AFC2F
:1043000008B1FCF724FA00210C48FFF728FB08B19C
:10431000FCF71DFA00210948FFF7FBFA08B1FCF78A
:1043200016FA0648FFF7D4FA002803D0BDE810407B
:10433000FCF70DBA10BD0000004800405C030020EF
:10434000FEE7FEE77047704710B504462DED068B7B
:10435000B0EE418AB0EE409ABEEE00AA9FED241A5C
:1043600029EE0A0A60EE810A70EE208A70EE609AE9
:10437000B0EE490AF0EE680A00F0C6FEF0EE690AF7
:1043800000F0C2FEF0EE40AAF0EE680AB0EE490A74
:1043900000F096FEF0EE690A00F092FE3AEE800A16
:1043A00020EE0A1A31EE090A71EE281A31EE291AA6
:1043B000C0EE080AB6EE000A30EE602ADFED0D0A04
:1043C00022EE202A84ED002A81EE882A70EE421A1D
:1043D00061EEA01AC4ED011AC1EE081A30EE610AAE
:1043E00020EE200A84ED020ABDEC068B10BD000011
:1043F000D7B35D3F0000FA45FDF7BEBE10B5A4B0CF
:1044000038216846FCF714F814211FA8FCF710F8AF
:1044100044210EA8FCF70CF80020FEF719F8012043
:1044200000900004019002200324CDE90704282114
:10443000CDE90A100C900D9009946846FEF7FCFA3D
:1044400008B172B6FEE70F20CDE91F0400242194C5
:10445000229404211FA82394FEF7A4F908B172B690
:10446000FEE748F204000E90C0061D9011940EA8BD
:10447000FEF754F8002801D072B6FEE724B010BD54
:104480000248016841F470010160704788ED00E066
:104490000148FEF73ABF0000100300200148FEF774
:1044A00034BF0000100300200148FEF72EBF0000BB
:1044B000100300202DE9F0430268234B234D244EC6
:1044C000244C4FF08049984207D0484505D0A84277
:1044D00003D0B04201D0A04203D122F070074A6855
:1044E0003A431D4FDFF874C0DFF8748098420DD056
:1044F00048450BD0A84209D0B04207D0A04205D011
:10450000B84203D0604501D0404503D122F4407544
:10451000CA682A434D6922F080022A4302608A68F1
:10452000C2620A688262984207D0A04205D0B842AF
:1045300003D0604501D0404501D1096901630121E3
:104540004161BDE8F0830000002C01400004004000
:104550000008004000340140004001400044014098
:104560000048014010B501F01F030121046A994081
:104570008C430462016A9A401143016210BD10B578
:1045800001F01F030421046A99408C430462016A0C
:104590009A401143016210BD10B5846842EA0322BB
:1045A00024F47F440A432243826010BD8268034B97
:1045B0001A400A4342F00701816070478FFFCFFF26
:1045C0002DE9F043026A22F001020262056A4368A3
:1045D00082691C4C25F0020522400C6822F003027F
:1045E00014438A68194E2A43174D194FDFF864C0E7
:1045F000DFF86490A84207D0B04205D0B84203D09B
:10460000604501D0484506D122F00808CA6842EA50
:10461000080222F00402A84207D0B04205D0B842F6
:1046200003D0604501D0484505D14D6923F440735E
:104630001D438B692B434360846149684163026277
:10464000BDE8F0838FFFFEFF002C014000340140E5
:10465000004001400044014000480140F0B5026ABA
:1046600022F010020262056A42688369194C1B4EEF
:1046700023400C6823F4407343EA042425F020030C
:104680008D6843EA0513144DA84201D0B04206D10B
:10469000CF6823F0800343EA071323F04003A842C6
:1046A0000AD0B04208D00E4DA84205D00D4DA84208
:1046B00002D00D4DA84207D14D6922F4406242EA72
:1046C00085028D6942EA850242608461496881639E
:1046D0000362F0BDFF8FFFFE002C0140003401405B
:1046E000004001400044014000480140F0B5026A2A
:1046F00022F480720262056A4368C269194C1B4E3B
:1047000022400C6822F00302144325F400728D68E5
:1047100042EA0522144DA84201D0B04206D1CF682A
:1047200022F4006242EA072222F48062A8420AD000
:10473000B04208D00E4DA84205D00E4DA84202D07E
:104740000D4DA84207D14D6923F4405343EA0513A8
:104750008D6943EA05134360C4614968C16302621D
:10476000F0BD00008FFFFEFF002C0140003401402F
:10477000004001400044014000480140F0B5026A99
:1047800022F480520262056A4268C369194C1B4ECA
:1047900023400C6823F4407343EA042425F40053B7
:1047A0008D6843EA0533144DA84201D0B04206D1CA
:1047B000CF6823F4004343EA073323F48043A8423D
:1047C0000AD0B04208D00E4DA84205D00D4DA842E7
:1047D00002D00D4DA84207D14D6922F4404242EA71
:1047E00085128D6942EA85124260C461496801649C
:1047F0000362F0BDFF8FFFFE002C0140003401403A
:1048000000400140004401400048014030B5026AC8
:1048100022F480320262046A4268036D114D2B401B
:104820000D681D4324F400330C8943EA04430E4C05
:10483000A0420BD00D4CA04208D00D4CA04205D098
:104840000C4CA04202D00C4CA04204D14C6922F482
:10485000803242EA0422426005654968816403624D
:1048600030BD00008FFFFEFF002C014000340140EE
:1048700000400140004401400048014030B5026A58
:1048800022F480120262046A4268036D114D24F41E
:1048900000142B400D6843EA05230D8944EA0554B2
:1048A0000D4DA8420BD00D4DA84208D00C4DA8428A
:1048B00005D00C4DA84202D00B4DA84204D14D6941
:1048C00022F4802242EA8522426003654968C1647D
:1048D000046230BDFF8FFFFE002C01400034014018
:1048E00000400140004401400048014010B5036A07
:1048F000046A24F001040462846924F0F00444EAA8
:10490000021423F00A020A438461026210BD10B54A
:10491000036A23F0100303628369046A23F470437B
:1049200043EA023224F0A00343EA011182610162EA
:1049300010BD000030B5416EB9B10268916892684F
:10494000C1F342610B4B520F9C5CE50003F108047C
:10495000A25CB5FBF2F2A0F86A205A5C615CD2005E
:10496000B2FBF1F1A0F8681030BD0121A0F86A1087
:10497000F8E70000A05E000890F82810C90706D0EC
:1049800001684A68C36A22F400321A434A6090F808
:104990002810890706D501684A68036B22F4803223
:1049A0001A434A6090F82810490706D501684A68FA
:1049B000436B22F480221A434A6090F828100907BA
:1049C00006D501684A68836B22F400421A434A60A4
:1049D00090F82810C90606D501688A68C36B22F4CE
:1049E00080521A438A6090F82810890606D501681B
:1049F0008A68036C22F400521A438A6090F82810E7
:104A0000490611D501684A68436C22F480121A43A2
:104A10004A60416CB1F5801F06D101684A68836C19
:104A200022F4C0021A434A6090F82810090606D5FD
:104A300001684A68C06C22F4002202434A60704751
:104A4000F8B500260446C0F88C60FDF78FFB0546DC
:104A5000206800686FF07E47000708D52B460022CB
:104A60004FF400112046009700F0CEF960B920689D
:104A7000006840070AD52B4600224FF480012046EB
:104A8000009700F0C1F908B10320F8BD2020C4F858
:104A90008400C4F8880044F86C6F00202675F8BDC7
:104AA00010B5806A0021A0F85E10A0F85610FEF73D
:104AB0007EFF10BD70B5846AD4F88400D4F88850A5
:104AC000216889684FF00006090606D5212804D11F
:104AD000A4F85660204600F04FF820688068400631
:104AE00006D5222D04D1A4F85E60204600F028F8F7
:104AF000D4F88C0040F01000C4F88C002046FEF77B
:104B000056FF70BD10B50146806A096809688906BC
:104B10000DD40021A0F8561001688A6822F08002A6
:104B20008A600068016841F04001016010BDFFF734
:104B300057F910BD10B5806AFFF753F910BD00009A
:104B400001680A6822F490720A6001688A68094B59
:104B50001A408A60C16E012904D101680A6822F0F6
:104B600010020A602021C0F888100021C166016788
:104B700070470000FEFFFFEF01680A6822F0C002E4
:104B80000A6001688A6822F400028A602021C0F865
:104B9000841070472DE9F04104460168806822695D
:104BA000E3691043626900251A431043DFF82CC201
:104BB0000A688B4B1A4002430A6020684168E26829
:104BC00021F44051114341602168A069614501D041
:104BD000226A10438A68834B1A4002438A60206825
:104BE000C16A626A21F00F011143C1627E492368E4
:104BF0007E488B420DD1D0F8880010F0030006D01B
:104C0000012855D0022842D003283FD152E001208C
:104C10003DE077498B420BD1D0F8880010F00C00B2
:104C200035D0042833D0082840D00C282ED141E0BC
:104C300070498B420BD1D0F8880010F0300026D09C
:104C4000102835D0202831D030281FD132E06A49D1
:104C50008B420BD1D0F8880010F0C00017D040284C
:104C600026D0802822D0C02810D123E063450DD162
:104C7000D0F8880010F4406009D0B0F5806F17D0EC
:104C8000B0F5006F12D0B0F5406F13D010205B4A22
:104C90005B4F00264FF40041634539D160B10228D3
:104CA0000DD004280DD0082831D10EE00220EEE707
:104CB0000420ECE70820EAE7FDF762FE03E0114676
:104CC00003E0FDF781FE01007DD0606A37F8102017
:104CD0006768B1FBF2F007EB470383426CD8B0EB97
:104CE000073F69D8002308461946FBF7E5FA090291
:104CF00041EA106102027808101871413A46002317
:104D0000FBF7DAFA3F4AA0F54071914259D953E0D6
:104D1000E3694FF6EF788B422DD109284CD2DFE8BA
:104D200000F005080D4B274B4B4B0E00FDF728FEFE
:104D300001E0FDF737FE010001D144E01146606A51
:104D400037F81000B1FBF0F04100606801EB500152
:104D5000B1FBF0F080B2A0F1100141452CD84FF624
:104D6000F0710140C0F3420001432068C1602AE0B5
:104D7000FDF72AFEDFE709281ED2DFE800F005086C
:104D80000D1D1F1D1D1D0E00FDF7FAFD01E0FDF7B5
:104D900009FE010001D116E01146606A37F81000E3
:104DA000B1FBF0F1606801EB5001B1FBF0F080B2B3
:104DB000A0F11001414504D9012504E0FDF704FEEE
:104DC000E7E72168C8600120A4F86A0024F8680FAA
:104DD0002846A660E660BDE8F08100000080004043
:104DE000F369FFCFFFF4FF110038014000100240CB
:104DF0000044004000480040004C00400024F40003
:104E0000885E0008FFFC0F002DE9F0479A46174620
:104E10000E4604464FF000094FF02008089D39E087
:104E2000681C37D0FDF7A2F9A0EB0A00A84222D8EF
:104E30000DB32068016849072CD5C069C04300053F
:104E400028D421684FF4006008622068016821F4CA
:104E5000D07101602068816821F001018160C4F88F
:104E60008480C4F88880C4F88C8000BF84F8809067
:104E70000320BDE8F0872068016821F4D07101604B
:104E80002068816821F001018160C4F88480C4F841
:104E90008880EBE72068C06936EA000004D0002073
:104EA000B842BDD00020E4E70120F9E70148FEF751
:104EB0007FBD00005C030020FEE74100080218BF30
:104EC00004200A0E18BF40F001004FF07F4232EA82
:104ED000010108BF40F00200012808BF052070470B
:104EE0000907090E002804DB00F1E02080F8001417
:104EF000704700F00F0000F1E02080F8141D7047AB
:104F000010EE101A08B5444A6846B2EB410F28D992
:104F10004FF0E640B0EB410F94BF00204FF0FF3060
:104F200000900098002861DB60EE000A10F0010F8D
:104F300045D010F0020FDFED391A9FED391A00EE5F
:104F4000E11ADFED381A40EE811A21EEA01AF0EED8
:104F5000400A40EE010A08BFF1EE600AB0EE600AB6
:104F600008BD314B21F0004293423CD911F0004F73
:104F7000DFED2E0A20EE201ADFED2D0A19BF31EEEB
:104F8000601A71EE200A31EE201A71EE600ABDEE51
:104F9000E01A11EE100A9FED271A00F0030000EE50
:104FA000C10A9FED251A009000EEC10A9FED231A59
:104FB00000EEC10A9FED221A00EEC10AB1E79FED93
:104FC000211A9FED210A10F0020F00EE810A9FEDD9
:104FD0001F1A00EE801AB7EE000A00EE810A18BF11
:104FE000B1EE400A08BD00F0E7F99AE710EE100AAA
:104FF0004000B0F17F4F3CBFB7EE000A08BD07D1BB
:105000004FF00100FBF743FABDE8084000F0C4B9D7
:10501000BDE8084000F0BCB9B61F927E336D4C3934
:10502000DA82083CA0AA2ABE490E494683F9223FEB
:105030000000004B0000C93F00A0FD390020A23352
:105040001A61342CB93AB2BACA9F2A3DDDFFFFBEBD
:1050500010EE100AC0F3C7517F391729A8BF704757
:10506000DFED140A002970EE200A0DDAF5EEC00A11
:10507000F1EE10FA1ADD0028A8BF002016DAB0F110
:10508000004F18BF0C4811E00C4ACA40104208BF3C
:105090007047F5EEC00AF1EE10FA07DD002804DAD9
:1050A0004FF4000323FA01F10844904300EE100A84
:1050B00070470000CAF24971000080BFFFFF7F0007
:1050C00010B52DED028BB0EE608AF0EE408A18EE3E
:1050D000101A18EE900A00F0E9FD00F07040B0F1EF
:1050E000005F0CD018EE100A20F00040C0F1FF4025
:1050F000C00F02BFB0EE480ABDEC028B10BDB0EE8F
:10510000680ABDEC028B10BD10B52DED028BB0EE20
:10511000608AF0EE408A18EE101A18EE900A00F03D
:10512000C5FD00F07040B0F1004F0CD018EE100A31
:1051300020F00040C0F1FF40C00F02BFB0EE480AAF
:10514000BDEC028B10BDB0EE680ABDEC028B10BD49
:1051500010B52DED028BF0EE408A18EE900AB0EEFD
:10516000608A20F00040C0F1FF40C00F07D118EE68
:10517000100A20F00040C0F1FF40C00F2BD018EE05
:10518000101A18EE900A00F005FE00EE100A10EE5C
:10519000100A6FEAD05010F0FF0F04BFBDEC028B75
:1051A00010BD18EE900A00F0004110EE100A00F059
:1051B0000040814204BFBDEC028B10BD18EE101AF6
:1051C00010EE100ABDEC028B61F31E0000EE900A97
:1051D00030EE600A10BD18EE900A4FF07F41B1EB3F
:1051E000400F1CBF18EE100A5FEA4000C7D1012033
:1051F000FBF74DF9BDEC028BBDE8104000F0CCB8D8
:1052000000B510EE101A2DED028B81B0524A68469F
:10521000B2EB410F2ED94FF0E640B0EB410F94BFF7
:1052200000204FF0FF3000900098B0EE408A002838
:105230006ADB10F0010F4BD068EE080A9FED471AA9
:105240009FED470A00EE810A9FED461A10F0020F0B
:1052500000EE801AB7EE000A00EE810A02BF01B02C
:10526000BDEC028B00BD00BF01B0B1EE400ABDEC49
:10527000028B00BD3C4B21F00042934241D911F01A
:10528000004FDFED3A0A20EE201ADFED390A19BF90
:1052900031EE601A71EE200A31EE201A71EE600ACA
:1052A000BDEEE01A11EE100A9FED321A00F0030075
:1052B00000EEC10A9FED301A009000EEC10A9FED8A
:1052C0002F1A00EEC10A9FED2E1A00EEC10AABE7BD
:1052D00028EE080A9FED2B1ADFED2B0A10F0020FC3
:1052E00040EE410A9FED291A00EE201A61EE000AF5
:1052F000B0EE480A08EE200AB6D101B0BDEC028B30
:1053000000BD00F059F88FE718EE100A4000B0F128
:105310007F4F0DD218EE100AFFF7CFFD042808BF0B
:1053200000F042F8B0EE480A01B0BDEC028B00BDBF
:1053300009D10120FBF7ABF801B0BDEC028B5DF8A1
:1053400004EB00F029B801B0B0EE480ABDEC028BC6
:105350005DF804EB00F01CB8B61F927EB93AB2BA01
:10536000CA9F2A3DDDFFFFBE490E494683F9223F11
:105370000000004B0000C93F00A0FD390020A2330F
:105380001A61342C336D4C39DA82083CA0AA2ABE4B
:1053900030EE000A70470000DFED020A80EEA00A3E
:1053A00070470000000000009FED020A20EE000A96
:1053B00070470000000000102DE9F0014FF07F421F
:1053C000B2EB410F9FBF4FF0FF310160BDE8F0012C
:1053D00070474FF0004242EA0123C1F3C752783AC6
:1053E000551112F01F0C434CCCF120067C44C1F344
:1053F000C752A2F178024FEA621204EB820254F81B
:10540000254008BFD2E9015612D0556804FA0CF4C1
:1054100025FA06F73C43976805FA0CF527FA06F8D3
:10542000D26807FA0CFCF24045EA08054CEA02068D
:10543000A4FB034CA5FB0352A6FB03631D449D4242
:1054400034BF012600261319334416B1934202D902
:1054500003E0934201D2012200E00022624402F103
:10546000200C9206DC0C42EA443200EE102A5B0368
:10547000DFED210AF8EEC01A00EE103A4FEA9C1C4C
:1054800011F0004FB8EE400AC0F800C020EE201A1C
:1054900000EE105ADFED190AB8EE400A20EE200A9D
:1054A00071EE810A70EE800A10EE902A02F5006219
:1054B0006FF30B0200EE902A70EEE11A31EEC11A82
:1054C000DFED101A30EE411A9FED0D0A20EE800A32
:1054D00001EE210A9FED0C1A00EE810A04BFBDE81F
:1054E000F0017047CCF180510160BDE8F001B1EEF0
:1054F000400A7047D80A0000000000360000802CE7
:1055000022AAFD29DB0FC92F0000C92F2DE9F04188
:10551000ED4E2DED0C8B96ED010AD6ED020A30EE24
:10552000200AD6ED000A9FEDE91A60EE818A9FED10
:10553000E89AA6F1280447F6FF7140EE498AE08B0D
:10554000884201D2401CE08394F8201001220220FE
:1055500089B1DD4D94F82130002195ED040A012B2D
:105560000CD0022B1DD0032B42D0B5EEC00AF1EEB9
:1055700010FA10D04BE084F820200CE0E28BB2F55A
:105580007A7F03D3032084F8210016E0B5EEC00A29
:10559000F1EE10FA02D184F821000FE09FEDCD0B5F
:1055A00006E010EE100AB0F17E5F04D09FEDCB0B49
:1055B00084ED000B02E084F82120E18394ED000BE0
:1055C00051EC100B00F0E8FA9FEDC6BAC64DF7EEAD
:1055D00000AA9FEDC68A01281CD002281FD0DFED4B
:1055E000C40ADFEDC49A032820D004284BD138E048
:1055F000B5EEC00AF1EE10FACDD0E08B47F2305193
:10560000884201D30420C6E79FEDBB0BD0E79FED96
:10561000BC0BCDE785ED018A84ED028A33E085ED90
:10562000018AB0EE000A84ED020A2CE094ED050A2E
:1056300000F018FA85ED010AC4ED02AAD4ED050ABE
:1056400094ED060A40EE0B0AC4ED050AD5ED000AFA
:1056500060EEA90A60EE890A00EE8B0A84ED060A64
:1056600011E094ED040A00F0FDF985ED010AC4EDA6
:1056700002AAD5ED000A94ED040A60EEA90A00EE34
:105680008B0A84ED040A95ED010AFFF739FCF0EE70
:10569000400A96ED010AB0EE609AD6ED020AB046D5
:1056A00030EE600ADFED980A20EE20AA95ED010A9F
:1056B000FFF7A6FD28EE891A0AEE001AB1EE41DACC
:1056C000DFED920AB4F91C00914E60EEC19A01EE32
:1056D000100AB8EEC11A41EE0B9A19EE900ADFEDEE
:1056E0008DBA8D4F9FED8DCAB04202DDB0EE6B1AC0
:1056F00008E019EE900AB84202D9B0EE4C1A01E067
:10570000B0EE691A6AEE091A94ED022A94ED03AA22
:1057100048EEC01A72EE61CA0CEEA0AA1AEE100A88
:10572000B04202DDF0EE6B8A08E01AEE100AB842D1
:1057300002D9F0EE4C8A01E0F0EE4A8A61EE091AD5
:1057400061EE000A604898ED031A48EEC01A48EE70
:10575000890A1430B0EE610AFEF7F6FD19EE900AE0
:10576000B0EE489AB04202DD79EEEB8A08E019EE1D
:10577000900AB84202D8F0EE488A01E079EECC8A6D
:10578000DFED679A2DEE290AFFF762FCBDEEC00A35
:1057900010EE100A01B21AEE100AB04202DD7AEEE3
:1057A0006B0A08E01AEE100AB84202D8F0EE480A76
:1057B00001E07AEE4C0A2CEEA91AF5EEC08AFFEE53
:1057C000001AF1EE10FA02D2B0EE610A11E0F5EE25
:1057D000C08AF1EE10FA02DDB0EE6A0A09E0F5EED9
:1057E000C08AF1EE10FA02D1B0EE480A01E095ED60
:1057F000040A002902DA4FF0FF3005E002DD4FF025
:10580000010001E04FF00000B4EE689AF1EE10FAEA
:1058100007D0BDEEC00A10EE102A52B2824200D16B
:105820000021F5EEC00AA08BF1EE10FA0844A08327
:1058300002D2B0EE619A0EE0F5EEC00AF1EE10FA77
:1058400002DDB0EE6A9A06E0F5EEC00AF1EE10FA5B
:1058500001D095ED049AB5EEC01AF1EE10FA02D21D
:10586000B0EE610A11E0B5EEC01AF1EE10FA02DDF9
:10587000B0EE6A0A09E0B5EEC01AF1EE10FA02D1F4
:10588000B0EE480A01E095ED040AF0EE481AF4EE95
:10589000601AF1EE10FA0DD0FDEEC90ABDEEC00A95
:1058A00010EE900A41B210EE100A40B2814201D1CE
:1058B000B0EE481A94ED030A01EE0B0A84ED030AD8
:1058C000BDEC0C8BBDE8F08178040020ABAA2A3F28
:1058D000ABAAAA3E0000000000000040000000004B
:1058E0000000F03F17B7D138400000200000000052
:1058F000DB0FC940368DA7420000000000000840C1
:1059000000000000000010403ACD133F7B142E3EF3
:105910004288474142884741428847C1428847C13F
:1059200000000C422DED048BFCF72EFCFEF766FD0B
:10593000FEF7A4FBFEF784FBFEF7CEFCFEF7A6FA0B
:10594000FEF71EFBFEF7ECFBFEF704FCFEF71CFC6B
:10595000FEF734FC2748FCF765FD2748FCF762FD9D
:105960002648FCF75FFD7F212548FAF7F3FE7F21EB
:105970002448FAF7EFFE224920200A6810600968DF
:1059800004220A601F49096808601D48FBF7E8FA0D
:105990001C48FBF771FA1C4941F63F7008601A4930
:1059A000401E143108601948FDF7FCFB0C21174814
:1059B000FDF7B8FE164C9FED178ADFED178A174DDD
:1059C000B3EE0A9A0F48FCF789F80E48FBF7DEFDA4
:1059D00080B200EE100AA0810A20B8EE400A20EE44
:1059E000080A20EE280A20EE090A85ED030AFCF7D2
:1059F00063FAE7E75C02002098020020D40200204E
:105A000084010020F00100202C2C01401003002014
:105A10000000002033335340000080397804002018
:105A20000948D0ED020AB4EE600AF1EE10FA06D091
:105A3000D0ED030AB4EE600AF1EE10FA01D10120B4
:105A400070470020704700004000002010EE100A50
:105A5000C0F3C751FF2903D1400201D00120704794
:105A60000020704710B52DED068BF0EE608AB0EE89
:105A7000409AF5EEC08AB0EE498AF1EE10FA05D1EF
:105A8000B5EEC09AF1EE10FA34D07AE0B0EE490AE1
:105A9000FFF7DCFF48B9B0EE680AFFF7D7FF20B97F
:105AA000B0EE490AFFF7BCFF18B1384890ED048A00
:105AB00067E09FED37AAB5EEC09AF1EE10FA02D179
:105AC0008AEE288A5DE0B0EE680AFFF7A9FFA0B170
:105AD000F5EEC08AF1EE10FA01D2012000E00020BC
