:020000040800F2
:10000000E0090020ED01000895630008A95B0008E5
:1000100091630008310A00085573000800000000D1
:10002000000000000000000000000000ED65000876
:100030004D0A00080000000099630008F1650008FF
:10004000070200080702000807020008070200086C
:10005000070200080702000807020008070200085C
:10006000070200080702000807020008410A00080A
:10007000070200080702000807020008070200083C
:1000800007020008000000009D08000807020008A1
:10009000070200087D0A000807020008070200089E
:1000A00009660008216600080702000815660008B6
:1000B00007020008070200082D6600080702000872
:1000C00007020008070200080702000807020008EC
:1000D0000702000807020008070200084973000829
:1000E000510A00080702000807020008070200087A
:1000F00007020008070200080702000800000000CD
:1001000000000000070200080000000007020008CD
:1001100007020008000000000702000807020008AC
:10012000070200080702000807020008070200088B
:10013000070200080000000000000000070200089D
:10014000350A000807020008000000000000000057
:10015000000000000000000000000000000000009F
:10016000000000000000000000000000070200087E
:10017000070200080000000000000000000000006E
:10018000000000000702000800000000000000005E
:10019000000000000000000000000000000000005F
:1001A000000000000000000007020008070200082D
:1001B000070200080702000807020008000000000C
:1001C000000000000702000800000000000000001E
:1001D0000702000807020008DFF80CD000F046FB19
:1001E00000480047597D0008E00900200648804784
:1001F00006480047FEE7FEE7FEE7FEE7FEE7FEE70C
:10020000FEE7FEE7FEE7FEE7F5650008D901000816
:100210002DE9F05F0546002092469B46884606463B
:10022000814640241BE0284641464746224600F0CE
:1002300056F953465A46C01A914110D311461846F2
:10024000224600F03DF92D1A67EB01084F46224681
:100250000120002100F034F917EB00094E41201E67
:10026000A4F10104DFDC484631462A464346BDE896
:10027000F09FD2B201E000F8012B491EFBD270477B
:100280000022F6E710B513460A4604461946FFF762
:10029000F0FF204610BD2DE9FE4F804681EA0300A5
:1002A000C00F0C46009021F0004123F00045B8EB50
:1002B0000200A94105D24046214690461C460B4605
:1002C000024623F00040104347D0270DC7F30A0031
:1002D000C3F30A510290401A019040286BDAC3F32D
:1002E000130040F4801B0098924620B10023D2EB0B
:1002F000030A63EB0B0B01985946C0F140025046CC
:1003000000F0DEF806460D4650465946019A00F0C8
:10031000F6F810EB08006141002487EA115284EAE4
:10032000E7731A4340D0009A62B3019A012A4FEA58
:10033000075215DC001B61EB02014FF0004202EA9C
:100340000752CDE90042001C41F5801132462B4690
:1003500000F02DF903B0BDE8F08F40462146F9E7E3
:10036000001B61EB0201001C41F5801300185B418A
:100370002018A2F5001747EB030140EAD570B61923
:100380006D4111E06D084FEA360645EAC0754FEA47
:100390000752001B61EB0201001C41F58011490866
:1003A0004FEA30000019514132462B4603B0BDE8F8
:1003B000F04F00F0EDB80098012240000023D0EB90
:1003C000020263EBE073009821464FEAE074B8EB59
:1003D000000061EB0401E9E783F000435BE781F093
:1003E000004158E730B5041E71F1000404DB4FF002
:1003F0000044404264EB0101141E73F1000405DB6C
:100400001C464FF00043524263EB0403101A8B4129
:1004100001D2012030BD002030BD30B40446962307
:100420000800214604D0B62330BC002200F082B878
:1004300020460021F8E700F0004230F000400AD0EA
:10044000C10D01F56071C0F3160042EA0151C20806
:1004500040071143704700200146704701F00043F8
:1004600030B421F0004150EA010206D00A0DA2F595
:100470006072C1F31301002A02DC30BC0020704717
:10048000440F44EAC104C100E01830BC00EBC25084
:1004900000F047B830B50B46014600202022012469
:1004A00009E021FA02F59D4205D303FA02F5491B42
:1004B00004FA02F52844151EA2F10102F1DC30BD58
:1004C000202A04DB203A00FA02F100207047914014
:1004D000C2F1200320FA03F3194390407047202A09
:1004E00004DB203A21FA02F00021704721FA02F3DE
:1004F000D040C2F120029140084319467047202A9B
:1005000006DBCB17203A41FA02F043EAE07306E03B
:1005100041FA02F3D040C2F120029140084319464B
:1005200070470029A8BF7047401C490008BF20F051
:100530000100704710B4B0FA80FC00FA0CF050EAE9
:10054000010404BF10BC704749B1CCF1200421FA6A
:1005500004F411FA0CF118BF012121430843A3EB65
:100560000C01CB1D4FEA00614FEA102042BF002072
:1005700010BC704700EBC35010440029A4BF10BC4E
:100580007047401C490008BF20F0010010BC7047B4
:1005900010B5141E73F1000408DA401C41F100018B
:1005A00092185B411A4301D120F0010010BD2DE9E2
:1005B000F04D92469B4611B1B1FA81F202E0B0FAD9
:1005C00080F220329046FFF77BFF04460F4640EA58
:1005D0000A0041EA0B0153465A46084313D011461C
:1005E00053EA010019D0C8F140025046FFF777FFE7
:1005F00005460E46504659464246FFF761FF0843FE
:1006000005D0012004E020463946BDE8F08D0020E9
:10061000054346EAE0762C4337430A986305E40A2B
:10062000A0EB08000022FD0A44EA47540A3002D534
:1006300000200146E9E7010510196941DDE9084597
:1006400000196941BDE8F04DA2E72DE9FE4F81EAAE
:10065000030404F0004421F0004100944FF0000B2B
:1006600023F0004350EA01045ED052EA03045BD059
:10067000C3F30A54C1F30A552C44A4F2F334019491
:10068000A0FB0254C1F3130141F48011C3F313031F
:1006900043F4801301FB024400FB034E840A970AD3
:1006A00044EA815447EA8357A4FB076802958D0A00
:1006B00005FB07854FEA932C04FB0C542705029D8C
:1006C0004FEA065847EA1637B5EB08056EEB070CFC
:1006D000870E920E47EA811742EA8312A7FB0201B6
:1006E000B6EB0B0164EB00042B0D43EA0C335E18F0
:1006F00044EB1C50DA465146E7FB0201C5F31304F4
:100700004FEA0B3343EA14534FEA0432019C43EAA5
:100710000603A4F10C040294009CCDE900B4FFF799
:1007200046FF03B0BDE8F08F00200146F9E72DE950
:10073000F04D81EA030404F0004B21F0004514461B
:100740004FF0000A23F0004150EA050220D054EA9D
:1007500001021DD0C5F30A570246C5F31303C1F3C6
:100760001300C1F30A5640F4801543F48013A7EB3D
:100770000608101BD64608F2FD3873EB050002D3BD
:1007800008F1010801E092185B41B8F1000F03DAAB
:1007900000200146BDE8F08D00204FF48011064690
:1007A00084460EE0171B73EB050705D3121B63EBA2
:1007B000050306434CEA010C49084FEA3000921841
:1007C0005B4150EA0107EDD152EA030012D082EA00
:1007D000040083EA0501084305D0101BAB4106D293
:1007E0000122002306E000224FF0004302E06FF0F8
:1007F000010253101AEB06004CEB085110EB0A00F3
:1008000041EB0B01BDE8F04DFFF7C2BEC1F30A5248
:10081000C1F3130140F2FF3341F480119A4202DA2E
:1008200000200146704740F233439A42A2F233421D
:1008300002DC5242FFF753BEFFF742BE30B5041E42
:1008400071F1000404DB4FF00044404264EB01010D
:10085000141E73F1000405DB1C464FF000435242A6
:1008600063EB0403994208BF904230BD1CB50948B0
:100870000090094801900546009C06E0E06840F0C1
:10088000010394E8070098471034AC42F6D3FFF711
:10089000A7FC0000788B0008988B000880B540F218
:1008A000AC00C2F2000000F053FF40F21810C2F298
:1008B0000000BDE8804000F04BBF0000B0B501680B
:1008C00004468A688868C0074FF0000031D012F0F3
:1008D000020218BFB0BD886800F00D0001281FD1CA
:1008E00088684FF6C072C7F6FF7210400230886009
:1008F0000320086002F076F921688968C90704BFFF
:100900000020B0BD054602E08068C00712D002F0AA
:1009100069F9411B20680329F6D38168C907F3D020
:10092000E06D40F01000E065206E40F001002066B0
:100930000120B0BD0020B0BD70B582B004460020DB
:10094000019021688A68D20711D14FF6C076C7F6A8
:10095000FF76886806F17F0210420BD0E06D40F010
:100960001000E065206E40F001002066012002B01A
:1009700070BD00BF8868304040F00100886040F2E0
:100980000830C5F200000068000221D402F02AF904
:1009900021680A68D20717D1054602E00868C00737
:1009A00012D18868C00704D18868304040F0010047
:1009B000886002F017F9401B21680328EED308680D
:1009C000C007EBD1CAE700BF002002B070BD00BF76
:1009D00040F20800C2F20000006842F6635180094C
:1009E000C0F23E51A0FB0101880900EB40000C2140
:1009F00001EB8000019001980028C7D001980138D0
:100A0000019001980028C1D0019801380190019807
:100A10000028BBD001980138019001980028B5D07A
:100A200001980138019001980028E7D1AEE7000055
:100A3000FEE7000040F28410C2F2000001F088B925
:100A400040F2BC10C2F2000001F026BC704700006A
:100A500080B54FF4806001F0DDFF4FF4006001F0DD
:100A6000D9FF4FF40050BDE8804001F0D3BF000033
:100A7000EFF3108072B600BFFEE7000040F21C20CA
:100A8000C2F2000001F082BDB0B582B00446002081
:100A9000019094F85800012802D1022002B0B0BDA4
:100AA000012084F8580020460D46FFF707FFE16D4E
:100AB00010B141F010014BE041F2021291430231BA
:100AC000E16521684FF6C073D1F808C0C3F6FF7323
:100AD00003EA0C0305F080454DF601622B44C0F299
:100AE000040203F100438B608B68B3F1FF3F2BDC02
:100AF000019B01330193019B93421DD88B68B3F195
:100B0000FF3F21DC019B01330193019B934213D8EA
:100B10008B68B3F1FF3F17DC019B01330193019B0D
:100B2000934209D88B68B3F1FF3F0DDC019B013381
:100B30000193019B9342D7D9E06D40F0100020F063
:100B40000201012004E000BFE16D012262F3010116
:100B5000E165002184F8581002B0B0BD7047000074
:100B60002DE9F04181B00022009290F85820012A2E
:100B700006D14FF0020C604601B0BDE8F08100BF25
:100B80004269012380F8583012B10D6A012D21D13C
:100B90004A68092A1AD10A688B6A4FF4785606EA1D
:100BA000524223B1CE6A03F07C0333431A43D0F898
:100BB000008044F20005D8F84C60C0F210452E4089
:100BC0001643C8F84C6042662EE000BFD0F80080A3
:100BD0002AE000BF846E1CB1436E00220AE000BF11
:100BE0008B6A6A1E23B1CE6A03F07C0333431A4337
:100BF00000232C46D1E90065D0F8008005F01F05E0
:100C0000C6F38466AE403243661E42EA0302C0E980
:100C1000192609D1D8F84C6044F20005C0F21045FD
:100C20002E403243C8F84C20D8F80820120714D4BC
:100C3000D8F80C2091F8256091F8265022F4401243
:100C40004FEA455516B12A4305E000BF91F82460EC
:100C500042EA06522A43C8F80C20D8F80820D8F8EF
:100C6000086002F0040206F00806921916D18A6A9A
:100C7000C2B1CA6AB2B191F82520012A1CD1C26D55
:100C80004FF0010C42F02002C26591F83060D8F8B4
:100C90001020012E1ED022F0020223E04FF0000CA3
:100CA000E9E000BF91F82560D8F80C20012E05D1AD
:100CB00042F0007204E000BFD8F80C2022F000726D
:100CC0004FF0000CC8F80C2091F83060D8F81020D4
:100CD000012EE0D1D1E90D6522F4FF7232432A439F
:100CE00042F00202C8F810200D68042608F1140230
:100CF00006EAD55EC5F340668C6852F82660C5F3F7
:100D000004550727AF40B4F1004F26EA070605D186
:100D100042F80E60126842F0004206E0AC403443F4
:100D200042F80E40126822F00042C8F81420D1E9BF
:100D30000425D8F80C60042A70D1D8F86020D8F8BF
:100D400060200C68C2F3846694FAA4F52246B5FAD2
:100D500085F5C4F3846E6FF3DF422C46002A08BF8A
:100D60007446A6424FF6FF74C0F207040ED1D8F8BD
:100D7000602022F00042C8F860200D6805EA0402F5
:100D8000C5F3846E95FAA5F5B5FA85F5D8F86460D3
:100D9000D8F86460002AC6F384662F4608BF7746F9
:100DA000BE420ED1D8F8642022F00042C8F8642078
:100DB0000D6805EA0402C5F3846E95FAA5F5B5FA47
:100DC00085F5D8F86860D8F86860002AC6F38466AC
:100DD0002F4608BF7746BE420ED1D8F8682022F0D1
:100DE0000042C8F868200D6805EA040295FAA5F4E7
:100DF000C5F3846EB4FA84F5D8F86C40D8F86C402A
:100E0000002AC4F3846408BF7546AC4233D1D8F8D5
:100E10006C2022F00042C8F86C202CE0062707EA7C
:100E2000960705FA07FE0E6808F1600555F822409E
:100E30004FF20007C0F2FF3706F0F8463C404EEA9A
:100E40000607274347F0004745F822700A698F6973
:100E500055F8226026F08076374345F822700A69FB
:100E60000F7F55F82260012F26F0007608BF06F1AB
:100E7000007645F82260D8F808200D68D2074ED1D8
:100E8000CF684FF6FF73D8F8B0602A4607F0180411
:100E9000C0F207036FF3DF42E34096432B40334336
:100EA0000026C4F27F06B742C8F8B03037D18AB105
:100EB00095FAA5F2B2FA82F2013202F01E03092B72
:100EC00002F01F020FD80123934002EB420243EAD3
:100ED000025214E0012202EB956202F01E030A2B7B
:100EE00002F01F02EFD301230027934002EB4202DE
:100EF000CFF6206707EB02521A4342F00072C2F3AA
:100F0000406708EB87078B687E69C2F304520725A8
:100F10009540AE4303FA02F232437A610D68002134
:100F2000C8F208010D4216D040F20831C5F20001A6
:100F30000C680022CCF22132954204F0E07204D019
:100F40001023C9F2C0039D420CD1B8F1A04F08BFD5
:100F500014F4000316D0002180F85810604601B048
:100F6000BDE8F0810023CCF252739D4242D10023B0
:100F7000B3EB126F3ED1A1F502739845EBD04FF061
:100F8000807345E00B6823F0E0731A4342F40002DB
:100F90000A6040F20801C2F20001096842F6635299
:100FA0008909C0F23E52A1FB0212910901EB4101F5
:100FB000182202EB8101009100990029CBD000BFDB
:100FC00000990139009100990029C4D00099013994
:100FD000009100990029BED0009901390091009933
:100FE0000029B8D000990139009100990029E7D172
:100FF000B1E700BFA1F502739845ACD00023CCF651
:1010000084339D4208BF14F48003A4D14FF48003BD
:101010000F6827F0E0773B431A430A609BE7000024
:10102000B0B52DED028B40F2AC05C2F20005A8422E
:1010300002D0BDEC028BB0BD40F24804C2F2000405
:101040006078B8B34FF090404FF40041012201F0B6
:10105000C3FD28689FED261AD0F88010D0F88400D0
:1010600040F21810C2F200000068D0F8800094ED41
:10107000010A30EE018A18EE100AFFF7DCF99FED45
:101080001A0B53EC102BFFF7ADF99FED1A0A00284D
:1010900018BFB0EE480A84ED010A06F021FE4FF0B9
:1010A00090404FF400410022BDEC028BBDE8B040FF
:1010B00001F092BD2078296801302070D1F880209D
:1010C00040F21812C2F200021268C0B2D2F88020B8
:1010D000D1F884100A2824BF01206070BDEC028B77
:1010E000B0BD00BF00BF00BF1F85EB51B81E194047
:1010F0000AD7233C000000007047000070B540F2A2
:101100000015C5F200050446D5F80862006881683C
:10111000090744BF022070BDC168C06C10F4C07FD5
:1011200008D1002906D4E06D40F02000E0650120E0
:1011300070BD00BF94F85800012804BF022070BDA4
:10114000012084F858002046FFF7F6FB20B100216B
:1011500084F8581070BD00BFE06D43F20101C00576
:1011600046BF206E20F0080000202066E06D884316
:1011700000F58050E065206806F01F01A84207D105
:1011800031B160222A60002284F858200DE000BFAF
:10119000E26DA84222F48012E2654FF06002026024
:1011A0004FF0000284F8582007D1072914D80122F3
:1011B00002FA01F111F0C10F0ED0C168890144BFDC
:1011C000002070BD81684FF6C072C7F6FF721140F3
:1011D00008318160002070BDE06D40F48010E06552
:1011E000002070BD70B540F20015C5F20005044640
:1011F000D5F8086200688168090744BF022070BD05
:10120000C168C06C10F4C07F08D1002906D4E06D1D
:1012100040F02000E065012070BD00BF94F8580048
:10122000012804BF022070BD012084F85800204628
:10123000FFF782FB20B1002184F8581070BD00BF79
:10124000E06D43F20101C00546BF206E20F00800AA
:1012500000202066E06D884300F58050E06520683E
:1012600006F01F01A84200D119B9E26D22F48012E4
:10127000E26560220260002284F85820C26892026F
:1012800003D5426842F480624260A26943686FF00D
:101290004006082A08BF6FF0200603EA06034360F1
:1012A0004FF02002436808BF40221A43A842426020
:1012B00007D1072914D8012202FA01F111F0C10F58
:1012C0000ED0C168890144BF002070BD81684FF60F
:1012D000C072C7F6FF72114008318160002070BDF6
:1012E000E06D40F48010E065002070BD70470000A4
:1012F0007047000090F85820012A04BF0220704770
:1013000070B582B00022019200920268B2F1A04F43
:1013100030D140F208324FF6006C4FF60055C5F25E
:101320000002CFF6FF7CCFF6FF7552F80C40535900
:1013300023435B071ED4D1F800E01368BEF1000F11
:1013400023F4604424D04B6890F8386043EA463375
:1013500023431360535952F80C603343DB0723D106
:10136000136840F61F768968B343194341EA0E01BA
:1013700019E000BFC16D41F02001C16501210022CB
:1013800080F8582002B0BDE870400846704700BFA2
:101390001460515952F80C301943C90704D111682F
:1013A00040F61F73994311600021E8E7F0B581B062
:1013B0000022009290F85820012A03D10221084609
:1013C00001B0F0BD0123076880F85830BB685B07A7
:1013D00034D4D1E900351F26C5F3012407EB84047A
:1013E000226B05F01F05AE40C3F38463B243AB40EC
:1013F0001A432263BA68BB6802F0040203F00803D0
:10140000D21840F0BC800A6807F114030426C2F326
:101410004064D1F808E006EAD25C53F82440C2F3F5
:1014200004550722AA40BEF1004F24EA02040BD162
:1014300043F80C401A6842F000430DE0C16D41F0E2
:101440002001C165012178E10EFA05F2224343F83B
:101450000C201A6822F000437B61D1E90435FC6856
:10146000042B5FD13A6E3A6E0B68C2F3846293FA32
:10147000A3F6C3F3846C6FF3DF43B6FA86F5002B53
:101480002C464FF6FF7E08BF6446A242C0F2070E0C
:101490000CD13A6E22F000423A660A6802EA0E0364
:1014A000C2F3846C92FAA2F2B2FA82F57A6E7A6E84
:1014B000002BC2F384622C4608BF6446A2420CD1C2
:1014C0007A6E22F000427A660A6802EA0E03C2F3DC
:1014D000846C92FAA2F2B2FA82F5BA6EBA6E002B5E
:1014E000C2F384622C4608BF6446A2420CD1BA6E95
:1014F00022F00042BA660A6802EA0E03C2F3846C64
:1015000092FAA2F2B2FA82F5FA6EFA6E002BC2F3E8
:10151000846208BF6546AA4231D1FA6E22F00042C9
:10152000FA662CE0062202EA940205FA02FC0E6832
:1015300007F1600555F823404FF20002C0F2FF3278
:1015400006F0F846224046EA0C06324342F00042DA
:1015500045F823200A698B6955F8226026F08076C9
:10156000334345F822300A690B7F55F82260012B7E
:1015700026F0007608BF06F1007645F82260BA68CA
:101580000D68D20750D1CA68D7F8B0602B466FF308
:10159000DF4326EA030C4FF6FF7602F01804C0F290
:1015A0000706E64000242E40C4F27F0446EA0C06FB
:1015B000A242C7F8B06037D193B195FAA5F2B2FA5A
:1015C00082F2013202F01E03092B02F01F0310D831
:1015D00001229A4003EB430342EA035315E000BFA4
:1015E000012202EB956202F01E030A2B02F01F0398
:1015F000EED3012200269A4003EB4303CFF6206688
:1016000006EB03531A4342F00073C3F3406607EB43
:1016100086068A687569C3F3045307249C40A54372
:101620009A402A4372610D680021C8F208010D42F8
:1016300000F0828040F2083CC5F2000CDCF800406B
:101640000021CCF221318D4204F0E07E04D0102143
:10165000C9F2C0018D4241D1B7F1A04F4FF0000156
:1016600008BF14F4000268D1DCF8001042F663529F
:1016700021F0E07141EA0E0141F40001CCF80010C4
:1016800040F20801C2F200010968C0F23E52890925
:10169000A1FB0212910901EB41010C2202EB810135
:1016A00000910099002947D00099013900910099D3
:1016B000002941D00099013900910099E1B30099C6
:1016C000013900910099B9B300990139009100994D
:1016D00000294FF00001E7D12FE000BF0021CCF23C
:1016E00052718D4210D10021B1EB1E6F0CD1ACF5BF
:1016F00002718F4220D0DCF8001021F0E07141EA45
:101700000E0141F0807115E0ACF502718F424FF08F
:10171000000112D00022CCF68432954208BF14F4A6
:1017200080020AD1DCF8001021F0E07141EA0E01DC
:1017300041F48001CCF800100021002280F85820EC
:10174000084601B0F0BD000070470000704700007F
:101750002DE9F047056840F20018C5F200082E6830
:10176000D5F804A0D8F808720446B0070FD51AF0CF
:1017700002000CD0E06DC00603D4E06D40F40060C0
:10178000E0652046FFF7EAF9256802202860700727
:1017900007F01F0902D51AF0040004D1300749D51B
:1017A0001AF0080046D0204650F85C2FD20603D429
:1017B000026842F400720260EA6812F4406F33D1AA
:1017C0002A46454508BF4FF0A0421346B9F1090F1C
:1017D00008BF2B46B9F1050F08BF2B46B9F1000F22
:1017E00008BF2B46AA4208BF1346DA6892041BD4EE
:1017F0002A68120718D5AA6852070BD46A6822F023
:101800000C026A60016821F4807101600168C904FA
:1018100006D509E0E06D40F01000E06504F16000DD
:10182000016841F0010101602046FFF78DFF256846
:101830000C202860B00602D51AF0200004D17006F2
:101840002CD51AF0400029D0204650F85C2FD20643
:1018500003D4026842F4005202602946EF6CEA6841
:10186000454508BF4FF0A0410B46B9F1070F08BF2F
:101870002B46B9F1060F08BF2B46B9F1000F08BF80
:101880002B46A94208BF0B46DB6817F4C07F6BD01C
:101890002046FFF7C5FB25686020286030060CD580
:1018A0001AF0800009D0E06D40F48030E0652046F9
:1018B00000F0ACF9256880202860F0050DD51AF4F9
:1018C00080700AD0E06D40F40030E0652046FFF7FC
:1018D0000DFD25684FF480702860B0050DD51AF411
:1018E00000700AD0E06D40F48020E0652046FFF7EC
:1018F000FFFC25684FF400702860F0061AD51AF036
:10190000100017D0E06B38B1B9F1000F4ED0D8F805
:10191000080210F4604F0BD0E06D40F48060E06589
:10192000206E40F0020020662046FFF70FFF25687A
:1019300010202860700558BFBDE8F0871AF4806059
:1019400010D0E06D4FF4806140F48040E065206E7F
:1019500040F00800206620462960BDE8F047FFF708
:10196000CBBB00BFBDE8F087990106D502F440610A
:1019700003F4005289187FF48BAF296849067FF57C
:1019800087AF13F400117FF483AFA968090711D45E
:10199000696821F060016960016821F4805101608B
:1019A0000168C9053FF574AF0AE000BFE868C007E9
:1019B000B2D1BDE7E06D40F01000E06504F16000D9
:1019C000016841F00101016062E70000B0B582B03A
:1019D0000446002001904CB1E06D58B12168886840
:1019E000800012D48868C00019D54CE0012002B0F4
:1019F000B0BD00BF204600F00BF90020206684F83F
:101A00005800216888688000ECD588684FF6C0725D
:101A1000C5F6FF72104088608868C00033D44FF666
:101A2000C0728868C5F6FF7202F18052104000F162
:101A30008050886040F20800C2F20000006842F660
:101A400063528009C0F23E52A0FB020290090222BA
:101A500002EB400001900198A8B100BF0198013845
:101A60000190019878B1019801380190019850B126
:101A7000019801380190019828B10198013801902E
:101A800001980028EAD18868C00009D4E06D40F0D0
:101A90001000E065206E40F001002066012000E0AB
:101AA00000208A68E36D02F0040203F01003D218EC
:101AB000E26D71D122F481720232E2658A68D20746
:101AC0001AD140F2083C4FF600534FF60062C5F2BF
:101AD000000CCFF6FF73CFF6FF725CF803305CF8B2
:101AE00002201A43D20707D16268DCF8003023F4E1
:101AF0007C131A43CCF8002094F81DE0E36BD4E982
:101B000002C243EA4E331A4394F8243042EA0C02EC
:101B1000012B42EA034207D1D4F828C00023CFF6B4
:101B2000FE7303EB4C431A43E36A33B1D4F830C07D
:101B300003F4787343EA0C031A43D1F80CC044F25F
:101B40000703CFF6F07303EA0C031A43CA600A696D
:101B5000636B22F040621A430A618A68120744D418
:101B600094F83820237F520042EA833CCB6844F249
:101B7000020223EA020242EA0C02CA6022690B69ED
:101B800082B143F480330B61D1F8C0C043F6FF73D8
:101B90002CEA03031A430DE042F010010120E16535
:101BA00002B0B0BD23F480320A61D1F8C02043F600
:101BB000FF739A43C1F8C02094F840300A69012BA2
:101BC00010D140F2FD7322EA030CD4E91132D4E9BA
:101BD00013E543EA0C031A4342EA0E022A4342F099
:101BE000010201E022F001020A6162690B6B012A25
:101BF00023F00F0202D1236A013B1A430A63E16D0D
:101C0000012262F30101E16502B0B0BD704700003E
:101C100010B598B0044600201790CDE91500CDE925
:101C2000130002A84421FEF72BFB206840F20011AC
:101C3000C5F2000188424BD0B0F1A04F40F0868041
:101C40004FF4004002904FF00050119002A801F0B4
:101C50001FFA002818BFFEF70BFF40F2A801C2F2DE
:101C600000010A6841F24C00C4F20200531C0B60F0
:101C700042B9016841F400510160016801F400516A
:101C8000019101990168032441F00101016001689B
:101C900001F0010101910199016841F00201016027
:101CA000006813A900F0020001900198042013902D
:101CB000002015904FF09040149400F0B7FE41F2D0
:101CC0000200CDE9130440F20040C4F6000030E009
:101CD0004FF4004002904FF00050119002A801F024
:101CE000D7F9002818BFFEF7C3FE40F2A801C2F2E0
:101CF00000010A6841F24C00C4F20200531C0B6060
:101D000042B9016841F400510160016801F40051D9
:101D100001910199016841F001010160006800F042
:101D200001000190019841201390032014904FF07E
:101D300090400021159113A900F078FE1220002197
:101D4000002200F0C5FF122000F0B0FF18B010BD57
:101D5000036840F20021C4F201018B4240F21441B9
:101D6000C4F2010108D040F20422C4F201029342FD
:101D700006D14FF480020BE04FF4001208E000BFE0
:101D8000A1F5037C4FF08042634508BF4FF000523D
:101D90000B68134214BF0A60704700F0E3B80000FC
:101DA000B0B582B004460020002C019068D02168B4
:101DB0000868002864D4607F30B900202077206252
:101DC000204600F09DF82168D1F800C0D4E9012335
:101DD0006569D4E9030E1A432A4310430A6847F69B
:101DE0000F63CFF6007340EA0E001A4010430860FC
:101DF000086800022DD51CF400002AD140F208002A
:101E0000C2F20000006842F663528009C0F23E52FE
:101E1000A0FB0202900900EB8000142202EB80007C
:101E200001900198A8B100BF019801380190019874
:101E300078B1019801380190019850B101980138AA
:101E40000190019828B1019801380190019800286B
:101E5000EAD140F20020C4F20100814240F2044085
:101E6000C4F2010010D040F20422C4F201029142F7
:101E70002AD14FF48002A1695FEA817C0AD12FE068
:101E8000012002B0B0BD00BF4FF40012A1695FEAAB
:101E9000817C25D0CB06436854BF934313434360F2
:101EA00083688D0654BF9343134383600261BCF182
:101EB000000F036854BF93431343C907036012D054
:101EC00050F8041C114311E0A0F5FE734FF080425E
:101ED000994208BF4FF00052A1695FEA817CD9D1D5
:101EE00001689143016050F8041C914340F8041CC0
:101EF000607F002804BF01206077002002B0B0BDE1
:101F000080B586B0006840F20022C4F201020021D0
:101F100090420591049101D006B080BD41F24C0081
:101F2000C4F20200026842F002020260006800F09F
:101F3000020000900098022001900320CDE90201E8
:101F400040F20040C4F6000001A900F06FFD4020FF
:101F50000021002200F0BCFE402000F0A7FE06B0E9
:101F600080BD0000704700002DE9F04104460028C4
:101F70004FF0010000F0EA800D46002900F0E680F5
:101F8000607901284FF0020008BFBDE8F08101210F
:101F900061712071A8681646042819D100F022FE4C
:101FA00021684A6B07469EB3B2F1FF3F05DD686AC0
:101FB000486431E0486B0028F9D500F013FEC01BDF
:101FC00021680228F6D3486BB0F1FF3FF2DC79E0DC
:101FD0002168E869012837D1886B06F010061F22B6
:101FE0002B6AB240904303FA06F210438863D1F89B
:101FF0003CC0A96901292ED0022903D14FF0010864
:102000002BE000BF6969B1FA81F14FEA511824E071
:1020100010044ED4686A0864886C06F0100240F21E
:10202000FF33D5E90A7C9340984307FA02F318433B
:102030008864C86CFF23934098430CFA02F2104363
:10204000C864E8690128C7D006F01006D1F83CC082
:10205000A9690129D0D14FF00008AA686B692879D5
:1020600040F2073742EA080207FA06FE697942EAB7
:102070000307012808BF47F48077012908BF47F408
:1020800000776FF44040296880EA0E00022900EAD8
:102090000C081FD101F0B8FA46F60101C0F689110B
:1020A00088421BD348F4004820E000BF486B00047E
:1020B000B0D500F097FDC01B21680228F6D3486B0D
:1020C0000004F3D5206940F008002061032020714E
:1020D000BDE8F08148EA010808E000BF4BF200418A
:1020E000C0F2C441884288BF48F4804807FA06F12C
:1020F000206841EA0801C1634FF480410268B140A1
:1021000022EA01010160016840F6FE72D5E9033759
:10211000B240914303FA06F211430160C021026804
:10212000B14022EA01010160C3F3830107F03C02E0
:1021300041EA8211026E40F60F73B3409A43B140F8
:10214000114301660120207100206071BDE8F0811B
:10215000002804BF0120704710B50446007920B95B
:1021600000206071204600F007F802202071002056
:1021700001212061217110BD006841F20001C5F20A
:102180000001884218BF704781B041F24C00C4F290
:102190000200016841F480210160006800F48020A1
:1021A0000090009801B07047014690F82500022881
:1021B00028D180B50868D1E910CE8A6C036823F075
:1021C0000E030360136823F480731360026822F027
:1021D000010202600EF01F00012202FA00F0CCF8AA
:1021E0000400D1E913205060486D30B1026822F438
:1021F00080720260D1E9160242600020BDE8804092
:1022000003E000BF0420C8630120012281F82520DB
:10221000002281F82420704790F82510022931D13E
:1022200080B50168D0E910CE826C0B6823F00E03F4
:102230000B600B6823F001030B60116821F48071BF
:1022400011600EF01F02012101FA02F2CCF8042005
:10225000D0E913325A60426D32B1136823F48073AF
:102260001360D0E91623536080F82510826B00219B
:1022700080F824100AB190470021BDE8804008464C
:10228000704700BF0421C1630121002280F825109E
:1022900080F8242008467047B0B5D0E910C3026822
:1022A000DCF8001003F01F030424D2F800E09C4087
:1022B0000C4218BF1EF0040522D102249C400C429F
:1022C00018BF1EF0020529D1D940090724D51EF0F8
:1022D000080108BFB0BD116821F00E011160012195
:1022E00001FA03F2CCF80420C16380F82510416B99
:1022F000002280F8242079B1BDE8B040084700BF33
:102300001168890603D4116821F004011160CCF82A
:102310000440016B0029EFD1B0BD00BF11688906F0
:1023200006D4116821F00A011160012180F82510FE
:10233000CCF80440C16A0022002980F82420DBD1B7
:10234000EAE7000000284FF0010100F08E802DE93F
:10235000F04740F2000CC4F2020C03684FF6F8326A
:102360000CF5816ECBF6FD72734538BF02F58062C5
:102370004CF6CD441A44CCF6CC44A2FB042803F01E
:10238000FC02A2F10802A2FB04290CF580656FF0A3
:102390000304D0E90262D0F810A03CBF0025C4F2CB
:1023A000020504EA9804C0E91054022580F825507B
:1023B0001D6847F6F07725EA07073A43476942EA7E
:1023C0000A0285693A43C7692A43056A3A432A43A0
:1023D00032431A600CF50262734538BF0CF5006297
:1023E000A3180CF50862C264C9F3041240F6840C09
:1023F00001FA02F2B6F5804FC4F2020C8364026562
:1024000006D1002141601960CCF800201EE000BF19
:1024100041685FFA81FE013903294FF00001C3F8DA
:1024200000E0CCF8002011D8AEF101020CEB8207DD
:1024300047F87C1F02F01F01012202FA01F30CF1A0
:10244000BC023946CCF8C03002E000BF00220023B5
:1024500000F1540C8CE80E0000210122C16380F8C9
:10246000252080F82410BDE8F0470846704700009A
:1024700090F824C0BCF1010F47D04FF0010C80F858
:1024800024C090F825C0BCF1010F3BD12DE9F041EB
:102490004FF0020C80F825C04FF0000CC0F83CC093
:1024A000D0F800C000F14C0E9EE83040DCF800602F
:1024B000BEF1000F26F00106CCF8006065601CBF7D
:1024C000D0E916456560D0E91056012706F01F06D1
:1024D000846807FA06F6D0F830806E60CCF80430D5
:1024E0000B46102C04BF13460A46CCF80830CCF833
:1024F0000C20DCF80010B8F1000F09D041F00E01FB
:102500000EE000BF002180F824100220704700BFB9
:1025100021F00401CCF80010DCF8001041F00A01B1
:10252000CCF80010806C0168C90303D5016841F440
:1025300080710160BEF1000F05D0DEF8000040F4AC
:102540008070CEF80000DCF8000040F00100CCF80C
:1025500000000020BDE8F081B0B5044600F042FB69
:10256000054640F20000C2F200004068611C18BF3E
:10257000044400BF00F036FB401BA042FAD3B0BDBC
:102580007047000070470000704700002DE9F04FD1
:1025900085B004460068016D426DD0F850B0456DBD
:1025A000076D466D036D01EA02080493436D0393C2
:1025B000036D0293436D0193D0F854A0D0F850906E
:1025C0005FEA496307D51AF0400104D04021016554
:1025D0002046FFF7D9FF0BEA050B5FEAC95008F464
:1025E000E0550ED51AF480700BD02068D0F8D810C2
:1025F000D0F8E02011404FF480720265204600F0D0
:10260000FFF937400BF007062DB120682946056514
:10261000204600F0F9F907F038052EB12068314660
:102620000665204600F0E4F92DB1206829460565CD
:10263000204600F0DFF95FEA895009D51AF40070EE
:1026400006D020684FF400710165204600F0DEF9E5
:102650005FEA09600DD51AF080000AD02068D0F832
:10266000D410D0F8DC20114080220265204600F012
:10267000C9F95FEA894009D51AF4005006D02068EC
:102680004FF400510165204600F0B8F95FEA0940B7
:10269000DDE9011000EA010509D51AF4004006D071
:1026A00020684FF400410165204600F0A5F9DDE9FE
:1026B000031008405FEA494105F460210AD51AF485
:1026C000804207D022684FF480431365226E42F0A7
:1026D0008002226600F4710521B120680165204660
:1026E000FFF750FF25B120680565206E284320665E
:1026F000206E28B1204605B0BDE8F04FFFF740BF7F
:1027000005B0BDE8F08F0000002804BF012070472D
:1027100070B5044690F85C0028B9002084F85D008C
:10272000204600F017F92068816921F010018161CD
:1027300000F058FA054600BF20688169090705D5F1
:1027400000F050FA401B0B28F6D310E0816941F0ED
:102750000101816100F046FA054600BF21688869E1
:10276000C0070DD100F03EFA401B0B28F6D3206EB7
:10277000032140F001002066012084F85C1070BD48
:102780004AF200408A69C4F20000A0F5804342F09A
:10279000020299428A6105D162684CF20013CFF6B9
:1027A000FF73C250227C8B69012A23F0400318BFBB
:1027B00040338B61627C8B69012A23F4804308BF1C
:1027C00003F580438B61A27C8B69012A23F480533B
:1027D00018BF03F580538B618D69D4E902E325F4BA
:1027E000407545EA0E058D618D6925F0A4058D6162
:1027F0000D6925F010050D61A3B1012B0ED0022B40
:1028000009D08D69032B45F080058D610D6945F078
:1028100010050D6106D1202301E000BF04238D695E
:102820002B438B61D4E90535D4E907266FF0FF0C03
:10283000013D0CEB022242EA4562751E2A43002547
:10284000CFF6FF7505EB03431A43BEF5407FCA611F
:1028500010D1D4E909E3D4E90B62013B0CEB062665
:1028600033436FF00F0606EB02121A4305EB0E43DB
:102870001A43CA6004F134064CCED1F8C0502E433E
:10288000C1F8C0602064D1F880604AF2704526F437
:10289000F816C4F2000546EA0242C1F880206564D9
:1028A000D1F8802022F0706242EA0362C1F88020F1
:1028B00005F14001A16405F58C71E16405F5F8713D
:1028C000216505F502716165002105F5037200BF00
:1028D000C0E90011C0E90211C0E90411C0E9061104
:1028E000C0E90811C0E90A11C0E90C11C0E90E11D4
:1028F000C0E91011C0E91211C0E91411C0E91611A4
:10290000C0E91811C0E91A11C0E91C11C0E91E1173
:10291000C0E92011C0E92211C0E92411C0E9261143
:10292000C0E92811C0E92A11C0E92C11C0E92E1113
:10293000C0E93011C0E93211C0F8D010904200F166
:10294000D400C5D300200121A065206684F85C1066
:1029500070BD000010B596B00446684604304021B2
:10296000FDF78EFC206846F20041C4F20001884267
:1029700002D016B010BD00BF4FF4805000904FF051
:1029800000700C90684600F083FB002818BFFEF72B
:102990006FF841F24C00C4F20200C16841F00071CE
:1029A000C160C16801F0007111911199016841F095
:1029B00001010160006811A900F001001190119857
:1029C0004FF4C0501190022012900020CDE9130066
:1029D000092015904FF0904000F028F815200021B4
:1029E000002200F075F9152000F060F916B010BD56
:1029F00070470000704700007047000070470000FB
:102A000070470000704700007047000070470000EA
:102A10007047000040F21441C4F201010A6802420A
:102A200014BF08607047FFF7F3BF00002DE9F04FB7
:102A300082B00D68002D00F0C58000F13847860592
:102A400046EA972741F20046C4F60006062240F205
:102A5000004EB04208BF0522C4F2010E052F38BF58
:102A60003A464FF0000C012400270026009209E0AE
:102A70000D68013635FA06F207F102070CF1040C75
:102A800000F0A08004FA06FB15EA0B08F0D0D1F89C
:102A900004A003230AF003056A1EBB40012A6FEA63
:102AA00003090FD88268CB6802EA0902BB401A43C7
:102AB00082604268CAF3001322EA0B02B3401A4351
:102AC000426003E0032D01D103251FE0C2688B683B
:102AD00002EA0902BB401A43022DC26016D16FF010
:102AE000030202EA560202440CF01C050F23D2F83E
:102AF00020A003FA05FB0B692AEA0B0AAB4043EA64
:102B00000A031362D1F804A00AF00305026805FA6B
:102B100007F302EA09021A431AF4403F0260A7D001
:102B200041F26003C4F202031A684FF6084A42F009
:102B300001021A601A68CFF6FF7A02F001020192D0
:102B4000019A26F00302724452F80A900CF00C0528
:102B50000F23009CAB4029EA030304FA05F52B433D
:102B600042F80A30DEF808204B6842EA080540F2D5
:102B70000C49DC0258BF22EA0805CEF80850C4F21E
:102B80000109D9F800209D0242EA080458BF22EA50
:102B90000804C9F80040DEF804209D0342EA080456
:102BA00058BF22EA0804CEF80440DEF80020DB0318
:102BB00042EA080458BF22EA0804CEF80040012483
:102BC00056E700BF02B0BDE8F08F00000069084082
:102BD00018BF0120704700001823002A08BF2823CF
:102BE000C150704740F2D850C2F2000000687047F0
:102BF00040F2000040F2D851C2F20000C2F20001DF
:102C000040680A68104408607047000080B50320DF
:102C100000F08AF80F2000F009F800281CBF0120FE
:102C200080BD00F029F8002080BD000070B540F2A2
:102C30000006C2F200067168E1B1044640F20800E5
:102C4000C2F200004FF47A720068B2FBF1F1B0FBFF
:102C5000F1F001F0E3F90F2C4FF0010508D838B975
:102C60004FF0FF3021460022002500F031F834609B
:102C7000284670BD012070BD82B041F25800C4F2F8
:102C80000200816841F001018160816801F0010169
:102C900001910199016841F080510160006800F0E4
:102CA00080500090009802B000F0E8B9002848BFBA
:102CB000704700F01F01012202FA01F11C2202EA12
:102CC000D0004EF20012CEF2000281507047000098
:102CD00010B54EF60C5CCEF2000CDCF80030C3F3FD
:102CE000022E8EF00704042C28BF0424BEF1030337
:102CF0004FF0FF3E0EFA04F438BF0023A143994081
:102D00000EFA03F39A43114300F00F0200F16043FF
:102D10000901043A03F564436244002848BF02F104
:102D20000C03197010BD00004EF60C51CEF20001DC
:102D30000A684FF6FF031A4060F30A2242F08060EF
:102D400040F0FD7008607047002804BF0120704704
:102D50002DE9F04381B0044690F83A00052803D1EC
:102D6000012001B0BDE8F08394F83A00022803D1B5
:102D7000012001B0BDE8F08341F26000C4F202001E
:102D8000016843F6116741F0010101600068CEF26D
:102D9000000700F001000090009894F83A00002825
:102DA00004BF002084F83900204600F063F8D4F80E
:102DB000088048F02000602820D1D4E9000CD4F825
:102DC00010E00568E66A25F010052E4306600668E7
:102DD000D4E90952374047EA0C07267D47EA0E0737
:102DE000D4E90C312F43012E08BF47F480773A43D2
:102DF00042EAC34242EA016221E000BFD4E9000E88
:102E0000D4E9039C0668E56A26F010062E430660A6
:102E10000668D4E90953374047EA0E0747EA09072D
:102E2000267D47EA0C07D4E90C122F43012E08BF78
:102E300047F480773B4343EAC14141EA026242EAF8
:102E4000080101608169002909D4816904F118072A
:102E50008CCF21F03F01114319433943816194F82C
:102E60003A00002804BF012084F83A00002001B095
:102E7000BDE8F08380B586B0006840F20831C4F246
:102E8000010188424FF000010591CDE90311CDE920
:102E900001111BD040F20431C4F20101884229D053
:102EA00040F20031C4F2010188423BD141F24C00B2
:102EB000C4F20200016841F001010160006800F005
:102EC0000100009000980E2022E000BF41F24C006B
:102ED000C4F20200016841F002010160006800F0E4
:102EE0000200009000980720019040F20040C4F6D4
:102EF000000010E041F24C00C4F20200016841F011
:102F000001010160006800F0010000900098E020DD
:102F100001904FF09040032102910021039101A9FB
:102F2000FFF784FD06B080BD90B190F83A100529F6
:102F30000ED090F83A1001290AD101680A6842F0CF
:102F400001020A60042180F83A100020704700BF97
:102F500001207047B0F5007F42D0002840F080800B
:102F600047F21400C4F2000050F8141CC26E01F4C1
:102F7000C06122F48072B1F5806FC2662ED150F824
:102F8000141C012262F34A2140F8141C40F208018B
:102F9000C2F200010968322251434DF68362C4F245
:102FA0001B32A1FB0212910C0268520511D54A1C7A
:102FB0000FD0026852050CD559B10268520508D5E8
:102FC000012906D00268520503D50229A1F10401A6
:102FD000EAD10068400544BF0320704700207047D5
:102FE00047F21400C4F2000050F8141CC26E01F441
:102FF000C06142F48072B1F5806FC266EED150F8C4
:10300000141C012262F34A2140F8141C40F208010A
:10301000C2F200010968322251434DF68362C4F2C4
:103020001B32A1FB0212910C0268520511D54A1CF9
:103030000FD0026852050CD559B10268520508D567
:10304000012906D00268520503D50229A1F1040125
:10305000EAD10068400544BF03207047BEE700BFC7
:1030600047F21400C4F2000050F8141C022262F36C
:103070004A2140F8141C00207047000047F2080065
:10308000C4F20000016841F4804101607047000013
:103090002DE9F04182B00446807841F288060007AD
:1030A000C4F2020602D400202FE000BF56F8300C14
:1030B0005FEAC0080BD456F8300C40F0805046F858
:1030C000300C56F8300C00F080500190019847F217
:1030D0000007C4F20007386840F480703860FFF7DA
:1030E00081FD05463868C00500F1D680FFF77AFDFE
:1030F000401B0228F6D90320B8F1000F05D456F87A
:10310000301C21F0805146F8301C2168CA0713D1C9
:103110008A0719D44A071FD40A0725D48A062BD454
:103120004A0631D40A0637D4CA053DD48A0543D4A9
:103130004A0549D457E000BF3268636822F00302B1
:103140001A4332608A07E5D53268A36822F00C0280
:103150001A4332604A07DFD53268E36822F0300252
:103160001A4332600A07D9D53268236922F0C002B7
:103170001A4332608A06D3D53268636922F440620A
:103180001A4332604A06CDD53268A36922F4405210
:103190001A4332600A06C7D53268E36922F4404216
:1031A0001A433260CA05C1D53268236A22F440321C
:1031B0001A4332608A05BBD53268636A22F4402222
:1031C0001A4332604A050ED53268A36A22F44012CF
:1031D0001A43B3F5801F326005D156F87C2C42F4B7
:1031E000801246F87C2C0A050ED53268E36A22F478
:1031F00040021A43B3F5800F326005D156F87C2C9B
:1032000042F4801246F87C2CCA040ED53268236B37
:1032100022F040721A43B3F1807F326005D156F834
:103220007C2C42F4801246F87C2C8A040ED532683D
:10323000636B22F040621A43B3F1006F326005D134
:1032400056F87C2C42F4801246F87C2C4A040ED5A9
:103250003268A36B22F040621A43B3F1006F326010
:1032600005D156F87C2C42F4801246F87C2C0904D7
:103270000ED53168E26B21F040511143B2F1805F0D
:10328000316005D156F87C1C41F4803146F87C1C35
:1032900002B0BDE8F08100BFB06810F4407010D0FB
:1032A000216C88420BD0B068B16820F4407041F4C2
:1032B0008031B160B16821F48031B160B060C00785
:1032C0000CD1B068216C20F440700843B06000203D
:1032D000B8F1000F3FF519AF11E700BFFFF782FC0F
:1032E000054641F2883700BFB0688007E9D4FFF790
:1032F00079FC401BB842F7D9FDE600002DE9F04704
:10330000002865D042F2000AC4F2020A0446DAF844
:1033100000000D4600F00F0088420CD2DAF80000E1
:1033200020F00F002843CAF80000DAF8000000F08F
:103330000F00A8424CD1216841F20808C807C4F226
:10334000020803D1880740F1D480B9E06068022800
:103350003AD0032840D158F8082C920138D5D8F833
:103360000420D8F8043042F20046C3F3031302F0FD
:103370000302D8F804700133C0F2F406032A04BF34
:1033800043F20066C0F26E16B6FBF3F2D8F80430D2
:10339000C7F306277A43C3F34163022707EB4303CE
:1033A000B2FBF3F24BF20043C0F2C4439A425DD940
:1033B000D8F8002012F0F00F4DD0890756D5A1683B
:1033C000002953D147E000BF58F8081C890307D4EF
:1033D0000120BDE8F08700BF58F8081C4905F7D563
:1033E000D8F8001001F00C0104293FD0D8F80010E3
:1033F00001F00C01082939D0D8F8001001F00C01B7
:103400000C2933D1D8F80410D8F8042042F2004730
:10341000C2F3031201F00301D8F804300132C0F204
:10342000F407032904BF43F20067C0F26E17B7FB2D
:10343000F2F1D8F80420C3F306235943C2F34162E2
:10344000022303EB4202B1FBF2F14BF20042C0F265
:10345000C44291420AD9D8F80010082262F3071139
:103460004FF00109C8F8001002E000BF4FF000095A
:10347000D8F8001021F003010843C8F80000FFF756
:10348000B1FB064641F28837D8F80000616800F0C9
:103490000C00B0EB810F07D0FFF7A4FB801BB842F4
:1034A000F2D90320BDE8F0872168880708D4B9F174
:1034B000000F1ED0D8F8000020F0F00017E000BF89
:1034C000480705D5D8F8000040F4E060C8F80000CF
:1034D000080706D5D8F80000072262F30D20C8F8C7
:1034E0000000D8F80000A26820F0F0001043C8F8EF
:1034F0000000DAF8000000F00F00A8421BD9DAF84B
:10350000000020F00F002843CAF80000FFF76AFB14
:10351000064641F2883700BFDAF8000000F00F00DD
:10352000A84207D0FFF75EFB801BB842F4D9032006
:10353000BDE8F0872168480707D5D8F80000E268A1
:1035400020F4E0601043C8F80000080708D5D8F858
:103550000000216920F4605040EAC100C8F8000072
:10356000D8F8000042F20041C0F2F40100F00C0073
:10357000042808462DD0D8F8000000F00C000828D8
:1035800043F20060C0F26E1023D0D8F8002002F0A1
:103590000C020C2A1CD1D8F80420D8F8043002F010
:1035A0000302C3F30313D8F804700133032A08BFDE
:1035B0000146B1FBF3F0D8F80410C7F30627C1F3B6
:1035C00041610222784302EB4101B0FBF1F000E0DF
:1035D0000020D8F8001048F2D872C1F30311C0F6E9
:1035E0000002515C40F2080201F01F0120FA01F1D3
:1035F00040F20000C2F200000068C2F20002116056
:10360000BDE8F047FFF712BB40F20800C2F200002D
:103610000068704740F2080041F20801C2F2000061
:10362000C4F202010068096848F2E872C1F302219D
:10363000C0F60002515C01F01F01C8407047000055
:1036400040F2080041F20801C2F20000C4F2020197
:103650000068096848F2E872C1F3C221C0F60002AE
:10366000515C01F01F01C8407047000041F20C019D
:10367000C4F2020151F8040C42F20042C0F2F4021A
:1036800000F00C000428104608BF704751F8040CE5
:1036900000F00C00082843F20060C0F26E1025D044
:1036A00051F8043C03F00C030C2B1CBF00207047A6
:1036B00080B5D1F800C00B680CF0030CC3F3031EF7
:1036C0000B680EF1010EBCF1030F08BF024609683A
:1036D000B2FBFEF0C3F30623C1F34161022258435B
:1036E00002EB4101B0FBF1F0BDE880407047000003
:1036F000002804BF012070472DE9F04182B0044644
:10370000007841F20006C007C4F202061ED12078FC
:1037100080073DD42078000764D42078400700F16A
:1037200087802078800600F1D980E569002D00F0BF
:103730004482B06800F00C000C2840F03181012D6B
:1037400040F09081012002B0BDE8F081B06800F047
:103750000C01F068082961D0032281F00C0122EAF3
:1037600000000844B0FA80F0400957D16068B0F515
:10377000803F07D0B0F5A02F40F0E480306840F4DF
:1037800080203060306840F480303060E5E000BF79
:10379000B068F16800F00C00042871D001F003015A
:1037A00080F00C0081F002010844B0FA80F040097A
:1037B00066D1E1683068002900F0E08040F4807054
:1037C0003060FFF70FFA05463068400500F10A81C6
:1037D000FFF708FA401B0228F6D9032002B0BDE823
:1037E000F08100BF6169D6F89400002900F0948050
:1037F00040F00100C6F89400FFF7F4F9054600BF59
:10380000D6F8940080073FF588AFFFF7EBF9401B2F
:103810000228F5D9032002B0BDE8F08130688003AA
:103820007FF575AF606800287FF471AF3EE000BFA0
:10383000B06D5FEAC00808D4B06D40F08050B0654C
:10384000B06D00F080500190019847F20007C4F27B
:1038500000073868C0052DD4386840F4807038609F
:10386000FFF7C0F9054600BF3868C00522D4FFF74E
:10387000B9F9401B0228F7D9032002B0BDE8F08156
:103880003068400501D5E06880B17068216920F09A
:10389000FE4040EA0160706040F20000C2F20000A9
:1038A0000068FFF7C3F900283FF434AF012002B0ED
:1038B000BDE8F081A068012808D0052840F0B0805C
:1038C000D6F8900040F00400C6F89000D6F89000BA
:1038D00040F00100C6F89000B0E000BFA169D6F842
:1038E0009800002900F0868040F00100C6F898009A
:1038F000FFF778F9054600BFD6F8980080073FF536
:1039000014AFFFF76FF9401B02284FF00300F3D903
:1039100002B0BDE8F08100BF20F00100C6F89400BD
:10392000FFF760F9054600BFD6F8940080077FF5E1
:10393000F4AEFFF757F9401B0228F5D9032002B077
:10394000BDE8F0813168002821F4803131603168B0
:1039500021F48021316000F0BF80FFF743F9054674
:10396000306880033FF5D3AEFFF73CF9401B642875
:10397000F6D9032002B0BDE8F08100BF20F48070CA
:103980003060FFF72FF90546306840057FF5C2AE7D
:10399000FFF728F9401B02284FF00300F4D9B7E7DE
:1039A000306820F080703060FFF71CF9022D05466A
:1039B0000CD100BF3068800140F1BA80FFF712F9E6
:1039C000401B02284FF00300F4D9A1E730688001C2
:1039D00040F1EC80FFF706F9401B02284FF003008E
:1039E000F4D995E77068216920F0FE4040EA016053
:1039F00070608FE620F00100C6F89800FFF7F2F83B
:103A0000054600BFD6F8980080077FF58EAEFFF719
:103A1000E9F8401B02284FF00300F3D978E700BF14
:103A2000D6F89010002821F00101C6F89010D6F8C1
:103A3000901021F00401C6F890105DD0FFF7D2F885
:103A4000054641F2883700BFD6F89000800765D45C
:103A5000FFF7C8F8401BB842F6D9032002B0BDE812
:103A6000F08100BFF068216A00F003028A427FF40F
:103A70001DAF626A6FF00F0300F0F00103EB02125A
:103A800091427FF413AFA16A00F4FE42B2EB012F22
:103A90007FF40CAFE16A00F07842B2EBC16F7FF4C3
:103AA00005AF226B0023CFF6E07303EA025200F465
:103AB000C001A2F5001291427FF4F8AE616B4FF0A5
:103AC0007E4202EA016100F0C06001F17E4188425D
:103AD0007FF4ECAE71E000BFFFF784F8054600BF4D
:103AE000306880037FF513AEFFF77CF8401B642835
:103AF0004FF00300F4D90BE7FFF774F8054641F2E5
:103B0000883700BFD6F89000800707D5FFF76AF81E
:103B1000401BB8424FF00300F4D9F9E6B8F1000FAA
:103B20003FF5FFADB06D20F08050B065F9E500BF06
:103B3000F06848F20C01C0F29F1104F1200700EA7E
:103B4000010C8ECF6FF00F00D4E90C5400EB021083
:103B50000022CFF6E07241EA0C0102EA0552084366
:103B6000A2F500124FF07E4540EA032005EA046505
:103B7000104305F17E4540EAC7602843F060306895
:103B800040F080703060F06840F08070F060FFF7C7
:103B900029F80446306880010FD4FFF723F8001B92
:103BA00002284FF00300F5D9B2E600BFF0684FF6E7
:103BB000FC71CFF6EE610840F060002002B0BDE875
:103BC000F0810000002804BF01207047B0B5044612
:103BD000406A28B10020206104F1140006E000BF13
:103BE0006068B0F5827F03D004F11C000021016001
:103BF0000025A56294F85D0020B9204684F85C5049
:103C000000F052F8022084F85D002068D4F80CE03F
:103C10000268BEF5E06F22F0400202604EF40062DE
:103C200098BF0125B2F5706F1CBF0023A3624FEA55
:103C3000053CD4E90135D4E9042103F4827305F489
:103C400004452B4402F002021A44A36901F0010169
:103C5000E569114403F40072114405F03802256A45
:103C6000114405F08002A56A114405F40052114385
:103C700001600421626A0EF4706501EA1341636B0E
:103C800045EA0C0502F01002294303F00803114332
:103C900019434160C16921F40061C1610020012123
:103CA000206684F85D10B0BD006843F20001C4F2E4
:103CB0000101884218BF704780B586B041F24C00C0
:103CC000C4F20200416941F480514161416901F44B
:103CD000805101910199016841F002010160006881
:103CE00001A900F002000190019838200190022003
:103CF00002900020CDE903000520059040F200402D
:103D0000C4F60000FEF792FE06B0BDE880407047A2
:103D10002DE9F04381B0044690F85C00012803D1FE
:103D2000022001B0BDE8F08301201E4615460F4673
:103D300084F85C00FEF756FF94F85D108146012977
:103D40000CD1002F4FF0010018BF002D14D100211D
:103D500084F85C1001B0BDE8F08300BF6068B0F586
:103D6000827F40F0B18004294FF00200EFD1A168BA
:103D70000029E6D0EBE700BF002EE8D094F85D0004
:103D800004281CBF052084F85D00002020662564FF
:103D9000A4F84660A4F84460A763E687C4E913006A
:103DA0002068A687E1684268B1F5E06F22F480528E
:103DB000134698BF03F58053012E88BF1346436016
:103DC0000268520603D4026842F040020260626850
:103DD000731EB2FA82F2B3FA83F3DDF8208052093F
:103DE0005B09B1F5E06F43EA020175D931B137F8EB
:103DF000021BC160A763E08F0138E087012518F13D
:103E0000010036D102E000BFFEF7ECFEE08F20B9E2
:103E1000B4F84600002800F0CD802068816889074A
:103E20000CD5E18F51B1012D08D1A16B002531F8DE
:103E3000022BC260A163E18F0139E1878168C90764
:103E4000E2D0B4F846100029DED0C068216C01250C
:103E500021F8020B2164B4F846000138A4F84600AA
:103E6000D2E700BFFEF7BEFEA0EB0900404580F0A0
:103E70009F80E08F20B9B4F84600002800F09A80B7
:103E80002068816889070CD5E18F51B1012D08D1D7
:103E9000A16B002531F8022BC260A163E18F0139CB
:103EA000E1878168C907DDD0B4F846100029D9D070
:103EB000C068216C012521F8020B2164B4F846008A
:103EC0000138A4F84600CDE70220002184F85C10F8
:103ED00001B0BDE8F08300BF89B1E18F02294FF640
:103EE000FE7103D337F8022BC26004E03A78013147
:103EF0000273A06B471CA763E08F0844E08701268C
:103F000008F10105E08F18B9B4F84600002851D037
:103F100020688168890719D5E18FB9B1012E15D1C3
:103F2000E28FA16B022A07D331F8022BC260A16392
:103F3000E18F023908E000BF09780173A16B2068A6
:103F40000131A163E18F01390026E1878168C9074A
:103F500026D0B4F8461019B3B4F84610022913D38A
:103F6000C168226C22F8021B2264B4F846100239A0
:103F7000A4F84610B4F84610012910D8416841F45D
:103F8000805141600BE000BF007B216C0870206C09
:103F900001302064B4F846000138A4F84600012638
:103FA000FEF720FE002DADD0A0EB09004045A9D3BF
:103FB000032029E020464FF4C05142464B4602F010
:103FC000EDF968B9204641464A4602F0A7FA38B9E9
:103FD00020464FF4C06142464B4602F0DFF978B10B
:103FE000206E40F020002066202020660120216EF7
:103FF00051B10120002184F85C1001B0BDE8F083CC
:104000000020216E0029F4D1012184F85D100021E7
:1040100084F85C1001B0BDE8F0830000411E002070
:10402000B0EB116F1CBF012070474EF21002CEF2B0
:10403000000251604EF62351CEF20001F0230B70C6
:1040400007219060116070477047000070470000C2
:104050007047000090F83C20012A04BF02207047FE
:10406000B0B5D1E90232D1E900CE22F47C5223F47A
:10407000705343EA020448F2FF73CEF6F0730EEA7F
:104080000302224303F5006404EA0C0442EA040C30
:104090000C6903F5C05222404C6942EA0C022243EB
:1040A00003F5605422400C6B03F5F04323401A43A0
:1040B0008B6940F2000CCC69CEF6FF7C0CEA03431E
:1040C0001443D0F800C043F20042C4F20102944508
:1040D00043EA040305D042F60042C4F201029445CB
:1040E00016D14FF6FF72CDF60F421A40D1E9083EC5
:1040F000D1E90A410025CDF6F04505EA04542243F2
:1041000023F008531A432EF000531A4342EA0103E6
:104110000021CCF8443080F83C10BDE8B04008469F
:104120007047000090F83C30012B04BF022070471C
:1041300070B513685D1E0F2D1AD84FF0090C4FF0A3
:10414000000E4FF40074DFE805F02E09131D131361
:104150001327131313131313133700BF4FF00A0C55
:104160004FF0010E4FF48064022302291DD12CE090
:10417000002300244FF0000E4FF0000C022914D150
:1041800023E000BF4FF00B0C4FF0020E4FF4006421
:104190000423022909D118E04FF00C0C4FF0030E54
:1041A0004FF48054082302290FD0012902D101685D
:1041B00060310CE0012119E04FF00D0C4FF0040EBE
:1041C0004FF4005410230229EFD1016864310D68C7
:1041D000D2E901269D4302FA0EF21A402A4406FA59
:1041E0000CF3A24323401A440A600021002280F805
:1041F0003C20BDE870400846704700007047000052
:1042000070470000F0B587B0002861D0044690F8F0
:104210003D000D4628B9002084F83C00204600F0FF
:104220005BF8022084F83D002068211D02F004FAAA
:1042300020682968AB68032202F0D8FA20684FF69C
:104240008F778169CFF6FF5721F00C018161696892
:104250008269002611438161416807F1E87241F0EB
:104260008001416081681140816081684FF6F87279
:1042700041F0400181608168CFF6FE72114081609B
:10428000816841F00401816070210091E968CDE905
:104290000466CDE9011669460696039602F05EFAB9
:1042A0002068416839404160416841F050014160F7
:1042B000012084F8480084F83E0084F83F0084F828
:1042C000440084F8450084F83D00304607B0F0BD56
:1042D0000126304607B0F0BD70470000704700006F
:1042E00090F83C20012A4FF002024AD070B580F8C5
:1042F0003D20026843F2004C54689368C4F2010CFC
:1043000042F6004E6245C4F2010E01D0724503D15F
:104310004D6824F470042C434FF68F75CFF6FF558B
:104320000E682C4042F6FF35C4F201053443AA4220
:1043300054600FDCB2F1804F16D040F20046C4F258
:104340000006B24210D040F60006C4F20006B242A7
:104350000AD00EE0724507D044F20006C4F201060E
:10436000B24201D0624504D1896823F08003194329
:1043700091600121002280F83D1080F83C20BDE8CA
:10438000704010467047000041B1082910D0042940
:1043900014BF00F1470200F145020BE090F8442001
:1043A000012A1CBF01207047022280F8442013E03C
:1043B00000F146021278012A1CBF01207047022238
:1043C000082907D0042914BF80F8472080F8452029
:1043D00002E000BF80F84620026801F00F000421CF
:1043E000136A01FA00F023EA00011162116A08431E
:1043F0001062506C42F6FF31C4F2010140F40040FB
:104400008A42506410DCB2F1804F1FD040F200406D
:10441000C4F20000824219D040F60000C4F200004D
:10442000824213D01FE000BF42F60040C4F20100F8
:1044300082420BD044F20000C4F20100824205D057
:1044400043F20040C4F2010082420CD1906807217F
:10445000C0F20101014006294FF0000008D0B1F57B
:10446000803F08BF7047106840F0010010600020D6
:104470007047000010B5026801F00F0E4FF0040CF9
:10448000146A0CFA0EF324EA03031362136A13622C
:10449000146A41F211131C4206D1D2F820C044F232
:1044A00044441CEA040F0DD0146A1C4211D1136A53
:1044B00044F2444423420CD1136823F001031360F7
:1044C00007E000BF546C24F400445464146A1C4296
:1044D000EDD008290CD0042910D000294FF001019B
:1044E00014BF80F8471080F84410002010BD00BFB2
:1044F000012180F84610002010BD00BF012180F886
:104500004510002010BD000070470000002804BFC7
:104510000120704710B5044690F83D0028B90020EE
:1045200084F83C00204600F023F8022084F83D0087
:104530002068211D02F080F8012084F8480084F8EA
:104540003E0084F83F0084F8400084F8410084F87D
:10455000420084F8430084F8440084F8450084F85D
:10456000460084F8470084F83D00002010BD00009C
:1045700080B586B0006840F60001C4F200018842B0
:104580002ED042F60041C4F20101884256D141F2D8
:104590004C00C4F202004169002241F40061416113
:1045A0004069002100F40060019001981820FEF796
:1045B0008FFB1820FEF77AFB192000210022FEF75E
:1045C00087FB1920FEF772FB1B2000210022FEF75B
:1045D0007FFB1B2006B0BDE88040FEF767BB00BF35
:1045E00041F24C00C4F20200C16841F00401C16014
:1045F000C16801F0040101910199016841F00201D3
:1046000001600068002100F00200019001984FF461
:10461000E070019002200290059040F20040CDE948
:104620000311C4F6000001A9FEF700FA1E200021C4
:104630000022FEF74DFB1E20FEF738FB06B080BDC2
:1046400090F83D10012919D1022180F83D10016830
:1046500042F6FF30C4F20100814211DCB1F1804F1B
:1046600020D040F20040C4F2000081421AD040F64F
:104670000000C4F20000814214D020E00120704705
:1046800042F60040C4F2010081420BD044F2000027
:10469000C4F20100814205D043F20040C4F201009F
:1046A00081420CD188680722C0F201020240062A2A
:1046B0004FF00000E3D0B2F5803F08BF70470868B4
:1046C00040F00100086000207047000090F83C2096
:1046D000012A4FF0020200F0AC8080B580F83D2046
:1046E000D0F800C08822DCF80830CFF6CE721A402D
:1046F000CCF808200B686F2B10DD1F22C0F21002CF
:10470000934237DCB3F5005F46DA702B00F09480FB
:10471000B3F5805F00F08480D8E000BF2F2B35DD3B
:104720004F2B3FDC302B6FD0402B40F0CF80D1F8A7
:1047300004E0C968DCF82030DCF8202022F0010217
:10474000CCF82020DCF8182022F0F00242EA011117
:1047500023F00A0242EA0E02CCF81810CCF820200E
:10476000DCF808104FF68872CFF6CF72114047314F
:1047700054E000BF3F21C0F210018B423ADC2021FF
:10478000C0F210018B423FD0302139E0E3B3102B4F
:104790003AD0202B38D099E062D0B3F1101F33D03B
:1047A00094E000BF502B6FD0602B40F08F80D1F889
:1047B00004E0C968DCF82030DCF8202022F0100288
:1047C000CCF82020DCF8182022F4704242EA0131B3
:1047D00023F0A00242EA0E12CCF81810CCF82020E8
:1047E000DCF808104FF68872CFF6CF7211406731AF
:1047F00014E000BF4021C0F210018B4204D07021B0
:10480000C0F210018B4261D1DCF808104FF68872BB
:10481000CFF6CF721140194341F00701CCF80810D0
:104820000022012180F83D10002180F83C10BDE8F5
:1048300080401046704700BFD1E901E3C968DCF849
:10484000082043EA0E0322F47F4243EA0121114388
:10485000CCF80810DCF8081041F07701DEE700BF63
:10486000D1E901E3C968DCF8082043EA0E0322F429
:104870007F4243EA01211143CCF80810DCF808100C
:1048800041F48041CAE700BFD1F804E0C968DCF810
:104890002030DCF8202022F00102CCF82020DCF8C7
:1048A000182022F0F00242EA011123F00A0242EA43
:1048B0000E02CCF81810CCF82020DCF808104FF6C7
:1048C0008872CFF6CF7211405731A7E70122A8E7CF
:1048D00070470000F0B581B004460068C5680669FD
:1048E000B10717D515F0020114D06FF00201016174
:1048F000012121778069800704D02046FFF7E8FF77
:1049000006E000BF204600F01BF9204600F03CFB0B
:1049100000202077700719D515F0040016D0206804
:104920006FF00401016102212177806910F4407F5A
:1049300004D02046FFF7CCFF06E000BF204600F081
:10494000FFF8204600F020FB00202077300717D525
:1049500015F0080014D020686FF0080101610421EF
:104960002177C069800703D02046FFF7B1FF05E03B
:10497000204600F0E5F8204600F006FB00202077F6
:10498000F00619D515F0100016D020686FF0100150
:10499000016108212177C06910F4407F04D02046CE
:1049A000FFF796FF06E000BF204600F0C9F820465A
:1049B00000F0EAFA00202077F00718BF15F0010098
:1049C00006D020686FF001010161204600F014FC60
:1049D00016F4025F05F0800718BF002F02D1F00522
:1049E00009D410E020686FF4025101612046FFF7FE
:1049F0002DFBF00507D537B120686FF48071016198
:104A00002046FFF721FB700609D515F0400006D0BF
:104A100020686FF040010161204600F0EFFBB00616
:104A200009D515F0200006D020686FF02001016143
:104A30002046FFF70DFBF00209D515F4801006D0D3
:104A400020686FF4801101612046FFF7D9FBB002A6
:104A500009D515F4001006D020686FF4001101612B
:104A60002046FFF7CBFB700209D515F4800006D075
:104A700020686FF4800101612046FFF72FFC3002AF
:104A80000CD515F4000009D021686FF4000220460F
:104A90000A6101B0BDE8F040FFF736BD01B0F0BDDE
:104AA000006842F60041C4F20101884218BF704715
:104AB0002DE9F04186B041F24C00C4F202000168D9
:104AC00040F2004441F0020101600168C4F60004B4
:104AD00001F0020101910199016801AD41F001016C
:104AE00001600068022600F00100019001984FF477
:104AF000C040019000274FF0060820462946029644
:104B0000CDE90377CDF81480FDF790FF4FF4004016
:104B100001A9C1C104200590204629460497FDF74C
:104B200085FF4FF4E06001A9C1C14FF090402946D4
:104B3000CDE90478FDF77AFF06B0BDE8F041704793
:104B40007047000090F83C30012B04BF02207047F2
:104B50004FEAB202052A00F293812DE9F041DFE825
:104B600012F007005500A900FD005101950100BF9A
:104B700003681D6A1A6AA3F1804622F001021A62D4
:104B80001A46A6F596369F05D3F804C052F818EFDA
:104B900047EA96268F68D1F8008025F00205072E97
:104BA00045EA07050AD80127B74017F0E50F1FBFF0
:104BB000CF6825F00C0527F004073D43072E0CD8DD
:104BC000012707FA06F616F0E50F1FBFD1E90567C2
:104BD0002CF44074264346EA070C4FF68C74CFF64B
:104BE000FE740EEA040747EA0807C3F804C09F6191
:104BF0004F6809695F631D629F6947F008079F61FD
:104C00009F6927F004079F617EE100BF036843F2BC
:104C100000461D6A1A6AC4F2010622F010021A62E6
:104C20001A46D3F804C052F8188FB3428E68D1F8F0
:104C300000E025F0200545EA061505D042F60046BD
:104C4000C4F20106B34207D1CE686FF0400725F0E9
:104C5000C00507EA06163543A3F18046A6F5963649
:104C60009F0547EA9626072E0CD8012707FA06F675
:104C700016F0E50F1FBFD1E905672CF440643743F8
:104C800044EA870C48F6FF44CFF6FF6404EA0804C0
:104C900044EA0E27C3F804C09F614F6809699F6307
:104CA0001D629F6947F400679F619F6927F48067D1
:104CB0009F6128E1036843F200461D6A1A6AC4F244
:104CC000010622F480721A621A46D3F804C052F820
:104CD0001C8FB3428E68D1F800E025F4007545EAD8
:104CE000062505D042F60046C4F20106B34207D1BC
:104CF000CE6840F2FF47360225F44065BE43354397
:104D0000A3F18046A6F596369F0547EA9626072E1C
:104D10000CD8012707FA06F616F0E50F1FBFD1E9F8
:104D200005672CF44054374344EA071C4FF68C7453
:104D3000CFF6FE7404EA080444EA0E07C3F804C080
:104D4000DF614F680969DF631D62DF6947F00807AB
:104D5000DF61DF6927F00407DF61D5E0036843F214
:104D600000461D6A1A6AC4F2010622F480521A62D1
:104D70001A46D3F804C052F81C8FB3428E68D1F89B
:104D800000E025F4005545EA063505D042F6004618
:104D9000C4F20106B34207D1CE6844F6FF7736036A
:104DA00025F44045BE433543A3F18046A6F596362B
:104DB0009F0547EA9626072E0CD8012707FA06F624
:104DC00016F0E50F1FBFD1E905672CF440443743C7
:104DD00044EA871C48F6FF44CFF6FF6404EA08045F
:104DE00044EA0E27C3F804C0DF614F6809691F64F5
:104DF0001D62DF6947F40067DF61DF6927F48067C0
:104E0000DF6180E00368D3F820C01A6AA3F180470D
:104E100022F480321A621A46A7F596379C055D681F
:104E200052F8508FD1F800E08E6844EA9727072F98
:104E300009D80124BC4014F0E50F1EBF4C6925F4CD
:104E4000803545EA04252CF4003747EA06474FF63B
:104E50008C76CFF6FE76033606EA080646EA0E069C
:104E60005D601E654E6809699E641F621F6D47F094
:104E700008071F651F6D27F004071F6544E000BF8A
:104E80000121002280F83C20084670470368D3F8CF
:104E900020C01A6AA3F1804722F480121A621A46CF
:104EA000A7F596379C055D6852F8508FD1F800E061
:104EB0008E6844EA9727072F09D80124BC4014F0D4
:104EC000E50F1EBF4C6925F4802545EA84252CF4A6
:104ED000001747EA065748F6FF46CFF6FF6606F585
:104EE000407606EA080646EA0E265D601E654E68B4
:104EF0000969DE641F621F6D47F400671F651F6D3F
:104F000027F480671F6509021368194311600021A7
:104F1000BDE8F041002280F83C20084670470000C0
:104F2000002804BF0120704710B5044690F83D00EA
:104F300028B9002084F83C00204600F023F8022025
:104F400084F83D002068211D01F076FB012084F8E3
:104F5000480084F83E0084F83F0084F8400084F85C
:104F6000410084F8420084F8430084F8440084F847
:104F7000450084F8460084F8470084F83D0000208E
:104F800010BD0000704700007047000071B10A1F9B
:104F90008B0743EA9202032A12D8DFE802F00315D6
:104FA000191D00BF00F13F0318E000BF90F83E203C
:104FB000012A1CBF01207047022280F83E202CE00D
:104FC00000F143030AE000BF00F1400306E000BF28
:104FD00000F1410302E000BF00F142031B78012B06
:104FE0001CBF01207047032A08D8DFE802F0030B3A
:104FF0000F1300BF022280F83F200EE0022280F84B
:1050000043200AE0022280F8402006E0022280F8D5
:10501000412002E0022280F84220026801F01F01D4
:105020004FF0010C136A0CFA01F18B431362136AFF
:1050300090050B43A2F18041A1F5963140EA912100
:105040000629136244D80CFA01F010F0650F3FD026
:10505000506C42F6FF31C4F2010140F400408A4234
:1050600050640FDCB2F1804F1ED040F20040C4F219
:105070000000824218D040F60000C4F200008242D4
:1050800012D01EE042F60040C4F2010082420BD072
:1050900044F20000C4F20100824205D043F2004015
:1050A000C4F2010082420CD190680721C0F20101D4
:1050B000014006294FF0000008D0B1F5803F08BF3D
:1050C0007047106840F0010010600020704700BF7A
:1050D00042F6FF30C4F201008242C3DD43F6FF70A6
:1050E000C4F20100824207DC42F60040C4F2010033
:1050F0008242D3D1D8E700BF44F20000C4F20100DD
:105100008242D1D044F60000C4F20100824202BFC4
:10511000506C40F400405064D3E7000010B50268C2
:1051200001F01F0E4FF0010C146A0CFA0EF324EA82
:1051300003031362A2F18043A3F59633940544EA76
:105140009323146A062B146214D80CFA03F313F099
:10515000650F0FD0136A41F21114234210D1136A64
:1051600044F2444423420BD1536C23F40043536470
:1051700006E000BF44F60003C4F201039A42E9D0FE
:10518000136A41F21114234208D1136A44F24444D1
:10519000234203D1136823F0010313604FEAB101E6
:1051A00004290BD8DFE801F00410161C220000BF10
:1051B000012180F83E10002010BD00BF012180F8C1
:1051C0004310002010BD00BF012180F83F100020D7
:1051D00010BD00BF012180F84010002010BD00BFAD
:1051E000012180F84110002010BD00BF012180F88E
:1051F0004210002010BD0000704700007047000002
:1052000090F88410012904BF022070472421C0F8BF
:10521000881002681168136823F00103136021F0FD
:1052200000530021416613602022C0F8882080F8D6
:105230008410084670470000704700007047000067
:1052400090F88420012A04BF02207047B0B52422C0
:10525000C0F888200268D0F864E0D2F800C0136873
:10526000BEF1000F23F001031360936823F0606325
:1052700041EA0301916019D09368916848F6683E4D
:10528000490FC0F6000E48F670351EF80140C0F612
:105290000005695CC3F34263E400B4FBF1F11EF85E
:1052A0000340EB5CE500B5FBF3F301E001210123D2
:1052B000A0F86A102021A0F86830C2F800C0C0F839
:1052C0008810002180F88410BDE8B040084670477F
:1052D00090F88420012A04BF02207047B0B5242230
:1052E000C0F888200268D0F864E0D2F800C01368E3
:1052F000BEF1000F23F001031360936823F06043B5
:1053000041EA0301916019D09368916848F6683EBC
:10531000490FC0F6000E48F670351EF80140C0F681
:105320000005695CC3F34263E400B4FBF1F11EF8CD
:105330000340EB5CE500B5FBF3F301E00121012341
:10534000A0F86A102021A0F86830C2F800C0C0F8A8
:105350008810002180F88410BDE8B04008467047EE
:1053600070470000704700007047000070B501688A
:1053700040F62F03CA69044608688E681340202B44
:105380000CD100F0200306F080555B1917D0616F37
:1053900069B32046BDE87040084700BF40F60F03E0
:1053A0001A420CD00123C1F2000306EA030C40F2BA
:1053B0002013C0F20043034013EB0C0328D1E36E2B
:1053C000D50615D5012B13D110F0100310D01020E5
:1053D00008628868400627D4B4F85C00B4F85E1010
:1053E000B4F85E20002A18BF884240F03F8270BDAA
:1053F000D30240F1D58016F4800300F0D1804FF441
:10540000801220460A62BDE87040FFF7ABBF00BFC4
:10541000D30718BF10F4807340F00C81930706F097
:10542000010E00F113811CE1D4F88000006841688E
:105430008AB2002ADBD0B4F85C309A42D7D2A4F802
:105440005E100068800600F19E80206850E8000F22
:10545000216820F4807041E80002DAB1206850E849
:10546000000F216820F4807041E8000292B12068AA
:1054700050E8000F216820F4807041E800024AB132
:10548000206850E8000F216820F4807041E8000295
:10549000002ADAD1206850E8020F216820F00100CC
:1054A00041E80202BAB3206850E8020F216820F0F8
:1054B000010041E8020272B3206850E8020F21683F
:1054C00020F0010041E802022AB3206850E8020FF0
:1054D000216820F0010041E80202002ADAD11AE036
:1054E000206850E8020F216820F0400041E80202E5
:1054F000DAB1206850E8020F216820F0400041E84E
:10550000020292B1206850E8020F216820F04000AA
:1055100041E802024AB1206850E8020F216820F0F9
:10552000400041E80202002ADAD12020C4F88C00B1
:105530000020E066206850E8000F216820F010008D
:1055400041E80002DAB1206850E8000F216820F03D
:10555000100041E8000292B1206850E8000F216875
:1055600020F0100041E800024AB1206850E8000F26
:10557000216820F0100041E80002002ADAD1D4F8B6
:105580008000FCF711FE02202067B4F85C00B4F83C
:105590005E10401A81B22046BDE87040FFF74CBE55
:1055A000110606D500F0800106F40003C91840F08A
:1055B000DF81510632D510F040012FD0206850E82D
:1055C000000F216820F0400041E80002DAB12068B5
:1055D00050E8000F216820F0400041E8000292B13D
:1055E000206850E8000F216820F0400041E80002E8
:1055F0004AB1206850E8000F216820F0400041E8DF
:105600000002002ADAD120200021C4F888002046B8
:10561000A167BDE8704000F0C3BA00BF110240F1BD
:10562000B38110F0804100F0AF812046BDE87040AA
:10563000FFF796BE01230B62D4F8903043F00103CC
:10564000C4F89030930706F0010E0AD5BEF1000FA2
:1056500007D002230B62D4F8903043F00403C4F85F
:10566000903053070AD5BEF1000F07D004230B6218
:10567000D4F8903043F00203C4F8903013070CD5EF
:1056800000F0200353EA0C0307D008230B62D4F880
:10569000903043F00803C4F8903013050BD510F098
:1056A000806308D04FF400630B62D4F8903043F06D
:1056B0002003C4F89030D4F89030002B3FF497AE1C
:1056C00092060AD500F0200006F08052801804D01F
:1056D000626F12B1204690472168D4F89000896823
:1056E00000F0280001F04001401807D12046FFF7E4
:1056F0003BFE0020C4F8900070BD00BF206850E859
:10570000000F216820F4907041E80002DAB12068AF
:1057100050E8000F216820F4907041E8000292B137
:10572000206850E8000F216820F4907041E80002E2
:105730004AB1206850E8000F216820F4907041E8D9
:105740000002002ADAD14FF6FE70CEF6FF7000BFDD
:10575000216851E8021F2268014042E80213C3B1E8
:10576000216851E8021F2268014042E8021383B118
:10577000216851E8021F2268014042E8021343B148
:10578000216851E8021F2268014042E80213002B01
:10579000DED1E06E012824D1206850E8000F216896
:1057A00020F0100041E80002DAB1206850E8000F54
:1057B000216820F0100041E8000292B1206850E812
:1057C000000F216820F0100041E800024AB1206873
:1057D00050E8000F216820F0100041E80002002A84
:1057E000DAD12020C4F88C000020E06621686067D0
:1057F0008868400640F1C280206850E8020F2168A6
:1058000020F0400041E80202DAB1206850E8020FBF
:10581000216820F0400041E8020292B1206850E87F
:10582000020F216820F0400041E802024AB12068DE
:1058300050E8020F216820F0400041E80202002AEF
:10584000DAD1D4F88000002800F0988046F6D521FF
:10585000C0F600018163FCF7DFFC00283FF4C7AD10
:10586000D4F88000816BBDE870400847401A00BF43
:10587000216851E8001F226821F4907142E800136A
:10588000DBB1216851E8001F226821F4907142E8E1
:10589000001393B1216851E8001F226821F4907130
:1058A00042E800134BB1216851E8001F226821F43F
:1058B000907142E80013002BDAD14FF6FE71CEF65C
:1058C000FF7100BF226852E8022F23680A4043E8B4
:1058D0000226C6B1226852E8022F23680A4043E834
:1058E000022686B1226852E8022F23680A4043E864
:1058F000022646B1226852E8022F23680A4043E894
:105900000226002EDED12021C4F88C100021E16691
:10591000616700BF216851E8001F226821F0100173
:1059200042E80013DBB1216851E8001F226821F032
:10593000100142E8001393B1216851E8001F22686A
:1059400021F0100142E800134BB1216851E8001F1B
:10595000226821F0100142E80013002BDAD1022264
:1059600081B220462267BDE87040FFF765BC00BFEA
:10597000A16F00297FF40DAD39E500BF2046BDE8D9
:105980007040FFF7F1BC00BFD1017FF530ADB0F141
:10599000FF3FC8BF70BD2046BDE87040FFF74EBC5A
:1059A00010B5D0B10446D0F8880028B9002084F89A
:1059B0008400204600F026F82420C4F888002068DF
:1059C000A16A026822F00102026011B1204600F0D3
:1059D00053FF204601F0D0F910B1012010BD00BFE7
:1059E0002168486820F490404860886820F02A00C8
:1059F0008860086840F0010220460A60BDE8104057
:105A000000F0B0BF70B596B004466846043040213F
:105A1000FAF736FC206844F60001C4F2000188421F
:105A200002D016B070BD00BF042000906846FDF79C
:105A30002FFB002818BFFBF71BF841F24C00C4F203
:105A40000200C168002641F48021C160C16801F4F0
:105A5000802111911199016841F0020101600068F3
:105A600011A900F00200119011984FF440601190BC
:105A7000022012900720159040F20040C4F600006A
:105A8000CDE91366FCF7D2FF40F2BC150820C2F244
:105A90000005C4F202001D211022802385E8470082
:105AA0002846C5E90436C5E906662E62FCF74AFCBD
:105AB000002818BFFAF7DCFF272000210022E56745
:105AC000AC62FDF705F92720FDF7F0F816B070BDC0
:105AD000B0B50446D0F8880020281CBF0220B0BD15
